{
  "contractName": "AssignRole",
  "abi": [
    {
      "anonymous": false,
      "inputs": [
        {
          "indexed": false,
          "internalType": "string",
          "name": "",
          "type": "string"
        },
        {
          "indexed": false,
          "internalType": "address",
          "name": "",
          "type": "address"
        },
        {
          "indexed": false,
          "internalType": "uint256",
          "name": "",
          "type": "uint256"
        }
      ],
      "name": "User_Registration_Done",
      "type": "event"
    },
    {
      "inputs": [
        {
          "internalType": "address",
          "name": "",
          "type": "address"
        }
      ],
      "name": "RegisteredUsers",
      "outputs": [
        {
          "internalType": "uint256",
          "name": "",
          "type": "uint256"
        }
      ],
      "stateMutability": "view",
      "type": "function",
      "constant": true
    },
    {
      "inputs": [
        {
          "internalType": "address",
          "name": "",
          "type": "address"
        }
      ],
      "name": "Roles",
      "outputs": [
        {
          "internalType": "uint256",
          "name": "",
          "type": "uint256"
        }
      ],
      "stateMutability": "view",
      "type": "function",
      "constant": true
    },
    {
      "inputs": [
        {
          "internalType": "uint256",
          "name": "",
          "type": "uint256"
        }
      ],
      "name": "users",
      "outputs": [
        {
          "internalType": "address",
          "name": "",
          "type": "address"
        }
      ],
      "stateMutability": "view",
      "type": "function",
      "constant": true
    },
    {
      "inputs": [
        {
          "internalType": "address",
          "name": "user",
          "type": "address"
        }
      ],
      "name": "DoesUserExists",
      "outputs": [
        {
          "internalType": "bool",
          "name": "",
          "type": "bool"
        }
      ],
      "stateMutability": "view",
      "type": "function",
      "constant": true
    },
    {
      "inputs": [
        {
          "internalType": "string",
          "name": "designation",
          "type": "string"
        }
      ],
      "name": "setRole",
      "outputs": [],
      "stateMutability": "nonpayable",
      "type": "function"
    },
    {
      "inputs": [
        {
          "internalType": "address",
          "name": "user",
          "type": "address"
        }
      ],
      "name": "returnRole",
      "outputs": [
        {
          "internalType": "uint256",
          "name": "",
          "type": "uint256"
        }
      ],
      "stateMutability": "view",
      "type": "function",
      "constant": true
    },
    {
      "inputs": [
        {
          "internalType": "address",
          "name": "user",
          "type": "address"
        }
      ],
      "name": "publicDoesUserExists",
      "outputs": [
        {
          "internalType": "bool",
          "name": "",
          "type": "bool"
        }
      ],
      "stateMutability": "view",
      "type": "function",
      "constant": true
    }
  ],
  "bytecode": "0x608060405234801561001057600080fd5b50610c12806100206000396000f3fe608060405234801561001057600080fd5b506004361061007d5760003560e01c80634cc70a0f1161005b5780634cc70a0f146101125780638e0cfbc214610142578063d7149fcf1461015e578063fb5f5c571461018e5761007d565b806335e8acfb146100825780633646f329146100b2578063365b98b2146100e2575b600080fd5b61009c600480360381019061009791906106b8565b6101be565b6040516100a991906106fe565b60405180910390f35b6100cc60048036038101906100c791906106b8565b6101d6565b6040516100d99190610734565b60405180910390f35b6100fc60048036038101906100f7919061077b565b610221565b60405161010991906107b7565b60405180910390f35b61012c600480360381019061012791906106b8565b610260565b60405161013991906106fe565b60405180910390f35b61015c60048036038101906101579190610837565b6102f7565b005b610178600480360381019061017391906106b8565b610500565b60405161018591906106fe565b60405180910390f35b6101a860048036038101906101a391906106b8565b610518565b6040516101b59190610734565b60405180910390f35b60006020528060005260406000206000915090505481565b600060018060008473ffffffffffffffffffffffffffffffffffffffff1673ffffffffffffffffffffffffffffffffffffffff16815260200190815260200160002054149050919050565b6002818154811061023157600080fd5b906000526020600020016000915054906101000a900473ffffffffffffffffffffffffffffffffffffffff1681565b60006001151561026f836101d6565b1515146102b1576040517f08c379a00000000000000000000000000000000000000000000000000000000081526004016102a8906108e1565b60405180910390fd5b6000808373ffffffffffffffffffffffffffffffffffffffff1673ffffffffffffffffffffffffffffffffffffffff168152602001908152602001600020549050919050565b60001515610304336101d6565b151514610346576040517f08c379a000000000000000000000000000000000000000000000000000000000815260040161033d9061094d565b60405180910390fd5b6000610352838361052f565b11610392576040517f08c379a0000000000000000000000000000000000000000000000000000000008152600401610389906109b9565b60405180910390fd5b61039c828261052f565b6000803373ffffffffffffffffffffffffffffffffffffffff1673ffffffffffffffffffffffffffffffffffffffff1681526020019081526020016000208190555060018060003373ffffffffffffffffffffffffffffffffffffffff1673ffffffffffffffffffffffffffffffffffffffff168152602001908152602001600020819055506002339080600181540180825580915050600190039060005260206000200160009091909190916101000a81548173ffffffffffffffffffffffffffffffffffffffff021916908373ffffffffffffffffffffffffffffffffffffffff1602179055507f274e39729f96afa90e4cd7760ca70dd6edd7d41b90bb59076ccb90a2a5069759336000803373ffffffffffffffffffffffffffffffffffffffff1673ffffffffffffffffffffffffffffffffffffffff168152602001908152602001600020546040516104f4929190610a25565b60405180910390a15050565b60016020528060005260406000206000915090505481565b600080610524836101d6565b905080915050919050565b600060405160200161054090610ab8565b604051602081830303815290604052805190602001208383604051602001610569929190610b01565b604051602081830303815290604052805190602001200361058d576001905061064a565b60405160200161059c90610b66565b6040516020818303038152906040528051906020012083836040516020016105c5929190610b01565b60405160208183030381529060405280519060200120036105e9576004905061064a565b6040516020016105f890610bc7565b604051602081830303815290604052805190602001208383604051602001610621929190610b01565b6040516020818303038152906040528051906020012003610645576007905061064a565b600090505b92915050565b600080fd5b600080fd5b600073ffffffffffffffffffffffffffffffffffffffff82169050919050565b60006106858261065a565b9050919050565b6106958161067a565b81146106a057600080fd5b50565b6000813590506106b28161068c565b92915050565b6000602082840312156106ce576106cd610650565b5b60006106dc848285016106a3565b91505092915050565b6000819050919050565b6106f8816106e5565b82525050565b600060208201905061071360008301846106ef565b92915050565b60008115159050919050565b61072e81610719565b82525050565b60006020820190506107496000830184610725565b92915050565b610758816106e5565b811461076357600080fd5b50565b6000813590506107758161074f565b92915050565b60006020828403121561079157610790610650565b5b600061079f84828501610766565b91505092915050565b6107b18161067a565b82525050565b60006020820190506107cc60008301846107a8565b92915050565b600080fd5b600080fd5b600080fd5b60008083601f8401126107f7576107f66107d2565b5b8235905067ffffffffffffffff811115610814576108136107d7565b5b6020830191508360018202830111156108305761082f6107dc565b5b9250929050565b6000806020838503121561084e5761084d610650565b5b600083013567ffffffffffffffff81111561086c5761086b610655565b5b610878858286016107e1565b92509250509250929050565b600082825260208201905092915050565b7f55736572206973206e6f74207265676973746572656400000000000000000000600082015250565b60006108cb601683610884565b91506108d682610895565b602082019050919050565b600060208201905081810360008301526108fa816108be565b9050919050565b7f5573657220416c72656164792052656769737465726564000000000000000000600082015250565b6000610937601783610884565b915061094282610901565b602082019050919050565b600060208201905081810360008301526109668161092a565b9050919050565b7f496e76616c69642064657369676e6174696f6e00000000000000000000000000600082015250565b60006109a3601383610884565b91506109ae8261096d565b602082019050919050565b600060208201905081810360008301526109d281610996565b9050919050565b7f205573657220526567697374726174696f6e20436f6d706c6574656400000000600082015250565b6000610a0f601c83610884565b9150610a1a826109d9565b602082019050919050565b60006060820190508181036000830152610a3e81610a02565b9050610a4d60208301856107a8565b610a5a60408301846106ef565b9392505050565b600081905092915050565b7f4865616420496e76657374696761746f72000000000000000000000000000000600082015250565b6000610aa2601183610a61565b9150610aad82610a6c565b601182019050919050565b6000610ac382610a95565b9150819050919050565b82818337600083830152505050565b6000610ae88385610a61565b9350610af5838584610acd565b82840190509392505050565b6000610b0e828486610adc565b91508190509392505050565b7f4c65616420496e76657374696761746f72000000000000000000000000000000600082015250565b6000610b50601183610a61565b9150610b5b82610b1a565b601182019050919050565b6000610b7182610b43565b9150819050919050565b7f5465616d20496e76657374696761746f72000000000000000000000000000000600082015250565b6000610bb1601183610a61565b9150610bbc82610b7b565b601182019050919050565b6000610bd282610ba4565b915081905091905056fea26469706673582212206ecfed9cd3f8eb615a723b074698426f96339c631ab57304eac1a1c58340fba864736f6c634300080d0033",
  "immutableReferences": {},
  "source": "// SPDX-License-Identifier: MIT\r\npragma solidity ^0.8.9;\r\n\r\n///@title role assignment to user\r\ncontract AssignRole {\r\n    mapping(address => uint)  public Roles;  \r\n    mapping(address => uint) public RegisteredUsers;\r\n    address[] public users;\r\n    event User_Registration_Done(string, address, uint);\r\n    ///@notice returns level of integrity based on role of user\r\n    function getLevel(string calldata designation) internal pure returns (uint) {\r\n        if(keccak256(abi.encodePacked(designation)) == keccak256(abi.encodePacked(\"Head Investigator\"))) return 1;\r\n        else if (keccak256(abi.encodePacked(designation)) == keccak256(abi.encodePacked(\"Lead Investigator\"))) return 4;\r\n        else if (keccak256(abi.encodePacked(designation)) == keccak256(abi.encodePacked(\"Team Investigator\")))return 7;\r\n        return 0;}\r\n    ///@notice checks if user is already existing\r\n    function DoesUserExists(address user) public view returns (bool) {\r\n        return (RegisteredUsers[user] == 1);\r\n    }\r\n    ///@notice allows an user to create account and set role\r\n    function setRole(string calldata designation) public {\r\n        require(DoesUserExists(msg.sender) == false, \"User Already Registered\");\r\n        require(getLevel(designation) > 0, \"Invalid designation\");\r\n        Roles[msg.sender] = getLevel(designation);\r\n        RegisteredUsers[msg.sender] = 1;\r\n        users.push(msg.sender);\r\n        emit User_Registration_Done(\" User Registration Completed\",msg.sender,Roles[msg.sender]);\r\n    }\r\n\r\n    ///@notice returns role of an user \r\n    function returnRole(address user) public view returns (uint) {\r\n        require(DoesUserExists(user) == true, \"User is not registered\");\r\n        return Roles[user];\r\n    }\r\n    function publicDoesUserExists(address user) public view returns (bool) {\r\n        bool ans = DoesUserExists(user);\r\n        return (ans);\r\n    }\r\n}\r\n",
  "sourcePath": "C:\\Users\\baner\\OneDrive\\Desktop\\Leveraging-Blockchain-for-Auditable-Access-Control\\contracts\\AssignRole.sol",
  "compiler": {
    "name": "solc",
    "version": "0.8.13+commit.abaa5c0e.Emscripten.clang"
  },
  "schemaVersion": "3.4.16",
  "updatedAt": "2025-01-03T07:35:05.948Z",
  "networkType": "ethereum",
  "devdoc": {
    "kind": "dev",
    "methods": {},
    "title": "role assignment to user",
    "version": 1
  },
  "userdoc": {
    "kind": "user",
    "methods": {
      "DoesUserExists(address)": {
        "notice": "checks if user is already existing"
      },
      "returnRole(address)": {
        "notice": "returns role of an user "
      },
      "setRole(string)": {
        "notice": "allows an user to create account and set role"
      }
    },
    "version": 1
  }
}