{
  "contractName": "AssignRole",
  "abi": [
    {
      "inputs": [],
      "stateMutability": "nonpayable",
      "type": "constructor"
    },
    {
      "anonymous": false,
      "inputs": [
        {
          "indexed": false,
          "internalType": "string",
          "name": "",
          "type": "string"
        },
        {
          "indexed": false,
          "internalType": "address",
          "name": "",
          "type": "address"
        },
        {
          "indexed": false,
          "internalType": "uint256",
          "name": "",
          "type": "uint256"
        }
      ],
      "name": "UserRegistrationDone",
      "type": "event"
    },
    {
      "inputs": [
        {
          "internalType": "address",
          "name": "user",
          "type": "address"
        }
      ],
      "name": "DoesUserExists",
      "outputs": [
        {
          "internalType": "bool",
          "name": "",
          "type": "bool"
        }
      ],
      "stateMutability": "view",
      "type": "function",
      "constant": true
    },
    {
      "inputs": [
        {
          "internalType": "string",
          "name": "designation",
          "type": "string"
        },
        {
          "internalType": "address",
          "name": "user",
          "type": "address"
        }
      ],
      "name": "setRole",
      "outputs": [],
      "stateMutability": "nonpayable",
      "type": "function"
    },
    {
      "inputs": [
        {
          "internalType": "address",
          "name": "user",
          "type": "address"
        }
      ],
      "name": "returnRole",
      "outputs": [
        {
          "internalType": "uint256",
          "name": "",
          "type": "uint256"
        }
      ],
      "stateMutability": "view",
      "type": "function",
      "constant": true
    },
    {
      "inputs": [
        {
          "internalType": "string",
          "name": "desig",
          "type": "string"
        },
        {
          "internalType": "address",
          "name": "user",
          "type": "address"
        }
      ],
      "name": "publicsetRole",
      "outputs": [],
      "stateMutability": "nonpayable",
      "type": "function"
    },
    {
      "inputs": [
        {
          "internalType": "address",
          "name": "user",
          "type": "address"
        }
      ],
      "name": "publicreturnRole",
      "outputs": [
        {
          "internalType": "uint256",
          "name": "",
          "type": "uint256"
        }
      ],
      "stateMutability": "view",
      "type": "function",
      "constant": true
    },
    {
      "inputs": [
        {
          "internalType": "address",
          "name": "user",
          "type": "address"
        }
      ],
      "name": "publicDoesUserExists",
      "outputs": [
        {
          "internalType": "bool",
          "name": "",
          "type": "bool"
        }
      ],
      "stateMutability": "view",
      "type": "function",
      "constant": true
    }
  ],
  "bytecode": "0x608060405234801561001057600080fd5b5060016000604051610021906100d3565b9081526020016040518091039020819055506004600060405161004390610134565b9081526020016040518091039020819055506007600060405161006590610195565b9081526020016040518091039020819055506101aa565b600081905092915050565b7f4865616420496e76657374696761746f72000000000000000000000000000000600082015250565b60006100bd60118361007c565b91506100c882610087565b601182019050919050565b60006100de826100b0565b9150819050919050565b7f4c65616420496e76657374696761746f72000000000000000000000000000000600082015250565b600061011e60118361007c565b9150610129826100e8565b601182019050919050565b600061013f82610111565b9150819050919050565b7f5465616d20496e76657374696761746f72000000000000000000000000000000600082015250565b600061017f60118361007c565b915061018a82610149565b601182019050919050565b60006101a082610172565b9150819050919050565b6108a3806101b96000396000f3fe608060405234801561001057600080fd5b50600436106100625760003560e01c8063080e0519146100675780633646f329146100835780634cc70a0f146100b35780635ce7cd58146100e3578063cfde189014610113578063fb5f5c571461012f575b600080fd5b610081600480360381019061007c9190610532565b61015f565b005b61009d60048036038101906100989190610592565b61016f565b6040516100aa91906105da565b60405180910390f35b6100cd60048036038101906100c89190610592565b6101cb565b6040516100da919061060e565b60405180910390f35b6100fd60048036038101906100f89190610592565b610263565b60405161010a919061060e565b60405180910390f35b61012d60048036038101906101289190610532565b61027a565b005b61014960048036038101906101449190610592565b610424565b60405161015691906105da565b60405180910390f35b61016a83838361027a565b505050565b60006001600260008473ffffffffffffffffffffffffffffffffffffffff1673ffffffffffffffffffffffffffffffffffffffff16815260200190815260200160002054036101c157600190506101c6565b600090505b919050565b6000600115156101da8361016f565b15151461021c576040517f08c379a000000000000000000000000000000000000000000000000000000000815260040161021390610686565b60405180910390fd5b600160008373ffffffffffffffffffffffffffffffffffffffff1673ffffffffffffffffffffffffffffffffffffffff168152602001908152602001600020549050919050565b60008061026f836101cb565b905080915050919050565b600015156102878261016f565b1515146102c9576040517f08c379a00000000000000000000000000000000000000000000000000000000081526004016102c0906106f2565b60405180910390fd5b60006102d5848461043b565b11610315576040517f08c379a000000000000000000000000000000000000000000000000000000000815260040161030c9061075e565b60405180910390fd5b61031f838361043b565b600160008373ffffffffffffffffffffffffffffffffffffffff1673ffffffffffffffffffffffffffffffffffffffff168152602001908152602001600020819055506001600260008373ffffffffffffffffffffffffffffffffffffffff1673ffffffffffffffffffffffffffffffffffffffff168152602001908152602001600020819055507faa6d010bb351bc431c1230873f88f8f8b97c823fe65b1e102216919af719b1a281600160008473ffffffffffffffffffffffffffffffffffffffff1673ffffffffffffffffffffffffffffffffffffffff168152602001908152602001600020546040516104179291906107d9565b60405180910390a1505050565b6000806104308361016f565b905080915050919050565b600080838360405161044e929190610854565b908152602001604051809103902054905092915050565b600080fd5b600080fd5b600080fd5b600080fd5b600080fd5b60008083601f8401126104945761049361046f565b5b8235905067ffffffffffffffff8111156104b1576104b0610474565b5b6020830191508360018202830111156104cd576104cc610479565b5b9250929050565b600073ffffffffffffffffffffffffffffffffffffffff82169050919050565b60006104ff826104d4565b9050919050565b61050f816104f4565b811461051a57600080fd5b50565b60008135905061052c81610506565b92915050565b60008060006040848603121561054b5761054a610465565b5b600084013567ffffffffffffffff8111156105695761056861046a565b5b6105758682870161047e565b935093505060206105888682870161051d565b9150509250925092565b6000602082840312156105a8576105a7610465565b5b60006105b68482850161051d565b91505092915050565b60008115159050919050565b6105d4816105bf565b82525050565b60006020820190506105ef60008301846105cb565b92915050565b6000819050919050565b610608816105f5565b82525050565b600060208201905061062360008301846105ff565b92915050565b600082825260208201905092915050565b7f55736572206973206e6f74207265676973746572656400000000000000000000600082015250565b6000610670601683610629565b915061067b8261063a565b602082019050919050565b6000602082019050818103600083015261069f81610663565b9050919050565b7f5573657220416c72656164792052656769737465726564000000000000000000600082015250565b60006106dc601783610629565b91506106e7826106a6565b602082019050919050565b6000602082019050818103600083015261070b816106cf565b9050919050565b7f496e76616c69642064657369676e6174696f6e00000000000000000000000000600082015250565b6000610748601383610629565b915061075382610712565b602082019050919050565b600060208201905081810360008301526107778161073b565b9050919050565b7f205573657220526567697374726174696f6e20436f6d706c6574656400000000600082015250565b60006107b4601c83610629565b91506107bf8261077e565b602082019050919050565b6107d3816104f4565b82525050565b600060608201905081810360008301526107f2816107a7565b905061080160208301856107ca565b61080e60408301846105ff565b9392505050565b600081905092915050565b82818337600083830152505050565b600061083b8385610815565b9350610848838584610820565b82840190509392505050565b600061086182848661082f565b9150819050939250505056fea26469706673582212200a6daff7f2b51ee08f23906832dbe69eb1510ee173c9e61b65955b2c89fa7e7464736f6c634300080d0033",
  "immutableReferences": {},
  "source": "// SPDX-License-Identifier: MIT\r\npragma solidity ^0.8.9;\r\n\r\n///@title creation of user and role assignment\r\ncontract AssignRole {\r\n    mapping(string => uint)  Levels;\r\n    mapping(address => uint)  Roles; // each address will have a IG level storing is like address : Integrity Level \r\n    mapping(address => uint)  RegisteredUsers; // dynamic array of all registered users, to check whether they exists or not\r\n    event UserRegistrationDone(string, address, uint);\r\n    constructor() {\r\n        Levels[\"Head Investigator\"] = 1;\r\n        Levels[\"Lead Investigator\"] = 4;\r\n        Levels[\"Team Investigator\"] = 7;\r\n    }\r\n    ///@notice returns level of integrity based on role of user\r\n    function getLevel(string calldata designation) internal view returns (uint) {\r\n        return (Levels[designation]);}\r\n    ///@notice checks if user is already existing\r\n    function DoesUserExists(address user) public view returns (bool) {\r\n        if (RegisteredUsers[user] == 1) {\r\n            return true;}\r\n        return false;\r\n    }\r\n    ///@notice allows an user to create account and set role\r\n    function setRole(string calldata designation, address user) public {\r\n        require(DoesUserExists(user) == false, \"User Already Registered\");\r\n        require(getLevel(designation) > 0, \"Invalid designation\");\r\n        Roles[user] = getLevel(designation);\r\n        RegisteredUsers[user] = 1;\r\n        emit UserRegistrationDone(\" User Registration Completed\",user,Roles[user]);\r\n    }\r\n\r\n    ///@notice returns role of an user \r\n    function returnRole(address user) public view returns (uint) {\r\n        require(DoesUserExists(user) == true, \"User is not registered\");\r\n        return Roles[user];\r\n    }\r\n    \r\n    ///@notice an interface functions used to call internal functions\r\n    function publicsetRole(string calldata desig, address user) public {\r\n        setRole(desig, user);\r\n    }\r\n    function publicreturnRole(address user) public view returns (uint) {\r\n        uint ans = returnRole(user);\r\n        return (ans);\r\n    }\r\n    function publicDoesUserExists(address user) public view returns (bool) {\r\n        bool ans = DoesUserExists(user);\r\n        return (ans);\r\n    }\r\n}\r\n",
  "sourcePath": "C:\\Users\\shrey\\repo2\\contracts\\AssignRole.sol",
  "compiler": {
    "name": "solc",
    "version": "0.8.13+commit.abaa5c0e.Emscripten.clang"
  },
  "schemaVersion": "3.4.16",
  "updatedAt": "2024-12-18T10:49:30.886Z",
  "networkType": "ethereum",
  "devdoc": {
    "kind": "dev",
    "methods": {},
    "title": "creation of user and role assignment",
    "version": 1
  },
  "userdoc": {
    "kind": "user",
    "methods": {
      "DoesUserExists(address)": {
        "notice": "checks if user is already existing"
      },
      "publicsetRole(string,address)": {
        "notice": "an interface functions used to call internal functions"
      },
      "returnRole(address)": {
        "notice": "returns role of an user "
      },
      "setRole(string,address)": {
        "notice": "allows an user to create account and set role"
      }
    },
    "version": 1
  }
}