{
  "contractName": "BibaAppend",
  "abi": [
    {
      "anonymous": false,
      "inputs": [
        {
          "indexed": false,
          "internalType": "string",
          "name": "",
          "type": "string"
        },
        {
          "indexed": false,
          "internalType": "address",
          "name": "",
          "type": "address"
        },
        {
          "indexed": false,
          "internalType": "string",
          "name": "",
          "type": "string"
        },
        {
          "indexed": false,
          "internalType": "bytes32",
          "name": "",
          "type": "bytes32"
        }
      ],
      "name": "Append_Allowed",
      "type": "event"
    },
    {
      "anonymous": false,
      "inputs": [
        {
          "indexed": false,
          "internalType": "string",
          "name": "",
          "type": "string"
        },
        {
          "indexed": false,
          "internalType": "address",
          "name": "",
          "type": "address"
        },
        {
          "indexed": false,
          "internalType": "string",
          "name": "",
          "type": "string"
        },
        {
          "indexed": false,
          "internalType": "uint256",
          "name": "",
          "type": "uint256"
        }
      ],
      "name": "Can_Register_Evidence",
      "type": "event"
    },
    {
      "anonymous": false,
      "inputs": [
        {
          "indexed": false,
          "internalType": "string",
          "name": "",
          "type": "string"
        },
        {
          "indexed": false,
          "internalType": "uint256",
          "name": "",
          "type": "uint256"
        },
        {
          "indexed": false,
          "internalType": "string",
          "name": "",
          "type": "string"
        },
        {
          "indexed": false,
          "internalType": "address",
          "name": "",
          "type": "address"
        }
      ],
      "name": "Case_Registration_Done",
      "type": "event"
    },
    {
      "anonymous": false,
      "inputs": [
        {
          "indexed": false,
          "internalType": "string",
          "name": "",
          "type": "string"
        },
        {
          "indexed": false,
          "internalType": "bytes32",
          "name": "",
          "type": "bytes32"
        },
        {
          "indexed": false,
          "internalType": "string",
          "name": "",
          "type": "string"
        },
        {
          "indexed": false,
          "internalType": "uint256",
          "name": "",
          "type": "uint256"
        }
      ],
      "name": "Evidence_Assigned_Level",
      "type": "event"
    },
    {
      "anonymous": false,
      "inputs": [
        {
          "indexed": false,
          "internalType": "string",
          "name": "",
          "type": "string"
        },
        {
          "indexed": false,
          "internalType": "address",
          "name": "",
          "type": "address"
        },
        {
          "indexed": false,
          "internalType": "string",
          "name": "",
          "type": "string"
        },
        {
          "indexed": false,
          "internalType": "bytes32",
          "name": "",
          "type": "bytes32"
        }
      ],
      "name": "Evidence_Registered",
      "type": "event"
    },
    {
      "anonymous": false,
      "inputs": [
        {
          "indexed": false,
          "internalType": "string",
          "name": "",
          "type": "string"
        },
        {
          "indexed": false,
          "internalType": "address",
          "name": "",
          "type": "address"
        },
        {
          "indexed": false,
          "internalType": "string",
          "name": "",
          "type": "string"
        },
        {
          "indexed": false,
          "internalType": "uint256",
          "name": "",
          "type": "uint256"
        }
      ],
      "name": "Investigator_Added",
      "type": "event"
    },
    {
      "anonymous": false,
      "inputs": [
        {
          "indexed": false,
          "internalType": "string",
          "name": "",
          "type": "string"
        },
        {
          "indexed": false,
          "internalType": "address",
          "name": "",
          "type": "address"
        },
        {
          "indexed": false,
          "internalType": "string",
          "name": "",
          "type": "string"
        },
        {
          "indexed": false,
          "internalType": "uint256",
          "name": "",
          "type": "uint256"
        }
      ],
      "name": "Investigator_Removed",
      "type": "event"
    },
    {
      "anonymous": false,
      "inputs": [
        {
          "indexed": false,
          "internalType": "string",
          "name": "",
          "type": "string"
        },
        {
          "indexed": false,
          "internalType": "address",
          "name": "",
          "type": "address"
        },
        {
          "indexed": false,
          "internalType": "string",
          "name": "",
          "type": "string"
        },
        {
          "indexed": false,
          "internalType": "bytes32",
          "name": "",
          "type": "bytes32"
        }
      ],
      "name": "Read_Allowed",
      "type": "event"
    },
    {
      "anonymous": false,
      "inputs": [
        {
          "indexed": false,
          "internalType": "string",
          "name": "",
          "type": "string"
        },
        {
          "indexed": false,
          "internalType": "address",
          "name": "",
          "type": "address"
        },
        {
          "indexed": false,
          "internalType": "uint256",
          "name": "",
          "type": "uint256"
        }
      ],
      "name": "User_Registration_Done",
      "type": "event"
    },
    {
      "inputs": [
        {
          "internalType": "address",
          "name": "user",
          "type": "address"
        }
      ],
      "name": "DoesUserExists",
      "outputs": [
        {
          "internalType": "bool",
          "name": "",
          "type": "bool"
        }
      ],
      "stateMutability": "view",
      "type": "function",
      "constant": true
    },
    {
      "inputs": [
        {
          "internalType": "address",
          "name": "",
          "type": "address"
        }
      ],
      "name": "RegisteredUsers",
      "outputs": [
        {
          "internalType": "uint256",
          "name": "",
          "type": "uint256"
        }
      ],
      "stateMutability": "view",
      "type": "function",
      "constant": true
    },
    {
      "inputs": [
        {
          "internalType": "address",
          "name": "",
          "type": "address"
        }
      ],
      "name": "Roles",
      "outputs": [
        {
          "internalType": "uint256",
          "name": "",
          "type": "uint256"
        }
      ],
      "stateMutability": "view",
      "type": "function",
      "constant": true
    },
    {
      "inputs": [
        {
          "internalType": "uint256",
          "name": "case_num",
          "type": "uint256"
        },
        {
          "internalType": "address",
          "name": "user",
          "type": "address"
        },
        {
          "internalType": "string",
          "name": "CID",
          "type": "string"
        }
      ],
      "name": "add_evidence",
      "outputs": [
        {
          "internalType": "string",
          "name": "",
          "type": "string"
        }
      ],
      "stateMutability": "nonpayable",
      "type": "function"
    },
    {
      "inputs": [
        {
          "internalType": "address",
          "name": "inv",
          "type": "address"
        },
        {
          "internalType": "uint256",
          "name": "num",
          "type": "uint256"
        }
      ],
      "name": "add_investigator",
      "outputs": [],
      "stateMutability": "payable",
      "type": "function",
      "payable": true
    },
    {
      "inputs": [
        {
          "internalType": "uint256",
          "name": "case_num",
          "type": "uint256"
        },
        {
          "internalType": "string",
          "name": "key",
          "type": "string"
        },
        {
          "internalType": "uint256",
          "name": "level",
          "type": "uint256"
        }
      ],
      "name": "assign_inl",
      "outputs": [],
      "stateMutability": "payable",
      "type": "function",
      "payable": true
    },
    {
      "inputs": [
        {
          "internalType": "uint256",
          "name": "case_number",
          "type": "uint256"
        },
        {
          "internalType": "bytes32",
          "name": "AESkey",
          "type": "bytes32"
        }
      ],
      "name": "create_case",
      "outputs": [],
      "stateMutability": "payable",
      "type": "function",
      "payable": true
    },
    {
      "inputs": [
        {
          "internalType": "uint256",
          "name": "num",
          "type": "uint256"
        }
      ],
      "name": "does_case_exists",
      "outputs": [
        {
          "internalType": "bool",
          "name": "",
          "type": "bool"
        }
      ],
      "stateMutability": "view",
      "type": "function",
      "constant": true
    },
    {
      "inputs": [
        {
          "internalType": "uint256",
          "name": "case_number",
          "type": "uint256"
        },
        {
          "internalType": "string",
          "name": "key",
          "type": "string"
        }
      ],
      "name": "does_evidence_exists",
      "outputs": [
        {
          "internalType": "bool",
          "name": "",
          "type": "bool"
        }
      ],
      "stateMutability": "view",
      "type": "function",
      "constant": true
    },
    {
      "inputs": [
        {
          "internalType": "uint256",
          "name": "case_num",
          "type": "uint256"
        }
      ],
      "name": "does_key_Exists",
      "outputs": [
        {
          "internalType": "bool",
          "name": "",
          "type": "bool"
        }
      ],
      "stateMutability": "view",
      "type": "function",
      "constant": true
    },
    {
      "inputs": [
        {
          "internalType": "address",
          "name": "user",
          "type": "address"
        },
        {
          "internalType": "uint256",
          "name": "number",
          "type": "uint256"
        }
      ],
      "name": "is_authorized",
      "outputs": [
        {
          "internalType": "bool",
          "name": "",
          "type": "bool"
        }
      ],
      "stateMutability": "view",
      "type": "function",
      "constant": true
    },
    {
      "inputs": [
        {
          "internalType": "uint256",
          "name": "case_number",
          "type": "uint256"
        },
        {
          "internalType": "string",
          "name": "key",
          "type": "string"
        }
      ],
      "name": "is_level_assigned",
      "outputs": [
        {
          "internalType": "bool",
          "name": "",
          "type": "bool"
        }
      ],
      "stateMutability": "view",
      "type": "function",
      "constant": true
    },
    {
      "inputs": [
        {
          "internalType": "address",
          "name": "user",
          "type": "address"
        }
      ],
      "name": "publicDoesUserExists",
      "outputs": [
        {
          "internalType": "bool",
          "name": "",
          "type": "bool"
        }
      ],
      "stateMutability": "view",
      "type": "function",
      "constant": true
    },
    {
      "inputs": [
        {
          "internalType": "uint256",
          "name": "case_num",
          "type": "uint256"
        }
      ],
      "name": "register_evi",
      "outputs": [
        {
          "internalType": "bool",
          "name": "",
          "type": "bool"
        }
      ],
      "stateMutability": "payable",
      "type": "function",
      "payable": true
    },
    {
      "inputs": [
        {
          "internalType": "uint256",
          "name": "case_number",
          "type": "uint256"
        },
        {
          "internalType": "address",
          "name": "inv",
          "type": "address"
        }
      ],
      "name": "remove_investigator",
      "outputs": [],
      "stateMutability": "payable",
      "type": "function",
      "payable": true
    },
    {
      "inputs": [
        {
          "internalType": "uint256",
          "name": "case_num",
          "type": "uint256"
        }
      ],
      "name": "returnAESkey",
      "outputs": [
        {
          "internalType": "bytes32",
          "name": "",
          "type": "bytes32"
        }
      ],
      "stateMutability": "view",
      "type": "function",
      "constant": true
    },
    {
      "inputs": [
        {
          "internalType": "uint256",
          "name": "case_number",
          "type": "uint256"
        }
      ],
      "name": "returnHI",
      "outputs": [
        {
          "internalType": "address",
          "name": "",
          "type": "address"
        }
      ],
      "stateMutability": "payable",
      "type": "function",
      "payable": true
    },
    {
      "inputs": [
        {
          "internalType": "address",
          "name": "user",
          "type": "address"
        }
      ],
      "name": "returnRole",
      "outputs": [
        {
          "internalType": "uint256",
          "name": "",
          "type": "uint256"
        }
      ],
      "stateMutability": "view",
      "type": "function",
      "constant": true
    },
    {
      "inputs": [
        {
          "internalType": "uint256",
          "name": "case_num",
          "type": "uint256"
        },
        {
          "internalType": "string",
          "name": "key",
          "type": "string"
        }
      ],
      "name": "return_level",
      "outputs": [
        {
          "internalType": "uint256",
          "name": "",
          "type": "uint256"
        }
      ],
      "stateMutability": "view",
      "type": "function",
      "constant": true
    },
    {
      "inputs": [
        {
          "internalType": "string",
          "name": "designation",
          "type": "string"
        }
      ],
      "name": "setRole",
      "outputs": [],
      "stateMutability": "nonpayable",
      "type": "function"
    },
    {
      "inputs": [
        {
          "internalType": "uint256",
          "name": "",
          "type": "uint256"
        }
      ],
      "name": "users",
      "outputs": [
        {
          "internalType": "address",
          "name": "",
          "type": "address"
        }
      ],
      "stateMutability": "view",
      "type": "function",
      "constant": true
    },
    {
      "inputs": [
        {
          "internalType": "string",
          "name": "key",
          "type": "string"
        },
        {
          "internalType": "uint256",
          "name": "case_num",
          "type": "uint256"
        }
      ],
      "name": "append_allowed",
      "outputs": [
        {
          "internalType": "bool",
          "name": "",
          "type": "bool"
        }
      ],
      "stateMutability": "view",
      "type": "function",
      "constant": true
    },
    {
      "inputs": [
        {
          "internalType": "string",
          "name": "cid",
          "type": "string"
        },
        {
          "internalType": "string",
          "name": "key",
          "type": "string"
        }
      ],
      "name": "tracker",
      "outputs": [],
      "stateMutability": "payable",
      "type": "function",
      "payable": true
    },
    {
      "inputs": [
        {
          "internalType": "string",
          "name": "key",
          "type": "string"
        },
        {
          "internalType": "uint256",
          "name": "case_num",
          "type": "uint256"
        }
      ],
      "name": "read_allowed",
      "outputs": [
        {
          "internalType": "bool",
          "name": "",
          "type": "bool"
        }
      ],
      "stateMutability": "nonpayable",
      "type": "function"
    }
  ],
  "bytecode": "0x608060405234801561001057600080fd5b5061309c806100206000396000f3fe60806040526004361061014b5760003560e01c806364093834116100b65780639ff390331161006f5780639ff39033146104c7578063b929a09214610504578063d7149fcf14610541578063e3df201f1461057e578063f0c348e8146105bb578063fb5f5c57146105f85761014b565b806364093834146103dd5780636cad4fa6146103f957806374bab760146104155780638e0cfbc2146104455780639026441b1461046e5780639d30adf6146104ab5761014b565b8063365b98b211610108578063365b98b21461029d57806338d6bd22146102da57806349db239e146103175780634a464452146103475780634cc70a0f1461036357806359ea8ddd146103a05761014b565b8063027a65c21461015057806309ef6ff51461016c57806312c85fde146101a95780632691297d146101e657806335e8acfb146102235780633646f32914610260575b600080fd5b61016a60048036038101906101659190611a38565b610635565b005b34801561017857600080fd5b50610193600480360381019061018e9190611aa7565b6107aa565b6040516101a09190611b1e565b60405180910390f35b3480156101b557600080fd5b506101d060048036038101906101cb9190611aa7565b610800565b6040516101dd9190611b1e565b60405180910390f35b3480156101f257600080fd5b5061020d60048036038101906102089190611b39565b610882565b60405161021a9190611b7f565b60405180910390f35b34801561022f57600080fd5b5061024a60048036038101906102459190611bf8565b6108a7565b6040516102579190611c34565b60405180910390f35b34801561026c57600080fd5b5061028760048036038101906102829190611bf8565b6108bf565b6040516102949190611b1e565b60405180910390f35b3480156102a957600080fd5b506102c460048036038101906102bf9190611b39565b61090a565b6040516102d19190611c5e565b60405180910390f35b3480156102e657600080fd5b5061030160048036038101906102fc9190611c79565b610949565b60405161030e9190611b1e565b60405180910390f35b610331600480360381019061032c9190611b39565b610992565b60405161033e9190611b1e565b60405180910390f35b610361600480360381019061035c9190611d01565b610a75565b005b34801561036f57600080fd5b5061038a60048036038101906103859190611bf8565b610ce3565b6040516103979190611c34565b60405180910390f35b3480156103ac57600080fd5b506103c760048036038101906103c29190611d41565b610d7a565b6040516103d49190611b1e565b60405180910390f35b6103f760048036038101906103f29190611d81565b610df1565b005b610413600480360381019061040e9190611d41565b610e8d565b005b61042f600480360381019061042a9190611b39565b610f29565b60405161043c9190611c5e565b60405180910390f35b34801561045157600080fd5b5061046c60048036038101906104679190611e21565b610f66565b005b34801561047a57600080fd5b5061049560048036038101906104909190611e6e565b61116f565b6040516104a29190611f65565b60405180910390f35b6104c560048036038101906104c09190611f87565b61123a565b005b3480156104d357600080fd5b506104ee60048036038101906104e99190611b39565b61132a565b6040516104fb9190611b1e565b60405180910390f35b34801561051057600080fd5b5061052b60048036038101906105269190611b39565b611393565b6040516105389190611b1e565b60405180910390f35b34801561054d57600080fd5b5061056860048036038101906105639190611bf8565b6113b3565b6040516105759190611c34565b60405180910390f35b34801561058a57600080fd5b506105a560048036038101906105a09190611aa7565b6113cb565b6040516105b29190611c34565b60405180910390f35b3480156105c757600080fd5b506105e260048036038101906105dd9190611c79565b611465565b6040516105ef9190611b1e565b60405180910390f35b34801561060457600080fd5b5061061f600480360381019061061a9190611bf8565b6115d8565b60405161062c9190611b1e565b60405180910390f35b3373ffffffffffffffffffffffffffffffffffffffff1661065584610f29565b73ffffffffffffffffffffffffffffffffffffffff16146106ab576040517f08c379a00000000000000000000000000000000000000000000000000000000081526004016106a290612071565b60405180910390fd5b600115156106b884611393565b1515146106fa576040517f08c379a00000000000000000000000000000000000000000000000000000000081526004016106f1906120dd565b60405180910390fd5b600115156107088484610800565b15151461074a576040517f08c379a000000000000000000000000000000000000000000000000000000000815260040161074190612149565b60405180910390fd5b6000151561075884846107aa565b15151461079a576040517f08c379a0000000000000000000000000000000000000000000000000000000008152600401610791906121b5565b60405180910390fd5b6107a58284836115ef565b505050565b600080600560008581526020019081526020016000209050600181600201846040516107d69190612211565b908152602001604051809103902054036107f45760009150506107fa565b60019150505b92915050565b6000806005600085815260200190815260200160002090506000816001018460405161082c9190612211565b90815260200160405180910390205411806108675750600081600201846040516108569190612211565b908152602001604051809103902054115b1561087657600191505061087c565b60009150505b92915050565b6000806005600084815260200190815260200160002090508060040154915050919050565b60006020528060005260406000206000915090505481565b600060018060008473ffffffffffffffffffffffffffffffffffffffff1673ffffffffffffffffffffffffffffffffffffffff16815260200190815260200160002054149050919050565b6002818154811061091a57600080fd5b906000526020600020016000915054906101000a900473ffffffffffffffffffffffffffffffffffffffff1681565b60008015156109583384610d7a565b151503610968576000905061098c565b600061097483856113cb565b9050600061098133610ce3565b905081811015925050505b92915050565b6000600115156109a183611393565b1515146109e3576040517f08c379a00000000000000000000000000000000000000000000000000000000081526004016109da906120dd565b60405180910390fd5b600115156109f13384610d7a565b151514610a33576040517f08c379a0000000000000000000000000000000000000000000000000000000008152600401610a2a9061229a565b60405180910390fd5b7f261ce7c38790c85b4a1dfef920ecc84564c55d65d6b9f161bbc2b7e88b3cae8a3383604051610a64929190612352565b60405180910390a160019050919050565b60018060003373ffffffffffffffffffffffffffffffffffffffff1673ffffffffffffffffffffffffffffffffffffffff1681526020019081526020016000205414610af6576040517f08c379a0000000000000000000000000000000000000000000000000000000008152600401610aed906123ed565b60405180910390fd5b60001515610b0383611393565b151514610b45576040517f08c379a0000000000000000000000000000000000000000000000000000000008152600401610b3c90612459565b60405180910390fd5b6001610b5033610ce3565b14610b90576040517f08c379a0000000000000000000000000000000000000000000000000000000008152600401610b87906124eb565b60405180910390fd5b6000600560008481526020019081526020016000209050338160050160006101000a81548173ffffffffffffffffffffffffffffffffffffffff021916908373ffffffffffffffffffffffffffffffffffffffff16021790555060018160030160003373ffffffffffffffffffffffffffffffffffffffff1673ffffffffffffffffffffffffffffffffffffffff1681526020019081526020016000208190555081816004018190555060016003600085815260200190815260200160002081905550336004600085815260200190815260200160002060006101000a81548173ffffffffffffffffffffffffffffffffffffffff021916908373ffffffffffffffffffffffffffffffffffffffff1602179055507f812b9c2f922dcc6f80d37fffa8e1ccd8808d40527065f721a20278c18048f8528333604051610cd69291906125a3565b60405180910390a1505050565b600060011515610cf2836108bf565b151514610d34576040517f08c379a0000000000000000000000000000000000000000000000000000000008152600401610d2b906123ed565b60405180910390fd5b6000808373ffffffffffffffffffffffffffffffffffffffff1673ffffffffffffffffffffffffffffffffffffffff168152602001908152602001600020549050919050565b60008060056000848152602001908152602001600020905060018160030160008673ffffffffffffffffffffffffffffffffffffffff1673ffffffffffffffffffffffffffffffffffffffff1681526020019081526020016000205403610de5576001915050610deb565b60009150505b92915050565b600060056000848152602001908152602001600020905060008160030160008473ffffffffffffffffffffffffffffffffffffffff1673ffffffffffffffffffffffffffffffffffffffff168152602001908152602001600020819055507fbd560c5f6a6c0cb78e81d1c6db70d02a53d1ba488d7bdbca302a2ff0610c0dd78284604051610e8092919061268a565b60405180910390a1505050565b600060056000838152602001908152602001600020905060018160030160008573ffffffffffffffffffffffffffffffffffffffff1673ffffffffffffffffffffffffffffffffffffffff168152602001908152602001600020819055507f7dbf564e3f3130fe13f3a9275adb3f31356aa64c6eb75e4790ab60c5dff962e28383604051610f1c929190612771565b60405180910390a1505050565b60006004600083815260200190815260200160002060009054906101000a900473ffffffffffffffffffffffffffffffffffffffff169050919050565b60001515610f73336108bf565b151514610fb5576040517f08c379a0000000000000000000000000000000000000000000000000000000008152600401610fac9061280c565b60405180910390fd5b6000610fc183836116bc565b11611001576040517f08c379a0000000000000000000000000000000000000000000000000000000008152600401610ff890612878565b60405180910390fd5b61100b82826116bc565b6000803373ffffffffffffffffffffffffffffffffffffffff1673ffffffffffffffffffffffffffffffffffffffff1681526020019081526020016000208190555060018060003373ffffffffffffffffffffffffffffffffffffffff1673ffffffffffffffffffffffffffffffffffffffff168152602001908152602001600020819055506002339080600181540180825580915050600190039060005260206000200160009091909190916101000a81548173ffffffffffffffffffffffffffffffffffffffff021916908373ffffffffffffffffffffffffffffffffffffffff1602179055507f274e39729f96afa90e4cd7760ca70dd6edd7d41b90bb59076ccb90a2a5069759336000803373ffffffffffffffffffffffffffffffffffffffff1673ffffffffffffffffffffffffffffffffffffffff168152602001908152602001600020546040516111639291906128e4565b60405180910390a15050565b60606000826040516020016111849190612211565b6040516020818303038152906040528051906020012090506000600560008781526020019081526020016000209050600181600201856040516111c79190612211565b90815260200160405180910390208190555060018160060160008282546111ee919061294f565b925050819055507fa05eb6d2840dde95e7d42945d898b9bfb7f553e709ea87aa35e2916066680a7085836040516112269291906129f1565b60405180910390a183925050509392505050565b6000611245826117dd565b90506000600182611256919061294f565b9050806007846040516112699190612211565b9081526020016040518091039020819055508360068460405161128c9190612211565b9081526020016040518091039020600083815260200190815260200160002090805190602001906112be929190611805565b506000836040516020016112d29190612211565b6040516020818303038152906040528051906020012090507f9b51ec651db54d7e84b7d2aafb589865039cd3b60475fb1b4f018f12e56e1cdf338260405161131b929190612a8c565b60405180910390a15050505050565b6000806005600084815260200190815260200160002090506000602060ff1611611389576040517f08c379a000000000000000000000000000000000000000000000000000000000815260040161138090612b27565b60405180910390fd5b6001915050919050565b600060016003600084815260200190815260200160002054149050919050565b60016020528060005260406000206000915090505481565b6000600115156113da84611393565b15151480156113f65750600115156113f28484610800565b1515145b801561140f57506001151561140b84846107aa565b1515145b1561145a5760006005600085815260200190815260200160002090506000816001018460405161143f9190612211565b9081526020016040518091039020549050809250505061145f565b600090505b92915050565b6000600115156114753384610d7a565b1515146114b7576040517f08c379a00000000000000000000000000000000000000000000000000000000081526004016114ae90612bb9565b60405180910390fd5b600115156114c583856107aa565b151514611507576040517f08c379a00000000000000000000000000000000000000000000000000000000081526004016114fe90612c71565b60405180910390fd5b600061151383856113cb565b9050600061152033610ce3565b905081811115611565576040517f08c379a000000000000000000000000000000000000000000000000000000000815260040161155c90612d03565b60405180910390fd5b6000856040516020016115789190612211565b6040516020818303038152906040528051906020012090507f672b7b8c01dff9329a7fae21f44ce0aec7fc2815f671ed8c85fb1fadd14a6bc433826040516115c1929190612d6f565b60405180910390a182821115935050505092915050565b6000806115e4836108bf565b905080915050919050565b60006005600084815260200190815260200160002090508181600101856040516116199190612211565b9081526020016040518091039020819055506000816002018560405161163f9190612211565b9081526020016040518091039020819055506000846040516020016116649190612211565b6040516020818303038152906040528051906020012090507f416859376e19e508ba644b7c5ddf5aa018f87fca8e1433b62790c576f5ed2f0081846040516116ad929190612e56565b60405180910390a15050505050565b60006040516020016116cd90612ef1565b6040516020818303038152906040528051906020012083836040516020016116f6929190612f2b565b604051602081830303815290604052805190602001200361171a57600190506117d7565b60405160200161172990612f90565b604051602081830303815290604052805190602001208383604051602001611752929190612f2b565b604051602081830303815290604052805190602001200361177657600490506117d7565b60405160200161178590612ff1565b6040516020818303038152906040528051906020012083836040516020016117ae929190612f2b565b60405160208183030381529060405280519060200120036117d257600790506117d7565b600090505b92915050565b60006007826040516117ef9190612211565b9081526020016040518091039020549050919050565b82805461181190613035565b90600052602060002090601f016020900481019282611833576000855561187a565b82601f1061184c57805160ff191683800117855561187a565b8280016001018555821561187a579182015b8281111561187957825182559160200191906001019061185e565b5b509050611887919061188b565b5090565b5b808211156118a457600081600090555060010161188c565b5090565b6000604051905090565b600080fd5b600080fd5b6000819050919050565b6118cf816118bc565b81146118da57600080fd5b50565b6000813590506118ec816118c6565b92915050565b600080fd5b600080fd5b6000601f19601f8301169050919050565b7f4e487b7100000000000000000000000000000000000000000000000000000000600052604160045260246000fd5b611945826118fc565b810181811067ffffffffffffffff821117156119645761196361190d565b5b80604052505050565b60006119776118a8565b9050611983828261193c565b919050565b600067ffffffffffffffff8211156119a3576119a261190d565b5b6119ac826118fc565b9050602081019050919050565b82818337600083830152505050565b60006119db6119d684611988565b61196d565b9050828152602081018484840111156119f7576119f66118f7565b5b611a028482856119b9565b509392505050565b600082601f830112611a1f57611a1e6118f2565b5b8135611a2f8482602086016119c8565b91505092915050565b600080600060608486031215611a5157611a506118b2565b5b6000611a5f868287016118dd565b935050602084013567ffffffffffffffff811115611a8057611a7f6118b7565b5b611a8c86828701611a0a565b9250506040611a9d868287016118dd565b9150509250925092565b60008060408385031215611abe57611abd6118b2565b5b6000611acc858286016118dd565b925050602083013567ffffffffffffffff811115611aed57611aec6118b7565b5b611af985828601611a0a565b9150509250929050565b60008115159050919050565b611b1881611b03565b82525050565b6000602082019050611b336000830184611b0f565b92915050565b600060208284031215611b4f57611b4e6118b2565b5b6000611b5d848285016118dd565b91505092915050565b6000819050919050565b611b7981611b66565b82525050565b6000602082019050611b946000830184611b70565b92915050565b600073ffffffffffffffffffffffffffffffffffffffff82169050919050565b6000611bc582611b9a565b9050919050565b611bd581611bba565b8114611be057600080fd5b50565b600081359050611bf281611bcc565b92915050565b600060208284031215611c0e57611c0d6118b2565b5b6000611c1c84828501611be3565b91505092915050565b611c2e816118bc565b82525050565b6000602082019050611c496000830184611c25565b92915050565b611c5881611bba565b82525050565b6000602082019050611c736000830184611c4f565b92915050565b60008060408385031215611c9057611c8f6118b2565b5b600083013567ffffffffffffffff811115611cae57611cad6118b7565b5b611cba85828601611a0a565b9250506020611ccb858286016118dd565b9150509250929050565b611cde81611b66565b8114611ce957600080fd5b50565b600081359050611cfb81611cd5565b92915050565b60008060408385031215611d1857611d176118b2565b5b6000611d26858286016118dd565b9250506020611d3785828601611cec565b9150509250929050565b60008060408385031215611d5857611d576118b2565b5b6000611d6685828601611be3565b9250506020611d77858286016118dd565b9150509250929050565b60008060408385031215611d9857611d976118b2565b5b6000611da6858286016118dd565b9250506020611db785828601611be3565b9150509250929050565b600080fd5b600080fd5b60008083601f840112611de157611de06118f2565b5b8235905067ffffffffffffffff811115611dfe57611dfd611dc1565b5b602083019150836001820283011115611e1a57611e19611dc6565b5b9250929050565b60008060208385031215611e3857611e376118b2565b5b600083013567ffffffffffffffff811115611e5657611e556118b7565b5b611e6285828601611dcb565b92509250509250929050565b600080600060608486031215611e8757611e866118b2565b5b6000611e95868287016118dd565b9350506020611ea686828701611be3565b925050604084013567ffffffffffffffff811115611ec757611ec66118b7565b5b611ed386828701611a0a565b9150509250925092565b600081519050919050565b600082825260208201905092915050565b60005b83811015611f17578082015181840152602081019050611efc565b83811115611f26576000848401525b50505050565b6000611f3782611edd565b611f418185611ee8565b9350611f51818560208601611ef9565b611f5a816118fc565b840191505092915050565b60006020820190508181036000830152611f7f8184611f2c565b905092915050565b60008060408385031215611f9e57611f9d6118b2565b5b600083013567ffffffffffffffff811115611fbc57611fbb6118b7565b5b611fc885828601611a0a565b925050602083013567ffffffffffffffff811115611fe957611fe86118b7565b5b611ff585828601611a0a565b9150509250929050565b7f4f6e6c79204865616420496e76657374696761746f722063616e20617373696760008201527f6e206c6576656c20746f2065766964656e636500000000000000000000000000602082015250565b600061205b603383611ee8565b915061206682611fff565b604082019050919050565b6000602082019050818103600083015261208a8161204e565b9050919050565b7f4361736520646f6573206e6f7420657869737473000000000000000000000000600082015250565b60006120c7601483611ee8565b91506120d282612091565b602082019050919050565b600060208201905081810360008301526120f6816120ba565b9050919050565b7f45766964656e636520646f6573206e6f74206578697374730000000000000000600082015250565b6000612133601883611ee8565b915061213e826120fd565b602082019050919050565b6000602082019050818103600083015261216281612126565b9050919050565b7f4c6576656c2061737369676e6564000000000000000000000000000000000000600082015250565b600061219f600e83611ee8565b91506121aa82612169565b602082019050919050565b600060208201905081810360008301526121ce81612192565b9050919050565b600081905092915050565b60006121eb82611edd565b6121f581856121d5565b9350612205818560208601611ef9565b80840191505092915050565b600061221d82846121e0565b915081905092915050565b7f55736572206e6f7420617574686f726973656420746f2061646420657669646560008201527f6e636520746f2063617365000000000000000000000000000000000000000000602082015250565b6000612284602b83611ee8565b915061228f82612228565b604082019050919050565b600060208201905081810360008301526122b381612277565b9050919050565b7f5573657200000000000000000000000000000000000000000000000000000000600082015250565b60006122f0600483611ee8565b91506122fb826122ba565b602082019050919050565b7f2063616e2072656769737465722065766964656e636520746f20636173652000600082015250565b600061233c601f83611ee8565b915061234782612306565b602082019050919050565b6000608082019050818103600083015261236b816122e3565b905061237a6020830185611c4f565b818103604083015261238b8161232f565b905061239a6060830184611c25565b9392505050565b7f55736572206973206e6f74207265676973746572656400000000000000000000600082015250565b60006123d7601683611ee8565b91506123e2826123a1565b602082019050919050565b60006020820190508181036000830152612406816123ca565b9050919050565b7f4361736520697320616c72656164792063726561746564000000000000000000600082015250565b6000612443601783611ee8565b915061244e8261240d565b602082019050919050565b6000602082019050818103600083015261247281612436565b9050919050565b7f4f6e6c79204865616420496e76657374696761746f722063616e20637265617460008201527f6520636173657300000000000000000000000000000000000000000000000000602082015250565b60006124d5602783611ee8565b91506124e082612479565b604082019050919050565b60006020820190508181036000830152612504816124c8565b9050919050565b7f4361736520526567697374657265640000000000000000000000000000000000600082015250565b6000612541600f83611ee8565b915061254c8261250b565b602082019050919050565b7f2062792075736572200000000000000000000000000000000000000000000000600082015250565b600061258d600983611ee8565b915061259882612557565b602082019050919050565b600060808201905081810360008301526125bc81612534565b90506125cb6020830185611c25565b81810360408301526125dc81612580565b90506125eb6060830184611c4f565b9392505050565b7f496e76657374696761746f7220686173206265656e2072656d6f766564000000600082015250565b6000612628601d83611ee8565b9150612633826125f2565b602082019050919050565b7f66726f6d20636173650000000000000000000000000000000000000000000000600082015250565b6000612674600983611ee8565b915061267f8261263e565b602082019050919050565b600060808201905081810360008301526126a38161261b565b90506126b26020830185611c4f565b81810360408301526126c381612667565b90506126d26060830184611c25565b9392505050565b7f496e76657374696761746f720000000000000000000000000000000000000000600082015250565b600061270f600c83611ee8565b915061271a826126d9565b602082019050919050565b7f20616464656420746f2063617365200000000000000000000000000000000000600082015250565b600061275b600f83611ee8565b915061276682612725565b602082019050919050565b6000608082019050818103600083015261278a81612702565b90506127996020830185611c4f565b81810360408301526127aa8161274e565b90506127b96060830184611c25565b9392505050565b7f5573657220416c72656164792052656769737465726564000000000000000000600082015250565b60006127f6601783611ee8565b9150612801826127c0565b602082019050919050565b60006020820190508181036000830152612825816127e9565b9050919050565b7f496e76616c69642064657369676e6174696f6e00000000000000000000000000600082015250565b6000612862601383611ee8565b915061286d8261282c565b602082019050919050565b6000602082019050818103600083015261289181612855565b9050919050565b7f205573657220526567697374726174696f6e20436f6d706c6574656400000000600082015250565b60006128ce601c83611ee8565b91506128d982612898565b602082019050919050565b600060608201905081810360008301526128fd816128c1565b905061290c6020830185611c4f565b6129196040830184611c25565b9392505050565b7f4e487b7100000000000000000000000000000000000000000000000000000000600052601160045260246000fd5b600061295a826118bc565b9150612965836118bc565b9250827fffffffffffffffffffffffffffffffffffffffffffffffffffffffffffffffff0382111561299a57612999612920565b5b828201905092915050565b7f726567697374657265642065766964656e636500000000000000000000000000600082015250565b60006129db601383611ee8565b91506129e6826129a5565b602082019050919050565b60006080820190508181036000830152612a0a816122e3565b9050612a196020830185611c4f565b8181036040830152612a2a816129ce565b9050612a396060830184611b70565b9392505050565b7f63616e20617070656e6420746f2065766964656e636500000000000000000000600082015250565b6000612a76601683611ee8565b9150612a8182612a40565b602082019050919050565b60006080820190508181036000830152612aa5816122e3565b9050612ab46020830185611c4f565b8181036040830152612ac581612a69565b9050612ad46060830184611b70565b9392505050565b7f4b657920646f6573206e6f742065786973747300000000000000000000000000600082015250565b6000612b11601383611ee8565b9150612b1c82612adb565b602082019050919050565b60006020820190508181036000830152612b4081612b04565b9050919050565b7f43616e6e6f7420696e746572616374207769746820746869732065766964656e60008201527f6365000000000000000000000000000000000000000000000000000000000000602082015250565b6000612ba3602283611ee8565b9150612bae82612b47565b604082019050919050565b60006020820190508181036000830152612bd281612b96565b9050919050565b7f45766964656e63652063616e6e6f7420626520696e746572616374656420776960008201527f7468202c20697420686173206e6f74206265656e2061737369676e656420612060208201527f6c6576656c000000000000000000000000000000000000000000000000000000604082015250565b6000612c5b604583611ee8565b9150612c6682612bd9565b606082019050919050565b60006020820190508181036000830152612c8a81612c4e565b9050919050565b7f55736572206973206e6f7420617574686f72697a656420746f2072656164206560008201527f766964656e636500000000000000000000000000000000000000000000000000602082015250565b6000612ced602783611ee8565b9150612cf882612c91565b604082019050919050565b60006020820190508181036000830152612d1c81612ce0565b9050919050565b7f68617320726561642065766964656e6365000000000000000000000000000000600082015250565b6000612d59601183611ee8565b9150612d6482612d23565b602082019050919050565b60006080820190508181036000830152612d88816122e3565b9050612d976020830185611c4f565b8181036040830152612da881612d4c565b9050612db76060830184611b70565b9392505050565b7f45766964656e6365000000000000000000000000000000000000000000000000600082015250565b6000612df4600883611ee8565b9150612dff82612dbe565b602082019050919050565b7f686173206265656e2061737369676e6564206c6576656c000000000000000000600082015250565b6000612e40601783611ee8565b9150612e4b82612e0a565b602082019050919050565b60006080820190508181036000830152612e6f81612de7565b9050612e7e6020830185611b70565b8181036040830152612e8f81612e33565b9050612e9e6060830184611c25565b9392505050565b7f4865616420496e76657374696761746f72000000000000000000000000000000600082015250565b6000612edb6011836121d5565b9150612ee682612ea5565b601182019050919050565b6000612efc82612ece565b9150819050919050565b6000612f1283856121d5565b9350612f1f8385846119b9565b82840190509392505050565b6000612f38828486612f06565b91508190509392505050565b7f4c65616420496e76657374696761746f72000000000000000000000000000000600082015250565b6000612f7a6011836121d5565b9150612f8582612f44565b601182019050919050565b6000612f9b82612f6d565b9150819050919050565b7f5465616d20496e76657374696761746f72000000000000000000000000000000600082015250565b6000612fdb6011836121d5565b9150612fe682612fa5565b601182019050919050565b6000612ffc82612fce565b9150819050919050565b7f4e487b7100000000000000000000000000000000000000000000000000000000600052602260045260246000fd5b6000600282049050600182168061304d57607f821691505b6020821081036130605761305f613006565b5b5091905056fea2646970667358221220a1dafa6574ed0315b6dc9acacfa750fb8632d1eadda6c2aee77983287c23f8af64736f6c634300080d0033",
  "immutableReferences": {},
  "source": "// SPDX-License-Identifier: MIT\r\npragma solidity ^0.8.9;\r\nimport \"./Case.sol\";\r\n///@title allows additional information/supporting material to be added to an existing evidence\r\n/// also takes care of evidence being read by users\r\ncontract BibaAppend is Case {\r\n    mapping(string => mapping(uint => string)) private AppendedEvidence; \r\n    mapping(string => uint) private TrackerMapping; \r\n    \r\n    event Append_Allowed(string, address, string,bytes32);\r\n    event Read_Allowed(string, address, string, bytes32); \r\n    \r\n    function returnTimes(string memory key) private view returns (uint) {\r\n        return TrackerMapping[key];\r\n    }\r\n    ///@notice checks if user is allowed to append to an existing evidence anf if yes, then append is completed \r\n    function append_allowed(string memory key,uint case_num) public view returns (bool){\r\n        if(is_authorized(msg.sender, case_num) == false){\r\n            return false;\r\n        }\r\n        uint L = return_level(case_num, key);\r\n        uint R = returnRole(msg.sender);\r\n        return R>=L;\r\n    }\r\n    /// @notice creates link between og evidence and supporting mat \r\n    function tracker(string memory cid, string memory key) public payable{\r\n        uint times = returnTimes(key); \r\n        uint ntime = times + 1;\r\n        TrackerMapping[key] = ntime; \r\n        AppendedEvidence[key][ntime] = cid;\r\n        bytes32 KC = keccak256(abi.encodePacked(key));\r\n        emit Append_Allowed(\"User\", msg.sender,\"can append to evidence\",KC);\r\n    }\r\n    \r\n    ///@notice checks if user is authorised to read evidence and if yes then allows user to read evidence and event is logged\r\n    function read_allowed(\r\n        string memory key,\r\n        uint case_num\r\n    ) public returns (bool) {\r\n        require(\r\n            is_authorized(msg.sender, case_num) == true,\r\n            \"Cannot interact with this evidence\"\r\n        );\r\n        require(\r\n            is_level_assigned(case_num, key) == true,\r\n            \"Evidence cannot be interacted with , it has not been assigned a level\"\r\n        );\r\n        uint L = return_level(case_num, key);\r\n        uint R = returnRole(msg.sender);\r\n        require(R<=L, \"User is not authorized to read evidence\");\r\n        bytes32 KC = keccak256(abi.encodePacked(key));\r\n        emit Read_Allowed(\"User\",msg.sender, \"has read evidence\",  KC);\r\n        return R<=L;\r\n    }\r\n}\r\n",
  "sourcePath": "C:\\Users\\baner\\OneDrive\\Desktop\\Leveraging-Blockchain-for-Auditable-Access-Control\\contracts\\BibaAppend.sol",
  "compiler": {
    "name": "solc",
    "version": "0.8.13+commit.abaa5c0e.Emscripten.clang"
  },
  "schemaVersion": "3.4.16",
  "updatedAt": "2025-01-03T07:35:06.446Z",
  "networkType": "ethereum",
  "devdoc": {
    "kind": "dev",
    "methods": {
      "add_evidence(uint256,address,string)": {
        "params": {
          "case_num": "Unique case ID;  @param user address of requestor; ///@param CID from IPFS; ///@param AES key used for AONT "
        }
      },
      "does_evidence_exists(uint256,string)": {
        "params": {
          "case_number": "unique id of case, @param key hash of evidence which has to be assigned level "
        }
      },
      "is_authorized(address,uint256)": {
        "params": {
          "user": "address of user requesting access; @param number Unique Case Number"
        }
      },
      "register_evi(uint256)": {
        "params": {
          "case_num": "Unique case ID;  "
        }
      },
      "return_level(uint256,string)": {
        "params": {
          "key": "unique identifier of evidence"
        }
      }
    },
    "title": "allows additional information/supporting material to be added to an existing evidence also takes care of evidence being read by users",
    "version": 1
  },
  "userdoc": {
    "kind": "user",
    "methods": {
      "DoesUserExists(address)": {
        "notice": "checks if user is already existing"
      },
      "add_evidence(uint256,address,string)": {
        "notice": "allow user to add evidence "
      },
      "add_investigator(address,uint256)": {
        "notice": "allows Head Investigator to modify access rights"
      },
      "append_allowed(string,uint256)": {
        "notice": "checks if user is allowed to append to an existing evidence anf if yes, then append is completed "
      },
      "assign_inl(uint256,string,uint256)": {
        "notice": "caller function to assign level to an evidence "
      },
      "create_case(uint256,bytes32)": {
        "notice": "creates a case"
      },
      "does_case_exists(uint256)": {
        "notice": "checks if case has already been created"
      },
      "does_evidence_exists(uint256,string)": {
        "notice": "checks whether evidence exists"
      },
      "does_key_Exists(uint256)": {
        "notice": "to check if a key exists in case"
      },
      "is_authorized(address,uint256)": {
        "notice": "returns whether an user is authorised to work on a case"
      },
      "is_level_assigned(uint256,string)": {
        "notice": "checks whether level is assigned to evidence"
      },
      "read_allowed(string,uint256)": {
        "notice": "checks if user is authorised to read evidence and if yes then allows user to read evidence and event is logged"
      },
      "register_evi(uint256)": {
        "notice": "check if user is authorised to add evidence"
      },
      "remove_investigator(uint256,address)": {
        "notice": "DAC policy allows removal of an investigator from case"
      },
      "returnAESkey(uint256)": {
        "notice": "returns if an AES key already exists"
      },
      "returnHI(uint256)": {
        "notice": "returns Head Investigator of a case"
      },
      "returnRole(address)": {
        "notice": "returns role of an user "
      },
      "return_level(uint256,string)": {
        "notice": "return level of integrity assigned to an evidence"
      },
      "setRole(string)": {
        "notice": "allows an user to create account and set role"
      },
      "tracker(string,string)": {
        "notice": "creates link between og evidence and supporting mat "
      }
    },
    "version": 1
  }
}