{
  "contractName": "BibaAppend",
  "abi": [
    {
      "anonymous": false,
      "inputs": [
        {
          "indexed": false,
          "internalType": "string",
          "name": "",
          "type": "string"
        },
        {
          "indexed": false,
          "internalType": "address",
          "name": "",
          "type": "address"
        },
        {
          "indexed": false,
          "internalType": "string",
          "name": "",
          "type": "string"
        },
        {
          "indexed": false,
          "internalType": "bytes32",
          "name": "",
          "type": "bytes32"
        }
      ],
      "name": "AppendAllowed",
      "type": "event"
    },
    {
      "anonymous": false,
      "inputs": [
        {
          "indexed": false,
          "internalType": "string",
          "name": "",
          "type": "string"
        },
        {
          "indexed": false,
          "internalType": "address",
          "name": "",
          "type": "address"
        },
        {
          "indexed": false,
          "internalType": "string",
          "name": "",
          "type": "string"
        },
        {
          "indexed": false,
          "internalType": "uint256",
          "name": "",
          "type": "uint256"
        }
      ],
      "name": "CanRegisterEvidence",
      "type": "event"
    },
    {
      "anonymous": false,
      "inputs": [
        {
          "indexed": false,
          "internalType": "string",
          "name": "",
          "type": "string"
        },
        {
          "indexed": false,
          "internalType": "uint256",
          "name": "",
          "type": "uint256"
        }
      ],
      "name": "CaseClosed",
      "type": "event"
    },
    {
      "anonymous": false,
      "inputs": [
        {
          "indexed": false,
          "internalType": "string",
          "name": "",
          "type": "string"
        },
        {
          "indexed": false,
          "internalType": "string",
          "name": "",
          "type": "string"
        },
        {
          "indexed": false,
          "internalType": "uint256",
          "name": "",
          "type": "uint256"
        }
      ],
      "name": "CaseRegistrationDone",
      "type": "event"
    },
    {
      "anonymous": false,
      "inputs": [
        {
          "indexed": false,
          "internalType": "string",
          "name": "",
          "type": "string"
        },
        {
          "indexed": false,
          "internalType": "bytes32",
          "name": "",
          "type": "bytes32"
        }
      ],
      "name": "EvidenceAssignedLevel",
      "type": "event"
    },
    {
      "anonymous": false,
      "inputs": [
        {
          "indexed": false,
          "internalType": "string",
          "name": "",
          "type": "string"
        },
        {
          "indexed": false,
          "internalType": "uint256",
          "name": "",
          "type": "uint256"
        },
        {
          "indexed": false,
          "internalType": "bytes32",
          "name": "",
          "type": "bytes32"
        }
      ],
      "name": "EvidenceDeleted",
      "type": "event"
    },
    {
      "anonymous": false,
      "inputs": [
        {
          "indexed": false,
          "internalType": "string",
          "name": "",
          "type": "string"
        },
        {
          "indexed": false,
          "internalType": "address",
          "name": "",
          "type": "address"
        },
        {
          "indexed": false,
          "internalType": "string",
          "name": "",
          "type": "string"
        },
        {
          "indexed": false,
          "internalType": "bytes32",
          "name": "",
          "type": "bytes32"
        }
      ],
      "name": "EvidenceRegistered",
      "type": "event"
    },
    {
      "anonymous": false,
      "inputs": [
        {
          "indexed": false,
          "internalType": "string",
          "name": "",
          "type": "string"
        },
        {
          "indexed": false,
          "internalType": "address",
          "name": "",
          "type": "address"
        },
        {
          "indexed": false,
          "internalType": "uint256",
          "name": "",
          "type": "uint256"
        }
      ],
      "name": "InvestigatorRemoved",
      "type": "event"
    },
    {
      "anonymous": false,
      "inputs": [
        {
          "indexed": false,
          "internalType": "string",
          "name": "",
          "type": "string"
        },
        {
          "indexed": false,
          "internalType": "address",
          "name": "",
          "type": "address"
        },
        {
          "indexed": false,
          "internalType": "uint256",
          "name": "",
          "type": "uint256"
        }
      ],
      "name": "UserRegistrationDone",
      "type": "event"
    },
    {
      "inputs": [
        {
          "internalType": "address",
          "name": "user",
          "type": "address"
        }
      ],
      "name": "DoesUserExists",
      "outputs": [
        {
          "internalType": "bool",
          "name": "",
          "type": "bool"
        }
      ],
      "stateMutability": "view",
      "type": "function",
      "constant": true
    },
    {
      "inputs": [
        {
          "internalType": "uint256",
          "name": "case_num",
          "type": "uint256"
        },
        {
          "internalType": "address",
          "name": "user",
          "type": "address"
        },
        {
          "internalType": "string",
          "name": "CID",
          "type": "string"
        }
      ],
      "name": "add_evidence",
      "outputs": [],
      "stateMutability": "payable",
      "type": "function",
      "payable": true
    },
    {
      "inputs": [
        {
          "internalType": "address",
          "name": "inv",
          "type": "address"
        },
        {
          "internalType": "uint256",
          "name": "num",
          "type": "uint256"
        }
      ],
      "name": "add_investigator",
      "outputs": [],
      "stateMutability": "payable",
      "type": "function",
      "payable": true
    },
    {
      "inputs": [
        {
          "internalType": "uint256",
          "name": "case_num",
          "type": "uint256"
        },
        {
          "internalType": "string",
          "name": "ev",
          "type": "string"
        },
        {
          "internalType": "uint256",
          "name": "level",
          "type": "uint256"
        }
      ],
      "name": "assign_inl",
      "outputs": [],
      "stateMutability": "payable",
      "type": "function",
      "payable": true
    },
    {
      "inputs": [
        {
          "internalType": "string",
          "name": "name",
          "type": "string"
        },
        {
          "internalType": "uint256",
          "name": "case_number",
          "type": "uint256"
        },
        {
          "internalType": "bytes32",
          "name": "AESkey",
          "type": "bytes32"
        }
      ],
      "name": "createcase",
      "outputs": [],
      "stateMutability": "payable",
      "type": "function",
      "payable": true
    },
    {
      "inputs": [
        {
          "internalType": "uint256",
          "name": "num",
          "type": "uint256"
        }
      ],
      "name": "does_case_exists",
      "outputs": [
        {
          "internalType": "bool",
          "name": "",
          "type": "bool"
        }
      ],
      "stateMutability": "view",
      "type": "function",
      "constant": true
    },
    {
      "inputs": [
        {
          "internalType": "uint256",
          "name": "case_number",
          "type": "uint256"
        },
        {
          "internalType": "bytes32",
          "name": "key",
          "type": "bytes32"
        }
      ],
      "name": "does_evidence_exists",
      "outputs": [
        {
          "internalType": "bool",
          "name": "",
          "type": "bool"
        }
      ],
      "stateMutability": "view",
      "type": "function",
      "constant": true
    },
    {
      "inputs": [
        {
          "internalType": "uint256",
          "name": "case_num",
          "type": "uint256"
        }
      ],
      "name": "does_key_Exists",
      "outputs": [
        {
          "internalType": "bool",
          "name": "",
          "type": "bool"
        }
      ],
      "stateMutability": "view",
      "type": "function",
      "constant": true
    },
    {
      "inputs": [
        {
          "internalType": "address",
          "name": "user",
          "type": "address"
        },
        {
          "internalType": "uint256",
          "name": "number",
          "type": "uint256"
        }
      ],
      "name": "is_authorized",
      "outputs": [
        {
          "internalType": "bool",
          "name": "",
          "type": "bool"
        }
      ],
      "stateMutability": "view",
      "type": "function",
      "constant": true
    },
    {
      "inputs": [
        {
          "internalType": "uint256",
          "name": "case_number",
          "type": "uint256"
        },
        {
          "internalType": "bytes32",
          "name": "key",
          "type": "bytes32"
        }
      ],
      "name": "is_level_assigned",
      "outputs": [
        {
          "internalType": "bool",
          "name": "",
          "type": "bool"
        }
      ],
      "stateMutability": "view",
      "type": "function",
      "constant": true
    },
    {
      "inputs": [
        {
          "internalType": "address",
          "name": "user",
          "type": "address"
        }
      ],
      "name": "publicDoesUserExists",
      "outputs": [
        {
          "internalType": "bool",
          "name": "",
          "type": "bool"
        }
      ],
      "stateMutability": "view",
      "type": "function",
      "constant": true
    },
    {
      "inputs": [
        {
          "internalType": "address",
          "name": "user",
          "type": "address"
        }
      ],
      "name": "publicreturnRole",
      "outputs": [
        {
          "internalType": "uint256",
          "name": "",
          "type": "uint256"
        }
      ],
      "stateMutability": "view",
      "type": "function",
      "constant": true
    },
    {
      "inputs": [
        {
          "internalType": "string",
          "name": "desig",
          "type": "string"
        },
        {
          "internalType": "address",
          "name": "user",
          "type": "address"
        }
      ],
      "name": "publicsetRole",
      "outputs": [],
      "stateMutability": "nonpayable",
      "type": "function"
    },
    {
      "inputs": [
        {
          "internalType": "uint256",
          "name": "case_num",
          "type": "uint256"
        },
        {
          "internalType": "address",
          "name": "user",
          "type": "address"
        }
      ],
      "name": "register_evi",
      "outputs": [
        {
          "internalType": "bool",
          "name": "",
          "type": "bool"
        }
      ],
      "stateMutability": "payable",
      "type": "function",
      "payable": true
    },
    {
      "inputs": [
        {
          "internalType": "uint256",
          "name": "case_number",
          "type": "uint256"
        },
        {
          "internalType": "address",
          "name": "inv",
          "type": "address"
        }
      ],
      "name": "remove_investigator",
      "outputs": [],
      "stateMutability": "payable",
      "type": "function",
      "payable": true
    },
    {
      "inputs": [
        {
          "internalType": "uint256",
          "name": "case_num",
          "type": "uint256"
        }
      ],
      "name": "returnAESkey",
      "outputs": [
        {
          "internalType": "bytes32",
          "name": "",
          "type": "bytes32"
        }
      ],
      "stateMutability": "view",
      "type": "function",
      "constant": true
    },
    {
      "inputs": [
        {
          "internalType": "uint256",
          "name": "case_number",
          "type": "uint256"
        }
      ],
      "name": "returnHI",
      "outputs": [
        {
          "internalType": "address",
          "name": "",
          "type": "address"
        }
      ],
      "stateMutability": "payable",
      "type": "function",
      "payable": true
    },
    {
      "inputs": [
        {
          "internalType": "address",
          "name": "user",
          "type": "address"
        }
      ],
      "name": "returnRole",
      "outputs": [
        {
          "internalType": "uint256",
          "name": "",
          "type": "uint256"
        }
      ],
      "stateMutability": "view",
      "type": "function",
      "constant": true
    },
    {
      "inputs": [
        {
          "internalType": "uint256",
          "name": "case_num",
          "type": "uint256"
        },
        {
          "internalType": "bytes32",
          "name": "key",
          "type": "bytes32"
        }
      ],
      "name": "return_level",
      "outputs": [
        {
          "internalType": "uint256",
          "name": "",
          "type": "uint256"
        }
      ],
      "stateMutability": "payable",
      "type": "function",
      "payable": true
    },
    {
      "inputs": [
        {
          "internalType": "string",
          "name": "designation",
          "type": "string"
        },
        {
          "internalType": "address",
          "name": "user",
          "type": "address"
        }
      ],
      "name": "setRole",
      "outputs": [],
      "stateMutability": "nonpayable",
      "type": "function"
    },
    {
      "inputs": [
        {
          "internalType": "bytes32",
          "name": "key",
          "type": "bytes32"
        },
        {
          "internalType": "address",
          "name": "ad_user",
          "type": "address"
        },
        {
          "internalType": "uint256",
          "name": "case_num",
          "type": "uint256"
        },
        {
          "internalType": "string",
          "name": "cid",
          "type": "string"
        }
      ],
      "name": "append_allowed",
      "outputs": [
        {
          "internalType": "bool",
          "name": "",
          "type": "bool"
        }
      ],
      "stateMutability": "nonpayable",
      "type": "function"
    }
  ],
  "bytecode": "0x60806040523480156200001157600080fd5b50600160006040516200002490620000df565b90815260200160405180910390208190555060046000604051620000489062000146565b908152602001604051809103902081905550600760006040516200006c90620001ad565b908152602001604051809103902081905550620001c4565b600081905092915050565b7f4865616420496e76657374696761746f72000000000000000000000000000000600082015250565b6000620000c760118362000084565b9150620000d4826200008f565b601182019050919050565b6000620000ec82620000b8565b9150819050919050565b7f4c65616420496e76657374696761746f72000000000000000000000000000000600082015250565b60006200012e60118362000084565b91506200013b82620000f6565b601182019050919050565b600062000153826200011f565b9150819050919050565b7f5465616d20496e76657374696761746f72000000000000000000000000000000600082015250565b60006200019560118362000084565b9150620001a2826200015d565b601182019050919050565b6000620001ba8262000186565b9150819050919050565b612a6c80620001d46000396000f3fe60806040526004361061012a5760003560e01c80636ce0ad12116100ab578063ac50417c1161006f578063ac50417c146103fc578063b929a0921461042c578063c5470bd414610469578063cfde189014610499578063f7bb8893146104c2578063fb5f5c57146104ff5761012a565b80636ce0ad121461031a57806374bab760146103575780639026441b146103875780639c155927146103a35780639ff39033146103bf5761012a565b80634cc70a0f116100f25780634cc70a0f1461022b57806359ea8ddd146102685780635ce7cd58146102a557806364093834146102e25780636cad4fa6146102fe5761012a565b8063027a65c21461012f57806305805e021461014b578063080e0519146101885780632691297d146101b15780633646f329146101ee575b600080fd5b610149600480360381019061014491906116d1565b61053c565b005b34801561015757600080fd5b50610172600480360381019061016d919061177b565b6106e0565b60405161017f91906117d6565b60405180910390f35b34801561019457600080fd5b506101af60048036038101906101aa919061184f565b61072b565b005b3480156101bd57600080fd5b506101d860048036038101906101d391906118af565b61073b565b6040516101e591906118eb565b60405180910390f35b3480156101fa57600080fd5b5061021560048036038101906102109190611906565b610760565b60405161022291906117d6565b60405180910390f35b34801561023757600080fd5b50610252600480360381019061024d9190611906565b6107bc565b60405161025f9190611942565b60405180910390f35b34801561027457600080fd5b5061028f600480360381019061028a919061195d565b610854565b60405161029c91906117d6565b60405180910390f35b3480156102b157600080fd5b506102cc60048036038101906102c79190611906565b6108cb565b6040516102d99190611942565b60405180910390f35b6102fc60048036038101906102f7919061199d565b6108e2565b005b6103186004803603810190610313919061195d565b61097e565b005b34801561032657600080fd5b50610341600480360381019061033c9190611b1e565b6109e1565b60405161034e91906117d6565b60405180910390f35b610371600480360381019061036c91906118af565b610b8a565b60405161037e9190611bb0565b60405180910390f35b6103a1600480360381019061039c9190611bcb565b610bc7565b005b6103bd60048036038101906103b89190611c3a565b610caa565b005b3480156103cb57600080fd5b506103e660048036038101906103e191906118af565b610efa565b6040516103f391906117d6565b60405180910390f35b6104166004803603810190610411919061177b565b610f63565b6040516104239190611942565b60405180910390f35b34801561043857600080fd5b50610453600480360381019061044e91906118af565b611090565b60405161046091906117d6565b60405180910390f35b610483600480360381019061047e919061199d565b6110c0565b60405161049091906117d6565b60405180910390f35b3480156104a557600080fd5b506104c060048036038101906104bb919061184f565b6111a4565b005b3480156104ce57600080fd5b506104e960048036038101906104e4919061177b565b61134e565b6040516104f691906117d6565b60405180910390f35b34801561050b57600080fd5b5061052660048036038101906105219190611906565b611412565b60405161053391906117d6565b60405180910390f35b60008383604051602001610551929190611cde565b6040516020818303038152906040528051906020012090503373ffffffffffffffffffffffffffffffffffffffff1661058986610b8a565b73ffffffffffffffffffffffffffffffffffffffff16146105df576040517f08c379a00000000000000000000000000000000000000000000000000000000081526004016105d690611d7a565b60405180910390fd5b600115156105ec86611090565b15151461062e576040517f08c379a000000000000000000000000000000000000000000000000000000000815260040161062590611de6565b60405180910390fd5b6000151561063c868361134e565b15151461067e576040517f08c379a000000000000000000000000000000000000000000000000000000000815260040161067590611e52565b60405180910390fd5b6000151561068c86836106e0565b1515146106ce576040517f08c379a00000000000000000000000000000000000000000000000000000000081526004016106c590611ebe565b60405180910390fd5b6106d9818684611429565b5050505050565b6000806005600085815260200190815260200160002090506001816003016000858152602001908152602001600020540361071f576000915050610725565b60019150505b92915050565b6107368383836111a4565b505050565b6000806005600084815260200190815260200160002090508060060154915050919050565b60006001600260008473ffffffffffffffffffffffffffffffffffffffff1673ffffffffffffffffffffffffffffffffffffffff16815260200190815260200160002054036107b257600190506107b7565b600090505b919050565b6000600115156107cb83610760565b15151461080d576040517f08c379a000000000000000000000000000000000000000000000000000000000815260040161080490611f2a565b60405180910390fd5b600160008373ffffffffffffffffffffffffffffffffffffffff1673ffffffffffffffffffffffffffffffffffffffff168152602001908152602001600020549050919050565b60008060056000848152602001908152602001600020905060018160040160008673ffffffffffffffffffffffffffffffffffffffff1673ffffffffffffffffffffffffffffffffffffffff16815260200190815260200160002054036108bf5760019150506108c5565b60009150505b92915050565b6000806108d7836107bc565b905080915050919050565b600060056000848152602001908152602001600020905060008160040160008473ffffffffffffffffffffffffffffffffffffffff1673ffffffffffffffffffffffffffffffffffffffff168152602001908152602001600020819055507fb6b4e493a9247fb90495ec09db8e16879fe0ccf6f478ef5252b5de4559f319f28284604051610971929190611fbc565b60405180910390a1505050565b600060056000838152602001908152602001600020905060018160040160008573ffffffffffffffffffffffffffffffffffffffff1673ffffffffffffffffffffffffffffffffffffffff16815260200190815260200160002081905550505050565b6000600115156109f18585610854565b151514610a33576040517f08c379a0000000000000000000000000000000000000000000000000000000008152600401610a2a9061206a565b60405180910390fd5b6000610a3f8487610f63565b90506000610a4c866107bc565b905060008282101590506001151581151514610a9d576040517f08c379a0000000000000000000000000000000000000000000000000000000008152600401610a94906120fc565b60405180910390fd5b7fcdede070c7073bc99695532ecd2b766a8e1b975c6ff2e7c51ce2f6961180ce368789604051610ace9291906121b4565b60405180910390a16001151581151503610b7b57610aed863387610bc7565b600085604051602001610b009190612272565b6040516020818303038152906040528051906020012090506000610b238a6114b2565b90506000600182610b3491906122b8565b905080600760008d81526020019081526020016000208190555082600660008d81526020019081526020016000206000838152602001908152602001600020819055505050505b60019350505050949350505050565b60006004600083815260200190815260200160002060009054906101000a900473ffffffffffffffffffffffffffffffffffffffff169050919050565b600081604051602001610bda9190612272565b60405160208183030381529060405280519060200120905060006005600086815260200190815260200160002090506001816003016000848152602001908152602001600020819055506001816008016000828254610c3991906122b8565b92505081905550828160050160008481526020019081526020016000209080519060200190610c699291906114f9565b507f60216ae48dd70a7b353420e8a4980e0d0a80bf44f861ee0b15ec356f596342438483604051610c9b92919061235a565b60405180910390a15050505050565b60011515610cb733611412565b151514610cf9576040517f08c379a0000000000000000000000000000000000000000000000000000000008152600401610cf090611f2a565b60405180910390fd5b60001515610d0683611090565b151514610d48576040517f08c379a0000000000000000000000000000000000000000000000000000000008152600401610d3f906123f5565b60405180910390fd5b6001610d53336108cb565b14610d93576040517f08c379a0000000000000000000000000000000000000000000000000000000008152600401610d8a90612487565b60405180910390fd5b60006005600084815260200190815260200160002090508484826000019190610dbd92919061157f565b508484604051602001610dd1929190611cde565b604051602081830303815290604052805190602001208160010181905550338160070160006101000a81548173ffffffffffffffffffffffffffffffffffffffff021916908373ffffffffffffffffffffffffffffffffffffffff16021790555060018160040160003373ffffffffffffffffffffffffffffffffffffffff1673ffffffffffffffffffffffffffffffffffffffff16815260200190815260200160002081905550818160060181905550601981600901819055504281600a0181905550600081600b0181905550600160036000858152602001908152602001600020819055507f266d5cf462bf1f0254a78139854880064d99b9f9359d49bea6b8637ccf826cec858585604051610eeb93929190612520565b60405180910390a15050505050565b6000806005600084815260200190815260200160002090506000602060ff1611610f59576040517f08c379a0000000000000000000000000000000000000000000000000000000008152600401610f50906125b1565b60405180910390fd5b6001915050919050565b600060011515610f7284611090565b151514610fb4576040517f08c379a0000000000000000000000000000000000000000000000000000000008152600401610fab90611de6565b60405180910390fd5b60011515610fc2848461134e565b151514611004576040517f08c379a0000000000000000000000000000000000000000000000000000000008152600401610ffb9061261d565b60405180910390fd5b6001151561101284846106e0565b151514611054576040517f08c379a000000000000000000000000000000000000000000000000000000000815260040161104b90612689565b60405180910390fd5b60006005600085815260200190815260200160002090506000816002016000858152602001908152602001600020549050809250505092915050565b600060016003600084815260200190815260200160002054036110b657600190506110bb565b600090505b919050565b6000600115156110cf84611090565b151514611111576040517f08c379a000000000000000000000000000000000000000000000000000000000815260040161110890611de6565b60405180910390fd5b6001151561111f8385610854565b151514611161576040517f08c379a00000000000000000000000000000000000000000000000000000000081526004016111589061271b565b60405180910390fd5b7fef0829b7def5929569aa36afa2bbe009f037493c64fd4a020316ea5be49956708284604051611192929190612787565b60405180910390a16001905092915050565b600015156111b182610760565b1515146111f3576040517f08c379a00000000000000000000000000000000000000000000000000000000081526004016111ea90612822565b60405180910390fd5b60006111ff84846114cf565b1161123f576040517f08c379a00000000000000000000000000000000000000000000000000000000081526004016112369061288e565b60405180910390fd5b61124983836114cf565b600160008373ffffffffffffffffffffffffffffffffffffffff1673ffffffffffffffffffffffffffffffffffffffff168152602001908152602001600020819055506001600260008373ffffffffffffffffffffffffffffffffffffffff1673ffffffffffffffffffffffffffffffffffffffff168152602001908152602001600020819055507faa6d010bb351bc431c1230873f88f8f8b97c823fe65b1e102216919af719b1a281600160008473ffffffffffffffffffffffffffffffffffffffff1673ffffffffffffffffffffffffffffffffffffffff168152602001908152602001600020546040516113419291906128fa565b60405180910390a1505050565b60006001151561135d84611090565b15151461139f576040517f08c379a000000000000000000000000000000000000000000000000000000000815260040161139690611de6565b60405180910390fd5b600060056000858152602001908152602001600020905060008160020160008581526020019081526020016000205411156113de57600191505061140c565b600081600301600085815260200190815260200160002054111561140657600191505061140c565b60009150505b92915050565b60008061141e83610760565b905080915050919050565b600060056000848152602001908152602001600020905081816002016000868152602001908152602001600020819055506000816003016000868152602001908152602001600020819055507fa5b14494dc23eecde6552fb600b649e07cd8469e1e6738027781646914acfad8846040516114a491906129a8565b60405180910390a150505050565b600060076000838152602001908152602001600020549050919050565b60008083836040516114e2929190611cde565b908152602001604051809103902054905092915050565b82805461150590612a05565b90600052602060002090601f016020900481019282611527576000855561156e565b82601f1061154057805160ff191683800117855561156e565b8280016001018555821561156e579182015b8281111561156d578251825591602001919060010190611552565b5b50905061157b9190611605565b5090565b82805461158b90612a05565b90600052602060002090601f0160209004810192826115ad57600085556115f4565b82601f106115c657803560ff19168380011785556115f4565b828001600101855582156115f4579182015b828111156115f35782358255916020019190600101906115d8565b5b5090506116019190611605565b5090565b5b8082111561161e576000816000905550600101611606565b5090565b6000604051905090565b600080fd5b600080fd5b6000819050919050565b61164981611636565b811461165457600080fd5b50565b60008135905061166681611640565b92915050565b600080fd5b600080fd5b600080fd5b60008083601f8401126116915761169061166c565b5b8235905067ffffffffffffffff8111156116ae576116ad611671565b5b6020830191508360018202830111156116ca576116c9611676565b5b9250929050565b600080600080606085870312156116eb576116ea61162c565b5b60006116f987828801611657565b945050602085013567ffffffffffffffff81111561171a57611719611631565b5b6117268782880161167b565b9350935050604061173987828801611657565b91505092959194509250565b6000819050919050565b61175881611745565b811461176357600080fd5b50565b6000813590506117758161174f565b92915050565b600080604083850312156117925761179161162c565b5b60006117a085828601611657565b92505060206117b185828601611766565b9150509250929050565b60008115159050919050565b6117d0816117bb565b82525050565b60006020820190506117eb60008301846117c7565b92915050565b600073ffffffffffffffffffffffffffffffffffffffff82169050919050565b600061181c826117f1565b9050919050565b61182c81611811565b811461183757600080fd5b50565b60008135905061184981611823565b92915050565b6000806000604084860312156118685761186761162c565b5b600084013567ffffffffffffffff81111561188657611885611631565b5b6118928682870161167b565b935093505060206118a58682870161183a565b9150509250925092565b6000602082840312156118c5576118c461162c565b5b60006118d384828501611657565b91505092915050565b6118e581611745565b82525050565b600060208201905061190060008301846118dc565b92915050565b60006020828403121561191c5761191b61162c565b5b600061192a8482850161183a565b91505092915050565b61193c81611636565b82525050565b60006020820190506119576000830184611933565b92915050565b600080604083850312156119745761197361162c565b5b60006119828582860161183a565b925050602061199385828601611657565b9150509250929050565b600080604083850312156119b4576119b361162c565b5b60006119c285828601611657565b92505060206119d38582860161183a565b9150509250929050565b600080fd5b6000601f19601f8301169050919050565b7f4e487b7100000000000000000000000000000000000000000000000000000000600052604160045260246000fd5b611a2b826119e2565b810181811067ffffffffffffffff82111715611a4a57611a496119f3565b5b80604052505050565b6000611a5d611622565b9050611a698282611a22565b919050565b600067ffffffffffffffff821115611a8957611a886119f3565b5b611a92826119e2565b9050602081019050919050565b82818337600083830152505050565b6000611ac1611abc84611a6e565b611a53565b905082815260208101848484011115611add57611adc6119dd565b5b611ae8848285611a9f565b509392505050565b600082601f830112611b0557611b0461166c565b5b8135611b15848260208601611aae565b91505092915050565b60008060008060808587031215611b3857611b3761162c565b5b6000611b4687828801611766565b9450506020611b578782880161183a565b9350506040611b6887828801611657565b925050606085013567ffffffffffffffff811115611b8957611b88611631565b5b611b9587828801611af0565b91505092959194509250565b611baa81611811565b82525050565b6000602082019050611bc56000830184611ba1565b92915050565b600080600060608486031215611be457611be361162c565b5b6000611bf286828701611657565b9350506020611c038682870161183a565b925050604084013567ffffffffffffffff811115611c2457611c23611631565b5b611c3086828701611af0565b9150509250925092565b60008060008060608587031215611c5457611c5361162c565b5b600085013567ffffffffffffffff811115611c7257611c71611631565b5b611c7e8782880161167b565b94509450506020611c9187828801611657565b9250506040611ca287828801611766565b91505092959194509250565b600081905092915050565b6000611cc58385611cae565b9350611cd2838584611a9f565b82840190509392505050565b6000611ceb828486611cb9565b91508190509392505050565b600082825260208201905092915050565b7f4f6e6c79204865616420496e76657374696761746f722063616e20617373696760008201527f6e206c6576656c20746f2065766964656e636500000000000000000000000000602082015250565b6000611d64603383611cf7565b9150611d6f82611d08565b604082019050919050565b60006020820190508181036000830152611d9381611d57565b9050919050565b7f4361736520646f6573206e6f7420657869737473000000000000000000000000600082015250565b6000611dd0601483611cf7565b9150611ddb82611d9a565b602082019050919050565b60006020820190508181036000830152611dff81611dc3565b9050919050565b7f45766964656e6365206578697374730000000000000000000000000000000000600082015250565b6000611e3c600f83611cf7565b9150611e4782611e06565b602082019050919050565b60006020820190508181036000830152611e6b81611e2f565b9050919050565b7f4c6576656c2061737369676e6564000000000000000000000000000000000000600082015250565b6000611ea8600e83611cf7565b9150611eb382611e72565b602082019050919050565b60006020820190508181036000830152611ed781611e9b565b9050919050565b7f55736572206973206e6f74207265676973746572656400000000000000000000600082015250565b6000611f14601683611cf7565b9150611f1f82611ede565b602082019050919050565b60006020820190508181036000830152611f4381611f07565b9050919050565b7f496e76657374696761746f7220686173206265656e2072656d6f76656420667260008201527f6f6d206361736500000000000000000000000000000000000000000000000000602082015250565b6000611fa6602783611cf7565b9150611fb182611f4a565b604082019050919050565b60006060820190508181036000830152611fd581611f99565b9050611fe46020830185611ba1565b611ff16040830184611933565b9392505050565b7f43616e6e6f7420696e746572616374207769746820746869732065766964656e60008201527f6365000000000000000000000000000000000000000000000000000000000000602082015250565b6000612054602283611cf7565b915061205f82611ff8565b604082019050919050565b6000602082019050818103600083015261208381612047565b9050919050565b7f55736572206973206e6f7420617574686f72697a656420746f20617070656e6460008201527f20746f2065766964656e63650000000000000000000000000000000000000000602082015250565b60006120e6602c83611cf7565b91506120f18261208a565b604082019050919050565b60006020820190508181036000830152612115816120d9565b9050919050565b7f5573657200000000000000000000000000000000000000000000000000000000600082015250565b6000612152600483611cf7565b915061215d8261211c565b602082019050919050565b7f63616e20617070656e6420746f2065766964656e636500000000000000000000600082015250565b600061219e601683611cf7565b91506121a982612168565b602082019050919050565b600060808201905081810360008301526121cd81612145565b90506121dc6020830185611ba1565b81810360408301526121ed81612191565b90506121fc60608301846118dc565b9392505050565b600081519050919050565b60005b8381101561222c578082015181840152602081019050612211565b8381111561223b576000848401525b50505050565b600061224c82612203565b6122568185611cae565b935061226681856020860161220e565b80840191505092915050565b600061227e8284612241565b915081905092915050565b7f4e487b7100000000000000000000000000000000000000000000000000000000600052601160045260246000fd5b60006122c382611636565b91506122ce83611636565b9250827fffffffffffffffffffffffffffffffffffffffffffffffffffffffffffffffff0382111561230357612302612289565b5b828201905092915050565b7f726567697374657265642065766964656e636500000000000000000000000000600082015250565b6000612344601383611cf7565b915061234f8261230e565b602082019050919050565b6000608082019050818103600083015261237381612145565b90506123826020830185611ba1565b818103604083015261239381612337565b90506123a260608301846118dc565b9392505050565b7f4361736520697320616c72656164792063726561746564000000000000000000600082015250565b60006123df601783611cf7565b91506123ea826123a9565b602082019050919050565b6000602082019050818103600083015261240e816123d2565b9050919050565b7f4f6e6c79204865616420496e76657374696761746f722063616e20637265617460008201527f6520636173657300000000000000000000000000000000000000000000000000602082015250565b6000612471602783611cf7565b915061247c82612415565b604082019050919050565b600060208201905081810360008301526124a081612464565b9050919050565b7f4361736520526567697374657265640000000000000000000000000000000000600082015250565b60006124dd600f83611cf7565b91506124e8826124a7565b602082019050919050565b60006124ff8385611cf7565b935061250c838584611a9f565b612515836119e2565b840190509392505050565b60006060820190508181036000830152612539816124d0565b9050818103602083015261254e8185876124f3565b905061255d6040830184611933565b949350505050565b7f4b657920646f6573206e6f742065786973747300000000000000000000000000600082015250565b600061259b601383611cf7565b91506125a682612565565b602082019050919050565b600060208201905081810360008301526125ca8161258e565b9050919050565b7f45766964656e636520646f6573206e6f74206578697374730000000000000000600082015250565b6000612607601883611cf7565b9150612612826125d1565b602082019050919050565b60006020820190508181036000830152612636816125fa565b9050919050565b7f45766964656e6365206e6f742076616c69640000000000000000000000000000600082015250565b6000612673601283611cf7565b915061267e8261263d565b602082019050919050565b600060208201905081810360008301526126a281612666565b9050919050565b7f55736572206e6f7420617574686f726973656420746f2061646420657669646560008201527f6e636520746f2063617365000000000000000000000000000000000000000000602082015250565b6000612705602b83611cf7565b9150612710826126a9565b604082019050919050565b60006020820190508181036000830152612734816126f8565b9050919050565b7f2063616e2072656769737465722065766964656e636520746f20636173652000600082015250565b6000612771601f83611cf7565b915061277c8261273b565b602082019050919050565b600060808201905081810360008301526127a081612145565b90506127af6020830185611ba1565b81810360408301526127c081612764565b90506127cf6060830184611933565b9392505050565b7f5573657220416c72656164792052656769737465726564000000000000000000600082015250565b600061280c601783611cf7565b9150612817826127d6565b602082019050919050565b6000602082019050818103600083015261283b816127ff565b9050919050565b7f496e76616c69642064657369676e6174696f6e00000000000000000000000000600082015250565b6000612878601383611cf7565b915061288382612842565b602082019050919050565b600060208201905081810360008301526128a78161286b565b9050919050565b7f205573657220526567697374726174696f6e20436f6d706c6574656400000000600082015250565b60006128e4601c83611cf7565b91506128ef826128ae565b602082019050919050565b60006060820190508181036000830152612913816128d7565b90506129226020830185611ba1565b61292f6040830184611933565b9392505050565b7f45766964656e6365206173206265656e2061737369676e65642061206c65766560008201527f6c00000000000000000000000000000000000000000000000000000000000000602082015250565b6000612992602183611cf7565b915061299d82612936565b604082019050919050565b600060408201905081810360008301526129c181612985565b90506129d060208301846118dc565b92915050565b7f4e487b7100000000000000000000000000000000000000000000000000000000600052602260045260246000fd5b60006002820490506001821680612a1d57607f821691505b602082108103612a3057612a2f6129d6565b5b5091905056fea264697066735822122069cd59abd4d7f9d6240a94a793744360a534ba73006297538ebd5f62bf290a7264736f6c634300080d0033",
  "immutableReferences": {},
  "source": "// SPDX-License-Identifier: MIT\r\npragma solidity ^0.8.9;\r\nimport \"./AssignRole.sol\";\r\nimport \"./Case.sol\";\r\n///@title allows additional information/supporting material to be added to an existing evidence\r\ncontract BibaAppend is AssignRole, Case {\r\n    mapping(bytes32 => mapping(uint => bytes32)) private AppendedEvidence; \r\n    mapping(bytes32 => uint) private TrackerMapping; \r\n    event AppendAllowed(string, address, string,bytes32); \r\n    \r\n    function returnTimes(bytes32 key) private view returns (uint) {\r\n        return TrackerMapping[key];\r\n    }\r\n\r\n    ///@notice checks if user is allowed to append to an existing evidence anf if yes, then append is completed \r\n    function append_allowed(\r\n        bytes32 key,\r\n        address ad_user,\r\n        uint case_num,\r\n        string memory cid\r\n    ) public returns (bool){\r\n        require(\r\n            is_authorized(ad_user, case_num) == true,\r\n            \"Cannot interact with this evidence\"\r\n        );\r\n        uint L = return_level(case_num, key);\r\n        uint R = returnRole(ad_user);\r\n        bool val = (R >= L);\r\n        require(val == true, \"User is not authorized to append to evidence\");\r\n        emit AppendAllowed(\"User\", ad_user,\"can append to evidence\",key);\r\n        if(val == true){\r\n            add_evidence(case_num, msg.sender, cid);\r\n            bytes32 KC = keccak256(abi.encodePacked(cid));\r\n            uint times = returnTimes(key); \r\n            uint ntime = times + 1;\r\n            TrackerMapping[key] = ntime; \r\n            AppendedEvidence[key][ntime] = KC;\r\n        }\r\n        return true;\r\n    }\r\n}\r\n",
  "sourcePath": "C:\\Users\\shrey\\repo2\\contracts\\BibaAppend.sol",
  "compiler": {
    "name": "solc",
    "version": "0.8.13+commit.abaa5c0e.Emscripten.clang"
  },
  "schemaVersion": "3.4.16",
  "updatedAt": "2024-12-18T10:49:30.046Z",
  "networkType": "ethereum",
  "devdoc": {
    "kind": "dev",
    "methods": {
      "add_evidence(uint256,address,string)": {
        "params": {
          "case_num": "Unique case ID;  @param user address of requestor; ///@param CID from IPFS; ///@param AES key used for AONT "
        }
      },
      "createcase(string,uint256,bytes32)": {
        "params": {
          "name": "Name of the Case File ; @param case_number Unique Number assigned to case"
        }
      },
      "does_evidence_exists(uint256,bytes32)": {
        "params": {
          "case_number": "unique id of case, @param key hash of evidence which has to be assigned level "
        }
      },
      "is_authorized(address,uint256)": {
        "params": {
          "user": "address of user requesting access; @param number Unique Case Number"
        }
      },
      "register_evi(uint256,address)": {
        "params": {
          "case_num": "Unique case ID;  @param user address of requestor"
        }
      },
      "return_level(uint256,bytes32)": {
        "params": {
          "key": "unique identifier of evidence"
        }
      }
    },
    "title": "allows additional information/supporting material to be added to an existing evidence",
    "version": 1
  },
  "userdoc": {
    "kind": "user",
    "methods": {
      "DoesUserExists(address)": {
        "notice": "checks if user is already existing"
      },
      "add_evidence(uint256,address,string)": {
        "notice": "allow user to add evidence "
      },
      "add_investigator(address,uint256)": {
        "notice": "this introduces DAC, allows Head Investigator to modify access rights"
      },
      "append_allowed(bytes32,address,uint256,string)": {
        "notice": "checks if user is allowed to append to an existing evidence anf if yes, then append is completed "
      },
      "assign_inl(uint256,string,uint256)": {
        "notice": "caller function to assign level to an evidence "
      },
      "createcase(string,uint256,bytes32)": {
        "notice": "creates a case"
      },
      "does_case_exists(uint256)": {
        "notice": "checks if case has already been created"
      },
      "does_evidence_exists(uint256,bytes32)": {
        "notice": "checks whether evidence exists"
      },
      "does_key_Exists(uint256)": {
        "notice": "to check if a key exists in case"
      },
      "is_authorized(address,uint256)": {
        "notice": "returns whether an user is authorised to work on a case"
      },
      "is_level_assigned(uint256,bytes32)": {
        "notice": "checks whether level is assigned to evidence"
      },
      "publicsetRole(string,address)": {
        "notice": "an interface functions used to call internal functions"
      },
      "register_evi(uint256,address)": {
        "notice": "check if user is authorised to add evidence"
      },
      "remove_investigator(uint256,address)": {
        "notice": "DAC policy allows removal of an investigator from case"
      },
      "returnAESkey(uint256)": {
        "notice": "returns if an AES key already exists"
      },
      "returnHI(uint256)": {
        "notice": "returns Head Investigator of a case"
      },
      "returnRole(address)": {
        "notice": "returns role of an user "
      },
      "return_level(uint256,bytes32)": {
        "notice": "return level of integrity assigned to an evidence"
      },
      "setRole(string,address)": {
        "notice": "allows an user to create account and set role"
      }
    },
    "version": 1
  }
}