{
  "contractName": "Case",
  "abi": [
    {
      "anonymous": false,
      "inputs": [
        {
          "indexed": false,
          "internalType": "string",
          "name": "",
          "type": "string"
        },
        {
          "indexed": false,
          "internalType": "uint256",
          "name": "",
          "type": "uint256"
        }
      ],
      "name": "CaseClosed",
      "type": "event"
    },
    {
      "anonymous": false,
      "inputs": [
        {
          "indexed": false,
          "internalType": "string",
          "name": "",
          "type": "string"
        },
        {
          "indexed": false,
          "internalType": "string",
          "name": "",
          "type": "string"
        },
        {
          "indexed": false,
          "internalType": "uint256",
          "name": "",
          "type": "uint256"
        }
      ],
      "name": "CaseRegistrationDone",
      "type": "event"
    },
    {
      "anonymous": false,
      "inputs": [
        {
          "indexed": false,
          "internalType": "string",
          "name": "",
          "type": "string"
        },
        {
          "indexed": false,
          "internalType": "bytes32",
          "name": "",
          "type": "bytes32"
        }
      ],
      "name": "EvidenceAssignedLevel",
      "type": "event"
    },
    {
      "anonymous": false,
      "inputs": [
        {
          "indexed": false,
          "internalType": "string",
          "name": "",
          "type": "string"
        },
        {
          "indexed": false,
          "internalType": "uint256",
          "name": "",
          "type": "uint256"
        },
        {
          "indexed": false,
          "internalType": "bytes32",
          "name": "",
          "type": "bytes32"
        }
      ],
      "name": "EvidenceDeleted",
      "type": "event"
    },
    {
      "anonymous": false,
      "inputs": [
        {
          "indexed": false,
          "internalType": "string",
          "name": "",
          "type": "string"
        },
        {
          "indexed": false,
          "internalType": "bytes32",
          "name": "",
          "type": "bytes32"
        },
        {
          "indexed": false,
          "internalType": "address",
          "name": "",
          "type": "address"
        }
      ],
      "name": "EvidenceRegistered",
      "type": "event"
    },
    {
      "anonymous": false,
      "inputs": [
        {
          "indexed": false,
          "internalType": "string",
          "name": "",
          "type": "string"
        },
        {
          "indexed": false,
          "internalType": "address",
          "name": "",
          "type": "address"
        },
        {
          "indexed": false,
          "internalType": "uint256",
          "name": "",
          "type": "uint256"
        }
      ],
      "name": "InvestigatorRemoved",
      "type": "event"
    },
    {
      "anonymous": false,
      "inputs": [
        {
          "indexed": false,
          "internalType": "string",
          "name": "",
          "type": "string"
        },
        {
          "indexed": false,
          "internalType": "address",
          "name": "",
          "type": "address"
        },
        {
          "indexed": false,
          "internalType": "uint256",
          "name": "",
          "type": "uint256"
        }
      ],
      "name": "UserRegistrationDone",
      "type": "event"
    },
    {
      "inputs": [
        {
          "internalType": "address",
          "name": "user",
          "type": "address"
        }
      ],
      "name": "DoesUserExists",
      "outputs": [
        {
          "internalType": "bool",
          "name": "",
          "type": "bool"
        }
      ],
      "stateMutability": "view",
      "type": "function",
      "constant": true
    },
    {
      "inputs": [
        {
          "internalType": "address",
          "name": "user",
          "type": "address"
        }
      ],
      "name": "publicDoesUserExists",
      "outputs": [
        {
          "internalType": "bool",
          "name": "",
          "type": "bool"
        }
      ],
      "stateMutability": "view",
      "type": "function",
      "constant": true
    },
    {
      "inputs": [
        {
          "internalType": "address",
          "name": "user",
          "type": "address"
        }
      ],
      "name": "publicreturnRole",
      "outputs": [
        {
          "internalType": "uint256",
          "name": "",
          "type": "uint256"
        }
      ],
      "stateMutability": "view",
      "type": "function",
      "constant": true
    },
    {
      "inputs": [
        {
          "internalType": "string",
          "name": "desig",
          "type": "string"
        },
        {
          "internalType": "address",
          "name": "user",
          "type": "address"
        }
      ],
      "name": "publicsetRole",
      "outputs": [],
      "stateMutability": "nonpayable",
      "type": "function"
    },
    {
      "inputs": [
        {
          "internalType": "string",
          "name": "designation",
          "type": "string"
        }
      ],
      "name": "register_user",
      "outputs": [],
      "stateMutability": "nonpayable",
      "type": "function"
    },
    {
      "inputs": [
        {
          "internalType": "address",
          "name": "user",
          "type": "address"
        }
      ],
      "name": "returnRole",
      "outputs": [
        {
          "internalType": "uint256",
          "name": "",
          "type": "uint256"
        }
      ],
      "stateMutability": "view",
      "type": "function",
      "constant": true
    },
    {
      "inputs": [
        {
          "internalType": "string",
          "name": "designation",
          "type": "string"
        },
        {
          "internalType": "address",
          "name": "user",
          "type": "address"
        }
      ],
      "name": "setRole",
      "outputs": [],
      "stateMutability": "nonpayable",
      "type": "function"
    },
    {
      "inputs": [
        {
          "internalType": "uint256",
          "name": "num",
          "type": "uint256"
        }
      ],
      "name": "does_case_exists",
      "outputs": [
        {
          "internalType": "bool",
          "name": "",
          "type": "bool"
        }
      ],
      "stateMutability": "view",
      "type": "function",
      "constant": true
    },
    {
      "inputs": [
        {
          "internalType": "string",
          "name": "name",
          "type": "string"
        },
        {
          "internalType": "uint256",
          "name": "case_number",
          "type": "uint256"
        }
      ],
      "name": "createcase",
      "outputs": [],
      "stateMutability": "payable",
      "type": "function",
      "payable": true
    },
    {
      "inputs": [
        {
          "internalType": "uint256",
          "name": "case_number",
          "type": "uint256"
        }
      ],
      "name": "returnHI",
      "outputs": [
        {
          "internalType": "address",
          "name": "",
          "type": "address"
        }
      ],
      "stateMutability": "payable",
      "type": "function",
      "payable": true
    },
    {
      "inputs": [
        {
          "internalType": "address",
          "name": "user",
          "type": "address"
        },
        {
          "internalType": "uint256",
          "name": "number",
          "type": "uint256"
        }
      ],
      "name": "is_authorized",
      "outputs": [
        {
          "internalType": "bool",
          "name": "",
          "type": "bool"
        }
      ],
      "stateMutability": "view",
      "type": "function",
      "constant": true
    },
    {
      "inputs": [
        {
          "internalType": "address",
          "name": "inv",
          "type": "address"
        },
        {
          "internalType": "uint256",
          "name": "num",
          "type": "uint256"
        }
      ],
      "name": "add_investigator",
      "outputs": [],
      "stateMutability": "payable",
      "type": "function",
      "payable": true
    },
    {
      "inputs": [
        {
          "internalType": "uint256",
          "name": "case_number",
          "type": "uint256"
        },
        {
          "internalType": "bytes32",
          "name": "key",
          "type": "bytes32"
        }
      ],
      "name": "does_evidence_exists",
      "outputs": [
        {
          "internalType": "bool",
          "name": "",
          "type": "bool"
        }
      ],
      "stateMutability": "view",
      "type": "function",
      "constant": true
    },
    {
      "inputs": [
        {
          "internalType": "uint256",
          "name": "case_number",
          "type": "uint256"
        },
        {
          "internalType": "bytes32",
          "name": "key",
          "type": "bytes32"
        }
      ],
      "name": "is_level_assigned",
      "outputs": [
        {
          "internalType": "bool",
          "name": "",
          "type": "bool"
        }
      ],
      "stateMutability": "view",
      "type": "function",
      "constant": true
    },
    {
      "inputs": [
        {
          "internalType": "uint256",
          "name": "case_number",
          "type": "uint256"
        },
        {
          "internalType": "address",
          "name": "inv",
          "type": "address"
        }
      ],
      "name": "remove_investigator",
      "outputs": [],
      "stateMutability": "payable",
      "type": "function",
      "payable": true
    },
    {
      "inputs": [
        {
          "internalType": "uint256",
          "name": "case_num",
          "type": "uint256"
        },
        {
          "internalType": "string",
          "name": "ev",
          "type": "string"
        },
        {
          "internalType": "uint256",
          "name": "level",
          "type": "uint256"
        }
      ],
      "name": "assign_inl",
      "outputs": [],
      "stateMutability": "payable",
      "type": "function",
      "payable": true
    },
    {
      "inputs": [
        {
          "internalType": "uint256",
          "name": "case_num",
          "type": "uint256"
        },
        {
          "internalType": "string",
          "name": "ev",
          "type": "string"
        },
        {
          "internalType": "address",
          "name": "user",
          "type": "address"
        }
      ],
      "name": "register_evi",
      "outputs": [],
      "stateMutability": "payable",
      "type": "function",
      "payable": true
    },
    {
      "inputs": [
        {
          "internalType": "uint256",
          "name": "case_num",
          "type": "uint256"
        },
        {
          "internalType": "bytes32",
          "name": "key",
          "type": "bytes32"
        }
      ],
      "name": "return_level",
      "outputs": [
        {
          "internalType": "uint256",
          "name": "",
          "type": "uint256"
        }
      ],
      "stateMutability": "payable",
      "type": "function",
      "payable": true
    }
  ],
  "bytecode": "0x60806040523480156200001157600080fd5b50600160006040516200002490620000df565b90815260200160405180910390208190555060046000604051620000489062000146565b908152602001604051809103902081905550600760006040516200006c90620001ad565b908152602001604051809103902081905550620001c4565b600081905092915050565b7f4865616420496e76657374696761746f72000000000000000000000000000000600082015250565b6000620000c760118362000084565b9150620000d4826200008f565b601182019050919050565b6000620000ec82620000b8565b9150819050919050565b7f4c65616420496e76657374696761746f72000000000000000000000000000000600082015250565b60006200012e60118362000084565b91506200013b82620000f6565b601182019050919050565b600062000153826200011f565b9150819050919050565b7f5465616d20496e76657374696761746f72000000000000000000000000000000600082015250565b60006200019560118362000084565b9150620001a2826200015d565b601182019050919050565b6000620001ba8262000186565b9150819050919050565b6122ee80620001d46000396000f3fe6080604052600436106101095760003560e01c80636cad4fa611610095578063cfde189011610064578063cfde189014610375578063d014fe401461039e578063d07a3b68146103c7578063f7bb8893146103e3578063fb5f5c571461042057610109565b80636cad4fa6146102bc57806374bab760146102d8578063ac50417c14610308578063b929a0921461033857610109565b80633646f329116100dc5780633646f329146101ac5780634cc70a0f146101e957806359ea8ddd146102265780635ce7cd581461026357806364093834146102a057610109565b8063027a65c21461010e57806305805e021461012a578063080e051914610167578063257dbfc314610190575b600080fd5b610128600480360381019061012391906112f8565b61045d565b005b34801561013657600080fd5b50610151600480360381019061014c91906113a2565b610601565b60405161015e91906113fd565b60405180910390f35b34801561017357600080fd5b5061018e60048036038101906101899190611476565b61064c565b005b6101aa60048036038101906101a59190611617565b61065c565b005b3480156101b857600080fd5b506101d360048036038101906101ce9190611686565b6107b4565b6040516101e091906113fd565b60405180910390f35b3480156101f557600080fd5b50610210600480360381019061020b9190611686565b610810565b60405161021d91906116c2565b60405180910390f35b34801561023257600080fd5b5061024d600480360381019061024891906116dd565b6108a8565b60405161025a91906113fd565b60405180910390f35b34801561026f57600080fd5b5061028a60048036038101906102859190611686565b61091f565b60405161029791906116c2565b60405180910390f35b6102ba60048036038101906102b5919061171d565b610936565b005b6102d660048036038101906102d191906116dd565b6109d2565b005b6102f260048036038101906102ed919061175d565b610a35565b6040516102ff9190611799565b60405180910390f35b610322600480360381019061031d91906113a2565b610a7a565b60405161032f91906116c2565b60405180910390f35b34801561034457600080fd5b5061035f600480360381019061035a919061175d565b610ba7565b60405161036c91906113fd565b60405180910390f35b34801561038157600080fd5b5061039c60048036038101906103979190611476565b610c09565b005b3480156103aa57600080fd5b506103c560048036038101906103c091906117b4565b610db3565b005b6103e160048036038101906103dc9190611801565b610dc2565b005b3480156103ef57600080fd5b5061040a600480360381019061040591906113a2565b611018565b60405161041791906113fd565b60405180910390f35b34801561042c57600080fd5b5061044760048036038101906104429190611686565b6110dc565b60405161045491906113fd565b60405180910390f35b60008383604051602001610472929190611891565b6040516020818303038152906040528051906020012090503373ffffffffffffffffffffffffffffffffffffffff166104aa86610a35565b73ffffffffffffffffffffffffffffffffffffffff1614610500576040517f08c379a00000000000000000000000000000000000000000000000000000000081526004016104f79061192d565b60405180910390fd5b6001151561050d86610ba7565b15151461054f576040517f08c379a000000000000000000000000000000000000000000000000000000000815260040161054690611999565b60405180910390fd5b6000151561055d8683611018565b15151461059f576040517f08c379a000000000000000000000000000000000000000000000000000000000815260040161059690611a05565b60405180910390fd5b600015156105ad8683610601565b1515146105ef576040517f08c379a00000000000000000000000000000000000000000000000000000000081526004016105e690611a71565b60405180910390fd5b6105fa8186846110f3565b5050505050565b60008060046000858152602001908152602001600020905060018160030160008581526020019081526020016000205403610640576000915050610646565b60019150505b92915050565b610657838383610c09565b505050565b60008260405160200161066f9190611b00565b6040516020818303038152906040528051906020012090506001151561069485610ba7565b1515146106d6576040517f08c379a00000000000000000000000000000000000000000000000000000000081526004016106cd90611999565b60405180910390fd5b600015156106e48583611018565b151514610726576040517f08c379a000000000000000000000000000000000000000000000000000000000815260040161071d90611a05565b60405180910390fd5b6000600460008681526020019081526020016000209050600181600301600084815260200190815260200160002081905550600181600601600082825461076d9190611b46565b925050819055507fc1af16f5f8e3c3b57e2843dd14aab5832a95aeef0736b7b44cffc4d32c64cb9d82846040516107a5929190611bf7565b60405180910390a15050505050565b60006001600260008473ffffffffffffffffffffffffffffffffffffffff1673ffffffffffffffffffffffffffffffffffffffff1681526020019081526020016000205403610806576001905061080b565b600090505b919050565b60006001151561081f836107b4565b151514610861576040517f08c379a000000000000000000000000000000000000000000000000000000000815260040161085890611c7f565b60405180910390fd5b600160008373ffffffffffffffffffffffffffffffffffffffff1673ffffffffffffffffffffffffffffffffffffffff168152602001908152602001600020549050919050565b60008060046000848152602001908152602001600020905060018160040160008673ffffffffffffffffffffffffffffffffffffffff1673ffffffffffffffffffffffffffffffffffffffff1681526020019081526020016000205403610913576001915050610919565b60009150505b92915050565b60008061092b83610810565b905080915050919050565b600060046000848152602001908152602001600020905060008160040160008473ffffffffffffffffffffffffffffffffffffffff1673ffffffffffffffffffffffffffffffffffffffff168152602001908152602001600020819055507fb6b4e493a9247fb90495ec09db8e16879fe0ccf6f478ef5252b5de4559f319f282846040516109c5929190611d11565b60405180910390a1505050565b600060046000838152602001908152602001600020905060018160040160008573ffffffffffffffffffffffffffffffffffffffff1673ffffffffffffffffffffffffffffffffffffffff16815260200190815260200160002081905550505050565b6000806004600084815260200190815260200160002090508060050160009054906101000a900473ffffffffffffffffffffffffffffffffffffffff16915050919050565b600060011515610a8984610ba7565b151514610acb576040517f08c379a0000000000000000000000000000000000000000000000000000000008152600401610ac290611999565b60405180910390fd5b60011515610ad98484611018565b151514610b1b576040517f08c379a0000000000000000000000000000000000000000000000000000000008152600401610b1290611d99565b60405180910390fd5b60011515610b298484610601565b151514610b6b576040517f08c379a0000000000000000000000000000000000000000000000000000000008152600401610b6290611e05565b60405180910390fd5b60006004600085815260200190815260200160002090506000816002016000858152602001908152602001600020549050809250505092915050565b600080600090505b600380549050811015610bfe578260038281548110610bd157610bd0611e25565b5b906000526020600020015403610beb576001915050610c04565b8080610bf690611e54565b915050610baf565b50600090505b919050565b60001515610c16826107b4565b151514610c58576040517f08c379a0000000000000000000000000000000000000000000000000000000008152600401610c4f90611ee8565b60405180910390fd5b6000610c64848461117c565b11610ca4576040517f08c379a0000000000000000000000000000000000000000000000000000000008152600401610c9b90611f54565b60405180910390fd5b610cae838361117c565b600160008373ffffffffffffffffffffffffffffffffffffffff1673ffffffffffffffffffffffffffffffffffffffff168152602001908152602001600020819055506001600260008373ffffffffffffffffffffffffffffffffffffffff1673ffffffffffffffffffffffffffffffffffffffff168152602001908152602001600020819055507faa6d010bb351bc431c1230873f88f8f8b97c823fe65b1e102216919af719b1a281600160008473ffffffffffffffffffffffffffffffffffffffff1673ffffffffffffffffffffffffffffffffffffffff16815260200190815260200160002054604051610da6929190611fc0565b60405180910390a1505050565b610dbe82823361064c565b5050565b60011515610dcf336110dc565b151514610e11576040517f08c379a0000000000000000000000000000000000000000000000000000000008152600401610e0890611c7f565b60405180910390fd5b60001515610e1e82610ba7565b151514610e60576040517f08c379a0000000000000000000000000000000000000000000000000000000008152600401610e5790612048565b60405180910390fd5b6001610e6b3361091f565b14610eab576040517f08c379a0000000000000000000000000000000000000000000000000000000008152600401610ea2906120da565b60405180910390fd5b60006004600083815260200190815260200160002090508383826000019190610ed59291906111a6565b508383604051602001610ee9929190611891565b604051602081830303815290604052805190602001208160010181905550338160050160006101000a81548173ffffffffffffffffffffffffffffffffffffffff021916908373ffffffffffffffffffffffffffffffffffffffff16021790555060018160040160003373ffffffffffffffffffffffffffffffffffffffff1673ffffffffffffffffffffffffffffffffffffffff16815260200190815260200160002081905550601981600701819055504281600801819055506000816009018190555060038290806001815401808255809150506001900390600052602060002001600090919091909150557f266d5cf462bf1f0254a78139854880064d99b9f9359d49bea6b8637ccf826cec84848460405161100a93929190612173565b60405180910390a150505050565b60006001151561102784610ba7565b151514611069576040517f08c379a000000000000000000000000000000000000000000000000000000000815260040161106090611999565b60405180910390fd5b600060046000858152602001908152602001600020905060008160020160008581526020019081526020016000205411156110a85760019150506110d6565b60008160030160008581526020019081526020016000205411156110d05760019150506110d6565b60009150505b92915050565b6000806110e8836107b4565b905080915050919050565b600060046000848152602001908152602001600020905081816002016000868152602001908152602001600020819055506000816003016000868152602001908152602001600020819055507fa5b14494dc23eecde6552fb600b649e07cd8469e1e6738027781646914acfad88460405161116e919061222a565b60405180910390a150505050565b600080838360405161118f929190611891565b908152602001604051809103902054905092915050565b8280546111b290612287565b90600052602060002090601f0160209004810192826111d4576000855561121b565b82601f106111ed57803560ff191683800117855561121b565b8280016001018555821561121b579182015b8281111561121a5782358255916020019190600101906111ff565b5b509050611228919061122c565b5090565b5b8082111561124557600081600090555060010161122d565b5090565b6000604051905090565b600080fd5b600080fd5b6000819050919050565b6112708161125d565b811461127b57600080fd5b50565b60008135905061128d81611267565b92915050565b600080fd5b600080fd5b600080fd5b60008083601f8401126112b8576112b7611293565b5b8235905067ffffffffffffffff8111156112d5576112d4611298565b5b6020830191508360018202830111156112f1576112f061129d565b5b9250929050565b6000806000806060858703121561131257611311611253565b5b60006113208782880161127e565b945050602085013567ffffffffffffffff81111561134157611340611258565b5b61134d878288016112a2565b935093505060406113608782880161127e565b91505092959194509250565b6000819050919050565b61137f8161136c565b811461138a57600080fd5b50565b60008135905061139c81611376565b92915050565b600080604083850312156113b9576113b8611253565b5b60006113c78582860161127e565b92505060206113d88582860161138d565b9150509250929050565b60008115159050919050565b6113f7816113e2565b82525050565b600060208201905061141260008301846113ee565b92915050565b600073ffffffffffffffffffffffffffffffffffffffff82169050919050565b600061144382611418565b9050919050565b61145381611438565b811461145e57600080fd5b50565b6000813590506114708161144a565b92915050565b60008060006040848603121561148f5761148e611253565b5b600084013567ffffffffffffffff8111156114ad576114ac611258565b5b6114b9868287016112a2565b935093505060206114cc86828701611461565b9150509250925092565b600080fd5b6000601f19601f8301169050919050565b7f4e487b7100000000000000000000000000000000000000000000000000000000600052604160045260246000fd5b611524826114db565b810181811067ffffffffffffffff82111715611543576115426114ec565b5b80604052505050565b6000611556611249565b9050611562828261151b565b919050565b600067ffffffffffffffff821115611582576115816114ec565b5b61158b826114db565b9050602081019050919050565b82818337600083830152505050565b60006115ba6115b584611567565b61154c565b9050828152602081018484840111156115d6576115d56114d6565b5b6115e1848285611598565b509392505050565b600082601f8301126115fe576115fd611293565b5b813561160e8482602086016115a7565b91505092915050565b6000806000606084860312156116305761162f611253565b5b600061163e8682870161127e565b935050602084013567ffffffffffffffff81111561165f5761165e611258565b5b61166b868287016115e9565b925050604061167c86828701611461565b9150509250925092565b60006020828403121561169c5761169b611253565b5b60006116aa84828501611461565b91505092915050565b6116bc8161125d565b82525050565b60006020820190506116d760008301846116b3565b92915050565b600080604083850312156116f4576116f3611253565b5b600061170285828601611461565b92505060206117138582860161127e565b9150509250929050565b6000806040838503121561173457611733611253565b5b60006117428582860161127e565b925050602061175385828601611461565b9150509250929050565b60006020828403121561177357611772611253565b5b60006117818482850161127e565b91505092915050565b61179381611438565b82525050565b60006020820190506117ae600083018461178a565b92915050565b600080602083850312156117cb576117ca611253565b5b600083013567ffffffffffffffff8111156117e9576117e8611258565b5b6117f5858286016112a2565b92509250509250929050565b60008060006040848603121561181a57611819611253565b5b600084013567ffffffffffffffff81111561183857611837611258565b5b611844868287016112a2565b935093505060206118578682870161127e565b9150509250925092565b600081905092915050565b60006118788385611861565b9350611885838584611598565b82840190509392505050565b600061189e82848661186c565b91508190509392505050565b600082825260208201905092915050565b7f4f6e6c79204865616420496e76657374696761746f722063616e20617373696760008201527f6e206c6576656c20746f2065766964656e636500000000000000000000000000602082015250565b60006119176033836118aa565b9150611922826118bb565b604082019050919050565b600060208201905081810360008301526119468161190a565b9050919050565b7f4361736520646f6573206e6f7420657869737473000000000000000000000000600082015250565b60006119836014836118aa565b915061198e8261194d565b602082019050919050565b600060208201905081810360008301526119b281611976565b9050919050565b7f45766964656e6365206578697374730000000000000000000000000000000000600082015250565b60006119ef600f836118aa565b91506119fa826119b9565b602082019050919050565b60006020820190508181036000830152611a1e816119e2565b9050919050565b7f4c6576656c2061737369676e6564000000000000000000000000000000000000600082015250565b6000611a5b600e836118aa565b9150611a6682611a25565b602082019050919050565b60006020820190508181036000830152611a8a81611a4e565b9050919050565b600081519050919050565b60005b83811015611aba578082015181840152602081019050611a9f565b83811115611ac9576000848401525b50505050565b6000611ada82611a91565b611ae48185611861565b9350611af4818560208601611a9c565b80840191505092915050565b6000611b0c8284611acf565b915081905092915050565b7f4e487b7100000000000000000000000000000000000000000000000000000000600052601160045260246000fd5b6000611b518261125d565b9150611b5c8361125d565b9250827fffffffffffffffffffffffffffffffffffffffffffffffffffffffffffffffff03821115611b9157611b90611b17565b5b828201905092915050565b7f45766964656e636520686173206265656e207265676973746572656420627900600082015250565b6000611bd2601f836118aa565b9150611bdd82611b9c565b602082019050919050565b611bf18161136c565b82525050565b60006060820190508181036000830152611c1081611bc5565b9050611c1f6020830185611be8565b611c2c604083018461178a565b9392505050565b7f55736572206973206e6f74207265676973746572656400000000000000000000600082015250565b6000611c696016836118aa565b9150611c7482611c33565b602082019050919050565b60006020820190508181036000830152611c9881611c5c565b9050919050565b7f496e76657374696761746f7220686173206265656e2072656d6f76656420667260008201527f6f6d206361736500000000000000000000000000000000000000000000000000602082015250565b6000611cfb6027836118aa565b9150611d0682611c9f565b604082019050919050565b60006060820190508181036000830152611d2a81611cee565b9050611d39602083018561178a565b611d4660408301846116b3565b9392505050565b7f45766964656e636520646f6573206e6f74206578697374730000000000000000600082015250565b6000611d836018836118aa565b9150611d8e82611d4d565b602082019050919050565b60006020820190508181036000830152611db281611d76565b9050919050565b7f45766964656e6365206e6f742076616c69640000000000000000000000000000600082015250565b6000611def6012836118aa565b9150611dfa82611db9565b602082019050919050565b60006020820190508181036000830152611e1e81611de2565b9050919050565b7f4e487b7100000000000000000000000000000000000000000000000000000000600052603260045260246000fd5b6000611e5f8261125d565b91507fffffffffffffffffffffffffffffffffffffffffffffffffffffffffffffffff8203611e9157611e90611b17565b5b600182019050919050565b7f5573657220416c72656164792052656769737465726564000000000000000000600082015250565b6000611ed26017836118aa565b9150611edd82611e9c565b602082019050919050565b60006020820190508181036000830152611f0181611ec5565b9050919050565b7f496e76616c69642064657369676e6174696f6e00000000000000000000000000600082015250565b6000611f3e6013836118aa565b9150611f4982611f08565b602082019050919050565b60006020820190508181036000830152611f6d81611f31565b9050919050565b7f205573657220526567697374726174696f6e20436f6d706c6574656400000000600082015250565b6000611faa601c836118aa565b9150611fb582611f74565b602082019050919050565b60006060820190508181036000830152611fd981611f9d565b9050611fe8602083018561178a565b611ff560408301846116b3565b9392505050565b7f4361736520697320616c72656164792063726561746564000000000000000000600082015250565b60006120326017836118aa565b915061203d82611ffc565b602082019050919050565b6000602082019050818103600083015261206181612025565b9050919050565b7f4f6e6c79204865616420496e76657374696761746f722063616e20637265617460008201527f6520636173657300000000000000000000000000000000000000000000000000602082015250565b60006120c46027836118aa565b91506120cf82612068565b604082019050919050565b600060208201905081810360008301526120f3816120b7565b9050919050565b7f4361736520526567697374657265640000000000000000000000000000000000600082015250565b6000612130600f836118aa565b915061213b826120fa565b602082019050919050565b600061215283856118aa565b935061215f838584611598565b612168836114db565b840190509392505050565b6000606082019050818103600083015261218c81612123565b905081810360208301526121a1818587612146565b90506121b060408301846116b3565b949350505050565b7f45766964656e6365206173206265656e2061737369676e65642061206c65766560008201527f6c00000000000000000000000000000000000000000000000000000000000000602082015250565b60006122146021836118aa565b915061221f826121b8565b604082019050919050565b6000604082019050818103600083015261224381612207565b90506122526020830184611be8565b92915050565b7f4e487b7100000000000000000000000000000000000000000000000000000000600052602260045260246000fd5b6000600282049050600182168061229f57607f821691505b6020821081036122b2576122b1612258565b5b5091905056fea26469706673582212200e39045e9da1e7ea58c81dcdfe0393c7d250098e851a067223c9b7244b307e2864736f6c634300080d0033",
  "immutableReferences": {},
  "source": "// SPDX-License-Identifier: MIT\r\npragma solidity ^0.8.9;\r\nimport \"./AssignRole.sol\";\r\nimport \"./Register.sol\";\r\n///@title this contract checks whether requestor is head investigator or not\r\n///and then allows creation of case\r\ncontract Case is AssignRole, Register {\r\n    struct SCase {\r\n        string ID;\r\n        bytes32 IDhash;\r\n        mapping(bytes32 => uint) AssignedEvidences;\r\n        mapping(bytes32 => uint) UnassignedEvidences;\r\n        mapping(address => uint) investigators;\r\n        address HI;\r\n        uint evid;\r\n        uint stipulatedtime; // once case is over, evidence of a case will be deleted after this much time\r\n        uint creationtime;\r\n        uint closetime;\r\n    }\r\n    uint[] Cases;\r\n    mapping(uint => SCase) cases; // keep track of mulitple cases running\r\n    event CaseRegistrationDone(string, string, uint);\r\n    event InvestigatorRemoved(string, address, uint);\r\n    event EvidenceAssignedLevel(string, bytes32);\r\n    event EvidenceRegistered(string, bytes32, address);\r\n    event EvidenceDeleted(string, uint, bytes32);\r\n    event CaseClosed(string, uint);\r\n    ///@notice checks if case has already been created\r\n    function does_case_exists(uint num) public view returns (bool) {\r\n        for (uint i = 0; i < Cases.length; i++) {\r\n            if (Cases[i] == num) {\r\n                return true;\r\n            }\r\n        }\r\n        return false;\r\n    }\r\n\r\n    /// @notice creates a case\r\n    /// @param name Name of the Case File ; @param case_number Unique Number assigned to case\r\n    function createcase(string calldata name, uint case_number) public payable {\r\n        require(\r\n            publicDoesUserExists(msg.sender) == true,\r\n            \"User is not registered\"\r\n        );\r\n        require(\r\n            does_case_exists(case_number) == false,\r\n            \"Case is already created\"\r\n        );\r\n        require(\r\n            publicreturnRole(msg.sender) == 1,\r\n            \"Only Head Investigator can create cases\"\r\n        );\r\n        SCase storage newCase = cases[case_number];\r\n        newCase.ID = name;\r\n        newCase.IDhash = keccak256(abi.encodePacked(name));\r\n        newCase.HI = msg.sender;\r\n        newCase.investigators[msg.sender] = 1;\r\n        newCase.stipulatedtime = 25;\r\n        newCase.creationtime = block.timestamp;\r\n        newCase.closetime = 0;\r\n        Cases.push(case_number);\r\n        emit CaseRegistrationDone(\"Case Registered\", name, case_number);\r\n    }\r\n\r\n    ///@notice returns Head Investigator of a case\r\n    function returnHI(uint case_number) public payable returns (address) {\r\n        SCase storage newCase = cases[case_number];\r\n        return (newCase.HI);\r\n    }\r\n\r\n    ///@notice returns whether an user is authorised to work on a case\r\n    /// @param user address of user requesting access; @param number Unique Case Number\r\n    function is_authorized(\r\n        address user,\r\n        uint number\r\n    ) public view returns (bool) {\r\n        // DAC\r\n        SCase storage nC = cases[number];\r\n        if (nC.investigators[user] == 1) {\r\n            return true;\r\n        }\r\n        return false;\r\n    }\r\n\r\n    /// @notice this introduces DAC, allows Head Investigator to modify access rights\r\n    function add_investigator(address inv, uint num) public payable {\r\n        SCase storage newC = cases[num];\r\n        newC.investigators[inv] = 1;\r\n    }\r\n\r\n    /// @notice checks whether evidence exists\r\n    /// @param case_number unique id of case, @param key hash of evidence which has to be assigned level \r\n    function does_evidence_exists(\r\n        uint case_number,\r\n        bytes32 key\r\n    ) public view returns (bool) {\r\n        require(does_case_exists(case_number) == true, \"Case does not exists\");\r\n        SCase storage c = cases[case_number];\r\n        if (c.AssignedEvidences[key] > 0) {\r\n            return true;\r\n        }\r\n        if (c.UnassignedEvidences[key] > 0) {\r\n            return true;\r\n        }\r\n        return false;\r\n    }\r\n\r\n    /// @notice checks whether level is assigned to evidence\r\n    function is_level_assigned(\r\n        uint case_number,\r\n        bytes32 key\r\n    ) public view returns (bool) {\r\n        SCase storage c = cases[case_number];\r\n        if (c.UnassignedEvidences[key] == 1) {\r\n            return false;\r\n        }\r\n        return true;\r\n    }\r\n\r\n    ///@notice DAC policy allows removal of an investigator from case\r\n    function remove_investigator(uint case_number, address inv) public payable {\r\n        // remove an investigator from DAC policy\r\n        SCase storage nC = cases[case_number];\r\n        nC.investigators[inv] = 0;\r\n        emit InvestigatorRemoved(\r\n            \"Investigator has been removed from case\",\r\n            inv,\r\n            case_number\r\n        );\r\n    }\r\n\r\n    /// @notice allows Head Investigator to assign integrity level to an evidence\r\n    function setlevel(bytes32 key, uint case_num, uint level) internal {\r\n        SCase storage nc = cases[case_num];\r\n        nc.AssignedEvidences[key] = level; // addition to Assigned evidences\r\n        nc.UnassignedEvidences[key] = 0; // removal from Unassigned evidences\r\n        emit EvidenceAssignedLevel(\"Evidence as been assigned a level\", key);\r\n    }\r\n\r\n    ///@notice caller function to assign level to an evidence \r\n    function assign_inl(uint case_num, string calldata ev, uint level) public payable {\r\n        // assign level\r\n        bytes32 key = keccak256(abi.encodePacked(ev));\r\n        require(returnHI(case_num)==msg.sender, \"Only Head Investigator can assign level to evidence\");\r\n        require(does_case_exists(case_num) == true, \"Case does not exists\");\r\n        require(\r\n            does_evidence_exists(case_num, key) == false,\r\n            \"Evidence exists\"\r\n        );\r\n        require(is_level_assigned(case_num, key) == false, \"Level assigned\");\r\n        setlevel(key, case_num, level);\r\n    }\r\n\r\n    ///@notice allows user to register new information\r\n    /// @param case_num Unique case ID; @param ev information ; @param user address of requestor\r\n    function register_evi(\r\n        uint case_num,\r\n        string memory ev,\r\n        address user\r\n    ) public payable {\r\n        bytes32 key = keccak256(abi.encodePacked(ev));\r\n        require(does_case_exists(case_num) == true, \"Case does not exists\");\r\n        require(\r\n            does_evidence_exists(case_num, key) == false,\r\n            \"Evidence exists\"\r\n        );\r\n        SCase storage nC = cases[case_num];\r\n        nC.UnassignedEvidences[key] = 1;\r\n        nC.evid += 1;\r\n        emit EvidenceRegistered(\"Evidence has been registered by\", key, user);\r\n    }\r\n\r\n    ///@notice return level of integrity assigned to an evidence\r\n    ///@param key unique identifier of evidence\r\n    function return_level(\r\n        uint case_num,\r\n        bytes32 key\r\n    ) public payable returns (uint) {\r\n        require(does_case_exists(case_num) == true, \"Case does not exists\");\r\n        require(\r\n            does_evidence_exists(case_num, key) == true,\r\n            \"Evidence does not exists\"\r\n        );\r\n        require(is_level_assigned(case_num, key) == true, \"Evidence not valid\");\r\n        SCase storage nc = cases[case_num];\r\n        uint lvl = nc.AssignedEvidences[key];\r\n        return lvl;\r\n    }\r\n\r\n    ///@notice allows deletion of evidence\r\n    function delete_evidence(bytes32 key, uint case_num) internal {\r\n        SCase storage nc = cases[case_num];\r\n        require(does_case_exists(case_num) == true, \"Case does not exists\");\r\n        require(\r\n            is_closed(case_num) == 1,\r\n            \"Case is still open. Cannot delete evidence\"\r\n        );\r\n        require(\r\n            does_evidence_exists(case_num, key) == true,\r\n            \"Evidence does not exists\"\r\n        );\r\n        require(is_level_assigned(case_num, key) == true, \"Evidence not valid\");\r\n        nc.AssignedEvidences[key] = 0;\r\n        emit EvidenceDeleted(\r\n            \"Evidence from Case has been deleted\",\r\n            case_num,\r\n            key\r\n        );\r\n    }\r\n\r\n    ///@notice closes a case\r\n    function case_closing(uint case_num) internal {\r\n        require(\r\n            returnRole(msg.sender) == 1,\r\n            \"Only Head Investigator can create cases\"\r\n        );\r\n        SCase storage nc = cases[case_num];\r\n        require(\r\n            nc.HI == msg.sender,\r\n            \"Only Head Investigator of the case can close it.\"\r\n        );\r\n        nc.closetime = block.timestamp;\r\n        emit CaseClosed(\"Case is closed\", case_num);\r\n    }\r\n\r\n    function is_closed(uint case_num) internal view returns (uint) {\r\n        SCase storage nc = cases[case_num];\r\n        if (nc.closetime == 0) {\r\n            return 0;\r\n        }\r\n        return 1;\r\n    }\r\n}\r\n",
  "sourcePath": "C:\\Users\\shrey\\repo2\\contracts\\Case.sol",
  "compiler": {
    "name": "solc",
    "version": "0.8.13+commit.abaa5c0e.Emscripten.clang"
  },
  "schemaVersion": "3.4.16",
  "updatedAt": "2024-11-20T16:35:24.416Z",
  "networkType": "ethereum",
  "devdoc": {
    "kind": "dev",
    "methods": {
      "createcase(string,uint256)": {
        "params": {
          "name": "Name of the Case File ; @param case_number Unique Number assigned to case"
        }
      },
      "does_evidence_exists(uint256,bytes32)": {
        "params": {
          "case_number": "unique id of case, @param key hash of evidence which has to be assigned level "
        }
      },
      "is_authorized(address,uint256)": {
        "params": {
          "user": "address of user requesting access; @param number Unique Case Number"
        }
      },
      "register_evi(uint256,string,address)": {
        "params": {
          "case_num": "Unique case ID; @param ev information ; @param user address of requestor"
        }
      },
      "return_level(uint256,bytes32)": {
        "params": {
          "key": "unique identifier of evidence"
        }
      }
    },
    "title": "this contract checks whether requestor is head investigator or not and then allows creation of case",
    "version": 1
  },
  "userdoc": {
    "kind": "user",
    "methods": {
      "DoesUserExists(address)": {
        "notice": "checks if user is already existing"
      },
      "add_investigator(address,uint256)": {
        "notice": "this introduces DAC, allows Head Investigator to modify access rights"
      },
      "assign_inl(uint256,string,uint256)": {
        "notice": "caller function to assign level to an evidence "
      },
      "createcase(string,uint256)": {
        "notice": "creates a case"
      },
      "does_case_exists(uint256)": {
        "notice": "checks if case has already been created"
      },
      "does_evidence_exists(uint256,bytes32)": {
        "notice": "checks whether evidence exists"
      },
      "is_authorized(address,uint256)": {
        "notice": "returns whether an user is authorised to work on a case"
      },
      "is_level_assigned(uint256,bytes32)": {
        "notice": "checks whether level is assigned to evidence"
      },
      "publicsetRole(string,address)": {
        "notice": "an interface functions used to call internal functions"
      },
      "register_evi(uint256,string,address)": {
        "notice": "allows user to register new information"
      },
      "remove_investigator(uint256,address)": {
        "notice": "DAC policy allows removal of an investigator from case"
      },
      "returnHI(uint256)": {
        "notice": "returns Head Investigator of a case"
      },
      "returnRole(address)": {
        "notice": "returns role of an user "
      },
      "return_level(uint256,bytes32)": {
        "notice": "return level of integrity assigned to an evidence"
      },
      "setRole(string,address)": {
        "notice": "allows an user to create account and set role"
      }
    },
    "version": 1
  }
}