{
  "contractName": "Case",
  "abi": [
    {
      "anonymous": false,
      "inputs": [
        {
          "indexed": false,
          "internalType": "string",
          "name": "",
          "type": "string"
        },
        {
          "indexed": false,
          "internalType": "address",
          "name": "",
          "type": "address"
        },
        {
          "indexed": false,
          "internalType": "string",
          "name": "",
          "type": "string"
        },
        {
          "indexed": false,
          "internalType": "uint256",
          "name": "",
          "type": "uint256"
        }
      ],
      "name": "CanRegisterEvidence",
      "type": "event"
    },
    {
      "anonymous": false,
      "inputs": [
        {
          "indexed": false,
          "internalType": "string",
          "name": "",
          "type": "string"
        },
        {
          "indexed": false,
          "internalType": "uint256",
          "name": "",
          "type": "uint256"
        }
      ],
      "name": "CaseClosed",
      "type": "event"
    },
    {
      "anonymous": false,
      "inputs": [
        {
          "indexed": false,
          "internalType": "string",
          "name": "",
          "type": "string"
        },
        {
          "indexed": false,
          "internalType": "string",
          "name": "",
          "type": "string"
        },
        {
          "indexed": false,
          "internalType": "uint256",
          "name": "",
          "type": "uint256"
        }
      ],
      "name": "CaseRegistrationDone",
      "type": "event"
    },
    {
      "anonymous": false,
      "inputs": [
        {
          "indexed": false,
          "internalType": "string",
          "name": "",
          "type": "string"
        },
        {
          "indexed": false,
          "internalType": "bytes32",
          "name": "",
          "type": "bytes32"
        }
      ],
      "name": "EvidenceAssignedLevel",
      "type": "event"
    },
    {
      "anonymous": false,
      "inputs": [
        {
          "indexed": false,
          "internalType": "string",
          "name": "",
          "type": "string"
        },
        {
          "indexed": false,
          "internalType": "uint256",
          "name": "",
          "type": "uint256"
        },
        {
          "indexed": false,
          "internalType": "bytes32",
          "name": "",
          "type": "bytes32"
        }
      ],
      "name": "EvidenceDeleted",
      "type": "event"
    },
    {
      "anonymous": false,
      "inputs": [
        {
          "indexed": false,
          "internalType": "string",
          "name": "",
          "type": "string"
        },
        {
          "indexed": false,
          "internalType": "address",
          "name": "",
          "type": "address"
        },
        {
          "indexed": false,
          "internalType": "string",
          "name": "",
          "type": "string"
        },
        {
          "indexed": false,
          "internalType": "bytes32",
          "name": "",
          "type": "bytes32"
        }
      ],
      "name": "EvidenceRegistered",
      "type": "event"
    },
    {
      "anonymous": false,
      "inputs": [
        {
          "indexed": false,
          "internalType": "string",
          "name": "",
          "type": "string"
        },
        {
          "indexed": false,
          "internalType": "address",
          "name": "",
          "type": "address"
        },
        {
          "indexed": false,
          "internalType": "uint256",
          "name": "",
          "type": "uint256"
        }
      ],
      "name": "InvestigatorRemoved",
      "type": "event"
    },
    {
      "anonymous": false,
      "inputs": [
        {
          "indexed": false,
          "internalType": "string",
          "name": "",
          "type": "string"
        },
        {
          "indexed": false,
          "internalType": "address",
          "name": "",
          "type": "address"
        },
        {
          "indexed": false,
          "internalType": "uint256",
          "name": "",
          "type": "uint256"
        }
      ],
      "name": "UserRegistrationDone",
      "type": "event"
    },
    {
      "inputs": [
        {
          "internalType": "address",
          "name": "user",
          "type": "address"
        }
      ],
      "name": "DoesUserExists",
      "outputs": [
        {
          "internalType": "bool",
          "name": "",
          "type": "bool"
        }
      ],
      "stateMutability": "view",
      "type": "function",
      "constant": true
    },
    {
      "inputs": [
        {
          "internalType": "address",
          "name": "user",
          "type": "address"
        }
      ],
      "name": "publicDoesUserExists",
      "outputs": [
        {
          "internalType": "bool",
          "name": "",
          "type": "bool"
        }
      ],
      "stateMutability": "view",
      "type": "function",
      "constant": true
    },
    {
      "inputs": [
        {
          "internalType": "address",
          "name": "user",
          "type": "address"
        }
      ],
      "name": "publicreturnRole",
      "outputs": [
        {
          "internalType": "uint256",
          "name": "",
          "type": "uint256"
        }
      ],
      "stateMutability": "view",
      "type": "function",
      "constant": true
    },
    {
      "inputs": [
        {
          "internalType": "string",
          "name": "desig",
          "type": "string"
        },
        {
          "internalType": "address",
          "name": "user",
          "type": "address"
        }
      ],
      "name": "publicsetRole",
      "outputs": [],
      "stateMutability": "nonpayable",
      "type": "function"
    },
    {
      "inputs": [
        {
          "internalType": "address",
          "name": "user",
          "type": "address"
        }
      ],
      "name": "returnRole",
      "outputs": [
        {
          "internalType": "uint256",
          "name": "",
          "type": "uint256"
        }
      ],
      "stateMutability": "view",
      "type": "function",
      "constant": true
    },
    {
      "inputs": [
        {
          "internalType": "string",
          "name": "designation",
          "type": "string"
        },
        {
          "internalType": "address",
          "name": "user",
          "type": "address"
        }
      ],
      "name": "setRole",
      "outputs": [],
      "stateMutability": "nonpayable",
      "type": "function"
    },
    {
      "inputs": [
        {
          "internalType": "uint256",
          "name": "num",
          "type": "uint256"
        }
      ],
      "name": "does_case_exists",
      "outputs": [
        {
          "internalType": "bool",
          "name": "",
          "type": "bool"
        }
      ],
      "stateMutability": "view",
      "type": "function",
      "constant": true
    },
    {
      "inputs": [
        {
          "internalType": "string",
          "name": "name",
          "type": "string"
        },
        {
          "internalType": "uint256",
          "name": "case_number",
          "type": "uint256"
        },
        {
          "internalType": "bytes32",
          "name": "AESkey",
          "type": "bytes32"
        }
      ],
      "name": "createcase",
      "outputs": [],
      "stateMutability": "payable",
      "type": "function",
      "payable": true
    },
    {
      "inputs": [
        {
          "internalType": "uint256",
          "name": "case_number",
          "type": "uint256"
        }
      ],
      "name": "returnHI",
      "outputs": [
        {
          "internalType": "address",
          "name": "",
          "type": "address"
        }
      ],
      "stateMutability": "payable",
      "type": "function",
      "payable": true
    },
    {
      "inputs": [
        {
          "internalType": "address",
          "name": "user",
          "type": "address"
        },
        {
          "internalType": "uint256",
          "name": "number",
          "type": "uint256"
        }
      ],
      "name": "is_authorized",
      "outputs": [
        {
          "internalType": "bool",
          "name": "",
          "type": "bool"
        }
      ],
      "stateMutability": "view",
      "type": "function",
      "constant": true
    },
    {
      "inputs": [
        {
          "internalType": "address",
          "name": "inv",
          "type": "address"
        },
        {
          "internalType": "uint256",
          "name": "num",
          "type": "uint256"
        }
      ],
      "name": "add_investigator",
      "outputs": [],
      "stateMutability": "payable",
      "type": "function",
      "payable": true
    },
    {
      "inputs": [
        {
          "internalType": "uint256",
          "name": "case_number",
          "type": "uint256"
        },
        {
          "internalType": "bytes32",
          "name": "key",
          "type": "bytes32"
        }
      ],
      "name": "does_evidence_exists",
      "outputs": [
        {
          "internalType": "bool",
          "name": "",
          "type": "bool"
        }
      ],
      "stateMutability": "view",
      "type": "function",
      "constant": true
    },
    {
      "inputs": [
        {
          "internalType": "uint256",
          "name": "case_number",
          "type": "uint256"
        },
        {
          "internalType": "bytes32",
          "name": "key",
          "type": "bytes32"
        }
      ],
      "name": "is_level_assigned",
      "outputs": [
        {
          "internalType": "bool",
          "name": "",
          "type": "bool"
        }
      ],
      "stateMutability": "view",
      "type": "function",
      "constant": true
    },
    {
      "inputs": [
        {
          "internalType": "uint256",
          "name": "case_number",
          "type": "uint256"
        },
        {
          "internalType": "address",
          "name": "inv",
          "type": "address"
        }
      ],
      "name": "remove_investigator",
      "outputs": [],
      "stateMutability": "payable",
      "type": "function",
      "payable": true
    },
    {
      "inputs": [
        {
          "internalType": "uint256",
          "name": "case_num",
          "type": "uint256"
        },
        {
          "internalType": "string",
          "name": "ev",
          "type": "string"
        },
        {
          "internalType": "uint256",
          "name": "level",
          "type": "uint256"
        }
      ],
      "name": "assign_inl",
      "outputs": [],
      "stateMutability": "payable",
      "type": "function",
      "payable": true
    },
    {
      "inputs": [
        {
          "internalType": "uint256",
          "name": "case_num",
          "type": "uint256"
        },
        {
          "internalType": "address",
          "name": "user",
          "type": "address"
        }
      ],
      "name": "register_evi",
      "outputs": [
        {
          "internalType": "bool",
          "name": "",
          "type": "bool"
        }
      ],
      "stateMutability": "payable",
      "type": "function",
      "payable": true
    },
    {
      "inputs": [
        {
          "internalType": "uint256",
          "name": "case_num",
          "type": "uint256"
        }
      ],
      "name": "returnAESkey",
      "outputs": [
        {
          "internalType": "bytes32",
          "name": "",
          "type": "bytes32"
        }
      ],
      "stateMutability": "view",
      "type": "function",
      "constant": true
    },
    {
      "inputs": [
        {
          "internalType": "uint256",
          "name": "case_num",
          "type": "uint256"
        }
      ],
      "name": "does_key_Exists",
      "outputs": [
        {
          "internalType": "bool",
          "name": "",
          "type": "bool"
        }
      ],
      "stateMutability": "view",
      "type": "function",
      "constant": true
    },
    {
      "inputs": [
        {
          "internalType": "uint256",
          "name": "case_num",
          "type": "uint256"
        },
        {
          "internalType": "address",
          "name": "user",
          "type": "address"
        },
        {
          "internalType": "string",
          "name": "CID",
          "type": "string"
        }
      ],
      "name": "add_evidence",
      "outputs": [],
      "stateMutability": "payable",
      "type": "function",
      "payable": true
    },
    {
      "inputs": [
        {
          "internalType": "uint256",
          "name": "case_num",
          "type": "uint256"
        },
        {
          "internalType": "bytes32",
          "name": "key",
          "type": "bytes32"
        }
      ],
      "name": "return_level",
      "outputs": [
        {
          "internalType": "uint256",
          "name": "",
          "type": "uint256"
        }
      ],
      "stateMutability": "payable",
      "type": "function",
      "payable": true
    }
  ],
  "bytecode": "0x60806040523480156200001157600080fd5b50600160006040516200002490620000df565b90815260200160405180910390208190555060046000604051620000489062000146565b908152602001604051809103902081905550600760006040516200006c90620001ad565b908152602001604051809103902081905550620001c4565b600081905092915050565b7f4865616420496e76657374696761746f72000000000000000000000000000000600082015250565b6000620000c760118362000084565b9150620000d4826200008f565b601182019050919050565b6000620000ec82620000b8565b9150819050919050565b7f4c65616420496e76657374696761746f72000000000000000000000000000000600082015250565b60006200012e60118362000084565b91506200013b82620000f6565b601182019050919050565b600062000153826200011f565b9150819050919050565b7f5465616d20496e76657374696761746f72000000000000000000000000000000600082015250565b60006200019560118362000084565b9150620001a2826200015d565b601182019050919050565b6000620001ba8262000186565b9150819050919050565b61261c80620001d46000396000f3fe60806040526004361061011f5760003560e01c806374bab760116100a0578063b929a09211610064578063b929a092146103e4578063c5470bd414610421578063cfde189014610451578063f7bb88931461047a578063fb5f5c57146104b75761011f565b806374bab7601461030f5780639026441b1461033f5780639c1559271461035b5780639ff3903314610377578063ac50417c146103b45761011f565b80634cc70a0f116100e75780634cc70a0f1461022057806359ea8ddd1461025d5780635ce7cd581461029a57806364093834146102d75780636cad4fa6146102f35761011f565b8063027a65c21461012457806305805e0214610140578063080e05191461017d5780632691297d146101a65780633646f329146101e3575b600080fd5b61013e600480360381019061013991906114c3565b6104f4565b005b34801561014c57600080fd5b506101676004803603810190610162919061156d565b610698565b60405161017491906115c8565b60405180910390f35b34801561018957600080fd5b506101a4600480360381019061019f9190611641565b6106e3565b005b3480156101b257600080fd5b506101cd60048036038101906101c891906116a1565b6106f3565b6040516101da91906116dd565b60405180910390f35b3480156101ef57600080fd5b5061020a600480360381019061020591906116f8565b610718565b60405161021791906115c8565b60405180910390f35b34801561022c57600080fd5b50610247600480360381019061024291906116f8565b610774565b6040516102549190611734565b60405180910390f35b34801561026957600080fd5b50610284600480360381019061027f919061174f565b61080c565b60405161029191906115c8565b60405180910390f35b3480156102a657600080fd5b506102c160048036038101906102bc91906116f8565b610883565b6040516102ce9190611734565b60405180910390f35b6102f160048036038101906102ec919061178f565b61089a565b005b61030d6004803603810190610308919061174f565b610936565b005b610329600480360381019061032491906116a1565b610999565b60405161033691906117de565b60405180910390f35b6103596004803603810190610354919061193a565b6109d6565b005b610375600480360381019061037091906119a9565b610ab9565b005b34801561038357600080fd5b5061039e600480360381019061039991906116a1565b610d09565b6040516103ab91906115c8565b60405180910390f35b6103ce60048036038101906103c9919061156d565b610d72565b6040516103db9190611734565b60405180910390f35b3480156103f057600080fd5b5061040b600480360381019061040691906116a1565b610e9f565b60405161041891906115c8565b60405180910390f35b61043b6004803603810190610436919061178f565b610ecf565b60405161044891906115c8565b60405180910390f35b34801561045d57600080fd5b5061047860048036038101906104739190611641565b610fb3565b005b34801561048657600080fd5b506104a1600480360381019061049c919061156d565b61115d565b6040516104ae91906115c8565b60405180910390f35b3480156104c357600080fd5b506104de60048036038101906104d991906116f8565b611221565b6040516104eb91906115c8565b60405180910390f35b60008383604051602001610509929190611a4d565b6040516020818303038152906040528051906020012090503373ffffffffffffffffffffffffffffffffffffffff1661054186610999565b73ffffffffffffffffffffffffffffffffffffffff1614610597576040517f08c379a000000000000000000000000000000000000000000000000000000000815260040161058e90611ae9565b60405180910390fd5b600115156105a486610e9f565b1515146105e6576040517f08c379a00000000000000000000000000000000000000000000000000000000081526004016105dd90611b55565b60405180910390fd5b600015156105f4868361115d565b151514610636576040517f08c379a000000000000000000000000000000000000000000000000000000000815260040161062d90611bc1565b60405180910390fd5b600015156106448683610698565b151514610686576040517f08c379a000000000000000000000000000000000000000000000000000000000815260040161067d90611c2d565b60405180910390fd5b610691818684611238565b5050505050565b600080600560008581526020019081526020016000209050600181600301600085815260200190815260200160002054036106d75760009150506106dd565b60019150505b92915050565b6106ee838383610fb3565b505050565b6000806005600084815260200190815260200160002090508060060154915050919050565b60006001600260008473ffffffffffffffffffffffffffffffffffffffff1673ffffffffffffffffffffffffffffffffffffffff168152602001908152602001600020540361076a576001905061076f565b600090505b919050565b60006001151561078383610718565b1515146107c5576040517f08c379a00000000000000000000000000000000000000000000000000000000081526004016107bc90611c99565b60405180910390fd5b600160008373ffffffffffffffffffffffffffffffffffffffff1673ffffffffffffffffffffffffffffffffffffffff168152602001908152602001600020549050919050565b60008060056000848152602001908152602001600020905060018160040160008673ffffffffffffffffffffffffffffffffffffffff1673ffffffffffffffffffffffffffffffffffffffff168152602001908152602001600020540361087757600191505061087d565b60009150505b92915050565b60008061088f83610774565b905080915050919050565b600060056000848152602001908152602001600020905060008160040160008473ffffffffffffffffffffffffffffffffffffffff1673ffffffffffffffffffffffffffffffffffffffff168152602001908152602001600020819055507fb6b4e493a9247fb90495ec09db8e16879fe0ccf6f478ef5252b5de4559f319f28284604051610929929190611d2b565b60405180910390a1505050565b600060056000838152602001908152602001600020905060018160040160008573ffffffffffffffffffffffffffffffffffffffff1673ffffffffffffffffffffffffffffffffffffffff16815260200190815260200160002081905550505050565b60006004600083815260200190815260200160002060009054906101000a900473ffffffffffffffffffffffffffffffffffffffff169050919050565b6000816040516020016109e99190611dd6565b60405160208183030381529060405280519060200120905060006005600086815260200190815260200160002090506001816003016000848152602001908152602001600020819055506001816008016000828254610a489190611e1c565b92505081905550828160050160008481526020019081526020016000209080519060200190610a789291906112eb565b507f60216ae48dd70a7b353420e8a4980e0d0a80bf44f861ee0b15ec356f596342438483604051610aaa929190611f0a565b60405180910390a15050505050565b60011515610ac633611221565b151514610b08576040517f08c379a0000000000000000000000000000000000000000000000000000000008152600401610aff90611c99565b60405180910390fd5b60001515610b1583610e9f565b151514610b57576040517f08c379a0000000000000000000000000000000000000000000000000000000008152600401610b4e90611fa5565b60405180910390fd5b6001610b6233610883565b14610ba2576040517f08c379a0000000000000000000000000000000000000000000000000000000008152600401610b9990612037565b60405180910390fd5b60006005600084815260200190815260200160002090508484826000019190610bcc929190611371565b508484604051602001610be0929190611a4d565b604051602081830303815290604052805190602001208160010181905550338160070160006101000a81548173ffffffffffffffffffffffffffffffffffffffff021916908373ffffffffffffffffffffffffffffffffffffffff16021790555060018160040160003373ffffffffffffffffffffffffffffffffffffffff1673ffffffffffffffffffffffffffffffffffffffff16815260200190815260200160002081905550818160060181905550601981600901819055504281600a0181905550600081600b0181905550600160036000858152602001908152602001600020819055507f266d5cf462bf1f0254a78139854880064d99b9f9359d49bea6b8637ccf826cec858585604051610cfa939291906120d0565b60405180910390a15050505050565b6000806005600084815260200190815260200160002090506000602060ff1611610d68576040517f08c379a0000000000000000000000000000000000000000000000000000000008152600401610d5f90612161565b60405180910390fd5b6001915050919050565b600060011515610d8184610e9f565b151514610dc3576040517f08c379a0000000000000000000000000000000000000000000000000000000008152600401610dba90611b55565b60405180910390fd5b60011515610dd1848461115d565b151514610e13576040517f08c379a0000000000000000000000000000000000000000000000000000000008152600401610e0a906121cd565b60405180910390fd5b60011515610e218484610698565b151514610e63576040517f08c379a0000000000000000000000000000000000000000000000000000000008152600401610e5a90612239565b60405180910390fd5b60006005600085815260200190815260200160002090506000816002016000858152602001908152602001600020549050809250505092915050565b60006001600360008481526020019081526020016000205403610ec55760019050610eca565b600090505b919050565b600060011515610ede84610e9f565b151514610f20576040517f08c379a0000000000000000000000000000000000000000000000000000000008152600401610f1790611b55565b60405180910390fd5b60011515610f2e838561080c565b151514610f70576040517f08c379a0000000000000000000000000000000000000000000000000000000008152600401610f67906122cb565b60405180910390fd5b7fef0829b7def5929569aa36afa2bbe009f037493c64fd4a020316ea5be49956708284604051610fa1929190612337565b60405180910390a16001905092915050565b60001515610fc082610718565b151514611002576040517f08c379a0000000000000000000000000000000000000000000000000000000008152600401610ff9906123d2565b60405180910390fd5b600061100e84846112c1565b1161104e576040517f08c379a00000000000000000000000000000000000000000000000000000000081526004016110459061243e565b60405180910390fd5b61105883836112c1565b600160008373ffffffffffffffffffffffffffffffffffffffff1673ffffffffffffffffffffffffffffffffffffffff168152602001908152602001600020819055506001600260008373ffffffffffffffffffffffffffffffffffffffff1673ffffffffffffffffffffffffffffffffffffffff168152602001908152602001600020819055507faa6d010bb351bc431c1230873f88f8f8b97c823fe65b1e102216919af719b1a281600160008473ffffffffffffffffffffffffffffffffffffffff1673ffffffffffffffffffffffffffffffffffffffff168152602001908152602001600020546040516111509291906124aa565b60405180910390a1505050565b60006001151561116c84610e9f565b1515146111ae576040517f08c379a00000000000000000000000000000000000000000000000000000000081526004016111a590611b55565b60405180910390fd5b600060056000858152602001908152602001600020905060008160020160008581526020019081526020016000205411156111ed57600191505061121b565b600081600301600085815260200190815260200160002054111561121557600191505061121b565b60009150505b92915050565b60008061122d83610718565b905080915050919050565b600060056000848152602001908152602001600020905081816002016000868152602001908152602001600020819055506000816003016000868152602001908152602001600020819055507fa5b14494dc23eecde6552fb600b649e07cd8469e1e6738027781646914acfad8846040516112b39190612558565b60405180910390a150505050565b60008083836040516112d4929190611a4d565b908152602001604051809103902054905092915050565b8280546112f7906125b5565b90600052602060002090601f0160209004810192826113195760008555611360565b82601f1061133257805160ff1916838001178555611360565b82800160010185558215611360579182015b8281111561135f578251825591602001919060010190611344565b5b50905061136d91906113f7565b5090565b82805461137d906125b5565b90600052602060002090601f01602090048101928261139f57600085556113e6565b82601f106113b857803560ff19168380011785556113e6565b828001600101855582156113e6579182015b828111156113e55782358255916020019190600101906113ca565b5b5090506113f391906113f7565b5090565b5b808211156114105760008160009055506001016113f8565b5090565b6000604051905090565b600080fd5b600080fd5b6000819050919050565b61143b81611428565b811461144657600080fd5b50565b60008135905061145881611432565b92915050565b600080fd5b600080fd5b600080fd5b60008083601f8401126114835761148261145e565b5b8235905067ffffffffffffffff8111156114a05761149f611463565b5b6020830191508360018202830111156114bc576114bb611468565b5b9250929050565b600080600080606085870312156114dd576114dc61141e565b5b60006114eb87828801611449565b945050602085013567ffffffffffffffff81111561150c5761150b611423565b5b6115188782880161146d565b9350935050604061152b87828801611449565b91505092959194509250565b6000819050919050565b61154a81611537565b811461155557600080fd5b50565b60008135905061156781611541565b92915050565b600080604083850312156115845761158361141e565b5b600061159285828601611449565b92505060206115a385828601611558565b9150509250929050565b60008115159050919050565b6115c2816115ad565b82525050565b60006020820190506115dd60008301846115b9565b92915050565b600073ffffffffffffffffffffffffffffffffffffffff82169050919050565b600061160e826115e3565b9050919050565b61161e81611603565b811461162957600080fd5b50565b60008135905061163b81611615565b92915050565b60008060006040848603121561165a5761165961141e565b5b600084013567ffffffffffffffff81111561167857611677611423565b5b6116848682870161146d565b935093505060206116978682870161162c565b9150509250925092565b6000602082840312156116b7576116b661141e565b5b60006116c584828501611449565b91505092915050565b6116d781611537565b82525050565b60006020820190506116f260008301846116ce565b92915050565b60006020828403121561170e5761170d61141e565b5b600061171c8482850161162c565b91505092915050565b61172e81611428565b82525050565b60006020820190506117496000830184611725565b92915050565b600080604083850312156117665761176561141e565b5b60006117748582860161162c565b925050602061178585828601611449565b9150509250929050565b600080604083850312156117a6576117a561141e565b5b60006117b485828601611449565b92505060206117c58582860161162c565b9150509250929050565b6117d881611603565b82525050565b60006020820190506117f360008301846117cf565b92915050565b600080fd5b6000601f19601f8301169050919050565b7f4e487b7100000000000000000000000000000000000000000000000000000000600052604160045260246000fd5b611847826117fe565b810181811067ffffffffffffffff821117156118665761186561180f565b5b80604052505050565b6000611879611414565b9050611885828261183e565b919050565b600067ffffffffffffffff8211156118a5576118a461180f565b5b6118ae826117fe565b9050602081019050919050565b82818337600083830152505050565b60006118dd6118d88461188a565b61186f565b9050828152602081018484840111156118f9576118f86117f9565b5b6119048482856118bb565b509392505050565b600082601f8301126119215761192061145e565b5b81356119318482602086016118ca565b91505092915050565b6000806000606084860312156119535761195261141e565b5b600061196186828701611449565b93505060206119728682870161162c565b925050604084013567ffffffffffffffff81111561199357611992611423565b5b61199f8682870161190c565b9150509250925092565b600080600080606085870312156119c3576119c261141e565b5b600085013567ffffffffffffffff8111156119e1576119e0611423565b5b6119ed8782880161146d565b94509450506020611a0087828801611449565b9250506040611a1187828801611558565b91505092959194509250565b600081905092915050565b6000611a348385611a1d565b9350611a418385846118bb565b82840190509392505050565b6000611a5a828486611a28565b91508190509392505050565b600082825260208201905092915050565b7f4f6e6c79204865616420496e76657374696761746f722063616e20617373696760008201527f6e206c6576656c20746f2065766964656e636500000000000000000000000000602082015250565b6000611ad3603383611a66565b9150611ade82611a77565b604082019050919050565b60006020820190508181036000830152611b0281611ac6565b9050919050565b7f4361736520646f6573206e6f7420657869737473000000000000000000000000600082015250565b6000611b3f601483611a66565b9150611b4a82611b09565b602082019050919050565b60006020820190508181036000830152611b6e81611b32565b9050919050565b7f45766964656e6365206578697374730000000000000000000000000000000000600082015250565b6000611bab600f83611a66565b9150611bb682611b75565b602082019050919050565b60006020820190508181036000830152611bda81611b9e565b9050919050565b7f4c6576656c2061737369676e6564000000000000000000000000000000000000600082015250565b6000611c17600e83611a66565b9150611c2282611be1565b602082019050919050565b60006020820190508181036000830152611c4681611c0a565b9050919050565b7f55736572206973206e6f74207265676973746572656400000000000000000000600082015250565b6000611c83601683611a66565b9150611c8e82611c4d565b602082019050919050565b60006020820190508181036000830152611cb281611c76565b9050919050565b7f496e76657374696761746f7220686173206265656e2072656d6f76656420667260008201527f6f6d206361736500000000000000000000000000000000000000000000000000602082015250565b6000611d15602783611a66565b9150611d2082611cb9565b604082019050919050565b60006060820190508181036000830152611d4481611d08565b9050611d5360208301856117cf565b611d606040830184611725565b9392505050565b600081519050919050565b60005b83811015611d90578082015181840152602081019050611d75565b83811115611d9f576000848401525b50505050565b6000611db082611d67565b611dba8185611a1d565b9350611dca818560208601611d72565b80840191505092915050565b6000611de28284611da5565b915081905092915050565b7f4e487b7100000000000000000000000000000000000000000000000000000000600052601160045260246000fd5b6000611e2782611428565b9150611e3283611428565b9250827fffffffffffffffffffffffffffffffffffffffffffffffffffffffffffffffff03821115611e6757611e66611ded565b5b828201905092915050565b7f5573657200000000000000000000000000000000000000000000000000000000600082015250565b6000611ea8600483611a66565b9150611eb382611e72565b602082019050919050565b7f726567697374657265642065766964656e636500000000000000000000000000600082015250565b6000611ef4601383611a66565b9150611eff82611ebe565b602082019050919050565b60006080820190508181036000830152611f2381611e9b565b9050611f3260208301856117cf565b8181036040830152611f4381611ee7565b9050611f5260608301846116ce565b9392505050565b7f4361736520697320616c72656164792063726561746564000000000000000000600082015250565b6000611f8f601783611a66565b9150611f9a82611f59565b602082019050919050565b60006020820190508181036000830152611fbe81611f82565b9050919050565b7f4f6e6c79204865616420496e76657374696761746f722063616e20637265617460008201527f6520636173657300000000000000000000000000000000000000000000000000602082015250565b6000612021602783611a66565b915061202c82611fc5565b604082019050919050565b6000602082019050818103600083015261205081612014565b9050919050565b7f4361736520526567697374657265640000000000000000000000000000000000600082015250565b600061208d600f83611a66565b915061209882612057565b602082019050919050565b60006120af8385611a66565b93506120bc8385846118bb565b6120c5836117fe565b840190509392505050565b600060608201905081810360008301526120e981612080565b905081810360208301526120fe8185876120a3565b905061210d6040830184611725565b949350505050565b7f4b657920646f6573206e6f742065786973747300000000000000000000000000600082015250565b600061214b601383611a66565b915061215682612115565b602082019050919050565b6000602082019050818103600083015261217a8161213e565b9050919050565b7f45766964656e636520646f6573206e6f74206578697374730000000000000000600082015250565b60006121b7601883611a66565b91506121c282612181565b602082019050919050565b600060208201905081810360008301526121e6816121aa565b9050919050565b7f45766964656e6365206e6f742076616c69640000000000000000000000000000600082015250565b6000612223601283611a66565b915061222e826121ed565b602082019050919050565b6000602082019050818103600083015261225281612216565b9050919050565b7f55736572206e6f7420617574686f726973656420746f2061646420657669646560008201527f6e636520746f2063617365000000000000000000000000000000000000000000602082015250565b60006122b5602b83611a66565b91506122c082612259565b604082019050919050565b600060208201905081810360008301526122e4816122a8565b9050919050565b7f2063616e2072656769737465722065766964656e636520746f20636173652000600082015250565b6000612321601f83611a66565b915061232c826122eb565b602082019050919050565b6000608082019050818103600083015261235081611e9b565b905061235f60208301856117cf565b818103604083015261237081612314565b905061237f6060830184611725565b9392505050565b7f5573657220416c72656164792052656769737465726564000000000000000000600082015250565b60006123bc601783611a66565b91506123c782612386565b602082019050919050565b600060208201905081810360008301526123eb816123af565b9050919050565b7f496e76616c69642064657369676e6174696f6e00000000000000000000000000600082015250565b6000612428601383611a66565b9150612433826123f2565b602082019050919050565b600060208201905081810360008301526124578161241b565b9050919050565b7f205573657220526567697374726174696f6e20436f6d706c6574656400000000600082015250565b6000612494601c83611a66565b915061249f8261245e565b602082019050919050565b600060608201905081810360008301526124c381612487565b90506124d260208301856117cf565b6124df6040830184611725565b9392505050565b7f45766964656e6365206173206265656e2061737369676e65642061206c65766560008201527f6c00000000000000000000000000000000000000000000000000000000000000602082015250565b6000612542602183611a66565b915061254d826124e6565b604082019050919050565b6000604082019050818103600083015261257181612535565b905061258060208301846116ce565b92915050565b7f4e487b7100000000000000000000000000000000000000000000000000000000600052602260045260246000fd5b600060028204905060018216806125cd57607f821691505b6020821081036125e0576125df612586565b5b5091905056fea2646970667358221220fae5359fd1440e14085bd02c5d3a10c54586bc435a716c8af5bc3765c1e727be64736f6c634300080d0033",
  "immutableReferences": {},
  "source": "// SPDX-License-Identifier: MIT\r\npragma solidity ^0.8.9;\r\nimport \"./AssignRole.sol\";\r\nimport \"./Register.sol\";\r\n///@title this contract checks whether requestor is head investigator or not\r\n///and then allows creation of case\r\ncontract Case is AssignRole{\r\n    struct SCase {\r\n        string ID;\r\n        bytes32 IDhash;\r\n        mapping(bytes32 => uint) AssignedEvidences;\r\n        mapping(bytes32 => uint) UnassignedEvidences;\r\n        mapping(address => uint) investigators;\r\n        mapping(bytes32 => string) evCID;\r\n        bytes32 key;\r\n        address HI;\r\n        uint evid;\r\n        uint stipulatedtime;\r\n        uint creationtime;\r\n        uint closetime;\r\n    }\r\n    mapping(uint=>uint) Cases;\r\n    mapping(uint=>address)Case_Head_Inv;\r\n    mapping(uint => SCase) active_cases; // keep track of mulitple cases running\r\n    event CaseRegistrationDone(string, string, uint);\r\n    event InvestigatorRemoved(string, address, uint);\r\n    event EvidenceAssignedLevel(string, bytes32);\r\n    event EvidenceRegistered(string, address, string, bytes32);\r\n    event EvidenceDeleted(string, uint, bytes32);\r\n    event CaseClosed(string, uint);\r\n    event CanRegisterEvidence(string, address, string,uint);\r\n    ///@notice checks if case has already been created\r\n    function does_case_exists(uint num) public view returns (bool) {\r\n        if(Cases[num]==1){\r\n            return true;\r\n        }\r\n        return false;\r\n    }\r\n\r\n    /// @notice creates a case\r\n    /// @param name Name of the Case File ; @param case_number Unique Number assigned to case\r\n    function createcase(string calldata name, uint case_number, bytes32 AESkey) public payable {\r\n        require(\r\n            publicDoesUserExists(msg.sender) == true,\r\n            \"User is not registered\"\r\n        );\r\n        require(\r\n            does_case_exists(case_number) == false,\r\n            \"Case is already created\"\r\n        );\r\n        require(\r\n            publicreturnRole(msg.sender) == 1,\r\n            \"Only Head Investigator can create cases\"\r\n        );\r\n        SCase storage newCase = active_cases[case_number];\r\n        newCase.ID = name;\r\n        newCase.IDhash = keccak256(abi.encodePacked(name));\r\n        newCase.HI = msg.sender;\r\n        newCase.investigators[msg.sender] = 1;\r\n        newCase.key=AESkey;\r\n        newCase.stipulatedtime = 25;\r\n        newCase.creationtime = block.timestamp;\r\n        newCase.closetime = 0;\r\n        Cases[case_number]=1;\r\n        emit CaseRegistrationDone(\"Case Registered\", name, case_number);\r\n    }\r\n\r\n    ///@notice returns Head Investigator of a case\r\n    function returnHI(uint case_number) public payable returns (address) {\r\n        return (Case_Head_Inv[case_number]);\r\n    }\r\n\r\n    ///@notice returns whether an user is authorised to work on a case\r\n    /// @param user address of user requesting access; @param number Unique Case Number\r\n    function is_authorized(\r\n        address user,\r\n        uint number\r\n    ) public view returns (bool) {\r\n        // DAC\r\n        SCase storage nC = active_cases[number];\r\n        if (nC.investigators[user] == 1) {\r\n            return true;\r\n        }\r\n        return false;\r\n    }\r\n\r\n    /// @notice this introduces DAC, allows Head Investigator to modify access rights\r\n    function add_investigator(address inv, uint num) public payable {\r\n        SCase storage newC = active_cases[num];\r\n        newC.investigators[inv] = 1;\r\n    }\r\n\r\n    /// @notice checks whether evidence exists\r\n    /// @param case_number unique id of case, @param key hash of evidence which has to be assigned level \r\n    function does_evidence_exists(\r\n        uint case_number,\r\n        bytes32 key\r\n    ) public view returns (bool) {\r\n        require(does_case_exists(case_number) == true, \"Case does not exists\");\r\n        SCase storage c = active_cases[case_number];\r\n        if (c.AssignedEvidences[key] > 0) {\r\n            return true;\r\n        }\r\n        if (c.UnassignedEvidences[key] > 0) {\r\n            return true;\r\n        }\r\n        return false;\r\n    }\r\n\r\n    /// @notice checks whether level is assigned to evidence\r\n    function is_level_assigned(\r\n        uint case_number,\r\n        bytes32 key\r\n    ) public view returns (bool) {\r\n        SCase storage c = active_cases[case_number];\r\n        if (c.UnassignedEvidences[key] == 1) {\r\n            return false;\r\n        }\r\n        return true;\r\n    }\r\n\r\n    ///@notice DAC policy allows removal of an investigator from case\r\n    function remove_investigator(uint case_number, address inv) public payable {\r\n        // remove an investigator from DAC policy\r\n        SCase storage nC = active_cases[case_number];\r\n        nC.investigators[inv] = 0;\r\n        emit InvestigatorRemoved(\r\n            \"Investigator has been removed from case\",\r\n            inv,\r\n            case_number\r\n        );\r\n    }\r\n\r\n    /// @notice allows Head Investigator to assign integrity level to an evidence\r\n    function setlevel(bytes32 key, uint case_num, uint level) internal {\r\n        SCase storage nc = active_cases[case_num];\r\n        nc.AssignedEvidences[key] = level; // addition to Assigned evidences\r\n        nc.UnassignedEvidences[key] = 0; // removal from Unassigned evidences\r\n        emit EvidenceAssignedLevel(\"Evidence as been assigned a level\", key);\r\n    }\r\n\r\n    ///@notice caller function to assign level to an evidence \r\n    function assign_inl(uint case_num, string calldata ev, uint level) public payable {\r\n        // assign level\r\n        bytes32 key = keccak256(abi.encodePacked(ev));\r\n        require(returnHI(case_num)==msg.sender, \"Only Head Investigator can assign level to evidence\");\r\n        require(does_case_exists(case_num) == true, \"Case does not exists\");\r\n        require(\r\n            does_evidence_exists(case_num, key) == false,\r\n            \"Evidence exists\"\r\n        );\r\n        require(is_level_assigned(case_num, key) == false, \"Level assigned\");\r\n        setlevel(key, case_num, level);\r\n    }\r\n\r\n    ///@notice check if user is authorised to add evidence\r\n    /// @param case_num Unique case ID;  @param user address of requestor\r\n    function register_evi(\r\n        uint case_num,\r\n        address user\r\n    ) public payable returns (bool){\r\n        // bytes32 key = keccak256(abi.encodePacked(ev));\r\n        require(does_case_exists(case_num) == true, \"Case does not exists\");\r\n        require(is_authorized(user, case_num) == true, \"User not authorised to add evidence to case\");\r\n        emit CanRegisterEvidence(\"User\", user, \" can register evidence to case \", case_num);\r\n        return true;\r\n    }\r\n\r\n    /// @notice returns if an AES key already exists\r\n    function returnAESkey(uint case_num) public view returns(bytes32){\r\n        SCase storage nC = active_cases[case_num];\r\n        return nC.key;\r\n    }\r\n    ///@notice to check if a key exists in case\r\n    function does_key_Exists(uint case_num) public view returns(bool){\r\n        SCase storage nC = active_cases[case_num];\r\n        require(nC.key.length>0, \"Key does not exists\");\r\n        return true;\r\n    }\r\n    ///@notice allow user to add evidence \r\n    /// @param case_num Unique case ID;  @param user address of requestor; ///@param CID from IPFS; ///@param AES key used for AONT \r\n    function add_evidence(uint case_num,address user, string memory CID) public payable {\r\n        bytes32 KC = keccak256(abi.encodePacked(CID));\r\n        SCase storage nC = active_cases[case_num];\r\n        nC.UnassignedEvidences[KC] = 1;\r\n        nC.evid += 1;\r\n        nC.evCID[KC]=CID;\r\n        emit EvidenceRegistered(\"User\", user,  \"registered evidence\", KC);\r\n    }\r\n\r\n    ///@notice return level of integrity assigned to an evidence\r\n    ///@param key unique identifier of evidence\r\n    function return_level(\r\n        uint case_num,\r\n        bytes32 key\r\n    ) public payable returns (uint) {\r\n        require(does_case_exists(case_num) == true, \"Case does not exists\");\r\n        require(\r\n            does_evidence_exists(case_num, key) == true,\r\n            \"Evidence does not exists\"\r\n        );\r\n        require(is_level_assigned(case_num, key) == true, \"Evidence not valid\");\r\n        SCase storage nc = active_cases[case_num];\r\n        uint lvl = nc.AssignedEvidences[key];\r\n        return lvl;\r\n    }\r\n\r\n    ///@notice allows deletion of evidence\r\n    function delete_evidence(bytes32 key, uint case_num) internal {\r\n        SCase storage nc = active_cases[case_num];\r\n        require(does_case_exists(case_num) == true, \"Case does not exists\");\r\n        require(\r\n            is_closed(case_num) == 1,\r\n            \"Case is still open. Cannot delete evidence\"\r\n        );\r\n        require(\r\n            does_evidence_exists(case_num, key) == true,\r\n            \"Evidence does not exists\"\r\n        );\r\n        require(is_level_assigned(case_num, key) == true, \"Evidence not valid\");\r\n        nc.AssignedEvidences[key] = 0;\r\n        emit EvidenceDeleted(\r\n            \"Evidence from Case has been deleted\",\r\n            case_num,\r\n            key\r\n        );\r\n    }\r\n\r\n    ///@notice closes a case\r\n    function case_closing(uint case_num) internal {\r\n        require(\r\n            returnRole(msg.sender) == 1,\r\n            \"Only Head Investigator can create cases\"\r\n        );\r\n        SCase storage nc = active_cases[case_num];\r\n        require(\r\n            nc.HI == msg.sender,\r\n            \"Only Head Investigator of the case can close it.\"\r\n        );\r\n        nc.closetime = block.timestamp;\r\n        emit CaseClosed(\"Case is closed\", case_num);\r\n    }\r\n\r\n    function is_closed(uint case_num) internal view returns (uint) {\r\n        SCase storage nc = active_cases[case_num];\r\n        if (nc.closetime == 0) {\r\n            return 0;\r\n        }\r\n        return 1;\r\n    }\r\n}\r\n",
  "sourcePath": "C:\\Users\\shrey\\repo2\\contracts\\Case.sol",
  "compiler": {
    "name": "solc",
    "version": "0.8.13+commit.abaa5c0e.Emscripten.clang"
  },
  "schemaVersion": "3.4.16",
  "updatedAt": "2024-12-18T10:49:30.914Z",
  "networkType": "ethereum",
  "devdoc": {
    "kind": "dev",
    "methods": {
      "add_evidence(uint256,address,string)": {
        "params": {
          "case_num": "Unique case ID;  @param user address of requestor; ///@param CID from IPFS; ///@param AES key used for AONT "
        }
      },
      "createcase(string,uint256,bytes32)": {
        "params": {
          "name": "Name of the Case File ; @param case_number Unique Number assigned to case"
        }
      },
      "does_evidence_exists(uint256,bytes32)": {
        "params": {
          "case_number": "unique id of case, @param key hash of evidence which has to be assigned level "
        }
      },
      "is_authorized(address,uint256)": {
        "params": {
          "user": "address of user requesting access; @param number Unique Case Number"
        }
      },
      "register_evi(uint256,address)": {
        "params": {
          "case_num": "Unique case ID;  @param user address of requestor"
        }
      },
      "return_level(uint256,bytes32)": {
        "params": {
          "key": "unique identifier of evidence"
        }
      }
    },
    "title": "this contract checks whether requestor is head investigator or not and then allows creation of case",
    "version": 1
  },
  "userdoc": {
    "kind": "user",
    "methods": {
      "DoesUserExists(address)": {
        "notice": "checks if user is already existing"
      },
      "add_evidence(uint256,address,string)": {
        "notice": "allow user to add evidence "
      },
      "add_investigator(address,uint256)": {
        "notice": "this introduces DAC, allows Head Investigator to modify access rights"
      },
      "assign_inl(uint256,string,uint256)": {
        "notice": "caller function to assign level to an evidence "
      },
      "createcase(string,uint256,bytes32)": {
        "notice": "creates a case"
      },
      "does_case_exists(uint256)": {
        "notice": "checks if case has already been created"
      },
      "does_evidence_exists(uint256,bytes32)": {
        "notice": "checks whether evidence exists"
      },
      "does_key_Exists(uint256)": {
        "notice": "to check if a key exists in case"
      },
      "is_authorized(address,uint256)": {
        "notice": "returns whether an user is authorised to work on a case"
      },
      "is_level_assigned(uint256,bytes32)": {
        "notice": "checks whether level is assigned to evidence"
      },
      "publicsetRole(string,address)": {
        "notice": "an interface functions used to call internal functions"
      },
      "register_evi(uint256,address)": {
        "notice": "check if user is authorised to add evidence"
      },
      "remove_investigator(uint256,address)": {
        "notice": "DAC policy allows removal of an investigator from case"
      },
      "returnAESkey(uint256)": {
        "notice": "returns if an AES key already exists"
      },
      "returnHI(uint256)": {
        "notice": "returns Head Investigator of a case"
      },
      "returnRole(address)": {
        "notice": "returns role of an user "
      },
      "return_level(uint256,bytes32)": {
        "notice": "return level of integrity assigned to an evidence"
      },
      "setRole(string,address)": {
        "notice": "allows an user to create account and set role"
      }
    },
    "version": 1
  }
}