{
  "contractName": "Case",
  "abi": [
    {
      "anonymous": false,
      "inputs": [
        {
          "indexed": false,
          "internalType": "string",
          "name": "",
          "type": "string"
        },
        {
          "indexed": false,
          "internalType": "address",
          "name": "",
          "type": "address"
        },
        {
          "indexed": false,
          "internalType": "string",
          "name": "",
          "type": "string"
        },
        {
          "indexed": false,
          "internalType": "uint256",
          "name": "",
          "type": "uint256"
        }
      ],
      "name": "Can_Register_Evidence",
      "type": "event"
    },
    {
      "anonymous": false,
      "inputs": [
        {
          "indexed": false,
          "internalType": "string",
          "name": "",
          "type": "string"
        },
        {
          "indexed": false,
          "internalType": "uint256",
          "name": "",
          "type": "uint256"
        },
        {
          "indexed": false,
          "internalType": "string",
          "name": "",
          "type": "string"
        },
        {
          "indexed": false,
          "internalType": "address",
          "name": "",
          "type": "address"
        }
      ],
      "name": "Case_Registration_Done",
      "type": "event"
    },
    {
      "anonymous": false,
      "inputs": [
        {
          "indexed": false,
          "internalType": "string",
          "name": "",
          "type": "string"
        },
        {
          "indexed": false,
          "internalType": "bytes32",
          "name": "",
          "type": "bytes32"
        },
        {
          "indexed": false,
          "internalType": "string",
          "name": "",
          "type": "string"
        },
        {
          "indexed": false,
          "internalType": "uint256",
          "name": "",
          "type": "uint256"
        }
      ],
      "name": "Evidence_Assigned_Level",
      "type": "event"
    },
    {
      "anonymous": false,
      "inputs": [
        {
          "indexed": false,
          "internalType": "string",
          "name": "",
          "type": "string"
        },
        {
          "indexed": false,
          "internalType": "address",
          "name": "",
          "type": "address"
        },
        {
          "indexed": false,
          "internalType": "string",
          "name": "",
          "type": "string"
        },
        {
          "indexed": false,
          "internalType": "bytes32",
          "name": "",
          "type": "bytes32"
        }
      ],
      "name": "Evidence_Registered",
      "type": "event"
    },
    {
      "anonymous": false,
      "inputs": [
        {
          "indexed": false,
          "internalType": "string",
          "name": "",
          "type": "string"
        },
        {
          "indexed": false,
          "internalType": "address",
          "name": "",
          "type": "address"
        },
        {
          "indexed": false,
          "internalType": "string",
          "name": "",
          "type": "string"
        },
        {
          "indexed": false,
          "internalType": "uint256",
          "name": "",
          "type": "uint256"
        }
      ],
      "name": "Investigator_Added",
      "type": "event"
    },
    {
      "anonymous": false,
      "inputs": [
        {
          "indexed": false,
          "internalType": "string",
          "name": "",
          "type": "string"
        },
        {
          "indexed": false,
          "internalType": "address",
          "name": "",
          "type": "address"
        },
        {
          "indexed": false,
          "internalType": "string",
          "name": "",
          "type": "string"
        },
        {
          "indexed": false,
          "internalType": "uint256",
          "name": "",
          "type": "uint256"
        }
      ],
      "name": "Investigator_Removed",
      "type": "event"
    },
    {
      "anonymous": false,
      "inputs": [
        {
          "indexed": false,
          "internalType": "string",
          "name": "",
          "type": "string"
        },
        {
          "indexed": false,
          "internalType": "address",
          "name": "",
          "type": "address"
        },
        {
          "indexed": false,
          "internalType": "uint256",
          "name": "",
          "type": "uint256"
        }
      ],
      "name": "User_Registration_Done",
      "type": "event"
    },
    {
      "inputs": [
        {
          "internalType": "address",
          "name": "user",
          "type": "address"
        }
      ],
      "name": "DoesUserExists",
      "outputs": [
        {
          "internalType": "bool",
          "name": "",
          "type": "bool"
        }
      ],
      "stateMutability": "view",
      "type": "function",
      "constant": true
    },
    {
      "inputs": [
        {
          "internalType": "address",
          "name": "",
          "type": "address"
        }
      ],
      "name": "RegisteredUsers",
      "outputs": [
        {
          "internalType": "uint256",
          "name": "",
          "type": "uint256"
        }
      ],
      "stateMutability": "view",
      "type": "function",
      "constant": true
    },
    {
      "inputs": [
        {
          "internalType": "address",
          "name": "",
          "type": "address"
        }
      ],
      "name": "Roles",
      "outputs": [
        {
          "internalType": "uint256",
          "name": "",
          "type": "uint256"
        }
      ],
      "stateMutability": "view",
      "type": "function",
      "constant": true
    },
    {
      "inputs": [
        {
          "internalType": "address",
          "name": "user",
          "type": "address"
        }
      ],
      "name": "publicDoesUserExists",
      "outputs": [
        {
          "internalType": "bool",
          "name": "",
          "type": "bool"
        }
      ],
      "stateMutability": "view",
      "type": "function",
      "constant": true
    },
    {
      "inputs": [
        {
          "internalType": "address",
          "name": "user",
          "type": "address"
        }
      ],
      "name": "returnRole",
      "outputs": [
        {
          "internalType": "uint256",
          "name": "",
          "type": "uint256"
        }
      ],
      "stateMutability": "view",
      "type": "function",
      "constant": true
    },
    {
      "inputs": [
        {
          "internalType": "string",
          "name": "designation",
          "type": "string"
        }
      ],
      "name": "setRole",
      "outputs": [],
      "stateMutability": "nonpayable",
      "type": "function"
    },
    {
      "inputs": [
        {
          "internalType": "uint256",
          "name": "",
          "type": "uint256"
        }
      ],
      "name": "users",
      "outputs": [
        {
          "internalType": "address",
          "name": "",
          "type": "address"
        }
      ],
      "stateMutability": "view",
      "type": "function",
      "constant": true
    },
    {
      "inputs": [
        {
          "internalType": "uint256",
          "name": "num",
          "type": "uint256"
        }
      ],
      "name": "does_case_exists",
      "outputs": [
        {
          "internalType": "bool",
          "name": "",
          "type": "bool"
        }
      ],
      "stateMutability": "view",
      "type": "function",
      "constant": true
    },
    {
      "inputs": [
        {
          "internalType": "uint256",
          "name": "case_number",
          "type": "uint256"
        },
        {
          "internalType": "bytes32",
          "name": "AESkey",
          "type": "bytes32"
        }
      ],
      "name": "create_case",
      "outputs": [],
      "stateMutability": "payable",
      "type": "function",
      "payable": true
    },
    {
      "inputs": [
        {
          "internalType": "uint256",
          "name": "case_number",
          "type": "uint256"
        }
      ],
      "name": "returnHI",
      "outputs": [
        {
          "internalType": "address",
          "name": "",
          "type": "address"
        }
      ],
      "stateMutability": "payable",
      "type": "function",
      "payable": true
    },
    {
      "inputs": [
        {
          "internalType": "address",
          "name": "user",
          "type": "address"
        },
        {
          "internalType": "uint256",
          "name": "number",
          "type": "uint256"
        }
      ],
      "name": "is_authorized",
      "outputs": [
        {
          "internalType": "bool",
          "name": "",
          "type": "bool"
        }
      ],
      "stateMutability": "view",
      "type": "function",
      "constant": true
    },
    {
      "inputs": [
        {
          "internalType": "address",
          "name": "inv",
          "type": "address"
        },
        {
          "internalType": "uint256",
          "name": "num",
          "type": "uint256"
        }
      ],
      "name": "add_investigator",
      "outputs": [],
      "stateMutability": "payable",
      "type": "function",
      "payable": true
    },
    {
      "inputs": [
        {
          "internalType": "uint256",
          "name": "case_number",
          "type": "uint256"
        },
        {
          "internalType": "string",
          "name": "key",
          "type": "string"
        }
      ],
      "name": "does_evidence_exists",
      "outputs": [
        {
          "internalType": "bool",
          "name": "",
          "type": "bool"
        }
      ],
      "stateMutability": "view",
      "type": "function",
      "constant": true
    },
    {
      "inputs": [
        {
          "internalType": "uint256",
          "name": "case_number",
          "type": "uint256"
        },
        {
          "internalType": "string",
          "name": "key",
          "type": "string"
        }
      ],
      "name": "is_level_assigned",
      "outputs": [
        {
          "internalType": "bool",
          "name": "",
          "type": "bool"
        }
      ],
      "stateMutability": "view",
      "type": "function",
      "constant": true
    },
    {
      "inputs": [
        {
          "internalType": "uint256",
          "name": "case_number",
          "type": "uint256"
        },
        {
          "internalType": "address",
          "name": "inv",
          "type": "address"
        }
      ],
      "name": "remove_investigator",
      "outputs": [],
      "stateMutability": "payable",
      "type": "function",
      "payable": true
    },
    {
      "inputs": [
        {
          "internalType": "uint256",
          "name": "case_num",
          "type": "uint256"
        },
        {
          "internalType": "string",
          "name": "key",
          "type": "string"
        },
        {
          "internalType": "uint256",
          "name": "level",
          "type": "uint256"
        }
      ],
      "name": "assign_inl",
      "outputs": [],
      "stateMutability": "payable",
      "type": "function",
      "payable": true
    },
    {
      "inputs": [
        {
          "internalType": "uint256",
          "name": "case_num",
          "type": "uint256"
        }
      ],
      "name": "register_evi",
      "outputs": [
        {
          "internalType": "bool",
          "name": "",
          "type": "bool"
        }
      ],
      "stateMutability": "payable",
      "type": "function",
      "payable": true
    },
    {
      "inputs": [
        {
          "internalType": "uint256",
          "name": "case_num",
          "type": "uint256"
        }
      ],
      "name": "returnAESkey",
      "outputs": [
        {
          "internalType": "bytes32",
          "name": "",
          "type": "bytes32"
        }
      ],
      "stateMutability": "view",
      "type": "function",
      "constant": true
    },
    {
      "inputs": [
        {
          "internalType": "uint256",
          "name": "case_num",
          "type": "uint256"
        }
      ],
      "name": "does_key_Exists",
      "outputs": [
        {
          "internalType": "bool",
          "name": "",
          "type": "bool"
        }
      ],
      "stateMutability": "view",
      "type": "function",
      "constant": true
    },
    {
      "inputs": [
        {
          "internalType": "uint256",
          "name": "case_num",
          "type": "uint256"
        },
        {
          "internalType": "address",
          "name": "user",
          "type": "address"
        },
        {
          "internalType": "string",
          "name": "CID",
          "type": "string"
        }
      ],
      "name": "add_evidence",
      "outputs": [
        {
          "internalType": "string",
          "name": "",
          "type": "string"
        }
      ],
      "stateMutability": "nonpayable",
      "type": "function"
    },
    {
      "inputs": [
        {
          "internalType": "uint256",
          "name": "case_num",
          "type": "uint256"
        },
        {
          "internalType": "string",
          "name": "key",
          "type": "string"
        }
      ],
      "name": "return_level",
      "outputs": [
        {
          "internalType": "uint256",
          "name": "",
          "type": "uint256"
        }
      ],
      "stateMutability": "view",
      "type": "function",
      "constant": true
    }
  ],
  "bytecode": "0x608060405234801561001057600080fd5b50612828806100206000396000f3fe60806040526004361061012a5760003560e01c806359ea8ddd116100ab5780639026441b1161006f5780639026441b146104105780639ff390331461044d578063b929a0921461048a578063d7149fcf146104c7578063e3df201f14610504578063fb5f5c57146105415761012a565b806359ea8ddd14610342578063640938341461037f5780636cad4fa61461039b57806374bab760146103b75780638e0cfbc2146103e75761012a565b80633646f329116100f25780633646f3291461023f578063365b98b21461027c57806349db239e146102b95780634a464452146102e95780634cc70a0f146103055761012a565b8063027a65c21461012f57806309ef6ff51461014b57806312c85fde146101885780632691297d146101c557806335e8acfb14610202575b600080fd5b6101496004803603810190610144919061160a565b61057e565b005b34801561015757600080fd5b50610172600480360381019061016d9190611679565b6106f3565b60405161017f91906116f0565b60405180910390f35b34801561019457600080fd5b506101af60048036038101906101aa9190611679565b610749565b6040516101bc91906116f0565b60405180910390f35b3480156101d157600080fd5b506101ec60048036038101906101e7919061170b565b6107cb565b6040516101f99190611751565b60405180910390f35b34801561020e57600080fd5b50610229600480360381019061022491906117ca565b6107f0565b6040516102369190611806565b60405180910390f35b34801561024b57600080fd5b50610266600480360381019061026191906117ca565b610808565b60405161027391906116f0565b60405180910390f35b34801561028857600080fd5b506102a3600480360381019061029e919061170b565b610853565b6040516102b09190611830565b60405180910390f35b6102d360048036038101906102ce919061170b565b610892565b6040516102e091906116f0565b60405180910390f35b61030360048036038101906102fe9190611877565b610975565b005b34801561031157600080fd5b5061032c600480360381019061032791906117ca565b610be3565b6040516103399190611806565b60405180910390f35b34801561034e57600080fd5b50610369600480360381019061036491906118b7565b610c7a565b60405161037691906116f0565b60405180910390f35b610399600480360381019061039491906118f7565b610cf1565b005b6103b560048036038101906103b091906118b7565b610d8d565b005b6103d160048036038101906103cc919061170b565b610e29565b6040516103de9190611830565b60405180910390f35b3480156103f357600080fd5b5061040e60048036038101906104099190611997565b610e66565b005b34801561041c57600080fd5b50610437600480360381019061043291906119e4565b61106f565b6040516104449190611adb565b60405180910390f35b34801561045957600080fd5b50610474600480360381019061046f919061170b565b61113a565b60405161048191906116f0565b60405180910390f35b34801561049657600080fd5b506104b160048036038101906104ac919061170b565b6111a3565b6040516104be91906116f0565b60405180910390f35b3480156104d357600080fd5b506104ee60048036038101906104e991906117ca565b6111c3565b6040516104fb9190611806565b60405180910390f35b34801561051057600080fd5b5061052b60048036038101906105269190611679565b6111db565b6040516105389190611806565b60405180910390f35b34801561054d57600080fd5b50610568600480360381019061056391906117ca565b611275565b60405161057591906116f0565b60405180910390f35b3373ffffffffffffffffffffffffffffffffffffffff1661059e84610e29565b73ffffffffffffffffffffffffffffffffffffffff16146105f4576040517f08c379a00000000000000000000000000000000000000000000000000000000081526004016105eb90611b6f565b60405180910390fd5b60011515610601846111a3565b151514610643576040517f08c379a000000000000000000000000000000000000000000000000000000000815260040161063a90611bdb565b60405180910390fd5b600115156106518484610749565b151514610693576040517f08c379a000000000000000000000000000000000000000000000000000000000815260040161068a90611c47565b60405180910390fd5b600015156106a184846106f3565b1515146106e3576040517f08c379a00000000000000000000000000000000000000000000000000000000081526004016106da90611cb3565b60405180910390fd5b6106ee82848361128c565b505050565b6000806005600085815260200190815260200160002090506001816002018460405161071f9190611d0f565b9081526020016040518091039020540361073d576000915050610743565b60019150505b92915050565b600080600560008581526020019081526020016000209050600081600101846040516107759190611d0f565b90815260200160405180910390205411806107b057506000816002018460405161079f9190611d0f565b908152602001604051809103902054115b156107bf5760019150506107c5565b60009150505b92915050565b6000806005600084815260200190815260200160002090508060040154915050919050565b60006020528060005260406000206000915090505481565b600060018060008473ffffffffffffffffffffffffffffffffffffffff1673ffffffffffffffffffffffffffffffffffffffff16815260200190815260200160002054149050919050565b6002818154811061086357600080fd5b906000526020600020016000915054906101000a900473ffffffffffffffffffffffffffffffffffffffff1681565b6000600115156108a1836111a3565b1515146108e3576040517f08c379a00000000000000000000000000000000000000000000000000000000081526004016108da90611bdb565b60405180910390fd5b600115156108f13384610c7a565b151514610933576040517f08c379a000000000000000000000000000000000000000000000000000000000815260040161092a90611d98565b60405180910390fd5b7f261ce7c38790c85b4a1dfef920ecc84564c55d65d6b9f161bbc2b7e88b3cae8a3383604051610964929190611e50565b60405180910390a160019050919050565b60018060003373ffffffffffffffffffffffffffffffffffffffff1673ffffffffffffffffffffffffffffffffffffffff16815260200190815260200160002054146109f6576040517f08c379a00000000000000000000000000000000000000000000000000000000081526004016109ed90611eeb565b60405180910390fd5b60001515610a03836111a3565b151514610a45576040517f08c379a0000000000000000000000000000000000000000000000000000000008152600401610a3c90611f57565b60405180910390fd5b6001610a5033610be3565b14610a90576040517f08c379a0000000000000000000000000000000000000000000000000000000008152600401610a8790611fe9565b60405180910390fd5b6000600560008481526020019081526020016000209050338160050160006101000a81548173ffffffffffffffffffffffffffffffffffffffff021916908373ffffffffffffffffffffffffffffffffffffffff16021790555060018160030160003373ffffffffffffffffffffffffffffffffffffffff1673ffffffffffffffffffffffffffffffffffffffff1681526020019081526020016000208190555081816004018190555060016003600085815260200190815260200160002081905550336004600085815260200190815260200160002060006101000a81548173ffffffffffffffffffffffffffffffffffffffff021916908373ffffffffffffffffffffffffffffffffffffffff1602179055507f812b9c2f922dcc6f80d37fffa8e1ccd8808d40527065f721a20278c18048f8528333604051610bd69291906120a1565b60405180910390a1505050565b600060011515610bf283610808565b151514610c34576040517f08c379a0000000000000000000000000000000000000000000000000000000008152600401610c2b90611eeb565b60405180910390fd5b6000808373ffffffffffffffffffffffffffffffffffffffff1673ffffffffffffffffffffffffffffffffffffffff168152602001908152602001600020549050919050565b60008060056000848152602001908152602001600020905060018160030160008673ffffffffffffffffffffffffffffffffffffffff1673ffffffffffffffffffffffffffffffffffffffff1681526020019081526020016000205403610ce5576001915050610ceb565b60009150505b92915050565b600060056000848152602001908152602001600020905060008160030160008473ffffffffffffffffffffffffffffffffffffffff1673ffffffffffffffffffffffffffffffffffffffff168152602001908152602001600020819055507fbd560c5f6a6c0cb78e81d1c6db70d02a53d1ba488d7bdbca302a2ff0610c0dd78284604051610d80929190612188565b60405180910390a1505050565b600060056000838152602001908152602001600020905060018160030160008573ffffffffffffffffffffffffffffffffffffffff1673ffffffffffffffffffffffffffffffffffffffff168152602001908152602001600020819055507f7dbf564e3f3130fe13f3a9275adb3f31356aa64c6eb75e4790ab60c5dff962e28383604051610e1c92919061226f565b60405180910390a1505050565b60006004600083815260200190815260200160002060009054906101000a900473ffffffffffffffffffffffffffffffffffffffff169050919050565b60001515610e7333610808565b151514610eb5576040517f08c379a0000000000000000000000000000000000000000000000000000000008152600401610eac9061230a565b60405180910390fd5b6000610ec18383611359565b11610f01576040517f08c379a0000000000000000000000000000000000000000000000000000000008152600401610ef890612376565b60405180910390fd5b610f0b8282611359565b6000803373ffffffffffffffffffffffffffffffffffffffff1673ffffffffffffffffffffffffffffffffffffffff1681526020019081526020016000208190555060018060003373ffffffffffffffffffffffffffffffffffffffff1673ffffffffffffffffffffffffffffffffffffffff168152602001908152602001600020819055506002339080600181540180825580915050600190039060005260206000200160009091909190916101000a81548173ffffffffffffffffffffffffffffffffffffffff021916908373ffffffffffffffffffffffffffffffffffffffff1602179055507f274e39729f96afa90e4cd7760ca70dd6edd7d41b90bb59076ccb90a2a5069759336000803373ffffffffffffffffffffffffffffffffffffffff1673ffffffffffffffffffffffffffffffffffffffff168152602001908152602001600020546040516110639291906123e2565b60405180910390a15050565b60606000826040516020016110849190611d0f565b6040516020818303038152906040528051906020012090506000600560008781526020019081526020016000209050600181600201856040516110c79190611d0f565b90815260200160405180910390208190555060018160060160008282546110ee919061244d565b925050819055507fa05eb6d2840dde95e7d42945d898b9bfb7f553e709ea87aa35e2916066680a7085836040516111269291906124ef565b60405180910390a183925050509392505050565b6000806005600084815260200190815260200160002090506000602060ff1611611199576040517f08c379a00000000000000000000000000000000000000000000000000000000081526004016111909061258a565b60405180910390fd5b6001915050919050565b600060016003600084815260200190815260200160002054149050919050565b60016020528060005260406000206000915090505481565b6000600115156111ea846111a3565b15151480156112065750600115156112028484610749565b1515145b801561121f57506001151561121b84846106f3565b1515145b1561126a5760006005600085815260200190815260200160002090506000816001018460405161124f9190611d0f565b9081526020016040518091039020549050809250505061126f565b600090505b92915050565b60008061128183610808565b905080915050919050565b60006005600084815260200190815260200160002090508181600101856040516112b69190611d0f565b908152602001604051809103902081905550600081600201856040516112dc9190611d0f565b9081526020016040518091039020819055506000846040516020016113019190611d0f565b6040516020818303038152906040528051906020012090507f416859376e19e508ba644b7c5ddf5aa018f87fca8e1433b62790c576f5ed2f00818460405161134a929190612642565b60405180910390a15050505050565b600060405160200161136a906126dd565b604051602081830303815290604052805190602001208383604051602001611393929190612717565b60405160208183030381529060405280519060200120036113b75760019050611474565b6040516020016113c69061277c565b6040516020818303038152906040528051906020012083836040516020016113ef929190612717565b60405160208183030381529060405280519060200120036114135760049050611474565b604051602001611422906127dd565b60405160208183030381529060405280519060200120838360405160200161144b929190612717565b604051602081830303815290604052805190602001200361146f5760079050611474565b600090505b92915050565b6000604051905090565b600080fd5b600080fd5b6000819050919050565b6114a18161148e565b81146114ac57600080fd5b50565b6000813590506114be81611498565b92915050565b600080fd5b600080fd5b6000601f19601f8301169050919050565b7f4e487b7100000000000000000000000000000000000000000000000000000000600052604160045260246000fd5b611517826114ce565b810181811067ffffffffffffffff82111715611536576115356114df565b5b80604052505050565b600061154961147a565b9050611555828261150e565b919050565b600067ffffffffffffffff821115611575576115746114df565b5b61157e826114ce565b9050602081019050919050565b82818337600083830152505050565b60006115ad6115a88461155a565b61153f565b9050828152602081018484840111156115c9576115c86114c9565b5b6115d484828561158b565b509392505050565b600082601f8301126115f1576115f06114c4565b5b813561160184826020860161159a565b91505092915050565b60008060006060848603121561162357611622611484565b5b6000611631868287016114af565b935050602084013567ffffffffffffffff81111561165257611651611489565b5b61165e868287016115dc565b925050604061166f868287016114af565b9150509250925092565b600080604083850312156116905761168f611484565b5b600061169e858286016114af565b925050602083013567ffffffffffffffff8111156116bf576116be611489565b5b6116cb858286016115dc565b9150509250929050565b60008115159050919050565b6116ea816116d5565b82525050565b600060208201905061170560008301846116e1565b92915050565b60006020828403121561172157611720611484565b5b600061172f848285016114af565b91505092915050565b6000819050919050565b61174b81611738565b82525050565b60006020820190506117666000830184611742565b92915050565b600073ffffffffffffffffffffffffffffffffffffffff82169050919050565b60006117978261176c565b9050919050565b6117a78161178c565b81146117b257600080fd5b50565b6000813590506117c48161179e565b92915050565b6000602082840312156117e0576117df611484565b5b60006117ee848285016117b5565b91505092915050565b6118008161148e565b82525050565b600060208201905061181b60008301846117f7565b92915050565b61182a8161178c565b82525050565b60006020820190506118456000830184611821565b92915050565b61185481611738565b811461185f57600080fd5b50565b6000813590506118718161184b565b92915050565b6000806040838503121561188e5761188d611484565b5b600061189c858286016114af565b92505060206118ad85828601611862565b9150509250929050565b600080604083850312156118ce576118cd611484565b5b60006118dc858286016117b5565b92505060206118ed858286016114af565b9150509250929050565b6000806040838503121561190e5761190d611484565b5b600061191c858286016114af565b925050602061192d858286016117b5565b9150509250929050565b600080fd5b600080fd5b60008083601f840112611957576119566114c4565b5b8235905067ffffffffffffffff81111561197457611973611937565b5b6020830191508360018202830111156119905761198f61193c565b5b9250929050565b600080602083850312156119ae576119ad611484565b5b600083013567ffffffffffffffff8111156119cc576119cb611489565b5b6119d885828601611941565b92509250509250929050565b6000806000606084860312156119fd576119fc611484565b5b6000611a0b868287016114af565b9350506020611a1c868287016117b5565b925050604084013567ffffffffffffffff811115611a3d57611a3c611489565b5b611a49868287016115dc565b9150509250925092565b600081519050919050565b600082825260208201905092915050565b60005b83811015611a8d578082015181840152602081019050611a72565b83811115611a9c576000848401525b50505050565b6000611aad82611a53565b611ab78185611a5e565b9350611ac7818560208601611a6f565b611ad0816114ce565b840191505092915050565b60006020820190508181036000830152611af58184611aa2565b905092915050565b7f4f6e6c79204865616420496e76657374696761746f722063616e20617373696760008201527f6e206c6576656c20746f2065766964656e636500000000000000000000000000602082015250565b6000611b59603383611a5e565b9150611b6482611afd565b604082019050919050565b60006020820190508181036000830152611b8881611b4c565b9050919050565b7f4361736520646f6573206e6f7420657869737473000000000000000000000000600082015250565b6000611bc5601483611a5e565b9150611bd082611b8f565b602082019050919050565b60006020820190508181036000830152611bf481611bb8565b9050919050565b7f45766964656e636520646f6573206e6f74206578697374730000000000000000600082015250565b6000611c31601883611a5e565b9150611c3c82611bfb565b602082019050919050565b60006020820190508181036000830152611c6081611c24565b9050919050565b7f4c6576656c2061737369676e6564000000000000000000000000000000000000600082015250565b6000611c9d600e83611a5e565b9150611ca882611c67565b602082019050919050565b60006020820190508181036000830152611ccc81611c90565b9050919050565b600081905092915050565b6000611ce982611a53565b611cf38185611cd3565b9350611d03818560208601611a6f565b80840191505092915050565b6000611d1b8284611cde565b915081905092915050565b7f55736572206e6f7420617574686f726973656420746f2061646420657669646560008201527f6e636520746f2063617365000000000000000000000000000000000000000000602082015250565b6000611d82602b83611a5e565b9150611d8d82611d26565b604082019050919050565b60006020820190508181036000830152611db181611d75565b9050919050565b7f5573657200000000000000000000000000000000000000000000000000000000600082015250565b6000611dee600483611a5e565b9150611df982611db8565b602082019050919050565b7f2063616e2072656769737465722065766964656e636520746f20636173652000600082015250565b6000611e3a601f83611a5e565b9150611e4582611e04565b602082019050919050565b60006080820190508181036000830152611e6981611de1565b9050611e786020830185611821565b8181036040830152611e8981611e2d565b9050611e9860608301846117f7565b9392505050565b7f55736572206973206e6f74207265676973746572656400000000000000000000600082015250565b6000611ed5601683611a5e565b9150611ee082611e9f565b602082019050919050565b60006020820190508181036000830152611f0481611ec8565b9050919050565b7f4361736520697320616c72656164792063726561746564000000000000000000600082015250565b6000611f41601783611a5e565b9150611f4c82611f0b565b602082019050919050565b60006020820190508181036000830152611f7081611f34565b9050919050565b7f4f6e6c79204865616420496e76657374696761746f722063616e20637265617460008201527f6520636173657300000000000000000000000000000000000000000000000000602082015250565b6000611fd3602783611a5e565b9150611fde82611f77565b604082019050919050565b6000602082019050818103600083015261200281611fc6565b9050919050565b7f4361736520526567697374657265640000000000000000000000000000000000600082015250565b600061203f600f83611a5e565b915061204a82612009565b602082019050919050565b7f2062792075736572200000000000000000000000000000000000000000000000600082015250565b600061208b600983611a5e565b915061209682612055565b602082019050919050565b600060808201905081810360008301526120ba81612032565b90506120c960208301856117f7565b81810360408301526120da8161207e565b90506120e96060830184611821565b9392505050565b7f496e76657374696761746f7220686173206265656e2072656d6f766564000000600082015250565b6000612126601d83611a5e565b9150612131826120f0565b602082019050919050565b7f66726f6d20636173650000000000000000000000000000000000000000000000600082015250565b6000612172600983611a5e565b915061217d8261213c565b602082019050919050565b600060808201905081810360008301526121a181612119565b90506121b06020830185611821565b81810360408301526121c181612165565b90506121d060608301846117f7565b9392505050565b7f496e76657374696761746f720000000000000000000000000000000000000000600082015250565b600061220d600c83611a5e565b9150612218826121d7565b602082019050919050565b7f20616464656420746f2063617365200000000000000000000000000000000000600082015250565b6000612259600f83611a5e565b915061226482612223565b602082019050919050565b6000608082019050818103600083015261228881612200565b90506122976020830185611821565b81810360408301526122a88161224c565b90506122b760608301846117f7565b9392505050565b7f5573657220416c72656164792052656769737465726564000000000000000000600082015250565b60006122f4601783611a5e565b91506122ff826122be565b602082019050919050565b60006020820190508181036000830152612323816122e7565b9050919050565b7f496e76616c69642064657369676e6174696f6e00000000000000000000000000600082015250565b6000612360601383611a5e565b915061236b8261232a565b602082019050919050565b6000602082019050818103600083015261238f81612353565b9050919050565b7f205573657220526567697374726174696f6e20436f6d706c6574656400000000600082015250565b60006123cc601c83611a5e565b91506123d782612396565b602082019050919050565b600060608201905081810360008301526123fb816123bf565b905061240a6020830185611821565b61241760408301846117f7565b9392505050565b7f4e487b7100000000000000000000000000000000000000000000000000000000600052601160045260246000fd5b60006124588261148e565b91506124638361148e565b9250827fffffffffffffffffffffffffffffffffffffffffffffffffffffffffffffffff038211156124985761249761241e565b5b828201905092915050565b7f726567697374657265642065766964656e636500000000000000000000000000600082015250565b60006124d9601383611a5e565b91506124e4826124a3565b602082019050919050565b6000608082019050818103600083015261250881611de1565b90506125176020830185611821565b8181036040830152612528816124cc565b90506125376060830184611742565b9392505050565b7f4b657920646f6573206e6f742065786973747300000000000000000000000000600082015250565b6000612574601383611a5e565b915061257f8261253e565b602082019050919050565b600060208201905081810360008301526125a381612567565b9050919050565b7f45766964656e6365000000000000000000000000000000000000000000000000600082015250565b60006125e0600883611a5e565b91506125eb826125aa565b602082019050919050565b7f686173206265656e2061737369676e6564206c6576656c000000000000000000600082015250565b600061262c601783611a5e565b9150612637826125f6565b602082019050919050565b6000608082019050818103600083015261265b816125d3565b905061266a6020830185611742565b818103604083015261267b8161261f565b905061268a60608301846117f7565b9392505050565b7f4865616420496e76657374696761746f72000000000000000000000000000000600082015250565b60006126c7601183611cd3565b91506126d282612691565b601182019050919050565b60006126e8826126ba565b9150819050919050565b60006126fe8385611cd3565b935061270b83858461158b565b82840190509392505050565b60006127248284866126f2565b91508190509392505050565b7f4c65616420496e76657374696761746f72000000000000000000000000000000600082015250565b6000612766601183611cd3565b915061277182612730565b601182019050919050565b600061278782612759565b9150819050919050565b7f5465616d20496e76657374696761746f72000000000000000000000000000000600082015250565b60006127c7601183611cd3565b91506127d282612791565b601182019050919050565b60006127e8826127ba565b915081905091905056fea26469706673582212202dde73fad3720121ce0045a6ea31adbc7973ce6d9091b22a56ef80355a7bf89d64736f6c634300080d0033",
  "immutableReferences": {},
  "source": "// SPDX-License-Identifier: MIT\r\npragma solidity ^0.8.9;\r\nimport \"./AssignRole.sol\";\r\n///@title allows creation of case & manages all evidence related to a case\r\n/// DAC policy \r\ncontract Case is AssignRole{\r\n    struct SCase {\r\n        string ID;\r\n        mapping(string => uint) AssignedEvidences;\r\n        mapping(string => uint) UnassignedEvidences;\r\n        mapping(address => uint) investigators;\r\n        bytes32 key;\r\n        address HI;\r\n        uint evid;\r\n    }\r\n    mapping(uint=>uint) Cases;\r\n    mapping(uint=>address)Case_Head_Inv;\r\n    mapping(uint => SCase) active_cases;\r\n    event Case_Registration_Done(string, uint, string, address );\r\n    event Investigator_Removed(string, address,string, uint);\r\n    event Investigator_Added(string, address, string, uint);\r\n    event Evidence_Assigned_Level(string, bytes32, string, uint);\r\n    event Evidence_Registered(string, address, string, bytes32);\r\n    event Can_Register_Evidence(string, address, string,uint);\r\n    ///@notice checks if case has already been created\r\n    function does_case_exists(uint num) public view returns (bool) {\r\n        return Cases[num]==1;}\r\n    /// @notice creates a case\r\n    function create_case( uint case_number, bytes32 AESkey) public payable {\r\n        require(RegisteredUsers[msg.sender] == 1,\"User is not registered\");\r\n        require(does_case_exists(case_number) == false,\"Case is already created\");\r\n        require(returnRole(msg.sender) == 1,\"Only Head Investigator can create cases\");\r\n        SCase storage newCase = active_cases[case_number];\r\n        newCase.HI = msg.sender;\r\n        newCase.investigators[msg.sender] = 1;\r\n        newCase.key=AESkey;\r\n        Cases[case_number]=1;\r\n        Case_Head_Inv[case_number]=msg.sender;\r\n        emit Case_Registration_Done(\"Case Registered\", case_number, \" by user \", msg.sender);\r\n    }\r\n\r\n    ///@notice returns Head Investigator of a case\r\n    function returnHI(uint case_number) public payable returns (address) {\r\n        return (Case_Head_Inv[case_number]);\r\n    }\r\n\r\n    ///@notice returns whether an user is authorised to work on a case\r\n    /// @param user address of user requesting access; @param number Unique Case Number\r\n    function is_authorized(\r\n        address user,\r\n        uint number\r\n    ) public view returns (bool) {\r\n        SCase storage nC = active_cases[number];\r\n        if (nC.investigators[user] == 1) {\r\n            return true;\r\n        }\r\n        return false;\r\n    }\r\n\r\n    /// @notice allows Head Investigator to modify access rights\r\n    function add_investigator(address inv, uint num) public payable {\r\n        SCase storage newC = active_cases[num];\r\n        newC.investigators[inv] = 1;\r\n        emit Investigator_Added(\r\n            \"Investigator\" ,\r\n            inv,\r\n            \" added to case \",\r\n            num\r\n        );\r\n    }\r\n\r\n    /// @notice checks whether evidence exists\r\n    /// @param case_number unique id of case, @param key hash of evidence which has to be assigned level \r\n    function does_evidence_exists(\r\n        uint case_number,\r\n        string memory key\r\n    ) public view returns (bool) {\r\n        SCase storage c = active_cases[case_number];\r\n        if (c.AssignedEvidences[key] > 0 || c.UnassignedEvidences[key] > 0) {\r\n            return true;\r\n        }\r\n        return false;\r\n    }\r\n\r\n    /// @notice checks whether level is assigned to evidence\r\n    function is_level_assigned(\r\n        uint case_number,\r\n        string memory key\r\n    ) public view returns (bool) {\r\n        SCase storage c = active_cases[case_number];\r\n        if (c.UnassignedEvidences[key] == 1) {\r\n            return false;\r\n        }\r\n        return true;\r\n    }\r\n\r\n    ///@notice DAC policy allows removal of an investigator from case\r\n    function remove_investigator(uint case_number, address inv) public payable {\r\n        // remove an investigator from DAC policy\r\n        SCase storage nC = active_cases[case_number];\r\n        nC.investigators[inv] = 0;\r\n        emit Investigator_Removed(\r\n            \"Investigator has been removed\" ,\r\n            inv,\r\n            \"from case\",\r\n            case_number\r\n        );\r\n    }\r\n\r\n    /// @notice allows Head Investigator to assign integrity level to an evidence\r\n    function setlevel(string memory key, uint case_num, uint level) internal {\r\n        SCase storage nc = active_cases[case_num];\r\n        nc.AssignedEvidences[key] = level; // addition to Assigned evidences\r\n        nc.UnassignedEvidences[key] = 0; // removal from Unassigned evidences\r\n        bytes32 KC = keccak256(abi.encodePacked(key));\r\n        emit Evidence_Assigned_Level(\"Evidence\",  KC,  \"has been assigned level\", level);\r\n    }\r\n\r\n    ///@notice caller function to assign level to an evidence \r\n    function assign_inl(uint case_num, string memory key, uint level) public payable {\r\n        require(returnHI(case_num)==msg.sender, \"Only Head Investigator can assign level to evidence\");\r\n        require(does_case_exists(case_num) == true, \"Case does not exists\");\r\n        require(\r\n            does_evidence_exists(case_num, key) == true,\r\n            \"Evidence does not exists\"\r\n        );\r\n        require(is_level_assigned(case_num, key) == false, \"Level assigned\");\r\n        setlevel(key, case_num, level);\r\n    }\r\n\r\n    ///@notice check if user is authorised to add evidence\r\n    /// @param case_num Unique case ID;  \r\n    function register_evi(\r\n        uint case_num\r\n    ) public payable returns (bool){\r\n        // bytes32 key = keccak256(abi.encodePacked(ev));\r\n        require(does_case_exists(case_num) == true, \"Case does not exists\");\r\n        require(is_authorized(msg.sender, case_num) == true, \"User not authorised to add evidence to case\");\r\n        emit Can_Register_Evidence(\"User\", msg.sender, \" can register evidence to case \", case_num);\r\n        return true;\r\n    }\r\n\r\n    /// @notice returns if an AES key already exists\r\n    function returnAESkey(uint case_num) public view returns(bytes32){\r\n        SCase storage nC = active_cases[case_num];\r\n        return nC.key;\r\n    }\r\n    ///@notice to check if a key exists in case\r\n    function does_key_Exists(uint case_num) public view returns(bool){\r\n        SCase storage nC = active_cases[case_num];\r\n        require(nC.key.length>0, \"Key does not exists\");\r\n        return true;\r\n    }\r\n    ///@notice allow user to add evidence \r\n    /// @param case_num Unique case ID;  @param user address of requestor; ///@param CID from IPFS; ///@param AES key used for AONT \r\n    function add_evidence(uint case_num, address user, string memory CID) public returns (string memory) {\r\n        bytes32 KC = keccak256(abi.encodePacked(CID));\r\n        SCase storage nC = active_cases[case_num];\r\n        nC.UnassignedEvidences[CID] = 1;\r\n        nC.evid += 1;\r\n        // nC.evCID[KC]=CID;\r\n        emit Evidence_Registered(\"User\", user,  \"registered evidence\", KC);\r\n        return CID;\r\n    }\r\n\r\n    ///@notice return level of integrity assigned to an evidence\r\n    ///@param key unique identifier of evidence\r\n    function return_level(\r\n        uint case_num,\r\n        string memory key\r\n    ) public view returns (uint) {\r\n        // require(does_case_exists(case_num) == true, \"Case does not exists\");\r\n        // require(\r\n        //     does_evidence_exists(case_num, key) == true,\r\n        //     \"Evidence does not exists\"\r\n        // );\r\n        // require(is_level_assigned(case_num, key) == true, \"Evidence not valid\");\r\n        if(does_case_exists(case_num) == true && does_evidence_exists(case_num, key) == true && is_level_assigned(case_num, key) == true){\r\n            SCase storage nc = active_cases[case_num];\r\n            uint lvl = nc.AssignedEvidences[key];\r\n            return lvl;\r\n        }\r\n        return 0;\r\n    }\r\n\r\n//     ///@notice allows deletion of evidence\r\n//     function delete_evidence(bytes32 key, uint case_num) internal {\r\n//         SCase storage nc = active_cases[case_num];\r\n//         require(does_case_exists(case_num) == true, \"Case does not exists\");\r\n//         require(\r\n//             is_closed(case_num) == 1,\r\n//             \"Case is still open. Cannot delete evidence\"\r\n//         );\r\n//         require(\r\n//             does_evidence_exists(case_num, key) == true,\r\n//             \"Evidence does not exists\"\r\n//         );\r\n//         require(is_level_assigned(case_num, key) == true, \"Evidence not valid\");\r\n//         nc.AssignedEvidences[key] = 0;\r\n//         emit EvidenceDeleted(\r\n//             \"Evidence from Case has been deleted\",\r\n//             case_num,\r\n//             key\r\n//         );\r\n//     }\r\n\r\n//     ///@notice closes a case\r\n//     function case_closing(uint case_num) internal {\r\n//         require(\r\n//             returnRole(msg.sender) == 1,\r\n//             \"Only Head Investigator can create cases\"\r\n//         );\r\n//         SCase storage nc = active_cases[case_num];\r\n//         require(\r\n//             nc.HI == msg.sender,\r\n//             \"Only Head Investigator of the case can close it.\"\r\n//         );\r\n//         nc.closetime = block.timestamp;\r\n//         emit CaseClosed(\"Case is closed\", case_num);\r\n//     }\r\n\r\n//     function is_closed(uint case_num) internal view returns (uint) {\r\n//         SCase storage nc = active_cases[case_num];\r\n//         if (nc.closetime == 0) {\r\n//             return 0;\r\n//         }\r\n//         return 1;\r\n//     }\r\n}\r\n",
  "sourcePath": "C:\\Users\\baner\\OneDrive\\Desktop\\Leveraging-Blockchain-for-Auditable-Access-Control\\contracts\\Case.sol",
  "compiler": {
    "name": "solc",
    "version": "0.8.13+commit.abaa5c0e.Emscripten.clang"
  },
  "schemaVersion": "3.4.16",
  "updatedAt": "2025-01-03T07:35:06.248Z",
  "networkType": "ethereum",
  "devdoc": {
    "kind": "dev",
    "methods": {
      "add_evidence(uint256,address,string)": {
        "params": {
          "case_num": "Unique case ID;  @param user address of requestor; ///@param CID from IPFS; ///@param AES key used for AONT "
        }
      },
      "does_evidence_exists(uint256,string)": {
        "params": {
          "case_number": "unique id of case, @param key hash of evidence which has to be assigned level "
        }
      },
      "is_authorized(address,uint256)": {
        "params": {
          "user": "address of user requesting access; @param number Unique Case Number"
        }
      },
      "register_evi(uint256)": {
        "params": {
          "case_num": "Unique case ID;  "
        }
      },
      "return_level(uint256,string)": {
        "params": {
          "key": "unique identifier of evidence"
        }
      }
    },
    "title": "allows creation of case & manages all evidence related to a case DAC policy ",
    "version": 1
  },
  "userdoc": {
    "kind": "user",
    "methods": {
      "DoesUserExists(address)": {
        "notice": "checks if user is already existing"
      },
      "add_evidence(uint256,address,string)": {
        "notice": "allow user to add evidence "
      },
      "add_investigator(address,uint256)": {
        "notice": "allows Head Investigator to modify access rights"
      },
      "assign_inl(uint256,string,uint256)": {
        "notice": "caller function to assign level to an evidence "
      },
      "create_case(uint256,bytes32)": {
        "notice": "creates a case"
      },
      "does_case_exists(uint256)": {
        "notice": "checks if case has already been created"
      },
      "does_evidence_exists(uint256,string)": {
        "notice": "checks whether evidence exists"
      },
      "does_key_Exists(uint256)": {
        "notice": "to check if a key exists in case"
      },
      "is_authorized(address,uint256)": {
        "notice": "returns whether an user is authorised to work on a case"
      },
      "is_level_assigned(uint256,string)": {
        "notice": "checks whether level is assigned to evidence"
      },
      "register_evi(uint256)": {
        "notice": "check if user is authorised to add evidence"
      },
      "remove_investigator(uint256,address)": {
        "notice": "DAC policy allows removal of an investigator from case"
      },
      "returnAESkey(uint256)": {
        "notice": "returns if an AES key already exists"
      },
      "returnHI(uint256)": {
        "notice": "returns Head Investigator of a case"
      },
      "returnRole(address)": {
        "notice": "returns role of an user "
      },
      "return_level(uint256,string)": {
        "notice": "return level of integrity assigned to an evidence"
      },
      "setRole(string)": {
        "notice": "allows an user to create account and set role"
      }
    },
    "version": 1
  }
}