{
  "contractName": "Evidence",
  "abi": [
    {
      "anonymous": false,
      "inputs": [
        {
          "indexed": false,
          "internalType": "string",
          "name": "",
          "type": "string"
        },
        {
          "indexed": false,
          "internalType": "uint256",
          "name": "",
          "type": "uint256"
        }
      ],
      "name": "CaseClosed",
      "type": "event"
    },
    {
      "anonymous": false,
      "inputs": [
        {
          "indexed": false,
          "internalType": "string",
          "name": "",
          "type": "string"
        },
        {
          "indexed": false,
          "internalType": "string",
          "name": "",
          "type": "string"
        },
        {
          "indexed": false,
          "internalType": "uint256",
          "name": "",
          "type": "uint256"
        }
      ],
      "name": "CaseRegistrationDone",
      "type": "event"
    },
    {
      "anonymous": false,
      "inputs": [
        {
          "indexed": false,
          "internalType": "string",
          "name": "",
          "type": "string"
        },
        {
          "indexed": false,
          "internalType": "bytes32",
          "name": "",
          "type": "bytes32"
        }
      ],
      "name": "EvidenceAssignedLevel",
      "type": "event"
    },
    {
      "anonymous": false,
      "inputs": [
        {
          "indexed": false,
          "internalType": "string",
          "name": "",
          "type": "string"
        },
        {
          "indexed": false,
          "internalType": "uint256",
          "name": "",
          "type": "uint256"
        },
        {
          "indexed": false,
          "internalType": "bytes32",
          "name": "",
          "type": "bytes32"
        }
      ],
      "name": "EvidenceDeleted",
      "type": "event"
    },
    {
      "anonymous": false,
      "inputs": [
        {
          "indexed": false,
          "internalType": "string",
          "name": "",
          "type": "string"
        },
        {
          "indexed": false,
          "internalType": "bytes32",
          "name": "",
          "type": "bytes32"
        },
        {
          "indexed": false,
          "internalType": "address",
          "name": "",
          "type": "address"
        }
      ],
      "name": "EvidenceRegistered",
      "type": "event"
    },
    {
      "anonymous": false,
      "inputs": [
        {
          "indexed": false,
          "internalType": "string",
          "name": "",
          "type": "string"
        },
        {
          "indexed": false,
          "internalType": "address",
          "name": "",
          "type": "address"
        },
        {
          "indexed": false,
          "internalType": "uint256",
          "name": "",
          "type": "uint256"
        }
      ],
      "name": "InvestigatorRemoved",
      "type": "event"
    },
    {
      "anonymous": false,
      "inputs": [
        {
          "indexed": false,
          "internalType": "string",
          "name": "",
          "type": "string"
        },
        {
          "indexed": false,
          "internalType": "address",
          "name": "",
          "type": "address"
        },
        {
          "indexed": false,
          "internalType": "uint256",
          "name": "",
          "type": "uint256"
        }
      ],
      "name": "UserRegistrationDone",
      "type": "event"
    },
    {
      "inputs": [
        {
          "internalType": "address",
          "name": "user",
          "type": "address"
        }
      ],
      "name": "DoesUserExists",
      "outputs": [
        {
          "internalType": "bool",
          "name": "",
          "type": "bool"
        }
      ],
      "stateMutability": "view",
      "type": "function",
      "constant": true
    },
    {
      "inputs": [
        {
          "internalType": "address",
          "name": "inv",
          "type": "address"
        },
        {
          "internalType": "uint256",
          "name": "num",
          "type": "uint256"
        }
      ],
      "name": "add_investigator",
      "outputs": [],
      "stateMutability": "payable",
      "type": "function",
      "payable": true
    },
    {
      "inputs": [
        {
          "internalType": "uint256",
          "name": "case_num",
          "type": "uint256"
        },
        {
          "internalType": "string",
          "name": "ev",
          "type": "string"
        },
        {
          "internalType": "uint256",
          "name": "level",
          "type": "uint256"
        }
      ],
      "name": "assign_inl",
      "outputs": [],
      "stateMutability": "payable",
      "type": "function",
      "payable": true
    },
    {
      "inputs": [
        {
          "internalType": "string",
          "name": "name",
          "type": "string"
        },
        {
          "internalType": "uint256",
          "name": "case_number",
          "type": "uint256"
        }
      ],
      "name": "createcase",
      "outputs": [],
      "stateMutability": "payable",
      "type": "function",
      "payable": true
    },
    {
      "inputs": [
        {
          "internalType": "uint256",
          "name": "num",
          "type": "uint256"
        }
      ],
      "name": "does_case_exists",
      "outputs": [
        {
          "internalType": "bool",
          "name": "",
          "type": "bool"
        }
      ],
      "stateMutability": "view",
      "type": "function",
      "constant": true
    },
    {
      "inputs": [
        {
          "internalType": "uint256",
          "name": "case_number",
          "type": "uint256"
        },
        {
          "internalType": "bytes32",
          "name": "key",
          "type": "bytes32"
        }
      ],
      "name": "does_evidence_exists",
      "outputs": [
        {
          "internalType": "bool",
          "name": "",
          "type": "bool"
        }
      ],
      "stateMutability": "view",
      "type": "function",
      "constant": true
    },
    {
      "inputs": [
        {
          "internalType": "address",
          "name": "user",
          "type": "address"
        },
        {
          "internalType": "uint256",
          "name": "number",
          "type": "uint256"
        }
      ],
      "name": "is_authorized",
      "outputs": [
        {
          "internalType": "bool",
          "name": "",
          "type": "bool"
        }
      ],
      "stateMutability": "view",
      "type": "function",
      "constant": true
    },
    {
      "inputs": [
        {
          "internalType": "uint256",
          "name": "case_number",
          "type": "uint256"
        },
        {
          "internalType": "bytes32",
          "name": "key",
          "type": "bytes32"
        }
      ],
      "name": "is_level_assigned",
      "outputs": [
        {
          "internalType": "bool",
          "name": "",
          "type": "bool"
        }
      ],
      "stateMutability": "view",
      "type": "function",
      "constant": true
    },
    {
      "inputs": [
        {
          "internalType": "address",
          "name": "user",
          "type": "address"
        }
      ],
      "name": "publicDoesUserExists",
      "outputs": [
        {
          "internalType": "bool",
          "name": "",
          "type": "bool"
        }
      ],
      "stateMutability": "view",
      "type": "function",
      "constant": true
    },
    {
      "inputs": [
        {
          "internalType": "address",
          "name": "user",
          "type": "address"
        }
      ],
      "name": "publicreturnRole",
      "outputs": [
        {
          "internalType": "uint256",
          "name": "",
          "type": "uint256"
        }
      ],
      "stateMutability": "view",
      "type": "function",
      "constant": true
    },
    {
      "inputs": [
        {
          "internalType": "string",
          "name": "desig",
          "type": "string"
        },
        {
          "internalType": "address",
          "name": "user",
          "type": "address"
        }
      ],
      "name": "publicsetRole",
      "outputs": [],
      "stateMutability": "nonpayable",
      "type": "function"
    },
    {
      "inputs": [
        {
          "internalType": "uint256",
          "name": "case_num",
          "type": "uint256"
        },
        {
          "internalType": "string",
          "name": "ev",
          "type": "string"
        },
        {
          "internalType": "address",
          "name": "user",
          "type": "address"
        }
      ],
      "name": "register_evi",
      "outputs": [],
      "stateMutability": "payable",
      "type": "function",
      "payable": true
    },
    {
      "inputs": [
        {
          "internalType": "string",
          "name": "designation",
          "type": "string"
        }
      ],
      "name": "register_user",
      "outputs": [],
      "stateMutability": "nonpayable",
      "type": "function"
    },
    {
      "inputs": [
        {
          "internalType": "uint256",
          "name": "case_number",
          "type": "uint256"
        },
        {
          "internalType": "address",
          "name": "inv",
          "type": "address"
        }
      ],
      "name": "remove_investigator",
      "outputs": [],
      "stateMutability": "payable",
      "type": "function",
      "payable": true
    },
    {
      "inputs": [
        {
          "internalType": "uint256",
          "name": "case_number",
          "type": "uint256"
        }
      ],
      "name": "returnHI",
      "outputs": [
        {
          "internalType": "address",
          "name": "",
          "type": "address"
        }
      ],
      "stateMutability": "payable",
      "type": "function",
      "payable": true
    },
    {
      "inputs": [
        {
          "internalType": "address",
          "name": "user",
          "type": "address"
        }
      ],
      "name": "returnRole",
      "outputs": [
        {
          "internalType": "uint256",
          "name": "",
          "type": "uint256"
        }
      ],
      "stateMutability": "view",
      "type": "function",
      "constant": true
    },
    {
      "inputs": [
        {
          "internalType": "uint256",
          "name": "case_num",
          "type": "uint256"
        },
        {
          "internalType": "bytes32",
          "name": "key",
          "type": "bytes32"
        }
      ],
      "name": "return_level",
      "outputs": [
        {
          "internalType": "uint256",
          "name": "",
          "type": "uint256"
        }
      ],
      "stateMutability": "payable",
      "type": "function",
      "payable": true
    },
    {
      "inputs": [
        {
          "internalType": "string",
          "name": "designation",
          "type": "string"
        },
        {
          "internalType": "address",
          "name": "user",
          "type": "address"
        }
      ],
      "name": "setRole",
      "outputs": [],
      "stateMutability": "nonpayable",
      "type": "function"
    },
    {
      "inputs": [
        {
          "internalType": "string",
          "name": "evidence",
          "type": "string"
        },
        {
          "internalType": "uint256",
          "name": "case_number",
          "type": "uint256"
        }
      ],
      "name": "_register_evidence",
      "outputs": [],
      "stateMutability": "payable",
      "type": "function",
      "payable": true
    },
    {
      "inputs": [
        {
          "internalType": "string",
          "name": "evidence",
          "type": "string"
        },
        {
          "internalType": "uint256",
          "name": "case_number",
          "type": "uint256"
        },
        {
          "internalType": "uint256",
          "name": "level",
          "type": "uint256"
        }
      ],
      "name": "level_assignment",
      "outputs": [],
      "stateMutability": "payable",
      "type": "function",
      "payable": true
    }
  ],
  "bytecode": "0x60806040523480156200001157600080fd5b50600160006040516200002490620000df565b90815260200160405180910390208190555060046000604051620000489062000146565b908152602001604051809103902081905550600760006040516200006c90620001ad565b908152602001604051809103902081905550620001c4565b600081905092915050565b7f4865616420496e76657374696761746f72000000000000000000000000000000600082015250565b6000620000c760118362000084565b9150620000d4826200008f565b601182019050919050565b6000620000ec82620000b8565b9150819050919050565b7f4c65616420496e76657374696761746f72000000000000000000000000000000600082015250565b60006200012e60118362000084565b91506200013b82620000f6565b601182019050919050565b600062000153826200011f565b9150819050919050565b7f5465616d20496e76657374696761746f72000000000000000000000000000000600082015250565b60006200019560118362000084565b9150620001a2826200015d565b601182019050919050565b6000620001ba8262000186565b9150819050919050565b61254480620001d46000396000f3fe60806040526004361061011f5760003560e01c80636cad4fa6116100a0578063cfde189011610064578063cfde1890146103c3578063d014fe40146103ec578063d07a3b6814610415578063f7bb889314610431578063fb5f5c571461046e5761011f565b80636cad4fa6146102ee57806374bab7601461030a5780637d6fb49c1461033a578063ac50417c14610356578063b929a092146103865761011f565b806337106727116100e757806337106727146101ff5780634cc70a0f1461021b57806359ea8ddd146102585780635ce7cd581461029557806364093834146102d25761011f565b8063027a65c21461012457806305805e0214610140578063080e05191461017d578063257dbfc3146101a65780633646f329146101c2575b600080fd5b61013e60048036038101906101399190611422565b6104ab565b005b34801561014c57600080fd5b50610167600480360381019061016291906114cc565b61064f565b6040516101749190611527565b60405180910390f35b34801561018957600080fd5b506101a4600480360381019061019f91906115a0565b61069a565b005b6101c060048036038101906101bb9190611741565b6106aa565b005b3480156101ce57600080fd5b506101e960048036038101906101e491906117b0565b610802565b6040516101f69190611527565b60405180910390f35b610219600480360381019061021491906117dd565b61085e565b005b34801561022757600080fd5b50610242600480360381019061023d91906117b0565b6108b2565b60405161024f919061184c565b60405180910390f35b34801561026457600080fd5b5061027f600480360381019061027a9190611867565b61094a565b60405161028c9190611527565b60405180910390f35b3480156102a157600080fd5b506102bc60048036038101906102b791906117b0565b6109c1565b6040516102c9919061184c565b60405180910390f35b6102ec60048036038101906102e791906118a7565b6109d8565b005b61030860048036038101906103039190611867565b610a74565b005b610324600480360381019061031f91906118e7565b610ad7565b6040516103319190611923565b60405180910390f35b610354600480360381019061034f919061193e565b610b1c565b005b610370600480360381019061036b91906114cc565b610ba4565b60405161037d919061184c565b60405180910390f35b34801561039257600080fd5b506103ad60048036038101906103a891906118e7565b610cd1565b6040516103ba9190611527565b60405180910390f35b3480156103cf57600080fd5b506103ea60048036038101906103e591906115a0565b610d33565b005b3480156103f857600080fd5b50610413600480360381019061040e91906119b2565b610edd565b005b61042f600480360381019061042a91906117dd565b610eec565b005b34801561043d57600080fd5b50610458600480360381019061045391906114cc565b611142565b6040516104659190611527565b60405180910390f35b34801561047a57600080fd5b50610495600480360381019061049091906117b0565b611206565b6040516104a29190611527565b60405180910390f35b600083836040516020016104c0929190611a2f565b6040516020818303038152906040528051906020012090503373ffffffffffffffffffffffffffffffffffffffff166104f886610ad7565b73ffffffffffffffffffffffffffffffffffffffff161461054e576040517f08c379a000000000000000000000000000000000000000000000000000000000815260040161054590611acb565b60405180910390fd5b6001151561055b86610cd1565b15151461059d576040517f08c379a000000000000000000000000000000000000000000000000000000000815260040161059490611b37565b60405180910390fd5b600015156105ab8683611142565b1515146105ed576040517f08c379a00000000000000000000000000000000000000000000000000000000081526004016105e490611ba3565b60405180910390fd5b600015156105fb868361064f565b15151461063d576040517f08c379a000000000000000000000000000000000000000000000000000000000815260040161063490611c0f565b60405180910390fd5b61064881868461121d565b5050505050565b6000806004600085815260200190815260200160002090506001816003016000858152602001908152602001600020540361068e576000915050610694565b60019150505b92915050565b6106a5838383610d33565b505050565b6000826040516020016106bd9190611c9e565b604051602081830303815290604052805190602001209050600115156106e285610cd1565b151514610724576040517f08c379a000000000000000000000000000000000000000000000000000000000815260040161071b90611b37565b60405180910390fd5b600015156107328583611142565b151514610774576040517f08c379a000000000000000000000000000000000000000000000000000000000815260040161076b90611ba3565b60405180910390fd5b600060046000868152602001908152602001600020905060018160030160008481526020019081526020016000208190555060018160060160008282546107bb9190611ce4565b925050819055507fc1af16f5f8e3c3b57e2843dd14aab5832a95aeef0736b7b44cffc4d32c64cb9d82846040516107f3929190611d95565b60405180910390a15050505050565b60006001600260008473ffffffffffffffffffffffffffffffffffffffff1673ffffffffffffffffffffffffffffffffffffffff16815260200190815260200160002054036108545760019050610859565b600090505b919050565b6108ad8184848080601f016020809104026020016040519081016040528093929190818152602001838380828437600081840152601f19601f82011690508083019250505050505050336106aa565b505050565b6000600115156108c183610802565b151514610903576040517f08c379a00000000000000000000000000000000000000000000000000000000081526004016108fa90611e1d565b60405180910390fd5b600160008373ffffffffffffffffffffffffffffffffffffffff1673ffffffffffffffffffffffffffffffffffffffff168152602001908152602001600020549050919050565b60008060046000848152602001908152602001600020905060018160040160008673ffffffffffffffffffffffffffffffffffffffff1673ffffffffffffffffffffffffffffffffffffffff16815260200190815260200160002054036109b55760019150506109bb565b60009150505b92915050565b6000806109cd836108b2565b905080915050919050565b600060046000848152602001908152602001600020905060008160040160008473ffffffffffffffffffffffffffffffffffffffff1673ffffffffffffffffffffffffffffffffffffffff168152602001908152602001600020819055507fb6b4e493a9247fb90495ec09db8e16879fe0ccf6f478ef5252b5de4559f319f28284604051610a67929190611eaf565b60405180910390a1505050565b600060046000838152602001908152602001600020905060018160040160008573ffffffffffffffffffffffffffffffffffffffff1673ffffffffffffffffffffffffffffffffffffffff16815260200190815260200160002081905550505050565b6000806004600084815260200190815260200160002090508060050160009054906101000a900473ffffffffffffffffffffffffffffffffffffffff16915050919050565b610b2582610ad7565b73ffffffffffffffffffffffffffffffffffffffff163373ffffffffffffffffffffffffffffffffffffffff1614610b92576040517f08c379a0000000000000000000000000000000000000000000000000000000008152600401610b8990611f83565b60405180910390fd5b610b9e828585846104ab565b50505050565b600060011515610bb384610cd1565b151514610bf5576040517f08c379a0000000000000000000000000000000000000000000000000000000008152600401610bec90611b37565b60405180910390fd5b60011515610c038484611142565b151514610c45576040517f08c379a0000000000000000000000000000000000000000000000000000000008152600401610c3c90611fef565b60405180910390fd5b60011515610c53848461064f565b151514610c95576040517f08c379a0000000000000000000000000000000000000000000000000000000008152600401610c8c9061205b565b60405180910390fd5b60006004600085815260200190815260200160002090506000816002016000858152602001908152602001600020549050809250505092915050565b600080600090505b600380549050811015610d28578260038281548110610cfb57610cfa61207b565b5b906000526020600020015403610d15576001915050610d2e565b8080610d20906120aa565b915050610cd9565b50600090505b919050565b60001515610d4082610802565b151514610d82576040517f08c379a0000000000000000000000000000000000000000000000000000000008152600401610d799061213e565b60405180910390fd5b6000610d8e84846112a6565b11610dce576040517f08c379a0000000000000000000000000000000000000000000000000000000008152600401610dc5906121aa565b60405180910390fd5b610dd883836112a6565b600160008373ffffffffffffffffffffffffffffffffffffffff1673ffffffffffffffffffffffffffffffffffffffff168152602001908152602001600020819055506001600260008373ffffffffffffffffffffffffffffffffffffffff1673ffffffffffffffffffffffffffffffffffffffff168152602001908152602001600020819055507faa6d010bb351bc431c1230873f88f8f8b97c823fe65b1e102216919af719b1a281600160008473ffffffffffffffffffffffffffffffffffffffff1673ffffffffffffffffffffffffffffffffffffffff16815260200190815260200160002054604051610ed0929190612216565b60405180910390a1505050565b610ee882823361069a565b5050565b60011515610ef933611206565b151514610f3b576040517f08c379a0000000000000000000000000000000000000000000000000000000008152600401610f3290611e1d565b60405180910390fd5b60001515610f4882610cd1565b151514610f8a576040517f08c379a0000000000000000000000000000000000000000000000000000000008152600401610f819061229e565b60405180910390fd5b6001610f95336109c1565b14610fd5576040517f08c379a0000000000000000000000000000000000000000000000000000000008152600401610fcc90612330565b60405180910390fd5b60006004600083815260200190815260200160002090508383826000019190610fff9291906112d0565b508383604051602001611013929190611a2f565b604051602081830303815290604052805190602001208160010181905550338160050160006101000a81548173ffffffffffffffffffffffffffffffffffffffff021916908373ffffffffffffffffffffffffffffffffffffffff16021790555060018160040160003373ffffffffffffffffffffffffffffffffffffffff1673ffffffffffffffffffffffffffffffffffffffff16815260200190815260200160002081905550601981600701819055504281600801819055506000816009018190555060038290806001815401808255809150506001900390600052602060002001600090919091909150557f266d5cf462bf1f0254a78139854880064d99b9f9359d49bea6b8637ccf826cec848484604051611134939291906123c9565b60405180910390a150505050565b60006001151561115184610cd1565b151514611193576040517f08c379a000000000000000000000000000000000000000000000000000000000815260040161118a90611b37565b60405180910390fd5b600060046000858152602001908152602001600020905060008160020160008581526020019081526020016000205411156111d2576001915050611200565b60008160030160008581526020019081526020016000205411156111fa576001915050611200565b60009150505b92915050565b60008061121283610802565b905080915050919050565b600060046000848152602001908152602001600020905081816002016000868152602001908152602001600020819055506000816003016000868152602001908152602001600020819055507fa5b14494dc23eecde6552fb600b649e07cd8469e1e6738027781646914acfad8846040516112989190612480565b60405180910390a150505050565b60008083836040516112b9929190611a2f565b908152602001604051809103902054905092915050565b8280546112dc906124dd565b90600052602060002090601f0160209004810192826112fe5760008555611345565b82601f1061131757803560ff1916838001178555611345565b82800160010185558215611345579182015b82811115611344578235825591602001919060010190611329565b5b5090506113529190611356565b5090565b5b8082111561136f576000816000905550600101611357565b5090565b6000604051905090565b600080fd5b600080fd5b6000819050919050565b61139a81611387565b81146113a557600080fd5b50565b6000813590506113b781611391565b92915050565b600080fd5b600080fd5b600080fd5b60008083601f8401126113e2576113e16113bd565b5b8235905067ffffffffffffffff8111156113ff576113fe6113c2565b5b60208301915083600182028301111561141b5761141a6113c7565b5b9250929050565b6000806000806060858703121561143c5761143b61137d565b5b600061144a878288016113a8565b945050602085013567ffffffffffffffff81111561146b5761146a611382565b5b611477878288016113cc565b9350935050604061148a878288016113a8565b91505092959194509250565b6000819050919050565b6114a981611496565b81146114b457600080fd5b50565b6000813590506114c6816114a0565b92915050565b600080604083850312156114e3576114e261137d565b5b60006114f1858286016113a8565b9250506020611502858286016114b7565b9150509250929050565b60008115159050919050565b6115218161150c565b82525050565b600060208201905061153c6000830184611518565b92915050565b600073ffffffffffffffffffffffffffffffffffffffff82169050919050565b600061156d82611542565b9050919050565b61157d81611562565b811461158857600080fd5b50565b60008135905061159a81611574565b92915050565b6000806000604084860312156115b9576115b861137d565b5b600084013567ffffffffffffffff8111156115d7576115d6611382565b5b6115e3868287016113cc565b935093505060206115f68682870161158b565b9150509250925092565b600080fd5b6000601f19601f8301169050919050565b7f4e487b7100000000000000000000000000000000000000000000000000000000600052604160045260246000fd5b61164e82611605565b810181811067ffffffffffffffff8211171561166d5761166c611616565b5b80604052505050565b6000611680611373565b905061168c8282611645565b919050565b600067ffffffffffffffff8211156116ac576116ab611616565b5b6116b582611605565b9050602081019050919050565b82818337600083830152505050565b60006116e46116df84611691565b611676565b905082815260208101848484011115611700576116ff611600565b5b61170b8482856116c2565b509392505050565b600082601f830112611728576117276113bd565b5b81356117388482602086016116d1565b91505092915050565b60008060006060848603121561175a5761175961137d565b5b6000611768868287016113a8565b935050602084013567ffffffffffffffff81111561178957611788611382565b5b61179586828701611713565b92505060406117a68682870161158b565b9150509250925092565b6000602082840312156117c6576117c561137d565b5b60006117d48482850161158b565b91505092915050565b6000806000604084860312156117f6576117f561137d565b5b600084013567ffffffffffffffff81111561181457611813611382565b5b611820868287016113cc565b93509350506020611833868287016113a8565b9150509250925092565b61184681611387565b82525050565b6000602082019050611861600083018461183d565b92915050565b6000806040838503121561187e5761187d61137d565b5b600061188c8582860161158b565b925050602061189d858286016113a8565b9150509250929050565b600080604083850312156118be576118bd61137d565b5b60006118cc858286016113a8565b92505060206118dd8582860161158b565b9150509250929050565b6000602082840312156118fd576118fc61137d565b5b600061190b848285016113a8565b91505092915050565b61191d81611562565b82525050565b60006020820190506119386000830184611914565b92915050565b600080600080606085870312156119585761195761137d565b5b600085013567ffffffffffffffff81111561197657611975611382565b5b611982878288016113cc565b94509450506020611995878288016113a8565b92505060406119a6878288016113a8565b91505092959194509250565b600080602083850312156119c9576119c861137d565b5b600083013567ffffffffffffffff8111156119e7576119e6611382565b5b6119f3858286016113cc565b92509250509250929050565b600081905092915050565b6000611a1683856119ff565b9350611a238385846116c2565b82840190509392505050565b6000611a3c828486611a0a565b91508190509392505050565b600082825260208201905092915050565b7f4f6e6c79204865616420496e76657374696761746f722063616e20617373696760008201527f6e206c6576656c20746f2065766964656e636500000000000000000000000000602082015250565b6000611ab5603383611a48565b9150611ac082611a59565b604082019050919050565b60006020820190508181036000830152611ae481611aa8565b9050919050565b7f4361736520646f6573206e6f7420657869737473000000000000000000000000600082015250565b6000611b21601483611a48565b9150611b2c82611aeb565b602082019050919050565b60006020820190508181036000830152611b5081611b14565b9050919050565b7f45766964656e6365206578697374730000000000000000000000000000000000600082015250565b6000611b8d600f83611a48565b9150611b9882611b57565b602082019050919050565b60006020820190508181036000830152611bbc81611b80565b9050919050565b7f4c6576656c2061737369676e6564000000000000000000000000000000000000600082015250565b6000611bf9600e83611a48565b9150611c0482611bc3565b602082019050919050565b60006020820190508181036000830152611c2881611bec565b9050919050565b600081519050919050565b60005b83811015611c58578082015181840152602081019050611c3d565b83811115611c67576000848401525b50505050565b6000611c7882611c2f565b611c8281856119ff565b9350611c92818560208601611c3a565b80840191505092915050565b6000611caa8284611c6d565b915081905092915050565b7f4e487b7100000000000000000000000000000000000000000000000000000000600052601160045260246000fd5b6000611cef82611387565b9150611cfa83611387565b9250827fffffffffffffffffffffffffffffffffffffffffffffffffffffffffffffffff03821115611d2f57611d2e611cb5565b5b828201905092915050565b7f45766964656e636520686173206265656e207265676973746572656420627900600082015250565b6000611d70601f83611a48565b9150611d7b82611d3a565b602082019050919050565b611d8f81611496565b82525050565b60006060820190508181036000830152611dae81611d63565b9050611dbd6020830185611d86565b611dca6040830184611914565b9392505050565b7f55736572206973206e6f74207265676973746572656400000000000000000000600082015250565b6000611e07601683611a48565b9150611e1282611dd1565b602082019050919050565b60006020820190508181036000830152611e3681611dfa565b9050919050565b7f496e76657374696761746f7220686173206265656e2072656d6f76656420667260008201527f6f6d206361736500000000000000000000000000000000000000000000000000602082015250565b6000611e99602783611a48565b9150611ea482611e3d565b604082019050919050565b60006060820190508181036000830152611ec881611e8c565b9050611ed76020830185611914565b611ee4604083018461183d565b9392505050565b7f6f6e6c79204865616420496e76657374696761746f72206f662072657175657360008201527f74656420636173652063616e2061737369676e20696e74656772697479206c6560208201527f76656c0000000000000000000000000000000000000000000000000000000000604082015250565b6000611f6d604383611a48565b9150611f7882611eeb565b606082019050919050565b60006020820190508181036000830152611f9c81611f60565b9050919050565b7f45766964656e636520646f6573206e6f74206578697374730000000000000000600082015250565b6000611fd9601883611a48565b9150611fe482611fa3565b602082019050919050565b6000602082019050818103600083015261200881611fcc565b9050919050565b7f45766964656e6365206e6f742076616c69640000000000000000000000000000600082015250565b6000612045601283611a48565b91506120508261200f565b602082019050919050565b6000602082019050818103600083015261207481612038565b9050919050565b7f4e487b7100000000000000000000000000000000000000000000000000000000600052603260045260246000fd5b60006120b582611387565b91507fffffffffffffffffffffffffffffffffffffffffffffffffffffffffffffffff82036120e7576120e6611cb5565b5b600182019050919050565b7f5573657220416c72656164792052656769737465726564000000000000000000600082015250565b6000612128601783611a48565b9150612133826120f2565b602082019050919050565b600060208201905081810360008301526121578161211b565b9050919050565b7f496e76616c69642064657369676e6174696f6e00000000000000000000000000600082015250565b6000612194601383611a48565b915061219f8261215e565b602082019050919050565b600060208201905081810360008301526121c381612187565b9050919050565b7f205573657220526567697374726174696f6e20436f6d706c6574656400000000600082015250565b6000612200601c83611a48565b915061220b826121ca565b602082019050919050565b6000606082019050818103600083015261222f816121f3565b905061223e6020830185611914565b61224b604083018461183d565b9392505050565b7f4361736520697320616c72656164792063726561746564000000000000000000600082015250565b6000612288601783611a48565b915061229382612252565b602082019050919050565b600060208201905081810360008301526122b78161227b565b9050919050565b7f4f6e6c79204865616420496e76657374696761746f722063616e20637265617460008201527f6520636173657300000000000000000000000000000000000000000000000000602082015250565b600061231a602783611a48565b9150612325826122be565b604082019050919050565b600060208201905081810360008301526123498161230d565b9050919050565b7f4361736520526567697374657265640000000000000000000000000000000000600082015250565b6000612386600f83611a48565b915061239182612350565b602082019050919050565b60006123a88385611a48565b93506123b58385846116c2565b6123be83611605565b840190509392505050565b600060608201905081810360008301526123e281612379565b905081810360208301526123f781858761239c565b9050612406604083018461183d565b949350505050565b7f45766964656e6365206173206265656e2061737369676e65642061206c65766560008201527f6c00000000000000000000000000000000000000000000000000000000000000602082015250565b600061246a602183611a48565b91506124758261240e565b604082019050919050565b600060408201905081810360008301526124998161245d565b90506124a86020830184611d86565b92915050565b7f4e487b7100000000000000000000000000000000000000000000000000000000600052602260045260246000fd5b600060028204905060018216806124f557607f821691505b602082108103612508576125076124ae565b5b5091905056fea2646970667358221220343c17077d9439f59fda1621db0025c00490184db294acf992314e984a31321464736f6c634300080d0033",
  "immutableReferences": {},
  "source": "// SPDX-License-Identifier: MIT\r\npragma solidity ^0.8.9;\r\nimport \"./Case.sol\";\r\n///@title contract to register a fresh evidence not linked to any other evidence or supporting information to any other pre-existing evidence\r\ncontract Evidence is Case {\r\n    ///@notice allows an user to add evidence\r\n    function _register_evidence(\r\n        string calldata evidence,\r\n        uint case_number\r\n    ) public payable {\r\n        // check authorization\r\n        register_evi(case_number, evidence, msg.sender);\r\n    }\r\n    ///@notice allows an user to assign level to evidence\r\n    function level_assignment(\r\n        string calldata evidence,\r\n        uint case_number, uint level\r\n    ) public payable {\r\n        require(\r\n            msg.sender == returnHI(case_number),\r\n            \"only Head Investigator of requested case can assign integrity level\"\r\n        );\r\n        assign_inl(case_number, evidence, level);\r\n    }\r\n}\r\n",
  "sourcePath": "C:\\Users\\shrey\\repo2\\contracts\\Evidence.sol",
  "compiler": {
    "name": "solc",
    "version": "0.8.13+commit.abaa5c0e.Emscripten.clang"
  },
  "schemaVersion": "3.4.16",
  "updatedAt": "2024-11-20T16:35:20.325Z",
  "networkType": "ethereum",
  "devdoc": {
    "kind": "dev",
    "methods": {
      "createcase(string,uint256)": {
        "params": {
          "name": "Name of the Case File ; @param case_number Unique Number assigned to case"
        }
      },
      "does_evidence_exists(uint256,bytes32)": {
        "params": {
          "case_number": "unique id of case, @param key hash of evidence which has to be assigned level "
        }
      },
      "is_authorized(address,uint256)": {
        "params": {
          "user": "address of user requesting access; @param number Unique Case Number"
        }
      },
      "register_evi(uint256,string,address)": {
        "params": {
          "case_num": "Unique case ID; @param ev information ; @param user address of requestor"
        }
      },
      "return_level(uint256,bytes32)": {
        "params": {
          "key": "unique identifier of evidence"
        }
      }
    },
    "title": "contract to register a fresh evidence not linked to any other evidence or supporting information to any other pre-existing evidence",
    "version": 1
  },
  "userdoc": {
    "kind": "user",
    "methods": {
      "DoesUserExists(address)": {
        "notice": "checks if user is already existing"
      },
      "_register_evidence(string,uint256)": {
        "notice": "allows an user to add evidence"
      },
      "add_investigator(address,uint256)": {
        "notice": "this introduces DAC, allows Head Investigator to modify access rights"
      },
      "assign_inl(uint256,string,uint256)": {
        "notice": "caller function to assign level to an evidence "
      },
      "createcase(string,uint256)": {
        "notice": "creates a case"
      },
      "does_case_exists(uint256)": {
        "notice": "checks if case has already been created"
      },
      "does_evidence_exists(uint256,bytes32)": {
        "notice": "checks whether evidence exists"
      },
      "is_authorized(address,uint256)": {
        "notice": "returns whether an user is authorised to work on a case"
      },
      "is_level_assigned(uint256,bytes32)": {
        "notice": "checks whether level is assigned to evidence"
      },
      "level_assignment(string,uint256,uint256)": {
        "notice": "allows an user to assign level to evidence"
      },
      "publicsetRole(string,address)": {
        "notice": "an interface functions used to call internal functions"
      },
      "register_evi(uint256,string,address)": {
        "notice": "allows user to register new information"
      },
      "remove_investigator(uint256,address)": {
        "notice": "DAC policy allows removal of an investigator from case"
      },
      "returnHI(uint256)": {
        "notice": "returns Head Investigator of a case"
      },
      "returnRole(address)": {
        "notice": "returns role of an user "
      },
      "return_level(uint256,bytes32)": {
        "notice": "return level of integrity assigned to an evidence"
      },
      "setRole(string,address)": {
        "notice": "allows an user to create account and set role"
      }
    },
    "version": 1
  }
}