{
  "contractName": "Evidence",
  "abi": [
    {
      "anonymous": false,
      "inputs": [
        {
          "indexed": false,
          "internalType": "string",
          "name": "",
          "type": "string"
        },
        {
          "indexed": false,
          "internalType": "address",
          "name": "",
          "type": "address"
        },
        {
          "indexed": false,
          "internalType": "string",
          "name": "",
          "type": "string"
        },
        {
          "indexed": false,
          "internalType": "uint256",
          "name": "",
          "type": "uint256"
        }
      ],
      "name": "CanRegisterEvidence",
      "type": "event"
    },
    {
      "anonymous": false,
      "inputs": [
        {
          "indexed": false,
          "internalType": "string",
          "name": "",
          "type": "string"
        },
        {
          "indexed": false,
          "internalType": "uint256",
          "name": "",
          "type": "uint256"
        }
      ],
      "name": "CaseClosed",
      "type": "event"
    },
    {
      "anonymous": false,
      "inputs": [
        {
          "indexed": false,
          "internalType": "string",
          "name": "",
          "type": "string"
        },
        {
          "indexed": false,
          "internalType": "string",
          "name": "",
          "type": "string"
        },
        {
          "indexed": false,
          "internalType": "uint256",
          "name": "",
          "type": "uint256"
        }
      ],
      "name": "CaseRegistrationDone",
      "type": "event"
    },
    {
      "anonymous": false,
      "inputs": [
        {
          "indexed": false,
          "internalType": "string",
          "name": "",
          "type": "string"
        },
        {
          "indexed": false,
          "internalType": "bytes32",
          "name": "",
          "type": "bytes32"
        }
      ],
      "name": "EvidenceAssignedLevel",
      "type": "event"
    },
    {
      "anonymous": false,
      "inputs": [
        {
          "indexed": false,
          "internalType": "string",
          "name": "",
          "type": "string"
        },
        {
          "indexed": false,
          "internalType": "uint256",
          "name": "",
          "type": "uint256"
        },
        {
          "indexed": false,
          "internalType": "bytes32",
          "name": "",
          "type": "bytes32"
        }
      ],
      "name": "EvidenceDeleted",
      "type": "event"
    },
    {
      "anonymous": false,
      "inputs": [
        {
          "indexed": false,
          "internalType": "string",
          "name": "",
          "type": "string"
        },
        {
          "indexed": false,
          "internalType": "address",
          "name": "",
          "type": "address"
        },
        {
          "indexed": false,
          "internalType": "string",
          "name": "",
          "type": "string"
        },
        {
          "indexed": false,
          "internalType": "bytes32",
          "name": "",
          "type": "bytes32"
        }
      ],
      "name": "EvidenceRegistered",
      "type": "event"
    },
    {
      "anonymous": false,
      "inputs": [
        {
          "indexed": false,
          "internalType": "string",
          "name": "",
          "type": "string"
        },
        {
          "indexed": false,
          "internalType": "address",
          "name": "",
          "type": "address"
        },
        {
          "indexed": false,
          "internalType": "uint256",
          "name": "",
          "type": "uint256"
        }
      ],
      "name": "InvestigatorRemoved",
      "type": "event"
    },
    {
      "anonymous": false,
      "inputs": [
        {
          "indexed": false,
          "internalType": "string",
          "name": "",
          "type": "string"
        },
        {
          "indexed": false,
          "internalType": "address",
          "name": "",
          "type": "address"
        },
        {
          "indexed": false,
          "internalType": "uint256",
          "name": "",
          "type": "uint256"
        }
      ],
      "name": "UserRegistrationDone",
      "type": "event"
    },
    {
      "inputs": [
        {
          "internalType": "address",
          "name": "user",
          "type": "address"
        }
      ],
      "name": "DoesUserExists",
      "outputs": [
        {
          "internalType": "bool",
          "name": "",
          "type": "bool"
        }
      ],
      "stateMutability": "view",
      "type": "function",
      "constant": true
    },
    {
      "inputs": [
        {
          "internalType": "uint256",
          "name": "case_num",
          "type": "uint256"
        },
        {
          "internalType": "address",
          "name": "user",
          "type": "address"
        },
        {
          "internalType": "string",
          "name": "CID",
          "type": "string"
        }
      ],
      "name": "add_evidence",
      "outputs": [],
      "stateMutability": "payable",
      "type": "function",
      "payable": true
    },
    {
      "inputs": [
        {
          "internalType": "address",
          "name": "inv",
          "type": "address"
        },
        {
          "internalType": "uint256",
          "name": "num",
          "type": "uint256"
        }
      ],
      "name": "add_investigator",
      "outputs": [],
      "stateMutability": "payable",
      "type": "function",
      "payable": true
    },
    {
      "inputs": [
        {
          "internalType": "uint256",
          "name": "case_num",
          "type": "uint256"
        },
        {
          "internalType": "string",
          "name": "ev",
          "type": "string"
        },
        {
          "internalType": "uint256",
          "name": "level",
          "type": "uint256"
        }
      ],
      "name": "assign_inl",
      "outputs": [],
      "stateMutability": "payable",
      "type": "function",
      "payable": true
    },
    {
      "inputs": [
        {
          "internalType": "string",
          "name": "name",
          "type": "string"
        },
        {
          "internalType": "uint256",
          "name": "case_number",
          "type": "uint256"
        },
        {
          "internalType": "bytes32",
          "name": "AESkey",
          "type": "bytes32"
        }
      ],
      "name": "createcase",
      "outputs": [],
      "stateMutability": "payable",
      "type": "function",
      "payable": true
    },
    {
      "inputs": [
        {
          "internalType": "uint256",
          "name": "num",
          "type": "uint256"
        }
      ],
      "name": "does_case_exists",
      "outputs": [
        {
          "internalType": "bool",
          "name": "",
          "type": "bool"
        }
      ],
      "stateMutability": "view",
      "type": "function",
      "constant": true
    },
    {
      "inputs": [
        {
          "internalType": "uint256",
          "name": "case_number",
          "type": "uint256"
        },
        {
          "internalType": "bytes32",
          "name": "key",
          "type": "bytes32"
        }
      ],
      "name": "does_evidence_exists",
      "outputs": [
        {
          "internalType": "bool",
          "name": "",
          "type": "bool"
        }
      ],
      "stateMutability": "view",
      "type": "function",
      "constant": true
    },
    {
      "inputs": [
        {
          "internalType": "uint256",
          "name": "case_num",
          "type": "uint256"
        }
      ],
      "name": "does_key_Exists",
      "outputs": [
        {
          "internalType": "bool",
          "name": "",
          "type": "bool"
        }
      ],
      "stateMutability": "view",
      "type": "function",
      "constant": true
    },
    {
      "inputs": [
        {
          "internalType": "address",
          "name": "user",
          "type": "address"
        },
        {
          "internalType": "uint256",
          "name": "number",
          "type": "uint256"
        }
      ],
      "name": "is_authorized",
      "outputs": [
        {
          "internalType": "bool",
          "name": "",
          "type": "bool"
        }
      ],
      "stateMutability": "view",
      "type": "function",
      "constant": true
    },
    {
      "inputs": [
        {
          "internalType": "uint256",
          "name": "case_number",
          "type": "uint256"
        },
        {
          "internalType": "bytes32",
          "name": "key",
          "type": "bytes32"
        }
      ],
      "name": "is_level_assigned",
      "outputs": [
        {
          "internalType": "bool",
          "name": "",
          "type": "bool"
        }
      ],
      "stateMutability": "view",
      "type": "function",
      "constant": true
    },
    {
      "inputs": [
        {
          "internalType": "address",
          "name": "user",
          "type": "address"
        }
      ],
      "name": "publicDoesUserExists",
      "outputs": [
        {
          "internalType": "bool",
          "name": "",
          "type": "bool"
        }
      ],
      "stateMutability": "view",
      "type": "function",
      "constant": true
    },
    {
      "inputs": [
        {
          "internalType": "address",
          "name": "user",
          "type": "address"
        }
      ],
      "name": "publicreturnRole",
      "outputs": [
        {
          "internalType": "uint256",
          "name": "",
          "type": "uint256"
        }
      ],
      "stateMutability": "view",
      "type": "function",
      "constant": true
    },
    {
      "inputs": [
        {
          "internalType": "string",
          "name": "desig",
          "type": "string"
        },
        {
          "internalType": "address",
          "name": "user",
          "type": "address"
        }
      ],
      "name": "publicsetRole",
      "outputs": [],
      "stateMutability": "nonpayable",
      "type": "function"
    },
    {
      "inputs": [
        {
          "internalType": "uint256",
          "name": "case_num",
          "type": "uint256"
        },
        {
          "internalType": "address",
          "name": "user",
          "type": "address"
        }
      ],
      "name": "register_evi",
      "outputs": [
        {
          "internalType": "bool",
          "name": "",
          "type": "bool"
        }
      ],
      "stateMutability": "payable",
      "type": "function",
      "payable": true
    },
    {
      "inputs": [
        {
          "internalType": "uint256",
          "name": "case_number",
          "type": "uint256"
        },
        {
          "internalType": "address",
          "name": "inv",
          "type": "address"
        }
      ],
      "name": "remove_investigator",
      "outputs": [],
      "stateMutability": "payable",
      "type": "function",
      "payable": true
    },
    {
      "inputs": [
        {
          "internalType": "uint256",
          "name": "case_num",
          "type": "uint256"
        }
      ],
      "name": "returnAESkey",
      "outputs": [
        {
          "internalType": "bytes32",
          "name": "",
          "type": "bytes32"
        }
      ],
      "stateMutability": "view",
      "type": "function",
      "constant": true
    },
    {
      "inputs": [
        {
          "internalType": "uint256",
          "name": "case_number",
          "type": "uint256"
        }
      ],
      "name": "returnHI",
      "outputs": [
        {
          "internalType": "address",
          "name": "",
          "type": "address"
        }
      ],
      "stateMutability": "payable",
      "type": "function",
      "payable": true
    },
    {
      "inputs": [
        {
          "internalType": "address",
          "name": "user",
          "type": "address"
        }
      ],
      "name": "returnRole",
      "outputs": [
        {
          "internalType": "uint256",
          "name": "",
          "type": "uint256"
        }
      ],
      "stateMutability": "view",
      "type": "function",
      "constant": true
    },
    {
      "inputs": [
        {
          "internalType": "uint256",
          "name": "case_num",
          "type": "uint256"
        },
        {
          "internalType": "bytes32",
          "name": "key",
          "type": "bytes32"
        }
      ],
      "name": "return_level",
      "outputs": [
        {
          "internalType": "uint256",
          "name": "",
          "type": "uint256"
        }
      ],
      "stateMutability": "payable",
      "type": "function",
      "payable": true
    },
    {
      "inputs": [
        {
          "internalType": "string",
          "name": "designation",
          "type": "string"
        },
        {
          "internalType": "address",
          "name": "user",
          "type": "address"
        }
      ],
      "name": "setRole",
      "outputs": [],
      "stateMutability": "nonpayable",
      "type": "function"
    },
    {
      "inputs": [
        {
          "internalType": "string",
          "name": "evidence",
          "type": "string"
        },
        {
          "internalType": "uint256",
          "name": "case_number",
          "type": "uint256"
        }
      ],
      "name": "_register_evidence",
      "outputs": [],
      "stateMutability": "payable",
      "type": "function",
      "payable": true
    },
    {
      "inputs": [
        {
          "internalType": "string",
          "name": "evidence",
          "type": "string"
        },
        {
          "internalType": "uint256",
          "name": "case_number",
          "type": "uint256"
        },
        {
          "internalType": "uint256",
          "name": "level",
          "type": "uint256"
        }
      ],
      "name": "level_assignment",
      "outputs": [],
      "stateMutability": "payable",
      "type": "function",
      "payable": true
    }
  ],
  "bytecode": "0x60806040523480156200001157600080fd5b50600160006040516200002490620000df565b90815260200160405180910390208190555060046000604051620000489062000146565b908152602001604051809103902081905550600760006040516200006c90620001ad565b908152602001604051809103902081905550620001c4565b600081905092915050565b7f4865616420496e76657374696761746f72000000000000000000000000000000600082015250565b6000620000c760118362000084565b9150620000d4826200008f565b601182019050919050565b6000620000ec82620000b8565b9150819050919050565b7f4c65616420496e76657374696761746f72000000000000000000000000000000600082015250565b60006200012e60118362000084565b91506200013b82620000f6565b601182019050919050565b600062000153826200011f565b9150819050919050565b7f5465616d20496e76657374696761746f72000000000000000000000000000000600082015250565b60006200019560118362000084565b9150620001a2826200015d565b601182019050919050565b6000620001ba8262000186565b9150819050919050565b6128ee80620001d46000396000f3fe6080604052600436106101355760003560e01c806374bab760116100ab578063ac50417c1161006f578063ac50417c14610402578063b929a09214610432578063c5470bd41461046f578063cfde18901461049f578063f7bb8893146104c8578063fb5f5c571461050557610135565b806374bab760146103415780637d6fb49c146103715780639026441b1461038d5780639c155927146103a95780639ff39033146103c557610135565b806337106727116100fd57806337106727146102365780634cc70a0f1461025257806359ea8ddd1461028f5780635ce7cd58146102cc57806364093834146103095780636cad4fa61461032557610135565b8063027a65c21461013a57806305805e0214610156578063080e0519146101935780632691297d146101bc5780633646f329146101f9575b600080fd5b610154600480360381019061014f9190611609565b610542565b005b34801561016257600080fd5b5061017d600480360381019061017891906116b3565b6106e6565b60405161018a919061170e565b60405180910390f35b34801561019f57600080fd5b506101ba60048036038101906101b59190611787565b610731565b005b3480156101c857600080fd5b506101e360048036038101906101de91906117e7565b610741565b6040516101f09190611823565b60405180910390f35b34801561020557600080fd5b50610220600480360381019061021b919061183e565b610766565b60405161022d919061170e565b60405180910390f35b610250600480360381019061024b919061186b565b6107c2565b005b34801561025e57600080fd5b506102796004803603810190610274919061183e565b610832565b60405161028691906118da565b60405180910390f35b34801561029b57600080fd5b506102b660048036038101906102b191906118f5565b6108ca565b6040516102c3919061170e565b60405180910390f35b3480156102d857600080fd5b506102f360048036038101906102ee919061183e565b610941565b60405161030091906118da565b60405180910390f35b610323600480360381019061031e9190611935565b610958565b005b61033f600480360381019061033a91906118f5565b6109f4565b005b61035b600480360381019061035691906117e7565b610a57565b6040516103689190611984565b60405180910390f35b61038b6004803603810190610386919061199f565b610a94565b005b6103a760048036038101906103a29190611b54565b610b1c565b005b6103c360048036038101906103be9190611bc3565b610bff565b005b3480156103d157600080fd5b506103ec60048036038101906103e791906117e7565b610e4f565b6040516103f9919061170e565b60405180910390f35b61041c600480360381019061041791906116b3565b610eb8565b60405161042991906118da565b60405180910390f35b34801561043e57600080fd5b50610459600480360381019061045491906117e7565b610fe5565b604051610466919061170e565b60405180910390f35b61048960048036038101906104849190611935565b611015565b604051610496919061170e565b60405180910390f35b3480156104ab57600080fd5b506104c660048036038101906104c19190611787565b6110f9565b005b3480156104d457600080fd5b506104ef60048036038101906104ea91906116b3565b6112a3565b6040516104fc919061170e565b60405180910390f35b34801561051157600080fd5b5061052c6004803603810190610527919061183e565b611367565b604051610539919061170e565b60405180910390f35b60008383604051602001610557929190611c67565b6040516020818303038152906040528051906020012090503373ffffffffffffffffffffffffffffffffffffffff1661058f86610a57565b73ffffffffffffffffffffffffffffffffffffffff16146105e5576040517f08c379a00000000000000000000000000000000000000000000000000000000081526004016105dc90611d03565b60405180910390fd5b600115156105f286610fe5565b151514610634576040517f08c379a000000000000000000000000000000000000000000000000000000000815260040161062b90611d6f565b60405180910390fd5b6000151561064286836112a3565b151514610684576040517f08c379a000000000000000000000000000000000000000000000000000000000815260040161067b90611ddb565b60405180910390fd5b6000151561069286836106e6565b1515146106d4576040517f08c379a00000000000000000000000000000000000000000000000000000000081526004016106cb90611e47565b60405180910390fd5b6106df81868461137e565b5050505050565b6000806005600085815260200190815260200160002090506001816003016000858152602001908152602001600020540361072557600091505061072b565b60019150505b92915050565b61073c8383836110f9565b505050565b6000806005600084815260200190815260200160002090508060060154915050919050565b60006001600260008473ffffffffffffffffffffffffffffffffffffffff1673ffffffffffffffffffffffffffffffffffffffff16815260200190815260200160002054036107b857600190506107bd565b600090505b919050565b60006107ce8233611015565b9050600115158115150361082c5761082b823386868080601f016020809104026020016040519081016040528093929190818152602001838380828437600081840152601f19601f82011690508083019250505050505050610b1c565b5b50505050565b60006001151561084183610766565b151514610883576040517f08c379a000000000000000000000000000000000000000000000000000000000815260040161087a90611eb3565b60405180910390fd5b600160008373ffffffffffffffffffffffffffffffffffffffff1673ffffffffffffffffffffffffffffffffffffffff168152602001908152602001600020549050919050565b60008060056000848152602001908152602001600020905060018160040160008673ffffffffffffffffffffffffffffffffffffffff1673ffffffffffffffffffffffffffffffffffffffff168152602001908152602001600020540361093557600191505061093b565b60009150505b92915050565b60008061094d83610832565b905080915050919050565b600060056000848152602001908152602001600020905060008160040160008473ffffffffffffffffffffffffffffffffffffffff1673ffffffffffffffffffffffffffffffffffffffff168152602001908152602001600020819055507fb6b4e493a9247fb90495ec09db8e16879fe0ccf6f478ef5252b5de4559f319f282846040516109e7929190611f45565b60405180910390a1505050565b600060056000838152602001908152602001600020905060018160040160008573ffffffffffffffffffffffffffffffffffffffff1673ffffffffffffffffffffffffffffffffffffffff16815260200190815260200160002081905550505050565b60006004600083815260200190815260200160002060009054906101000a900473ffffffffffffffffffffffffffffffffffffffff169050919050565b610a9d82610a57565b73ffffffffffffffffffffffffffffffffffffffff163373ffffffffffffffffffffffffffffffffffffffff1614610b0a576040517f08c379a0000000000000000000000000000000000000000000000000000000008152600401610b0190612019565b60405180910390fd5b610b1682858584610542565b50505050565b600081604051602001610b2f91906120a8565b60405160208183030381529060405280519060200120905060006005600086815260200190815260200160002090506001816003016000848152602001908152602001600020819055506001816008016000828254610b8e91906120ee565b92505081905550828160050160008481526020019081526020016000209080519060200190610bbe929190611431565b507f60216ae48dd70a7b353420e8a4980e0d0a80bf44f861ee0b15ec356f596342438483604051610bf09291906121dc565b60405180910390a15050505050565b60011515610c0c33611367565b151514610c4e576040517f08c379a0000000000000000000000000000000000000000000000000000000008152600401610c4590611eb3565b60405180910390fd5b60001515610c5b83610fe5565b151514610c9d576040517f08c379a0000000000000000000000000000000000000000000000000000000008152600401610c9490612277565b60405180910390fd5b6001610ca833610941565b14610ce8576040517f08c379a0000000000000000000000000000000000000000000000000000000008152600401610cdf90612309565b60405180910390fd5b60006005600084815260200190815260200160002090508484826000019190610d129291906114b7565b508484604051602001610d26929190611c67565b604051602081830303815290604052805190602001208160010181905550338160070160006101000a81548173ffffffffffffffffffffffffffffffffffffffff021916908373ffffffffffffffffffffffffffffffffffffffff16021790555060018160040160003373ffffffffffffffffffffffffffffffffffffffff1673ffffffffffffffffffffffffffffffffffffffff16815260200190815260200160002081905550818160060181905550601981600901819055504281600a0181905550600081600b0181905550600160036000858152602001908152602001600020819055507f266d5cf462bf1f0254a78139854880064d99b9f9359d49bea6b8637ccf826cec858585604051610e40939291906123a2565b60405180910390a15050505050565b6000806005600084815260200190815260200160002090506000602060ff1611610eae576040517f08c379a0000000000000000000000000000000000000000000000000000000008152600401610ea590612433565b60405180910390fd5b6001915050919050565b600060011515610ec784610fe5565b151514610f09576040517f08c379a0000000000000000000000000000000000000000000000000000000008152600401610f0090611d6f565b60405180910390fd5b60011515610f1784846112a3565b151514610f59576040517f08c379a0000000000000000000000000000000000000000000000000000000008152600401610f509061249f565b60405180910390fd5b60011515610f6784846106e6565b151514610fa9576040517f08c379a0000000000000000000000000000000000000000000000000000000008152600401610fa09061250b565b60405180910390fd5b60006005600085815260200190815260200160002090506000816002016000858152602001908152602001600020549050809250505092915050565b6000600160036000848152602001908152602001600020540361100b5760019050611010565b600090505b919050565b60006001151561102484610fe5565b151514611066576040517f08c379a000000000000000000000000000000000000000000000000000000000815260040161105d90611d6f565b60405180910390fd5b6001151561107483856108ca565b1515146110b6576040517f08c379a00000000000000000000000000000000000000000000000000000000081526004016110ad9061259d565b60405180910390fd5b7fef0829b7def5929569aa36afa2bbe009f037493c64fd4a020316ea5be499567082846040516110e7929190612609565b60405180910390a16001905092915050565b6000151561110682610766565b151514611148576040517f08c379a000000000000000000000000000000000000000000000000000000000815260040161113f906126a4565b60405180910390fd5b60006111548484611407565b11611194576040517f08c379a000000000000000000000000000000000000000000000000000000000815260040161118b90612710565b60405180910390fd5b61119e8383611407565b600160008373ffffffffffffffffffffffffffffffffffffffff1673ffffffffffffffffffffffffffffffffffffffff168152602001908152602001600020819055506001600260008373ffffffffffffffffffffffffffffffffffffffff1673ffffffffffffffffffffffffffffffffffffffff168152602001908152602001600020819055507faa6d010bb351bc431c1230873f88f8f8b97c823fe65b1e102216919af719b1a281600160008473ffffffffffffffffffffffffffffffffffffffff1673ffffffffffffffffffffffffffffffffffffffff1681526020019081526020016000205460405161129692919061277c565b60405180910390a1505050565b6000600115156112b284610fe5565b1515146112f4576040517f08c379a00000000000000000000000000000000000000000000000000000000081526004016112eb90611d6f565b60405180910390fd5b60006005600085815260200190815260200160002090506000816002016000858152602001908152602001600020541115611333576001915050611361565b600081600301600085815260200190815260200160002054111561135b576001915050611361565b60009150505b92915050565b60008061137383610766565b905080915050919050565b600060056000848152602001908152602001600020905081816002016000868152602001908152602001600020819055506000816003016000868152602001908152602001600020819055507fa5b14494dc23eecde6552fb600b649e07cd8469e1e6738027781646914acfad8846040516113f9919061282a565b60405180910390a150505050565b600080838360405161141a929190611c67565b908152602001604051809103902054905092915050565b82805461143d90612887565b90600052602060002090601f01602090048101928261145f57600085556114a6565b82601f1061147857805160ff19168380011785556114a6565b828001600101855582156114a6579182015b828111156114a557825182559160200191906001019061148a565b5b5090506114b3919061153d565b5090565b8280546114c390612887565b90600052602060002090601f0160209004810192826114e5576000855561152c565b82601f106114fe57803560ff191683800117855561152c565b8280016001018555821561152c579182015b8281111561152b578235825591602001919060010190611510565b5b509050611539919061153d565b5090565b5b8082111561155657600081600090555060010161153e565b5090565b6000604051905090565b600080fd5b600080fd5b6000819050919050565b6115818161156e565b811461158c57600080fd5b50565b60008135905061159e81611578565b92915050565b600080fd5b600080fd5b600080fd5b60008083601f8401126115c9576115c86115a4565b5b8235905067ffffffffffffffff8111156115e6576115e56115a9565b5b602083019150836001820283011115611602576116016115ae565b5b9250929050565b6000806000806060858703121561162357611622611564565b5b60006116318782880161158f565b945050602085013567ffffffffffffffff81111561165257611651611569565b5b61165e878288016115b3565b935093505060406116718782880161158f565b91505092959194509250565b6000819050919050565b6116908161167d565b811461169b57600080fd5b50565b6000813590506116ad81611687565b92915050565b600080604083850312156116ca576116c9611564565b5b60006116d88582860161158f565b92505060206116e98582860161169e565b9150509250929050565b60008115159050919050565b611708816116f3565b82525050565b600060208201905061172360008301846116ff565b92915050565b600073ffffffffffffffffffffffffffffffffffffffff82169050919050565b600061175482611729565b9050919050565b61176481611749565b811461176f57600080fd5b50565b6000813590506117818161175b565b92915050565b6000806000604084860312156117a05761179f611564565b5b600084013567ffffffffffffffff8111156117be576117bd611569565b5b6117ca868287016115b3565b935093505060206117dd86828701611772565b9150509250925092565b6000602082840312156117fd576117fc611564565b5b600061180b8482850161158f565b91505092915050565b61181d8161167d565b82525050565b60006020820190506118386000830184611814565b92915050565b60006020828403121561185457611853611564565b5b600061186284828501611772565b91505092915050565b60008060006040848603121561188457611883611564565b5b600084013567ffffffffffffffff8111156118a2576118a1611569565b5b6118ae868287016115b3565b935093505060206118c18682870161158f565b9150509250925092565b6118d48161156e565b82525050565b60006020820190506118ef60008301846118cb565b92915050565b6000806040838503121561190c5761190b611564565b5b600061191a85828601611772565b925050602061192b8582860161158f565b9150509250929050565b6000806040838503121561194c5761194b611564565b5b600061195a8582860161158f565b925050602061196b85828601611772565b9150509250929050565b61197e81611749565b82525050565b60006020820190506119996000830184611975565b92915050565b600080600080606085870312156119b9576119b8611564565b5b600085013567ffffffffffffffff8111156119d7576119d6611569565b5b6119e3878288016115b3565b945094505060206119f68782880161158f565b9250506040611a078782880161158f565b91505092959194509250565b600080fd5b6000601f19601f8301169050919050565b7f4e487b7100000000000000000000000000000000000000000000000000000000600052604160045260246000fd5b611a6182611a18565b810181811067ffffffffffffffff82111715611a8057611a7f611a29565b5b80604052505050565b6000611a9361155a565b9050611a9f8282611a58565b919050565b600067ffffffffffffffff821115611abf57611abe611a29565b5b611ac882611a18565b9050602081019050919050565b82818337600083830152505050565b6000611af7611af284611aa4565b611a89565b905082815260208101848484011115611b1357611b12611a13565b5b611b1e848285611ad5565b509392505050565b600082601f830112611b3b57611b3a6115a4565b5b8135611b4b848260208601611ae4565b91505092915050565b600080600060608486031215611b6d57611b6c611564565b5b6000611b7b8682870161158f565b9350506020611b8c86828701611772565b925050604084013567ffffffffffffffff811115611bad57611bac611569565b5b611bb986828701611b26565b9150509250925092565b60008060008060608587031215611bdd57611bdc611564565b5b600085013567ffffffffffffffff811115611bfb57611bfa611569565b5b611c07878288016115b3565b94509450506020611c1a8782880161158f565b9250506040611c2b8782880161169e565b91505092959194509250565b600081905092915050565b6000611c4e8385611c37565b9350611c5b838584611ad5565b82840190509392505050565b6000611c74828486611c42565b91508190509392505050565b600082825260208201905092915050565b7f4f6e6c79204865616420496e76657374696761746f722063616e20617373696760008201527f6e206c6576656c20746f2065766964656e636500000000000000000000000000602082015250565b6000611ced603383611c80565b9150611cf882611c91565b604082019050919050565b60006020820190508181036000830152611d1c81611ce0565b9050919050565b7f4361736520646f6573206e6f7420657869737473000000000000000000000000600082015250565b6000611d59601483611c80565b9150611d6482611d23565b602082019050919050565b60006020820190508181036000830152611d8881611d4c565b9050919050565b7f45766964656e6365206578697374730000000000000000000000000000000000600082015250565b6000611dc5600f83611c80565b9150611dd082611d8f565b602082019050919050565b60006020820190508181036000830152611df481611db8565b9050919050565b7f4c6576656c2061737369676e6564000000000000000000000000000000000000600082015250565b6000611e31600e83611c80565b9150611e3c82611dfb565b602082019050919050565b60006020820190508181036000830152611e6081611e24565b9050919050565b7f55736572206973206e6f74207265676973746572656400000000000000000000600082015250565b6000611e9d601683611c80565b9150611ea882611e67565b602082019050919050565b60006020820190508181036000830152611ecc81611e90565b9050919050565b7f496e76657374696761746f7220686173206265656e2072656d6f76656420667260008201527f6f6d206361736500000000000000000000000000000000000000000000000000602082015250565b6000611f2f602783611c80565b9150611f3a82611ed3565b604082019050919050565b60006060820190508181036000830152611f5e81611f22565b9050611f6d6020830185611975565b611f7a60408301846118cb565b9392505050565b7f6f6e6c79204865616420496e76657374696761746f72206f662072657175657360008201527f74656420636173652063616e2061737369676e20696e74656772697479206c6560208201527f76656c0000000000000000000000000000000000000000000000000000000000604082015250565b6000612003604383611c80565b915061200e82611f81565b606082019050919050565b6000602082019050818103600083015261203281611ff6565b9050919050565b600081519050919050565b60005b83811015612062578082015181840152602081019050612047565b83811115612071576000848401525b50505050565b600061208282612039565b61208c8185611c37565b935061209c818560208601612044565b80840191505092915050565b60006120b48284612077565b915081905092915050565b7f4e487b7100000000000000000000000000000000000000000000000000000000600052601160045260246000fd5b60006120f98261156e565b91506121048361156e565b9250827fffffffffffffffffffffffffffffffffffffffffffffffffffffffffffffffff03821115612139576121386120bf565b5b828201905092915050565b7f5573657200000000000000000000000000000000000000000000000000000000600082015250565b600061217a600483611c80565b915061218582612144565b602082019050919050565b7f726567697374657265642065766964656e636500000000000000000000000000600082015250565b60006121c6601383611c80565b91506121d182612190565b602082019050919050565b600060808201905081810360008301526121f58161216d565b90506122046020830185611975565b8181036040830152612215816121b9565b90506122246060830184611814565b9392505050565b7f4361736520697320616c72656164792063726561746564000000000000000000600082015250565b6000612261601783611c80565b915061226c8261222b565b602082019050919050565b6000602082019050818103600083015261229081612254565b9050919050565b7f4f6e6c79204865616420496e76657374696761746f722063616e20637265617460008201527f6520636173657300000000000000000000000000000000000000000000000000602082015250565b60006122f3602783611c80565b91506122fe82612297565b604082019050919050565b60006020820190508181036000830152612322816122e6565b9050919050565b7f4361736520526567697374657265640000000000000000000000000000000000600082015250565b600061235f600f83611c80565b915061236a82612329565b602082019050919050565b60006123818385611c80565b935061238e838584611ad5565b61239783611a18565b840190509392505050565b600060608201905081810360008301526123bb81612352565b905081810360208301526123d0818587612375565b90506123df60408301846118cb565b949350505050565b7f4b657920646f6573206e6f742065786973747300000000000000000000000000600082015250565b600061241d601383611c80565b9150612428826123e7565b602082019050919050565b6000602082019050818103600083015261244c81612410565b9050919050565b7f45766964656e636520646f6573206e6f74206578697374730000000000000000600082015250565b6000612489601883611c80565b915061249482612453565b602082019050919050565b600060208201905081810360008301526124b88161247c565b9050919050565b7f45766964656e6365206e6f742076616c69640000000000000000000000000000600082015250565b60006124f5601283611c80565b9150612500826124bf565b602082019050919050565b60006020820190508181036000830152612524816124e8565b9050919050565b7f55736572206e6f7420617574686f726973656420746f2061646420657669646560008201527f6e636520746f2063617365000000000000000000000000000000000000000000602082015250565b6000612587602b83611c80565b91506125928261252b565b604082019050919050565b600060208201905081810360008301526125b68161257a565b9050919050565b7f2063616e2072656769737465722065766964656e636520746f20636173652000600082015250565b60006125f3601f83611c80565b91506125fe826125bd565b602082019050919050565b600060808201905081810360008301526126228161216d565b90506126316020830185611975565b8181036040830152612642816125e6565b905061265160608301846118cb565b9392505050565b7f5573657220416c72656164792052656769737465726564000000000000000000600082015250565b600061268e601783611c80565b915061269982612658565b602082019050919050565b600060208201905081810360008301526126bd81612681565b9050919050565b7f496e76616c69642064657369676e6174696f6e00000000000000000000000000600082015250565b60006126fa601383611c80565b9150612705826126c4565b602082019050919050565b60006020820190508181036000830152612729816126ed565b9050919050565b7f205573657220526567697374726174696f6e20436f6d706c6574656400000000600082015250565b6000612766601c83611c80565b915061277182612730565b602082019050919050565b6000606082019050818103600083015261279581612759565b90506127a46020830185611975565b6127b160408301846118cb565b9392505050565b7f45766964656e6365206173206265656e2061737369676e65642061206c65766560008201527f6c00000000000000000000000000000000000000000000000000000000000000602082015250565b6000612814602183611c80565b915061281f826127b8565b604082019050919050565b6000604082019050818103600083015261284381612807565b90506128526020830184611814565b92915050565b7f4e487b7100000000000000000000000000000000000000000000000000000000600052602260045260246000fd5b6000600282049050600182168061289f57607f821691505b6020821081036128b2576128b1612858565b5b5091905056fea26469706673582212207365bde454203a81f90f464fb803272ab1d9764c25fcc0539e874d0e30534fac64736f6c634300080d0033",
  "immutableReferences": {},
  "source": "// SPDX-License-Identifier: MIT\r\npragma solidity ^0.8.9;\r\nimport \"./Case.sol\";\r\n///@title contract to register a fresh evidence not linked to any other evidence or supporting information to any other pre-existing evidence\r\ncontract Evidence is Case {\r\n    ///@notice allows an user to add evidence\r\n    function _register_evidence(\r\n        string calldata evidence,\r\n        uint case_number\r\n    ) public payable {\r\n        // check authorization\r\n        bool val = register_evi(case_number, msg.sender);\r\n        if(val == true){\r\n            add_evidence(case_number, msg.sender, evidence);\r\n        }\r\n    }\r\n    ///@notice allows an user to assign level to evidence\r\n    function level_assignment(\r\n        string calldata evidence,\r\n        uint case_number, uint level\r\n    ) public payable {\r\n        require(\r\n            msg.sender == returnHI(case_number),\r\n            \"only Head Investigator of requested case can assign integrity level\"\r\n        );\r\n        assign_inl(case_number, evidence, level);\r\n    }\r\n}\r\n",
  "sourcePath": "C:\\Users\\shrey\\repo2\\contracts\\Evidence.sol",
  "compiler": {
    "name": "solc",
    "version": "0.8.13+commit.abaa5c0e.Emscripten.clang"
  },
  "schemaVersion": "3.4.16",
  "updatedAt": "2024-12-18T10:49:29.055Z",
  "networkType": "ethereum",
  "devdoc": {
    "kind": "dev",
    "methods": {
      "add_evidence(uint256,address,string)": {
        "params": {
          "case_num": "Unique case ID;  @param user address of requestor; ///@param CID from IPFS; ///@param AES key used for AONT "
        }
      },
      "createcase(string,uint256,bytes32)": {
        "params": {
          "name": "Name of the Case File ; @param case_number Unique Number assigned to case"
        }
      },
      "does_evidence_exists(uint256,bytes32)": {
        "params": {
          "case_number": "unique id of case, @param key hash of evidence which has to be assigned level "
        }
      },
      "is_authorized(address,uint256)": {
        "params": {
          "user": "address of user requesting access; @param number Unique Case Number"
        }
      },
      "register_evi(uint256,address)": {
        "params": {
          "case_num": "Unique case ID;  @param user address of requestor"
        }
      },
      "return_level(uint256,bytes32)": {
        "params": {
          "key": "unique identifier of evidence"
        }
      }
    },
    "title": "contract to register a fresh evidence not linked to any other evidence or supporting information to any other pre-existing evidence",
    "version": 1
  },
  "userdoc": {
    "kind": "user",
    "methods": {
      "DoesUserExists(address)": {
        "notice": "checks if user is already existing"
      },
      "_register_evidence(string,uint256)": {
        "notice": "allows an user to add evidence"
      },
      "add_evidence(uint256,address,string)": {
        "notice": "allow user to add evidence "
      },
      "add_investigator(address,uint256)": {
        "notice": "this introduces DAC, allows Head Investigator to modify access rights"
      },
      "assign_inl(uint256,string,uint256)": {
        "notice": "caller function to assign level to an evidence "
      },
      "createcase(string,uint256,bytes32)": {
        "notice": "creates a case"
      },
      "does_case_exists(uint256)": {
        "notice": "checks if case has already been created"
      },
      "does_evidence_exists(uint256,bytes32)": {
        "notice": "checks whether evidence exists"
      },
      "does_key_Exists(uint256)": {
        "notice": "to check if a key exists in case"
      },
      "is_authorized(address,uint256)": {
        "notice": "returns whether an user is authorised to work on a case"
      },
      "is_level_assigned(uint256,bytes32)": {
        "notice": "checks whether level is assigned to evidence"
      },
      "level_assignment(string,uint256,uint256)": {
        "notice": "allows an user to assign level to evidence"
      },
      "publicsetRole(string,address)": {
        "notice": "an interface functions used to call internal functions"
      },
      "register_evi(uint256,address)": {
        "notice": "check if user is authorised to add evidence"
      },
      "remove_investigator(uint256,address)": {
        "notice": "DAC policy allows removal of an investigator from case"
      },
      "returnAESkey(uint256)": {
        "notice": "returns if an AES key already exists"
      },
      "returnHI(uint256)": {
        "notice": "returns Head Investigator of a case"
      },
      "returnRole(address)": {
        "notice": "returns role of an user "
      },
      "return_level(uint256,bytes32)": {
        "notice": "return level of integrity assigned to an evidence"
      },
      "setRole(string,address)": {
        "notice": "allows an user to create account and set role"
      }
    },
    "version": 1
  }
}