{
  "contractName": "Register",
  "abi": [
    {
      "anonymous": false,
      "inputs": [
        {
          "indexed": false,
          "internalType": "string",
          "name": "",
          "type": "string"
        },
        {
          "indexed": false,
          "internalType": "address",
          "name": "",
          "type": "address"
        },
        {
          "indexed": false,
          "internalType": "uint256",
          "name": "",
          "type": "uint256"
        }
      ],
      "name": "UserRegistrationDone",
      "type": "event"
    },
    {
      "inputs": [
        {
          "internalType": "address",
          "name": "user",
          "type": "address"
        }
      ],
      "name": "DoesUserExists",
      "outputs": [
        {
          "internalType": "bool",
          "name": "",
          "type": "bool"
        }
      ],
      "stateMutability": "view",
      "type": "function",
      "constant": true
    },
    {
      "inputs": [
        {
          "internalType": "address",
          "name": "user",
          "type": "address"
        }
      ],
      "name": "publicDoesUserExists",
      "outputs": [
        {
          "internalType": "bool",
          "name": "",
          "type": "bool"
        }
      ],
      "stateMutability": "view",
      "type": "function",
      "constant": true
    },
    {
      "inputs": [
        {
          "internalType": "address",
          "name": "user",
          "type": "address"
        }
      ],
      "name": "publicreturnRole",
      "outputs": [
        {
          "internalType": "uint256",
          "name": "",
          "type": "uint256"
        }
      ],
      "stateMutability": "view",
      "type": "function",
      "constant": true
    },
    {
      "inputs": [
        {
          "internalType": "string",
          "name": "desig",
          "type": "string"
        },
        {
          "internalType": "address",
          "name": "user",
          "type": "address"
        }
      ],
      "name": "publicsetRole",
      "outputs": [],
      "stateMutability": "nonpayable",
      "type": "function"
    },
    {
      "inputs": [
        {
          "internalType": "address",
          "name": "user",
          "type": "address"
        }
      ],
      "name": "returnRole",
      "outputs": [
        {
          "internalType": "uint256",
          "name": "",
          "type": "uint256"
        }
      ],
      "stateMutability": "view",
      "type": "function",
      "constant": true
    },
    {
      "inputs": [
        {
          "internalType": "string",
          "name": "designation",
          "type": "string"
        },
        {
          "internalType": "address",
          "name": "user",
          "type": "address"
        }
      ],
      "name": "setRole",
      "outputs": [],
      "stateMutability": "nonpayable",
      "type": "function"
    },
    {
      "inputs": [
        {
          "internalType": "string",
          "name": "designation",
          "type": "string"
        }
      ],
      "name": "register_user",
      "outputs": [],
      "stateMutability": "nonpayable",
      "type": "function"
    }
  ],
  "bytecode": "0x608060405234801561001057600080fd5b5060016000604051610021906100d3565b9081526020016040518091039020819055506004600060405161004390610134565b9081526020016040518091039020819055506007600060405161006590610195565b9081526020016040518091039020819055506101aa565b600081905092915050565b7f4865616420496e76657374696761746f72000000000000000000000000000000600082015250565b60006100bd60118361007c565b91506100c882610087565b601182019050919050565b60006100de826100b0565b9150819050919050565b7f4c65616420496e76657374696761746f72000000000000000000000000000000600082015250565b600061011e60118361007c565b9150610129826100e8565b601182019050919050565b600061013f82610111565b9150819050919050565b7f5465616d20496e76657374696761746f72000000000000000000000000000000600082015250565b600061017f60118361007c565b915061018a82610149565b601182019050919050565b60006101a082610172565b9150819050919050565b610936806101b96000396000f3fe608060405234801561001057600080fd5b506004361061007d5760003560e01c80635ce7cd581161005b5780635ce7cd58146100fe578063cfde18901461012e578063d014fe401461014a578063fb5f5c57146101665761007d565b8063080e0519146100825780633646f3291461009e5780634cc70a0f146100ce575b600080fd5b61009c60048036038101906100979190610578565b610196565b005b6100b860048036038101906100b391906105d8565b6101a6565b6040516100c59190610620565b60405180910390f35b6100e860048036038101906100e391906105d8565b610202565b6040516100f59190610654565b60405180910390f35b610118600480360381019061011391906105d8565b61029a565b6040516101259190610654565b60405180910390f35b61014860048036038101906101439190610578565b6102b1565b005b610164600480360381019061015f919061066f565b61045b565b005b610180600480360381019061017b91906105d8565b61046a565b60405161018d9190610620565b60405180910390f35b6101a18383836102b1565b505050565b60006001600260008473ffffffffffffffffffffffffffffffffffffffff1673ffffffffffffffffffffffffffffffffffffffff16815260200190815260200160002054036101f857600190506101fd565b600090505b919050565b600060011515610211836101a6565b151514610253576040517f08c379a000000000000000000000000000000000000000000000000000000000815260040161024a90610719565b60405180910390fd5b600160008373ffffffffffffffffffffffffffffffffffffffff1673ffffffffffffffffffffffffffffffffffffffff168152602001908152602001600020549050919050565b6000806102a683610202565b905080915050919050565b600015156102be826101a6565b151514610300576040517f08c379a00000000000000000000000000000000000000000000000000000000081526004016102f790610785565b60405180910390fd5b600061030c8484610481565b1161034c576040517f08c379a0000000000000000000000000000000000000000000000000000000008152600401610343906107f1565b60405180910390fd5b6103568383610481565b600160008373ffffffffffffffffffffffffffffffffffffffff1673ffffffffffffffffffffffffffffffffffffffff168152602001908152602001600020819055506001600260008373ffffffffffffffffffffffffffffffffffffffff1673ffffffffffffffffffffffffffffffffffffffff168152602001908152602001600020819055507faa6d010bb351bc431c1230873f88f8f8b97c823fe65b1e102216919af719b1a281600160008473ffffffffffffffffffffffffffffffffffffffff1673ffffffffffffffffffffffffffffffffffffffff1681526020019081526020016000205460405161044e92919061086c565b60405180910390a1505050565b610466828233610196565b5050565b600080610476836101a6565b905080915050919050565b60008083836040516104949291906108e7565b908152602001604051809103902054905092915050565b600080fd5b600080fd5b600080fd5b600080fd5b600080fd5b60008083601f8401126104da576104d96104b5565b5b8235905067ffffffffffffffff8111156104f7576104f66104ba565b5b602083019150836001820283011115610513576105126104bf565b5b9250929050565b600073ffffffffffffffffffffffffffffffffffffffff82169050919050565b60006105458261051a565b9050919050565b6105558161053a565b811461056057600080fd5b50565b6000813590506105728161054c565b92915050565b600080600060408486031215610591576105906104ab565b5b600084013567ffffffffffffffff8111156105af576105ae6104b0565b5b6105bb868287016104c4565b935093505060206105ce86828701610563565b9150509250925092565b6000602082840312156105ee576105ed6104ab565b5b60006105fc84828501610563565b91505092915050565b60008115159050919050565b61061a81610605565b82525050565b60006020820190506106356000830184610611565b92915050565b6000819050919050565b61064e8161063b565b82525050565b60006020820190506106696000830184610645565b92915050565b60008060208385031215610686576106856104ab565b5b600083013567ffffffffffffffff8111156106a4576106a36104b0565b5b6106b0858286016104c4565b92509250509250929050565b600082825260208201905092915050565b7f55736572206973206e6f74207265676973746572656400000000000000000000600082015250565b60006107036016836106bc565b915061070e826106cd565b602082019050919050565b60006020820190508181036000830152610732816106f6565b9050919050565b7f5573657220416c72656164792052656769737465726564000000000000000000600082015250565b600061076f6017836106bc565b915061077a82610739565b602082019050919050565b6000602082019050818103600083015261079e81610762565b9050919050565b7f496e76616c69642064657369676e6174696f6e00000000000000000000000000600082015250565b60006107db6013836106bc565b91506107e6826107a5565b602082019050919050565b6000602082019050818103600083015261080a816107ce565b9050919050565b7f205573657220526567697374726174696f6e20436f6d706c6574656400000000600082015250565b6000610847601c836106bc565b915061085282610811565b602082019050919050565b6108668161053a565b82525050565b600060608201905081810360008301526108858161083a565b9050610894602083018561085d565b6108a16040830184610645565b9392505050565b600081905092915050565b82818337600083830152505050565b60006108ce83856108a8565b93506108db8385846108b3565b82840190509392505050565b60006108f48284866108c2565b9150819050939250505056fea2646970667358221220932790c9979ad93972b562f622c0f85db2e50f75726d229f36e3b0daa38c990664736f6c634300080d0033",
  "immutableReferences": {},
  "source": "// SPDX-License-Identifier: MIT\r\npragma solidity ^0.8.9;\r\n\r\nimport \"./AssignRole.sol\";\r\n\r\ncontract Register is AssignRole{\r\n    \r\n    function register_user(string calldata designation) public {  \r\n        publicsetRole(designation, msg.sender);\r\n    }\r\n    // Register public register;\r\n}",
  "sourcePath": "C:\\Users\\shrey\\repo2\\contracts\\Register.sol",
  "compiler": {
    "name": "solc",
    "version": "0.8.13+commit.abaa5c0e.Emscripten.clang"
  },
  "schemaVersion": "3.4.16",
  "updatedAt": "2024-12-18T10:49:27.816Z",
  "networkType": "ethereum",
  "devdoc": {
    "kind": "dev",
    "methods": {},
    "version": 1
  },
  "userdoc": {
    "kind": "user",
    "methods": {
      "DoesUserExists(address)": {
        "notice": "checks if user is already existing"
      },
      "publicsetRole(string,address)": {
        "notice": "an interface functions used to call internal functions"
      },
      "returnRole(address)": {
        "notice": "returns role of an user "
      },
      "setRole(string,address)": {
        "notice": "allows an user to create account and set role"
      }
    },
    "version": 1
  }
}