{
  "contractName": "AssignRole",
  "abi": [
    {
      "inputs": [],
      "stateMutability": "nonpayable",
      "type": "constructor"
    },
    {
      "anonymous": false,
      "inputs": [
        {
          "indexed": false,
          "internalType": "string",
          "name": "",
          "type": "string"
        },
        {
          "indexed": false,
          "internalType": "address",
          "name": "",
          "type": "address"
        },
        {
          "indexed": false,
          "internalType": "uint256",
          "name": "",
          "type": "uint256"
        }
      ],
      "name": "UserRegistrationDone",
      "type": "event"
    },
    {
      "inputs": [
        {
          "internalType": "string",
          "name": "desig",
          "type": "string"
        },
        {
          "internalType": "address",
          "name": "user",
          "type": "address"
        }
      ],
      "name": "publicsetRole",
      "outputs": [],
      "stateMutability": "nonpayable",
      "type": "function"
    },
    {
      "inputs": [
        {
          "internalType": "address",
          "name": "user",
          "type": "address"
        }
      ],
      "name": "publicreturnRole",
      "outputs": [
        {
          "internalType": "uint256",
          "name": "",
          "type": "uint256"
        }
      ],
      "stateMutability": "view",
      "type": "function",
      "constant": true
    },
    {
      "inputs": [
        {
          "internalType": "address",
          "name": "user",
          "type": "address"
        }
      ],
      "name": "publicDoesUserExists",
      "outputs": [
        {
          "internalType": "bool",
          "name": "",
          "type": "bool"
        }
      ],
      "stateMutability": "view",
      "type": "function",
      "constant": true
    }
  ],
  "bytecode": "0x608060405234801561001057600080fd5b5060016000604051610021906100d3565b9081526020016040518091039020819055506004600060405161004390610134565b9081526020016040518091039020819055506007600060405161006590610195565b9081526020016040518091039020819055506101aa565b600081905092915050565b7f4865616420496e76657374696761746f72000000000000000000000000000000600082015250565b60006100bd60118361007c565b91506100c882610087565b601182019050919050565b60006100de826100b0565b9150819050919050565b7f4c65616420496e76657374696761746f72000000000000000000000000000000600082015250565b600061011e60118361007c565b9150610129826100e8565b601182019050919050565b600061013f82610111565b9150819050919050565b7f5465616d20496e76657374696761746f72000000000000000000000000000000600082015250565b600061017f60118361007c565b915061018a82610149565b601182019050919050565b60006101a082610172565b9150819050919050565b610806806101b96000396000f3fe608060405234801561001057600080fd5b50600436106100415760003560e01c8063080e0519146100465780635ce7cd5814610062578063fb5f5c5714610092575b600080fd5b610060600480360381019061005b9190610495565b6100c2565b005b61007c600480360381019061007791906104f5565b6100d2565b604051610089919061053b565b60405180910390f35b6100ac60048036038101906100a791906104f5565b6100e9565b6040516100b99190610571565b60405180910390f35b6100cd838383610100565b505050565b6000806100de836102aa565b905080915050919050565b6000806100f583610342565b905080915050919050565b6000151561010d82610342565b15151461014f576040517f08c379a0000000000000000000000000000000000000000000000000000000008152600401610146906105e9565b60405180910390fd5b600061015b848461039e565b1161019b576040517f08c379a000000000000000000000000000000000000000000000000000000000815260040161019290610655565b60405180910390fd5b6101a5838361039e565b600160008373ffffffffffffffffffffffffffffffffffffffff1673ffffffffffffffffffffffffffffffffffffffff168152602001908152602001600020819055506001600260008373ffffffffffffffffffffffffffffffffffffffff1673ffffffffffffffffffffffffffffffffffffffff168152602001908152602001600020819055507faa6d010bb351bc431c1230873f88f8f8b97c823fe65b1e102216919af719b1a281600160008473ffffffffffffffffffffffffffffffffffffffff1673ffffffffffffffffffffffffffffffffffffffff1681526020019081526020016000205460405161029d9291906106d0565b60405180910390a1505050565b6000600115156102b983610342565b1515146102fb576040517f08c379a00000000000000000000000000000000000000000000000000000000081526004016102f290610758565b60405180910390fd5b600160008373ffffffffffffffffffffffffffffffffffffffff1673ffffffffffffffffffffffffffffffffffffffff168152602001908152602001600020549050919050565b60006001600260008473ffffffffffffffffffffffffffffffffffffffff1673ffffffffffffffffffffffffffffffffffffffff16815260200190815260200160002054036103945760019050610399565b600090505b919050565b60008083836040516103b19291906107b7565b908152602001604051809103902054905092915050565b600080fd5b600080fd5b600080fd5b600080fd5b600080fd5b60008083601f8401126103f7576103f66103d2565b5b8235905067ffffffffffffffff811115610414576104136103d7565b5b6020830191508360018202830111156104305761042f6103dc565b5b9250929050565b600073ffffffffffffffffffffffffffffffffffffffff82169050919050565b600061046282610437565b9050919050565b61047281610457565b811461047d57600080fd5b50565b60008135905061048f81610469565b92915050565b6000806000604084860312156104ae576104ad6103c8565b5b600084013567ffffffffffffffff8111156104cc576104cb6103cd565b5b6104d8868287016103e1565b935093505060206104eb86828701610480565b9150509250925092565b60006020828403121561050b5761050a6103c8565b5b600061051984828501610480565b91505092915050565b6000819050919050565b61053581610522565b82525050565b6000602082019050610550600083018461052c565b92915050565b60008115159050919050565b61056b81610556565b82525050565b60006020820190506105866000830184610562565b92915050565b600082825260208201905092915050565b7f5573657220416c72656164792052656769737465726564000000000000000000600082015250565b60006105d360178361058c565b91506105de8261059d565b602082019050919050565b60006020820190508181036000830152610602816105c6565b9050919050565b7f496e76616c69642064657369676e6174696f6e00000000000000000000000000600082015250565b600061063f60138361058c565b915061064a82610609565b602082019050919050565b6000602082019050818103600083015261066e81610632565b9050919050565b7f205573657220526567697374726174696f6e20436f6d706c6574656400000000600082015250565b60006106ab601c8361058c565b91506106b682610675565b602082019050919050565b6106ca81610457565b82525050565b600060608201905081810360008301526106e98161069e565b90506106f860208301856106c1565b610705604083018461052c565b9392505050565b7f55736572206973206e6f74207265676973746572656400000000000000000000600082015250565b600061074260168361058c565b915061074d8261070c565b602082019050919050565b6000602082019050818103600083015261077181610735565b9050919050565b600081905092915050565b82818337600083830152505050565b600061079e8385610778565b93506107ab838584610783565b82840190509392505050565b60006107c4828486610792565b9150819050939250505056fea2646970667358221220b653b2e707f8bb9f7ad361c63637a357e1981be2313e5b2cc8c48c1995df5c0764736f6c634300080d0033",
  "immutableReferences": {},
  "source": "// SPDX-License-Identifier: MIT\r\npragma solidity ^0.8.9;\r\n\r\n///@title creation of user and role assignment\r\ncontract AssignRole {\r\n    mapping(string => uint) internal Levels;\r\n    mapping(address => uint) internal Roles; // each address will have a IG level storing is like address : Integrity Level \r\n    mapping(address => uint)  RegisteredUsers; // dynamic array of all registered users, to check whether they exists or not\r\n    event UserRegistrationDone(string, address, uint);\r\n    constructor() {\r\n        Levels[\"Head Investigator\"] = 1;\r\n        Levels[\"Lead Investigator\"] = 4;\r\n        Levels[\"Team Investigator\"] = 7;\r\n    }\r\n    ///@notice returns level of integrity based on role of user\r\n    function getLevel(string calldata designation) internal view returns (uint) {\r\n        return (Levels[designation]);}\r\n    ///@notice checks if user is already existing\r\n    function DoesUserExists(address user) internal view returns (bool) {\r\n        if (RegisteredUsers[user] == 1) {\r\n            return true;}\r\n        return false;\r\n    }\r\n    ///@notice allows an user to create account and set role\r\n    function setRole(string calldata designation, address user) internal {\r\n        require(DoesUserExists(user) == false, \"User Already Registered\");\r\n        require(getLevel(designation) > 0, \"Invalid designation\");\r\n        Roles[user] = getLevel(designation);\r\n        RegisteredUsers[user] = 1;\r\n        emit UserRegistrationDone(\" User Registration Completed\",user,Roles[user]);\r\n    }\r\n\r\n    ///@notice returns role of an user \r\n    function returnRole(address user) internal view returns (uint) {\r\n        require(DoesUserExists(user) == true, \"User is not registered\");\r\n        return Roles[user];\r\n    }\r\n    \r\n    ///@notice an interface functions used to call internal functions\r\n    function publicsetRole(string calldata desig, address user) public {\r\n        setRole(desig, user);\r\n    }\r\n    function publicreturnRole(address user) public view returns (uint) {\r\n        uint ans = returnRole(user);\r\n        return (ans);\r\n    }\r\n    function publicDoesUserExists(address user) public view returns (bool) {\r\n        bool ans = DoesUserExists(user);\r\n        return (ans);\r\n    }\r\n}\r\n",
  "sourcePath": "C:\\Users\\shrey\\repo2\\contracts\\AssignRole.sol",
  "compiler": {
    "name": "solc",
    "version": "0.8.13+commit.abaa5c0e.Emscripten.clang"
  },
  "schemaVersion": "3.4.16",
  "updatedAt": "2024-11-20T15:08:11.378Z",
  "networkType": "ethereum",
  "devdoc": {
    "kind": "dev",
    "methods": {},
    "title": "creation of user and role assignment",
    "version": 1
  },
  "userdoc": {
    "kind": "user",
    "methods": {
      "publicsetRole(string,address)": {
        "notice": "an interface functions used to call internal functions"
      }
    },
    "version": 1
  }
}