{
  "contractName": "AssignRole",
  "abi": [
    {
      "inputs": [],
      "stateMutability": "nonpayable",
      "type": "constructor"
    },
    {
      "anonymous": false,
      "inputs": [
        {
          "indexed": false,
          "internalType": "string",
          "name": "",
          "type": "string"
        },
        {
          "indexed": false,
          "internalType": "address",
          "name": "",
          "type": "address"
        },
        {
          "indexed": false,
          "internalType": "uint256",
          "name": "",
          "type": "uint256"
        }
      ],
      "name": "RegistrationDone",
      "type": "event"
    },
    {
      "inputs": [
        {
          "internalType": "address",
          "name": "",
          "type": "address"
        }
      ],
      "name": "Roles",
      "outputs": [
        {
          "internalType": "uint256",
          "name": "",
          "type": "uint256"
        }
      ],
      "stateMutability": "view",
      "type": "function"
    },
    {
      "inputs": [
        {
          "internalType": "string",
          "name": "designation",
          "type": "string"
        }
      ],
      "name": "getLevel",
      "outputs": [
        {
          "internalType": "uint256",
          "name": "",
          "type": "uint256"
        }
      ],
      "stateMutability": "payable",
      "type": "function"
    },
    {
      "inputs": [
        {
          "internalType": "address",
          "name": "user",
          "type": "address"
        }
      ],
      "name": "DoesExists",
      "outputs": [
        {
          "internalType": "bool",
          "name": "",
          "type": "bool"
        }
      ],
      "stateMutability": "view",
      "type": "function"
    },
    {
      "inputs": [
        {
          "internalType": "string",
          "name": "designation",
          "type": "string"
        },
        {
          "internalType": "address",
          "name": "user",
          "type": "address"
        }
      ],
      "name": "setRole",
      "outputs": [],
      "stateMutability": "payable",
      "type": "function"
    },
    {
      "inputs": [
        {
          "internalType": "address",
          "name": "user",
          "type": "address"
        }
      ],
      "name": "returnRole",
      "outputs": [
        {
          "internalType": "uint256",
          "name": "",
          "type": "uint256"
        }
      ],
      "stateMutability": "view",
      "type": "function"
    }
  ],
  "bytecode": "0x608060405234801562000010575f80fd5b5060015f6040516200002290620000d8565b90815260200160405180910390208190555060045f60405162000045906200013c565b90815260200160405180910390208190555060075f6040516200006890620001a0565b908152602001604051809103902081905550620001b6565b5f81905092915050565b7f4865616420496e76657374696761746f720000000000000000000000000000005f82015250565b5f620000c060118362000080565b9150620000cd826200008a565b601182019050919050565b5f620000e482620000b2565b9150819050919050565b7f4c65616420496e76657374696761746f720000000000000000000000000000005f82015250565b5f6200012460118362000080565b91506200013182620000ee565b601182019050919050565b5f620001488262000116565b9150819050919050565b7f5465616d20496e76657374696761746f720000000000000000000000000000005f82015250565b5f6200018860118362000080565b9150620001958262000152565b601182019050919050565b5f620001ac826200017a565b9150819050919050565b610a8c80620001c45f395ff3fe608060405260043610610049575f3560e01c80630217264a1461004d57806335e8acfb1461007d5780634cc70a0f146100b95780638a7c6290146100f5578063cfde189014610131575b5f80fd5b610067600480360381019061006291906105ce565b61014d565b604051610074919061062d565b60405180910390f35b348015610088575f80fd5b506100a3600480360381019061009e91906106a0565b610173565b6040516100b0919061062d565b60405180910390f35b3480156100c4575f80fd5b506100df60048036038101906100da91906106a0565b610188565b6040516100ec919061062d565b60405180910390f35b348015610100575f80fd5b5061011b600480360381019061011691906106a0565b61021d565b60405161012891906106e5565b60405180910390f35b61014b600480360381019061014691906106fe565b6102c5565b005b5f808260405161015d91906107c4565b9081526020016040518091039020549050919050565b6001602052805f5260405f205f915090505481565b5f600115156101968361021d565b1515146101d8576040517f08c379a00000000000000000000000000000000000000000000000000000000081526004016101cf90610834565b60405180910390fd5b60015f8373ffffffffffffffffffffffffffffffffffffffff1673ffffffffffffffffffffffffffffffffffffffff1681526020019081526020015f20549050919050565b5f805f90505b6002805490508110156102bb578273ffffffffffffffffffffffffffffffffffffffff166002828154811061025b5761025a610852565b5b905f5260205f20015f9054906101000a900473ffffffffffffffffffffffffffffffffffffffff1673ffffffffffffffffffffffffffffffffffffffff16036102a85760019150506102c0565b80806102b3906108ac565b915050610223565b505f90505b919050565b5f15156102d18261021d565b151514610313576040517f08c379a000000000000000000000000000000000000000000000000000000000815260040161030a9061093d565b60405180910390fd5b5f61031d8361014d565b1161035d576040517f08c379a0000000000000000000000000000000000000000000000000000000008152600401610354906109a5565b60405180910390fd5b6103668261014d565b60015f8373ffffffffffffffffffffffffffffffffffffffff1673ffffffffffffffffffffffffffffffffffffffff1681526020019081526020015f2081905550600281908060018154018082558091505060019003905f5260205f20015f9091909190916101000a81548173ffffffffffffffffffffffffffffffffffffffff021916908373ffffffffffffffffffffffffffffffffffffffff1602179055507f9c0eb221526fb70b62525801ad417c3ba7a71a0f5dbae6cb7e9f6d64f776f85d8160015f8473ffffffffffffffffffffffffffffffffffffffff1673ffffffffffffffffffffffffffffffffffffffff1681526020019081526020015f2054604051610475929190610a1c565b60405180910390a15050565b5f604051905090565b5f80fd5b5f80fd5b5f80fd5b5f80fd5b5f601f19601f8301169050919050565b7f4e487b71000000000000000000000000000000000000000000000000000000005f52604160045260245ffd5b6104e08261049a565b810181811067ffffffffffffffff821117156104ff576104fe6104aa565b5b80604052505050565b5f610511610481565b905061051d82826104d7565b919050565b5f67ffffffffffffffff82111561053c5761053b6104aa565b5b6105458261049a565b9050602081019050919050565b828183375f83830152505050565b5f61057261056d84610522565b610508565b90508281526020810184848401111561058e5761058d610496565b5b610599848285610552565b509392505050565b5f82601f8301126105b5576105b4610492565b5b81356105c5848260208601610560565b91505092915050565b5f602082840312156105e3576105e261048a565b5b5f82013567ffffffffffffffff811115610600576105ff61048e565b5b61060c848285016105a1565b91505092915050565b5f819050919050565b61062781610615565b82525050565b5f6020820190506106405f83018461061e565b92915050565b5f73ffffffffffffffffffffffffffffffffffffffff82169050919050565b5f61066f82610646565b9050919050565b61067f81610665565b8114610689575f80fd5b50565b5f8135905061069a81610676565b92915050565b5f602082840312156106b5576106b461048a565b5b5f6106c28482850161068c565b91505092915050565b5f8115159050919050565b6106df816106cb565b82525050565b5f6020820190506106f85f8301846106d6565b92915050565b5f80604083850312156107145761071361048a565b5b5f83013567ffffffffffffffff8111156107315761073061048e565b5b61073d858286016105a1565b925050602061074e8582860161068c565b9150509250929050565b5f81519050919050565b5f81905092915050565b5f5b8381101561078957808201518184015260208101905061076e565b5f8484015250505050565b5f61079e82610758565b6107a88185610762565b93506107b881856020860161076c565b80840191505092915050565b5f6107cf8284610794565b915081905092915050565b5f82825260208201905092915050565b7f55736572206973206e6f742072656769737465726564000000000000000000005f82015250565b5f61081e6016836107da565b9150610829826107ea565b602082019050919050565b5f6020820190508181035f83015261084b81610812565b9050919050565b7f4e487b71000000000000000000000000000000000000000000000000000000005f52603260045260245ffd5b7f4e487b71000000000000000000000000000000000000000000000000000000005f52601160045260245ffd5b5f6108b682610615565b91507fffffffffffffffffffffffffffffffffffffffffffffffffffffffffffffffff82036108e8576108e761087f565b5b600182019050919050565b7f5573657220416c726561647920526567697374657265640000000000000000005f82015250565b5f6109276017836107da565b9150610932826108f3565b602082019050919050565b5f6020820190508181035f8301526109548161091b565b9050919050565b7f496e76616c69642064657369676e6174696f6e000000000000000000000000005f82015250565b5f61098f6013836107da565b915061099a8261095b565b602082019050919050565b5f6020820190508181035f8301526109bc81610983565b9050919050565b7f205573657220526567697374726174696f6e20436f6d706c65746564000000005f82015250565b5f6109f7601c836107da565b9150610a02826109c3565b602082019050919050565b610a1681610665565b82525050565b5f6060820190508181035f830152610a33816109eb565b9050610a426020830185610a0d565b610a4f604083018461061e565b939250505056fea2646970667358221220beef72145f4df6d69ce2db36640d1100071fbe2367829c179d33cef71d55cdbd64736f6c63430008150033",
  "immutableReferences": {},
  "source": "// SPDX-License-Identifier: MIT\r\npragma solidity ^0.8.17;\r\n \r\n\r\ncontract AssignRole{\r\n    mapping(string => uint) private Levels;\r\n    mapping(address => uint) public Roles; // each address will have a IG level storing is like address : Integrity Level 1/2\r\n    address[] private RegisteredUsers;  // dynamic array of all registered users, to check whether they exists or not\r\n    \r\n    event RegistrationDone(string, address, uint);\r\n    \r\n    constructor(){\r\n        Levels[\"Head Investigator\"] = 1;\r\n        Levels[\"Lead Investigator\"] = 4;\r\n        Levels[\"Team Investigator\"] = 7;\r\n    }\r\n\r\n    function getLevel(string memory designation) public payable returns(uint){\r\n       return (Levels[designation]);\r\n    }\r\n\r\n    function DoesExists (address user) public view returns(bool){\r\n        for(uint i =0; i < RegisteredUsers.length; i++){\r\n            if(RegisteredUsers[i] == user){\r\n                return true;\r\n            }\r\n        }\r\n        return false;\r\n    }\r\n\r\n    function setRole(string memory designation, address user) public payable {\r\n        \r\n        require(DoesExists(user) == false, \"User Already Registered\" );\r\n        require(getLevel(designation)> 0, \"Invalid designation\");\r\n        Roles[user] = getLevel(designation);\r\n        RegisteredUsers.push(user);\r\n        emit RegistrationDone(\" User Registration Completed\",user, Roles[user]);\r\n        \r\n    }\r\n    function returnRole(address user) public view returns(uint){\r\n        require(DoesExists(user) == true , \"User is not registered\");\r\n        return Roles[user];\r\n    }\r\n}\r\n\r\n// contract Case{\r\n//     AssignRole public assignrole;\r\n//     constructor () {\r\n//       assignrole = new AssignRole(); \r\n//     }\r\n    \r\n//     struct SCase{\r\n//         string ID;\r\n//         bytes32 IDhash;\r\n//         mapping (bytes32 => uint) AssignedEvidences;\r\n//         mapping (bytes32 => uint) UnassignedEvidences;\r\n//         mapping (address => uint) investigators; // list is expensive , use mapping instead\r\n//         address HI;\r\n//         uint evid;\r\n//     }\r\n//     uint[] Cases; \r\n//     mapping(uint => SCase) cases; // keep track of mulitple cases running\r\n//     // create a case , check for head investigator \r\n//     event RegistrationDone(string, string, uint);\r\n//     event InvestigatorRemoved(string, address, uint);\r\n//     event EvidenceAssignedLevel(string, bytes32);\r\n//     event EvidenceRegistered(string, bytes32, address);\r\n    \r\n//     function does_case_exists(uint num) public view returns(bool){\r\n//         for(uint i =0; i<Cases.length; i++){\r\n//             if(Cases[i] == num){\r\n//                 return true;\r\n//             }\r\n//         }\r\n//         return false;\r\n//     }\r\n\r\n\r\n//     function createcase(string memory name, uint case_number) public payable {       // create case\r\n//         require(does_case_exists(case_number) == false, \"Case is already created\");\r\n//         require(assignrole.returnRole(msg.sender) == 1, \"Only Head Investigator can create cases\");\r\n//         SCase storage newCase = cases[case_number];\r\n//         newCase.ID = name;\r\n//         newCase.IDhash = keccak256(abi.encodePacked(name));\r\n//         newCase.HI = msg.sender;\r\n//         newCase.investigators[msg.sender] = 1;\r\n//         Cases.push(case_number);\r\n//         emit RegistrationDone (\"Case Registered\", name, case_number);\r\n//     }\r\n\r\n//     function returnHI(uint case_number) public payable returns(address){ // return HI\r\n//         SCase storage newCase = cases[case_number];\r\n//         return(newCase.HI); \r\n//     }\r\n\r\n//     function is_authorized(address user, uint number) public view returns(bool) { // DAC\r\n//         SCase storage nC = cases[number];\r\n//         if (nC.investigators[user] == 1){\r\n//             return true;\r\n//         }\r\n//         return false;\r\n//     }\r\n\r\n//     function add_investigator(address inv, uint num) public payable{    // DAC\r\n\r\n//         SCase storage newC= cases[num];\r\n//         newC.investigators[inv] = 1;\r\n\r\n//     }\r\n    \r\n//     function does_evidence_exists(uint case_number, bytes32 key) public view returns(bool){  // evi exists\r\n//         require(does_case_exists(case_number) == true, \"Case does not exists\");\r\n//         SCase storage c = cases[case_number];\r\n//         if (c.AssignedEvidences[key]>0){\r\n//             return true;\r\n//         }\r\n//         if (c.UnassignedEvidences[key]>0){\r\n//             return true;\r\n//         }\r\n//         return false; \r\n//     }\r\n\r\n//     function is_level_assigned(uint case_number, bytes32 key) public view returns(bool){ // level \r\n//         SCase storage c = cases[case_number];\r\n//         if(c.UnassignedEvidences[key] == 1){\r\n//             return false;\r\n//         }\r\n//         return true;\r\n//     }\r\n\r\n//     function remove_investigator(uint case_number, address inv) public payable{   // access revokation\r\n//         // remove an investigator from DAC policy\r\n//         SCase storage nC = cases[case_number];\r\n//         nC.investigators[inv] = 0;\r\n//         emit InvestigatorRemoved(\"Investigator has been removed from case\", inv, case_number);\r\n//     }\r\n\r\n//     function setlevel(bytes32 key, uint case_num) public payable{ // set level never show this \r\n//         SCase storage nc = cases[case_num];\r\n//         uint lvl = nc.evid;\r\n//         if(lvl == 0){\r\n//             lvl =lvl+1;\r\n//         }\r\n//         if(lvl > 7){\r\n//             lvl = 7;\r\n//         }\r\n//         nc.AssignedEvidences[key] = lvl; // addition to Assigned evidences\r\n//         nc.UnassignedEvidences[key] = 0; // removal from Unassigned evidences \r\n//         emit EvidenceAssignedLevel(\"Evidence as been assigned a level\", key);\r\n//     }\r\n\r\n//     function assign_inl(uint case_num, string memory ev) public payable {  // assign level\r\n//         bytes32 key = keccak256(abi.encodePacked(ev));\r\n//         require(does_case_exists(case_num) == true , \"Case does not exists\");\r\n//         require(does_evidence_exists(case_num,key) == false , \"Evidence exists\");\r\n//         require(is_level_assigned(case_num,key) == false, \"Level assigned\" );\r\n//         setlevel(key, case_num);\r\n//     }\r\n//     function register_evi(uint case_num, string memory ev, address user)public payable{ // simple register\r\n//         bytes32 key = keccak256(abi.encodePacked(ev));\r\n//         require(does_case_exists(case_num) == true , \"Case does not exists\");\r\n//         require(does_evidence_exists(case_num,key) == false , \"Evidence exists\");\r\n//         SCase storage nC = cases[case_num];\r\n//         nC.UnassignedEvidences[key] = 1;\r\n//         nC.evid += 1;\r\n//         emit EvidenceRegistered(\"Evidence has been registered by\", key, user);\r\n\r\n//     }\r\n\r\n//     function return_level(uint case_num, bytes32 key) public payable returns(uint){\r\n//         require(does_case_exists(case_num) == true, \"Case does not exists\");\r\n//         require(does_evidence_exists(case_num, key) == true , \"Evidence does not exists\");\r\n//         require(is_level_assigned(case_num, key) == true , \"Evidence not valid\");\r\n//         SCase storage nc = cases[case_num];\r\n//         uint lvl = nc.AssignedEvidences[key];\r\n//         return lvl;\r\n//     }\r\n\r\n// }",
  "sourcePath": "C:\\Users\\Hp\\Desktop\\Leveraging-Blockchain-for-Auditable-Access-Control\\contracts\\AssignRole.sol",
  "compiler": {
    "name": "solc",
    "version": "0.8.21+commit.d9974bed.Emscripten.clang"
  },
  "schemaVersion": "3.4.16",
  "updatedAt": "2024-10-26T15:54:18.458Z",
  "devdoc": {
    "kind": "dev",
    "methods": {},
    "version": 1
  },
  "userdoc": {
    "kind": "user",
    "methods": {},
    "version": 1
  }
}