{
  "contractName": "BibaRead",
  "abi": [
    {
      "inputs": [
        {
          "internalType": "address",
          "name": "_assignRole",
          "type": "address"
        },
        {
          "internalType": "address",
          "name": "_case",
          "type": "address"
        }
      ],
      "stateMutability": "nonpayable",
      "type": "constructor"
    },
    {
      "anonymous": false,
      "inputs": [
        {
          "indexed": false,
          "internalType": "string",
          "name": "",
          "type": "string"
        },
        {
          "indexed": false,
          "internalType": "address",
          "name": "",
          "type": "address"
        },
        {
          "indexed": false,
          "internalType": "bytes32",
          "name": "",
          "type": "bytes32"
        }
      ],
      "name": "ReadAllowed",
      "type": "event"
    },
    {
      "inputs": [],
      "name": "scase",
      "outputs": [
        {
          "internalType": "contract Case",
          "name": "",
          "type": "address"
        }
      ],
      "stateMutability": "view",
      "type": "function"
    },
    {
      "inputs": [],
      "name": "user",
      "outputs": [
        {
          "internalType": "contract AssignRole",
          "name": "",
          "type": "address"
        }
      ],
      "stateMutability": "view",
      "type": "function"
    },
    {
      "inputs": [
        {
          "internalType": "bytes32",
          "name": "key",
          "type": "bytes32"
        },
        {
          "internalType": "address",
          "name": "ad_user",
          "type": "address"
        },
        {
          "internalType": "uint256",
          "name": "case_num",
          "type": "uint256"
        }
      ],
      "name": "read_allowed",
      "outputs": [
        {
          "internalType": "bool",
          "name": "",
          "type": "bool"
        }
      ],
      "stateMutability": "payable",
      "type": "function"
    }
  ],
  "bytecode": "0x608060405234801561000f575f80fd5b50604051610bab380380610bab83398181016040528101906100319190610115565b815f806101000a81548173ffffffffffffffffffffffffffffffffffffffff021916908373ffffffffffffffffffffffffffffffffffffffff1602179055508060015f6101000a81548173ffffffffffffffffffffffffffffffffffffffff021916908373ffffffffffffffffffffffffffffffffffffffff1602179055505050610153565b5f80fd5b5f73ffffffffffffffffffffffffffffffffffffffff82169050919050565b5f6100e4826100bb565b9050919050565b6100f4816100da565b81146100fe575f80fd5b50565b5f8151905061010f816100eb565b92915050565b5f806040838503121561012b5761012a6100b7565b5b5f61013885828601610101565b925050602061014985828601610101565b9150509250929050565b610a4b806101605f395ff3fe608060405260043610610033575f3560e01c80634f8632ba14610037578063a8bcb2a814610061578063dbf1ba7a14610091575b5f80fd5b348015610042575f80fd5b5061004b6100bb565b604051610058919061050f565b60405180910390f35b61007b600480360381019061007691906105cd565b6100de565b6040516100889190610637565b60405180910390f35b34801561009c575f80fd5b506100a5610470565b6040516100b29190610670565b60405180910390f35b5f8054906101000a900473ffffffffffffffffffffffffffffffffffffffff1681565b5f6001151560015f9054906101000a900473ffffffffffffffffffffffffffffffffffffffff1673ffffffffffffffffffffffffffffffffffffffff166359ea8ddd85856040518363ffffffff1660e01b815260040161013f9291906106a7565b602060405180830381865afa15801561015a573d5f803e3d5ffd5b505050506040513d601f19601f8201168201806040525081019061017e91906106f8565b1515146101c0576040517f08c379a00000000000000000000000000000000000000000000000000000000081526004016101b7906107a3565b60405180910390fd5b6001151560015f9054906101000a900473ffffffffffffffffffffffffffffffffffffffff1673ffffffffffffffffffffffffffffffffffffffff166305805e0284876040518363ffffffff1660e01b81526004016102209291906107d0565b602060405180830381865afa15801561023b573d5f803e3d5ffd5b505050506040513d601f19601f8201168201806040525081019061025f91906106f8565b1515146102a1576040517f08c379a00000000000000000000000000000000000000000000000000000000081526004016102989061088d565b60405180910390fd5b5f60015f9054906101000a900473ffffffffffffffffffffffffffffffffffffffff1673ffffffffffffffffffffffffffffffffffffffff1663ac50417c84876040518363ffffffff1660e01b81526004016102fe9291906107d0565b6020604051808303815f875af115801561031a573d5f803e3d5ffd5b505050506040513d601f19601f8201168201806040525081019061033e91906108bf565b90505f805f9054906101000a900473ffffffffffffffffffffffffffffffffffffffff1673ffffffffffffffffffffffffffffffffffffffff16634cc70a0f866040518263ffffffff1660e01b815260040161039a91906108ea565b602060405180830381865afa1580156103b5573d5f803e3d5ffd5b505050506040513d601f19601f820116820180604052508101906103d991906108bf565b90505f8282111590506001151581151514610429576040517f08c379a000000000000000000000000000000000000000000000000000000000815260040161042090610973565b60405180910390fd5b7f914a47d0b62837fbe404f8576ce267855f7af1d9acca62fea203e70efa7da78c868860405161045a9291906109db565b60405180910390a1600193505050509392505050565b60015f9054906101000a900473ffffffffffffffffffffffffffffffffffffffff1681565b5f73ffffffffffffffffffffffffffffffffffffffff82169050919050565b5f819050919050565b5f6104d76104d26104cd84610495565b6104b4565b610495565b9050919050565b5f6104e8826104bd565b9050919050565b5f6104f9826104de565b9050919050565b610509816104ef565b82525050565b5f6020820190506105225f830184610500565b92915050565b5f80fd5b5f819050919050565b61053e8161052c565b8114610548575f80fd5b50565b5f8135905061055981610535565b92915050565b5f61056982610495565b9050919050565b6105798161055f565b8114610583575f80fd5b50565b5f8135905061059481610570565b92915050565b5f819050919050565b6105ac8161059a565b81146105b6575f80fd5b50565b5f813590506105c7816105a3565b92915050565b5f805f606084860312156105e4576105e3610528565b5b5f6105f18682870161054b565b935050602061060286828701610586565b9250506040610613868287016105b9565b9150509250925092565b5f8115159050919050565b6106318161061d565b82525050565b5f60208201905061064a5f830184610628565b92915050565b5f61065a826104de565b9050919050565b61066a81610650565b82525050565b5f6020820190506106835f830184610661565b92915050565b6106928161055f565b82525050565b6106a18161059a565b82525050565b5f6040820190506106ba5f830185610689565b6106c76020830184610698565b9392505050565b6106d78161061d565b81146106e1575f80fd5b50565b5f815190506106f2816106ce565b92915050565b5f6020828403121561070d5761070c610528565b5b5f61071a848285016106e4565b91505092915050565b5f82825260208201905092915050565b7f43616e6e6f7420696e746572616374207769746820746869732065766964656e5f8201527f6365000000000000000000000000000000000000000000000000000000000000602082015250565b5f61078d602283610723565b915061079882610733565b604082019050919050565b5f6020820190508181035f8301526107ba81610781565b9050919050565b6107ca8161052c565b82525050565b5f6040820190506107e35f830185610698565b6107f060208301846107c1565b9392505050565b7f457669646e6563652063616e6e6f7420626520696e74657261637465642077695f8201527f7468202c20697420686173206e6f74206265656e2061737369676e656420612060208201527f6c6576656c000000000000000000000000000000000000000000000000000000604082015250565b5f610877604583610723565b9150610882826107f7565b606082019050919050565b5f6020820190508181035f8301526108a48161086b565b9050919050565b5f815190506108b9816105a3565b92915050565b5f602082840312156108d4576108d3610528565b5b5f6108e1848285016108ab565b91505092915050565b5f6020820190506108fd5f830184610689565b92915050565b7f55736572206973206e6f7420617574686f72697a656420746f207265616420655f8201527f766964656e636500000000000000000000000000000000000000000000000000602082015250565b5f61095d602783610723565b915061096882610903565b604082019050919050565b5f6020820190508181035f83015261098a81610951565b9050919050565b7f557365722068617320726561642065766964656e6365000000000000000000005f82015250565b5f6109c5601683610723565b91506109d082610991565b602082019050919050565b5f6060820190508181035f8301526109f2816109b9565b9050610a016020830185610689565b610a0e60408301846107c1565b939250505056fea264697066735822122079f2bac832d15994373887cd404a6011257833501f529ffaf47c927b5426e4cf64736f6c63430008150033",
  "immutableReferences": {},
  "source": "// SPDX-License-Identifier: MIT\r\npragma solidity ^0.8.17;\r\n\r\nimport \"./AssignRole.sol\";\r\nimport \"./Case.sol\";\r\n\r\ncontract BibaRead{\r\n   AssignRole public  user; \r\n   Case public scase;\r\n\r\n   mapping (address => bytes32) ReadEvidence;  // keep track of which user read which evidence, one user can read multiple evidences so like is this needed\r\n\r\n   event ReadAllowed(string, address, bytes32); // event for blockchain\r\n   \r\n   constructor(address _assignRole, address _case){\r\n    user = AssignRole(_assignRole);\r\n    scase = Case(_case);\r\n   }\r\n\r\n   function read_allowed(bytes32 key, address ad_user, uint case_num) public payable returns (bool){\r\n    require(scase.is_authorized(ad_user, case_num) == true, \"Cannot interact with this evidence\"); // checking DAC\r\n    require(scase.is_level_assigned(case_num, key)== true, \"Evidnece cannot be interacted with , it has not been assigned a level\"); // unassigned levels \r\n    uint L = scase.return_level(case_num, key);\r\n    uint R = user.returnRole(ad_user);\r\n\r\n    bool val = (R<=L);\r\n    require(val == true, \"User is not authorized to read evidence\");\r\n    emit ReadAllowed(\"User has read evidence\", ad_user, key);\r\n    return true;\r\n   }\r\n\r\n}",
  "sourcePath": "C:\\Users\\Hp\\Desktop\\Leveraging-Blockchain-for-Auditable-Access-Control\\contracts\\BibaRead.sol",
  "compiler": {
    "name": "solc",
    "version": "0.8.21+commit.d9974bed.Emscripten.clang"
  },
  "schemaVersion": "3.4.16",
  "updatedAt": "2024-10-26T15:27:34.124Z",
  "devdoc": {
    "kind": "dev",
    "methods": {},
    "version": 1
  },
  "userdoc": {
    "kind": "user",
    "methods": {},
    "version": 1
  }
}