{
  "contractName": "BibaAppend",
  "abi": [
    {
      "anonymous": false,
      "inputs": [
        {
          "indexed": false,
          "internalType": "string",
          "name": "",
          "type": "string"
        },
        {
          "indexed": false,
          "internalType": "address",
          "name": "",
          "type": "address"
        },
        {
          "indexed": false,
          "internalType": "bytes32",
          "name": "",
          "type": "bytes32"
        },
        {
          "indexed": false,
          "internalType": "bytes32",
          "name": "",
          "type": "bytes32"
        }
      ],
      "name": "AppendAllowed",
      "type": "event"
    },
    {
      "anonymous": false,
      "inputs": [
        {
          "indexed": false,
          "internalType": "string",
          "name": "",
          "type": "string"
        },
        {
          "indexed": false,
          "internalType": "uint256",
          "name": "",
          "type": "uint256"
        }
      ],
      "name": "CaseClosed",
      "type": "event"
    },
    {
      "anonymous": false,
      "inputs": [
        {
          "indexed": false,
          "internalType": "string",
          "name": "",
          "type": "string"
        },
        {
          "indexed": false,
          "internalType": "string",
          "name": "",
          "type": "string"
        },
        {
          "indexed": false,
          "internalType": "uint256",
          "name": "",
          "type": "uint256"
        }
      ],
      "name": "CaseRegistrationDone",
      "type": "event"
    },
    {
      "anonymous": false,
      "inputs": [
        {
          "indexed": false,
          "internalType": "string",
          "name": "",
          "type": "string"
        },
        {
          "indexed": false,
          "internalType": "bytes32",
          "name": "",
          "type": "bytes32"
        }
      ],
      "name": "EvidenceAssignedLevel",
      "type": "event"
    },
    {
      "anonymous": false,
      "inputs": [
        {
          "indexed": false,
          "internalType": "string",
          "name": "",
          "type": "string"
        },
        {
          "indexed": false,
          "internalType": "uint256",
          "name": "",
          "type": "uint256"
        },
        {
          "indexed": false,
          "internalType": "bytes32",
          "name": "",
          "type": "bytes32"
        }
      ],
      "name": "EvidenceDeleted",
      "type": "event"
    },
    {
      "anonymous": false,
      "inputs": [
        {
          "indexed": false,
          "internalType": "string",
          "name": "",
          "type": "string"
        },
        {
          "indexed": false,
          "internalType": "bytes32",
          "name": "",
          "type": "bytes32"
        },
        {
          "indexed": false,
          "internalType": "address",
          "name": "",
          "type": "address"
        }
      ],
      "name": "EvidenceRegistered",
      "type": "event"
    },
    {
      "anonymous": false,
      "inputs": [
        {
          "indexed": false,
          "internalType": "string",
          "name": "",
          "type": "string"
        },
        {
          "indexed": false,
          "internalType": "address",
          "name": "",
          "type": "address"
        },
        {
          "indexed": false,
          "internalType": "uint256",
          "name": "",
          "type": "uint256"
        }
      ],
      "name": "InvestigatorRemoved",
      "type": "event"
    },
    {
      "anonymous": false,
      "inputs": [
        {
          "indexed": false,
          "internalType": "string",
          "name": "",
          "type": "string"
        },
        {
          "indexed": false,
          "internalType": "address",
          "name": "",
          "type": "address"
        },
        {
          "indexed": false,
          "internalType": "uint256",
          "name": "",
          "type": "uint256"
        }
      ],
      "name": "UserRegistrationDone",
      "type": "event"
    },
    {
      "inputs": [
        {
          "internalType": "address",
          "name": "inv",
          "type": "address"
        },
        {
          "internalType": "uint256",
          "name": "num",
          "type": "uint256"
        }
      ],
      "name": "add_investigator",
      "outputs": [],
      "stateMutability": "payable",
      "type": "function",
      "payable": true
    },
    {
      "inputs": [
        {
          "internalType": "uint256",
          "name": "case_num",
          "type": "uint256"
        },
        {
          "internalType": "string",
          "name": "ev",
          "type": "string"
        },
        {
          "internalType": "uint256",
          "name": "level",
          "type": "uint256"
        }
      ],
      "name": "assign_inl",
      "outputs": [],
      "stateMutability": "payable",
      "type": "function",
      "payable": true
    },
    {
      "inputs": [
        {
          "internalType": "string",
          "name": "name",
          "type": "string"
        },
        {
          "internalType": "uint256",
          "name": "case_number",
          "type": "uint256"
        }
      ],
      "name": "createcase",
      "outputs": [],
      "stateMutability": "payable",
      "type": "function",
      "payable": true
    },
    {
      "inputs": [
        {
          "internalType": "uint256",
          "name": "case_number",
          "type": "uint256"
        },
        {
          "internalType": "bytes32",
          "name": "key",
          "type": "bytes32"
        }
      ],
      "name": "does_evidence_exists",
      "outputs": [
        {
          "internalType": "bool",
          "name": "",
          "type": "bool"
        }
      ],
      "stateMutability": "view",
      "type": "function",
      "constant": true
    },
    {
      "inputs": [
        {
          "internalType": "address",
          "name": "user",
          "type": "address"
        },
        {
          "internalType": "uint256",
          "name": "number",
          "type": "uint256"
        }
      ],
      "name": "is_authorized",
      "outputs": [
        {
          "internalType": "bool",
          "name": "",
          "type": "bool"
        }
      ],
      "stateMutability": "view",
      "type": "function",
      "constant": true
    },
    {
      "inputs": [
        {
          "internalType": "uint256",
          "name": "case_number",
          "type": "uint256"
        },
        {
          "internalType": "bytes32",
          "name": "key",
          "type": "bytes32"
        }
      ],
      "name": "is_level_assigned",
      "outputs": [
        {
          "internalType": "bool",
          "name": "",
          "type": "bool"
        }
      ],
      "stateMutability": "view",
      "type": "function",
      "constant": true
    },
    {
      "inputs": [
        {
          "internalType": "address",
          "name": "user",
          "type": "address"
        }
      ],
      "name": "publicDoesUserExists",
      "outputs": [
        {
          "internalType": "bool",
          "name": "",
          "type": "bool"
        }
      ],
      "stateMutability": "view",
      "type": "function",
      "constant": true
    },
    {
      "inputs": [
        {
          "internalType": "address",
          "name": "user",
          "type": "address"
        }
      ],
      "name": "publicreturnRole",
      "outputs": [
        {
          "internalType": "uint256",
          "name": "",
          "type": "uint256"
        }
      ],
      "stateMutability": "view",
      "type": "function",
      "constant": true
    },
    {
      "inputs": [
        {
          "internalType": "string",
          "name": "desig",
          "type": "string"
        },
        {
          "internalType": "address",
          "name": "user",
          "type": "address"
        }
      ],
      "name": "publicsetRole",
      "outputs": [],
      "stateMutability": "nonpayable",
      "type": "function"
    },
    {
      "inputs": [
        {
          "internalType": "uint256",
          "name": "case_num",
          "type": "uint256"
        },
        {
          "internalType": "string",
          "name": "ev",
          "type": "string"
        },
        {
          "internalType": "address",
          "name": "user",
          "type": "address"
        }
      ],
      "name": "register_evi",
      "outputs": [],
      "stateMutability": "payable",
      "type": "function",
      "payable": true
    },
    {
      "inputs": [
        {
          "internalType": "string",
          "name": "designation",
          "type": "string"
        }
      ],
      "name": "register_user",
      "outputs": [],
      "stateMutability": "nonpayable",
      "type": "function"
    },
    {
      "inputs": [
        {
          "internalType": "uint256",
          "name": "case_number",
          "type": "uint256"
        },
        {
          "internalType": "address",
          "name": "inv",
          "type": "address"
        }
      ],
      "name": "remove_investigator",
      "outputs": [],
      "stateMutability": "payable",
      "type": "function",
      "payable": true
    },
    {
      "inputs": [
        {
          "internalType": "uint256",
          "name": "case_number",
          "type": "uint256"
        }
      ],
      "name": "returnHI",
      "outputs": [
        {
          "internalType": "address",
          "name": "",
          "type": "address"
        }
      ],
      "stateMutability": "payable",
      "type": "function",
      "payable": true
    },
    {
      "inputs": [
        {
          "internalType": "uint256",
          "name": "case_num",
          "type": "uint256"
        },
        {
          "internalType": "bytes32",
          "name": "key",
          "type": "bytes32"
        }
      ],
      "name": "return_level",
      "outputs": [
        {
          "internalType": "uint256",
          "name": "",
          "type": "uint256"
        }
      ],
      "stateMutability": "payable",
      "type": "function",
      "payable": true
    }
  ],
  "bytecode": "0x60806040523480156200001157600080fd5b50600160006040516200002490620000df565b90815260200160405180910390208190555060046000604051620000489062000146565b908152602001604051809103902081905550600760006040516200006c90620001ad565b908152602001604051809103902081905550620001c4565b600081905092915050565b7f4865616420496e76657374696761746f72000000000000000000000000000000600082015250565b6000620000c760118362000084565b9150620000d4826200008f565b601182019050919050565b6000620000ec82620000b8565b9150819050919050565b7f4c65616420496e76657374696761746f72000000000000000000000000000000600082015250565b60006200012e60118362000084565b91506200013b82620000f6565b601182019050919050565b600062000153826200011f565b9150819050919050565b7f5465616d20496e76657374696761746f72000000000000000000000000000000600082015250565b60006200019560118362000084565b9150620001a2826200015d565b601182019050919050565b6000620001ba8262000186565b9150819050919050565b6121e280620001d46000396000f3fe6080604052600436106100dd5760003560e01c80636cad4fa61161007f578063d014fe4011610059578063d014fe4014610292578063d07a3b68146102bb578063f7bb8893146102d7578063fb5f5c5714610314576100dd565b80636cad4fa61461021657806374bab76014610232578063ac50417c14610262576100dd565b8063257dbfc3116100bb578063257dbfc31461016457806359ea8ddd146101805780635ce7cd58146101bd57806364093834146101fa576100dd565b8063027a65c2146100e257806305805e02146100fe578063080e05191461013b575b600080fd5b6100fc60048036038101906100f791906111ec565b610351565b005b34801561010a57600080fd5b5061012560048036038101906101209190611296565b6104f5565b60405161013291906112f1565b60405180910390f35b34801561014757600080fd5b50610162600480360381019061015d919061136a565b610540565b005b61017e6004803603810190610179919061150b565b610550565b005b34801561018c57600080fd5b506101a760048036038101906101a2919061157a565b6106a8565b6040516101b491906112f1565b60405180910390f35b3480156101c957600080fd5b506101e460048036038101906101df91906115ba565b61071f565b6040516101f191906115f6565b60405180910390f35b610214600480360381019061020f9190611611565b610736565b005b610230600480360381019061022b919061157a565b6107d2565b005b61024c60048036038101906102479190611651565b610835565b604051610259919061168d565b60405180910390f35b61027c60048036038101906102779190611296565b61087a565b60405161028991906115f6565b60405180910390f35b34801561029e57600080fd5b506102b960048036038101906102b491906116a8565b6109a7565b005b6102d560048036038101906102d091906116f5565b6109b6565b005b3480156102e357600080fd5b506102fe60048036038101906102f99190611296565b610c0c565b60405161030b91906112f1565b60405180910390f35b34801561032057600080fd5b5061033b600480360381019061033691906115ba565b610cd0565b60405161034891906112f1565b60405180910390f35b60008383604051602001610366929190611785565b6040516020818303038152906040528051906020012090503373ffffffffffffffffffffffffffffffffffffffff1661039e86610835565b73ffffffffffffffffffffffffffffffffffffffff16146103f4576040517f08c379a00000000000000000000000000000000000000000000000000000000081526004016103eb90611821565b60405180910390fd5b6001151561040186610ce7565b151514610443576040517f08c379a000000000000000000000000000000000000000000000000000000000815260040161043a9061188d565b60405180910390fd5b600015156104518683610c0c565b151514610493576040517f08c379a000000000000000000000000000000000000000000000000000000000815260040161048a906118f9565b60405180910390fd5b600015156104a186836104f5565b1515146104e3576040517f08c379a00000000000000000000000000000000000000000000000000000000081526004016104da90611965565b60405180910390fd5b6104ee818684610d49565b5050505050565b6000806004600085815260200190815260200160002090506001816003016000858152602001908152602001600020540361053457600091505061053a565b60019150505b92915050565b61054b838383610dd2565b505050565b60008260405160200161056391906119f4565b6040516020818303038152906040528051906020012090506001151561058885610ce7565b1515146105ca576040517f08c379a00000000000000000000000000000000000000000000000000000000081526004016105c19061188d565b60405180910390fd5b600015156105d88583610c0c565b15151461061a576040517f08c379a0000000000000000000000000000000000000000000000000000000008152600401610611906118f9565b60405180910390fd5b600060046000868152602001908152602001600020905060018160030160008481526020019081526020016000208190555060018160060160008282546106619190611a3a565b925050819055507fc1af16f5f8e3c3b57e2843dd14aab5832a95aeef0736b7b44cffc4d32c64cb9d8284604051610699929190611aeb565b60405180910390a15050505050565b60008060046000848152602001908152602001600020905060018160040160008673ffffffffffffffffffffffffffffffffffffffff1673ffffffffffffffffffffffffffffffffffffffff1681526020019081526020016000205403610713576001915050610719565b60009150505b92915050565b60008061072b83610f7c565b905080915050919050565b600060046000848152602001908152602001600020905060008160040160008473ffffffffffffffffffffffffffffffffffffffff1673ffffffffffffffffffffffffffffffffffffffff168152602001908152602001600020819055507fb6b4e493a9247fb90495ec09db8e16879fe0ccf6f478ef5252b5de4559f319f282846040516107c5929190611b99565b60405180910390a1505050565b600060046000838152602001908152602001600020905060018160040160008573ffffffffffffffffffffffffffffffffffffffff1673ffffffffffffffffffffffffffffffffffffffff16815260200190815260200160002081905550505050565b6000806004600084815260200190815260200160002090508060050160009054906101000a900473ffffffffffffffffffffffffffffffffffffffff16915050919050565b60006001151561088984610ce7565b1515146108cb576040517f08c379a00000000000000000000000000000000000000000000000000000000081526004016108c29061188d565b60405180910390fd5b600115156108d98484610c0c565b15151461091b576040517f08c379a000000000000000000000000000000000000000000000000000000000815260040161091290611c21565b60405180910390fd5b6001151561092984846104f5565b15151461096b576040517f08c379a000000000000000000000000000000000000000000000000000000000815260040161096290611c8d565b60405180910390fd5b60006004600085815260200190815260200160002090506000816002016000858152602001908152602001600020549050809250505092915050565b6109b2828233610540565b5050565b600115156109c333610cd0565b151514610a05576040517f08c379a00000000000000000000000000000000000000000000000000000000081526004016109fc90611cf9565b60405180910390fd5b60001515610a1282610ce7565b151514610a54576040517f08c379a0000000000000000000000000000000000000000000000000000000008152600401610a4b90611d65565b60405180910390fd5b6001610a5f3361071f565b14610a9f576040517f08c379a0000000000000000000000000000000000000000000000000000000008152600401610a9690611df7565b60405180910390fd5b60006004600083815260200190815260200160002090508383826000019190610ac992919061109a565b508383604051602001610add929190611785565b604051602081830303815290604052805190602001208160010181905550338160050160006101000a81548173ffffffffffffffffffffffffffffffffffffffff021916908373ffffffffffffffffffffffffffffffffffffffff16021790555060018160040160003373ffffffffffffffffffffffffffffffffffffffff1673ffffffffffffffffffffffffffffffffffffffff16815260200190815260200160002081905550601981600701819055504281600801819055506000816009018190555060038290806001815401808255809150506001900390600052602060002001600090919091909150557f266d5cf462bf1f0254a78139854880064d99b9f9359d49bea6b8637ccf826cec848484604051610bfe93929190611e90565b60405180910390a150505050565b600060011515610c1b84610ce7565b151514610c5d576040517f08c379a0000000000000000000000000000000000000000000000000000000008152600401610c549061188d565b60405180910390fd5b60006004600085815260200190815260200160002090506000816002016000858152602001908152602001600020541115610c9c576001915050610cca565b6000816003016000858152602001908152602001600020541115610cc4576001915050610cca565b60009150505b92915050565b600080610cdc83611014565b905080915050919050565b600080600090505b600380549050811015610d3e578260038281548110610d1157610d10611ed5565b5b906000526020600020015403610d2b576001915050610d44565b8080610d3690611f04565b915050610cef565b50600090505b919050565b600060046000848152602001908152602001600020905081816002016000868152602001908152602001600020819055506000816003016000868152602001908152602001600020819055507fa5b14494dc23eecde6552fb600b649e07cd8469e1e6738027781646914acfad884604051610dc49190611fbe565b60405180910390a150505050565b60001515610ddf82611014565b151514610e21576040517f08c379a0000000000000000000000000000000000000000000000000000000008152600401610e1890612038565b60405180910390fd5b6000610e2d8484611070565b11610e6d576040517f08c379a0000000000000000000000000000000000000000000000000000000008152600401610e64906120a4565b60405180910390fd5b610e778383611070565b600160008373ffffffffffffffffffffffffffffffffffffffff1673ffffffffffffffffffffffffffffffffffffffff168152602001908152602001600020819055506001600260008373ffffffffffffffffffffffffffffffffffffffff1673ffffffffffffffffffffffffffffffffffffffff168152602001908152602001600020819055507faa6d010bb351bc431c1230873f88f8f8b97c823fe65b1e102216919af719b1a281600160008473ffffffffffffffffffffffffffffffffffffffff1673ffffffffffffffffffffffffffffffffffffffff16815260200190815260200160002054604051610f6f929190612110565b60405180910390a1505050565b600060011515610f8b83611014565b151514610fcd576040517f08c379a0000000000000000000000000000000000000000000000000000000008152600401610fc490611cf9565b60405180910390fd5b600160008373ffffffffffffffffffffffffffffffffffffffff1673ffffffffffffffffffffffffffffffffffffffff168152602001908152602001600020549050919050565b60006001600260008473ffffffffffffffffffffffffffffffffffffffff1673ffffffffffffffffffffffffffffffffffffffff1681526020019081526020016000205403611066576001905061106b565b600090505b919050565b6000808383604051611083929190611785565b908152602001604051809103902054905092915050565b8280546110a69061217b565b90600052602060002090601f0160209004810192826110c8576000855561110f565b82601f106110e157803560ff191683800117855561110f565b8280016001018555821561110f579182015b8281111561110e5782358255916020019190600101906110f3565b5b50905061111c9190611120565b5090565b5b80821115611139576000816000905550600101611121565b5090565b6000604051905090565b600080fd5b600080fd5b6000819050919050565b61116481611151565b811461116f57600080fd5b50565b6000813590506111818161115b565b92915050565b600080fd5b600080fd5b600080fd5b60008083601f8401126111ac576111ab611187565b5b8235905067ffffffffffffffff8111156111c9576111c861118c565b5b6020830191508360018202830111156111e5576111e4611191565b5b9250929050565b6000806000806060858703121561120657611205611147565b5b600061121487828801611172565b945050602085013567ffffffffffffffff8111156112355761123461114c565b5b61124187828801611196565b9350935050604061125487828801611172565b91505092959194509250565b6000819050919050565b61127381611260565b811461127e57600080fd5b50565b6000813590506112908161126a565b92915050565b600080604083850312156112ad576112ac611147565b5b60006112bb85828601611172565b92505060206112cc85828601611281565b9150509250929050565b60008115159050919050565b6112eb816112d6565b82525050565b600060208201905061130660008301846112e2565b92915050565b600073ffffffffffffffffffffffffffffffffffffffff82169050919050565b60006113378261130c565b9050919050565b6113478161132c565b811461135257600080fd5b50565b6000813590506113648161133e565b92915050565b60008060006040848603121561138357611382611147565b5b600084013567ffffffffffffffff8111156113a1576113a061114c565b5b6113ad86828701611196565b935093505060206113c086828701611355565b9150509250925092565b600080fd5b6000601f19601f8301169050919050565b7f4e487b7100000000000000000000000000000000000000000000000000000000600052604160045260246000fd5b611418826113cf565b810181811067ffffffffffffffff82111715611437576114366113e0565b5b80604052505050565b600061144a61113d565b9050611456828261140f565b919050565b600067ffffffffffffffff821115611476576114756113e0565b5b61147f826113cf565b9050602081019050919050565b82818337600083830152505050565b60006114ae6114a98461145b565b611440565b9050828152602081018484840111156114ca576114c96113ca565b5b6114d584828561148c565b509392505050565b600082601f8301126114f2576114f1611187565b5b813561150284826020860161149b565b91505092915050565b60008060006060848603121561152457611523611147565b5b600061153286828701611172565b935050602084013567ffffffffffffffff8111156115535761155261114c565b5b61155f868287016114dd565b925050604061157086828701611355565b9150509250925092565b6000806040838503121561159157611590611147565b5b600061159f85828601611355565b92505060206115b085828601611172565b9150509250929050565b6000602082840312156115d0576115cf611147565b5b60006115de84828501611355565b91505092915050565b6115f081611151565b82525050565b600060208201905061160b60008301846115e7565b92915050565b6000806040838503121561162857611627611147565b5b600061163685828601611172565b925050602061164785828601611355565b9150509250929050565b60006020828403121561166757611666611147565b5b600061167584828501611172565b91505092915050565b6116878161132c565b82525050565b60006020820190506116a2600083018461167e565b92915050565b600080602083850312156116bf576116be611147565b5b600083013567ffffffffffffffff8111156116dd576116dc61114c565b5b6116e985828601611196565b92509250509250929050565b60008060006040848603121561170e5761170d611147565b5b600084013567ffffffffffffffff81111561172c5761172b61114c565b5b61173886828701611196565b9350935050602061174b86828701611172565b9150509250925092565b600081905092915050565b600061176c8385611755565b935061177983858461148c565b82840190509392505050565b6000611792828486611760565b91508190509392505050565b600082825260208201905092915050565b7f4f6e6c79204865616420496e76657374696761746f722063616e20617373696760008201527f6e206c6576656c20746f2065766964656e636500000000000000000000000000602082015250565b600061180b60338361179e565b9150611816826117af565b604082019050919050565b6000602082019050818103600083015261183a816117fe565b9050919050565b7f4361736520646f6573206e6f7420657869737473000000000000000000000000600082015250565b600061187760148361179e565b915061188282611841565b602082019050919050565b600060208201905081810360008301526118a68161186a565b9050919050565b7f45766964656e6365206578697374730000000000000000000000000000000000600082015250565b60006118e3600f8361179e565b91506118ee826118ad565b602082019050919050565b60006020820190508181036000830152611912816118d6565b9050919050565b7f4c6576656c2061737369676e6564000000000000000000000000000000000000600082015250565b600061194f600e8361179e565b915061195a82611919565b602082019050919050565b6000602082019050818103600083015261197e81611942565b9050919050565b600081519050919050565b60005b838110156119ae578082015181840152602081019050611993565b838111156119bd576000848401525b50505050565b60006119ce82611985565b6119d88185611755565b93506119e8818560208601611990565b80840191505092915050565b6000611a0082846119c3565b915081905092915050565b7f4e487b7100000000000000000000000000000000000000000000000000000000600052601160045260246000fd5b6000611a4582611151565b9150611a5083611151565b9250827fffffffffffffffffffffffffffffffffffffffffffffffffffffffffffffffff03821115611a8557611a84611a0b565b5b828201905092915050565b7f45766964656e636520686173206265656e207265676973746572656420627900600082015250565b6000611ac6601f8361179e565b9150611ad182611a90565b602082019050919050565b611ae581611260565b82525050565b60006060820190508181036000830152611b0481611ab9565b9050611b136020830185611adc565b611b20604083018461167e565b9392505050565b7f496e76657374696761746f7220686173206265656e2072656d6f76656420667260008201527f6f6d206361736500000000000000000000000000000000000000000000000000602082015250565b6000611b8360278361179e565b9150611b8e82611b27565b604082019050919050565b60006060820190508181036000830152611bb281611b76565b9050611bc1602083018561167e565b611bce60408301846115e7565b9392505050565b7f45766964656e636520646f6573206e6f74206578697374730000000000000000600082015250565b6000611c0b60188361179e565b9150611c1682611bd5565b602082019050919050565b60006020820190508181036000830152611c3a81611bfe565b9050919050565b7f45766964656e6365206e6f742076616c69640000000000000000000000000000600082015250565b6000611c7760128361179e565b9150611c8282611c41565b602082019050919050565b60006020820190508181036000830152611ca681611c6a565b9050919050565b7f55736572206973206e6f74207265676973746572656400000000000000000000600082015250565b6000611ce360168361179e565b9150611cee82611cad565b602082019050919050565b60006020820190508181036000830152611d1281611cd6565b9050919050565b7f4361736520697320616c72656164792063726561746564000000000000000000600082015250565b6000611d4f60178361179e565b9150611d5a82611d19565b602082019050919050565b60006020820190508181036000830152611d7e81611d42565b9050919050565b7f4f6e6c79204865616420496e76657374696761746f722063616e20637265617460008201527f6520636173657300000000000000000000000000000000000000000000000000602082015250565b6000611de160278361179e565b9150611dec82611d85565b604082019050919050565b60006020820190508181036000830152611e1081611dd4565b9050919050565b7f4361736520526567697374657265640000000000000000000000000000000000600082015250565b6000611e4d600f8361179e565b9150611e5882611e17565b602082019050919050565b6000611e6f838561179e565b9350611e7c83858461148c565b611e85836113cf565b840190509392505050565b60006060820190508181036000830152611ea981611e40565b90508181036020830152611ebe818587611e63565b9050611ecd60408301846115e7565b949350505050565b7f4e487b7100000000000000000000000000000000000000000000000000000000600052603260045260246000fd5b6000611f0f82611151565b91507fffffffffffffffffffffffffffffffffffffffffffffffffffffffffffffffff8203611f4157611f40611a0b565b5b600182019050919050565b7f45766964656e6365206173206265656e2061737369676e65642061206c65766560008201527f6c00000000000000000000000000000000000000000000000000000000000000602082015250565b6000611fa860218361179e565b9150611fb382611f4c565b604082019050919050565b60006040820190508181036000830152611fd781611f9b565b9050611fe66020830184611adc565b92915050565b7f5573657220416c72656164792052656769737465726564000000000000000000600082015250565b600061202260178361179e565b915061202d82611fec565b602082019050919050565b6000602082019050818103600083015261205181612015565b9050919050565b7f496e76616c69642064657369676e6174696f6e00000000000000000000000000600082015250565b600061208e60138361179e565b915061209982612058565b602082019050919050565b600060208201905081810360008301526120bd81612081565b9050919050565b7f205573657220526567697374726174696f6e20436f6d706c6574656400000000600082015250565b60006120fa601c8361179e565b9150612105826120c4565b602082019050919050565b60006060820190508181036000830152612129816120ed565b9050612138602083018561167e565b61214560408301846115e7565b9392505050565b7f4e487b7100000000000000000000000000000000000000000000000000000000600052602260045260246000fd5b6000600282049050600182168061219357607f821691505b6020821081036121a6576121a561214c565b5b5091905056fea2646970667358221220de4b529ffeacd8cbe4fc465b98f92b5f87396263964640615cd3ec395871b40d64736f6c634300080d0033",
  "immutableReferences": {},
  "source": "// SPDX-License-Identifier: MIT\r\npragma solidity ^0.8.9;\r\nimport \"./AssignRole.sol\";\r\nimport \"./Case.sol\";\r\n///@title allows additional information/supporting material to be added to an existing evidence\r\ncontract BibaAppend is AssignRole, Case {\r\n    mapping(bytes32 => mapping(uint => bytes32)) private AppendedEvidence; // keep track of which evidence was appended to, but an evidence can be appended to multiple times\r\n    mapping(bytes32 => uint) private TrackerMapping; // keep track of how many times and evidence was appended to\r\n    event AppendAllowed(string, address, bytes32, bytes32); // event for blockchain\r\n    function returnTimes(bytes32 key) private view returns (uint) {\r\n        // return number of times an evidence was appended to\r\n        return TrackerMapping[key];\r\n    }\r\n    \r\n    ///@notice checks if user is allowed to append to an existing evidence anf if yes, then append is completed \r\n    function append_allowed(\r\n        bytes32 key,\r\n        address ad_user,\r\n        bytes32 key_of_new,\r\n        uint case_num\r\n    ) private returns (bool) {\r\n        require(\r\n            is_authorized(ad_user, case_num) == true,\r\n            \"Cannot interact with this evidence\"\r\n        );\r\n        uint L = return_level(case_num, key);\r\n        uint R = returnRole(ad_user);\r\n        bool val = (R >= L);\r\n\r\n        require(val == true, \"User is not authorized to append to evidence\");\r\n\r\n        uint times = returnTimes(key); // find number of times the original evidence was appended to\r\n        uint ntime = times + 1;\r\n        TrackerMapping[key] = ntime; // update times the original evidenece was appended to\r\n\r\n        // Take input from user; this is placeholder\r\n\r\n        bytes32 newhash = keccak256(abi.encodePacked(key, key_of_new)); // calculate new hash\r\n        string memory str = \"Hell\";\r\n        register_evi(case_num, str, msg.sender); // create a new evidence with new founf evidence related to og evidence\r\n\r\n        AppendedEvidence[key][ntime] = newhash; // finally add the appended evidence in the nested mapping\r\n        emit AppendAllowed(\r\n            \"User has appended to evidence\",\r\n            ad_user,\r\n            key,\r\n            newhash\r\n        );\r\n\r\n        return true;\r\n    }\r\n}\r\n",
  "sourcePath": "C:\\Users\\shrey\\repo2\\contracts\\BibaAppend.sol",
  "compiler": {
    "name": "solc",
    "version": "0.8.13+commit.abaa5c0e.Emscripten.clang"
  },
  "schemaVersion": "3.4.16",
  "updatedAt": "2024-11-20T15:08:10.600Z",
  "networkType": "ethereum",
  "devdoc": {
    "kind": "dev",
    "methods": {
      "createcase(string,uint256)": {
        "params": {
          "name": "Name of the Case File ; @param case_number Unique Number assigned to case"
        }
      },
      "does_evidence_exists(uint256,bytes32)": {
        "params": {
          "case_number": "unique id of case, @param key hash of evidence which has to be assigned level "
        }
      },
      "is_authorized(address,uint256)": {
        "params": {
          "user": "address of user requesting access; @param number Unique Case Number"
        }
      },
      "register_evi(uint256,string,address)": {
        "params": {
          "case_num": "Unique case ID; @param ev information ; @param user address of requestor"
        }
      },
      "return_level(uint256,bytes32)": {
        "params": {
          "key": "unique identifier of evidence"
        }
      }
    },
    "title": "allows additional information/supporting material to be added to an existing evidence",
    "version": 1
  },
  "userdoc": {
    "kind": "user",
    "methods": {
      "add_investigator(address,uint256)": {
        "notice": "this introduces DAC, allows Head Investigator to modify access rights"
      },
      "assign_inl(uint256,string,uint256)": {
        "notice": "caller function to assign level to an evidence "
      },
      "createcase(string,uint256)": {
        "notice": "creates a case"
      },
      "does_evidence_exists(uint256,bytes32)": {
        "notice": "checks whether evidence exists"
      },
      "is_authorized(address,uint256)": {
        "notice": "returns whether an user is authorised to work on a case"
      },
      "is_level_assigned(uint256,bytes32)": {
        "notice": "checks whether level is assigned to evidence"
      },
      "publicsetRole(string,address)": {
        "notice": "an interface functions used to call internal functions"
      },
      "register_evi(uint256,string,address)": {
        "notice": "allows user to register new information"
      },
      "remove_investigator(uint256,address)": {
        "notice": "DAC policy allows removal of an investigator from case"
      },
      "returnHI(uint256)": {
        "notice": "returns Head Investigator of a case"
      },
      "return_level(uint256,bytes32)": {
        "notice": "return level of integrity assigned to an evidence"
      }
    },
    "version": 1
  }
}