{
  "contractName": "BibaRead",
  "abi": [
    {
      "anonymous": false,
      "inputs": [
        {
          "indexed": false,
          "internalType": "string",
          "name": "",
          "type": "string"
        },
        {
          "indexed": false,
          "internalType": "uint256",
          "name": "",
          "type": "uint256"
        }
      ],
      "name": "CaseClosed",
      "type": "event"
    },
    {
      "anonymous": false,
      "inputs": [
        {
          "indexed": false,
          "internalType": "string",
          "name": "",
          "type": "string"
        },
        {
          "indexed": false,
          "internalType": "bytes32",
          "name": "",
          "type": "bytes32"
        }
      ],
      "name": "EvidenceAssignedLevel",
      "type": "event"
    },
    {
      "anonymous": false,
      "inputs": [
        {
          "indexed": false,
          "internalType": "string",
          "name": "",
          "type": "string"
        },
        {
          "indexed": false,
          "internalType": "uint256",
          "name": "",
          "type": "uint256"
        },
        {
          "indexed": false,
          "internalType": "bytes32",
          "name": "",
          "type": "bytes32"
        }
      ],
      "name": "EvidenceDeleted",
      "type": "event"
    },
    {
      "anonymous": false,
      "inputs": [
        {
          "indexed": false,
          "internalType": "string",
          "name": "",
          "type": "string"
        },
        {
          "indexed": false,
          "internalType": "bytes32",
          "name": "",
          "type": "bytes32"
        },
        {
          "indexed": false,
          "internalType": "address",
          "name": "",
          "type": "address"
        }
      ],
      "name": "EvidenceRegistered",
      "type": "event"
    },
    {
      "anonymous": false,
      "inputs": [
        {
          "indexed": false,
          "internalType": "string",
          "name": "",
          "type": "string"
        },
        {
          "indexed": false,
          "internalType": "address",
          "name": "",
          "type": "address"
        },
        {
          "indexed": false,
          "internalType": "uint256",
          "name": "",
          "type": "uint256"
        }
      ],
      "name": "InvestigatorRemoved",
      "type": "event"
    },
    {
      "anonymous": false,
      "inputs": [
        {
          "indexed": false,
          "internalType": "string",
          "name": "",
          "type": "string"
        },
        {
          "indexed": false,
          "internalType": "address",
          "name": "",
          "type": "address"
        },
        {
          "indexed": false,
          "internalType": "bytes32",
          "name": "",
          "type": "bytes32"
        }
      ],
      "name": "ReadAllowed",
      "type": "event"
    },
    {
      "anonymous": false,
      "inputs": [
        {
          "indexed": false,
          "internalType": "string",
          "name": "",
          "type": "string"
        },
        {
          "indexed": false,
          "internalType": "address",
          "name": "",
          "type": "address"
        },
        {
          "indexed": false,
          "internalType": "uint256",
          "name": "",
          "type": "uint256"
        }
      ],
      "name": "RegistrationDone",
      "type": "event"
    },
    {
      "anonymous": false,
      "inputs": [
        {
          "indexed": false,
          "internalType": "string",
          "name": "",
          "type": "string"
        },
        {
          "indexed": false,
          "internalType": "string",
          "name": "",
          "type": "string"
        },
        {
          "indexed": false,
          "internalType": "uint256",
          "name": "",
          "type": "uint256"
        }
      ],
      "name": "RegistrationDone",
      "type": "event"
    },
    {
      "inputs": [
        {
          "internalType": "address",
          "name": "inv",
          "type": "address"
        },
        {
          "internalType": "uint256",
          "name": "num",
          "type": "uint256"
        }
      ],
      "name": "add_investigator",
      "outputs": [],
      "stateMutability": "payable",
      "type": "function"
    },
    {
      "inputs": [
        {
          "internalType": "uint256",
          "name": "case_num",
          "type": "uint256"
        },
        {
          "internalType": "string",
          "name": "ev",
          "type": "string"
        }
      ],
      "name": "assign_inl",
      "outputs": [],
      "stateMutability": "payable",
      "type": "function"
    },
    {
      "inputs": [
        {
          "internalType": "string",
          "name": "name",
          "type": "string"
        },
        {
          "internalType": "uint256",
          "name": "case_number",
          "type": "uint256"
        }
      ],
      "name": "createcase",
      "outputs": [],
      "stateMutability": "payable",
      "type": "function"
    },
    {
      "inputs": [
        {
          "internalType": "bytes32",
          "name": "key",
          "type": "bytes32"
        },
        {
          "internalType": "uint256",
          "name": "case_num",
          "type": "uint256"
        }
      ],
      "name": "delete_evidence",
      "outputs": [],
      "stateMutability": "payable",
      "type": "function"
    },
    {
      "inputs": [
        {
          "internalType": "uint256",
          "name": "case_number",
          "type": "uint256"
        },
        {
          "internalType": "bytes32",
          "name": "key",
          "type": "bytes32"
        }
      ],
      "name": "does_evidence_exists",
      "outputs": [
        {
          "internalType": "bool",
          "name": "",
          "type": "bool"
        }
      ],
      "stateMutability": "view",
      "type": "function"
    },
    {
      "inputs": [
        {
          "internalType": "address",
          "name": "user",
          "type": "address"
        },
        {
          "internalType": "uint256",
          "name": "number",
          "type": "uint256"
        }
      ],
      "name": "is_authorized",
      "outputs": [
        {
          "internalType": "bool",
          "name": "",
          "type": "bool"
        }
      ],
      "stateMutability": "view",
      "type": "function"
    },
    {
      "inputs": [
        {
          "internalType": "uint256",
          "name": "case_number",
          "type": "uint256"
        },
        {
          "internalType": "bytes32",
          "name": "key",
          "type": "bytes32"
        }
      ],
      "name": "is_level_assigned",
      "outputs": [
        {
          "internalType": "bool",
          "name": "",
          "type": "bool"
        }
      ],
      "stateMutability": "view",
      "type": "function"
    },
    {
      "inputs": [
        {
          "internalType": "uint256",
          "name": "case_num",
          "type": "uint256"
        },
        {
          "internalType": "string",
          "name": "ev",
          "type": "string"
        },
        {
          "internalType": "address",
          "name": "user",
          "type": "address"
        }
      ],
      "name": "register_evi",
      "outputs": [],
      "stateMutability": "payable",
      "type": "function"
    },
    {
      "inputs": [
        {
          "internalType": "uint256",
          "name": "case_number",
          "type": "uint256"
        },
        {
          "internalType": "address",
          "name": "inv",
          "type": "address"
        }
      ],
      "name": "remove_investigator",
      "outputs": [],
      "stateMutability": "payable",
      "type": "function"
    },
    {
      "inputs": [
        {
          "internalType": "uint256",
          "name": "case_number",
          "type": "uint256"
        }
      ],
      "name": "returnHI",
      "outputs": [
        {
          "internalType": "address",
          "name": "",
          "type": "address"
        }
      ],
      "stateMutability": "payable",
      "type": "function"
    },
    {
      "inputs": [
        {
          "internalType": "uint256",
          "name": "case_num",
          "type": "uint256"
        },
        {
          "internalType": "bytes32",
          "name": "key",
          "type": "bytes32"
        }
      ],
      "name": "return_level",
      "outputs": [
        {
          "internalType": "uint256",
          "name": "",
          "type": "uint256"
        }
      ],
      "stateMutability": "payable",
      "type": "function"
    },
    {
      "inputs": [
        {
          "internalType": "bytes32",
          "name": "key",
          "type": "bytes32"
        },
        {
          "internalType": "uint256",
          "name": "case_num",
          "type": "uint256"
        }
      ],
      "name": "setlevel",
      "outputs": [],
      "stateMutability": "payable",
      "type": "function"
    }
  ],
  "bytecode": "0x608060405234801562000010575f80fd5b5060015f6040516200002290620000d8565b90815260200160405180910390208190555060045f60405162000045906200013c565b90815260200160405180910390208190555060075f6040516200006890620001a0565b908152602001604051809103902081905550620001b6565b5f81905092915050565b7f4865616420496e76657374696761746f720000000000000000000000000000005f82015250565b5f620000c060118362000080565b9150620000cd826200008a565b601182019050919050565b5f620000e482620000b2565b9150819050919050565b7f4c65616420496e76657374696761746f720000000000000000000000000000005f82015250565b5f6200012460118362000080565b91506200013182620000ee565b601182019050919050565b5f620001488262000116565b9150819050919050565b7f5465616d20496e76657374696761746f720000000000000000000000000000005f82015250565b5f6200018860118362000080565b9150620001958262000152565b601182019050919050565b5f620001ac826200017a565b9150819050919050565b61203e80620001c45f395ff3fe6080604052600436106100a6575f3560e01c80636cad4fa6116100635780636cad4fa61461019257806374bab760146101ae578063ac50417c146101de578063bffc4bbf1461020e578063d07a3b681461022a578063f7bb889314610246576100a6565b806305805e02146100aa5780631c6513d3146100e6578063257dbfc3146101025780634bd7d00a1461011e57806359ea8ddd1461013a5780636409383414610176575b5f80fd5b3480156100b5575f80fd5b506100d060048036038101906100cb9190610fa6565b610282565b6040516100dd9190610ffe565b60405180910390f35b61010060048036038101906100fb9190611017565b6102c7565b005b61011c600480360381019061011791906111eb565b610375565b005b61013860048036038101906101339190611017565b6104c5565b005b348015610145575f80fd5b50610160600480360381019061015b9190611257565b610669565b60405161016d9190610ffe565b60405180910390f35b610190600480360381019061018b9190611295565b6106da565b005b6101ac60048036038101906101a79190611257565b610770565b005b6101c860048036038101906101c391906112d3565b6107ce565b6040516101d5919061130d565b60405180910390f35b6101f860048036038101906101f39190610fa6565b61080f565b6040516102059190611335565b60405180910390f35b610228600480360381019061022391906113ab565b610935565b005b610244600480360381019061023f9190611408565b610a5e565b005b348015610251575f80fd5b5061026c60048036038101906102679190610fa6565b610ca8565b6040516102799190610ffe565b60405180910390f35b5f8060045f8581526020019081526020015f2090506001816003015f8581526020019081526020015f2054036102bb575f9150506102c1565b60019150505b92915050565b5f60045f8381526020019081526020015f2090505f816006015490505f81036102fa576001816102f79190611492565b90505b600781111561030857600790505b80826002015f8681526020019081526020015f20819055505f826003015f8681526020019081526020015f20819055507fa5b14494dc23eecde6552fb600b649e07cd8469e1e6738027781646914acfad8846040516103679190611554565b60405180910390a150505050565b5f8260405160200161038791906115ec565b604051602081830303815290604052805190602001209050600115156103ac85610d61565b1515146103ee576040517f08c379a00000000000000000000000000000000000000000000000000000000081526004016103e59061164c565b60405180910390fd5b5f15156103fb8583610ca8565b15151461043d576040517f08c379a0000000000000000000000000000000000000000000000000000000008152600401610434906116b4565b60405180910390fd5b5f60045f8681526020019081526020015f2090506001816003015f8481526020019081526020015f20819055506001816006015f82825461047e9190611492565b925050819055507fc1af16f5f8e3c3b57e2843dd14aab5832a95aeef0736b7b44cffc4d32c64cb9d82846040516104b692919061171c565b60405180910390a15050505050565b5f60045f8381526020019081526020015f209050600115156104e683610d61565b151514610528576040517f08c379a000000000000000000000000000000000000000000000000000000000815260040161051f9061164c565b60405180910390fd5b600161053383610dbe565b14610573576040517f08c379a000000000000000000000000000000000000000000000000000000000815260040161056a906117c6565b60405180910390fd5b600115156105818385610ca8565b1515146105c3576040517f08c379a00000000000000000000000000000000000000000000000000000000081526004016105ba9061182e565b60405180910390fd5b600115156105d18385610282565b151514610613576040517f08c379a000000000000000000000000000000000000000000000000000000000815260040161060a90611896565b60405180910390fd5b5f816002015f8581526020019081526020015f20819055507f02beb14575cb76d93ca215a6eb5341536510f8d102a21ad1a0b9c086d0caffee828460405161065c929190611924565b60405180910390a1505050565b5f8060045f8481526020019081526020015f2090506001816004015f8673ffffffffffffffffffffffffffffffffffffffff1673ffffffffffffffffffffffffffffffffffffffff1681526020019081526020015f2054036106cf5760019150506106d4565b5f9150505b92915050565b5f60045f8481526020019081526020015f2090505f816004015f8473ffffffffffffffffffffffffffffffffffffffff1673ffffffffffffffffffffffffffffffffffffffff1681526020019081526020015f20819055507fb6b4e493a9247fb90495ec09db8e16879fe0ccf6f478ef5252b5de4559f319f282846040516107639291906119ce565b60405180910390a1505050565b5f60045f8381526020019081526020015f2090506001816004015f8573ffffffffffffffffffffffffffffffffffffffff1673ffffffffffffffffffffffffffffffffffffffff1681526020019081526020015f2081905550505050565b5f8060045f8481526020019081526020015f209050806005015f9054906101000a900473ffffffffffffffffffffffffffffffffffffffff16915050919050565b5f6001151561081d84610d61565b15151461085f576040517f08c379a00000000000000000000000000000000000000000000000000000000081526004016108569061164c565b60405180910390fd5b6001151561086d8484610ca8565b1515146108af576040517f08c379a00000000000000000000000000000000000000000000000000000000081526004016108a69061182e565b60405180910390fd5b600115156108bd8484610282565b1515146108ff576040517f08c379a00000000000000000000000000000000000000000000000000000000081526004016108f690611896565b60405180910390fd5b5f60045f8581526020019081526020015f2090505f816002015f8581526020019081526020015f20549050809250505092915050565b5f8282604051602001610949929190611a2c565b6040516020818303038152906040528051906020012090506001151561096e85610d61565b1515146109b0576040517f08c379a00000000000000000000000000000000000000000000000000000000081526004016109a79061164c565b60405180910390fd5b5f15156109bd8583610ca8565b1515146109ff576040517f08c379a00000000000000000000000000000000000000000000000000000000081526004016109f6906116b4565b60405180910390fd5b5f1515610a0c8583610282565b151514610a4e576040517f08c379a0000000000000000000000000000000000000000000000000000000008152600401610a4590611a8e565b60405180910390fd5b610a5881856102c7565b50505050565b60011515610a6b33610df2565b151514610aad576040517f08c379a0000000000000000000000000000000000000000000000000000000008152600401610aa490611af6565b60405180910390fd5b5f1515610ab982610d61565b151514610afb576040517f08c379a0000000000000000000000000000000000000000000000000000000008152600401610af290611b5e565b60405180910390fd5b6001610b0633610e9a565b14610b46576040517f08c379a0000000000000000000000000000000000000000000000000000000008152600401610b3d90611bec565b60405180910390fd5b5f60045f8381526020019081526020015f2090508383825f019182610b6c929190611e0e565b508383604051602001610b80929190611a2c565b60405160208183030381529060405280519060200120816001018190555033816005015f6101000a81548173ffffffffffffffffffffffffffffffffffffffff021916908373ffffffffffffffffffffffffffffffffffffffff1602179055506001816004015f3373ffffffffffffffffffffffffffffffffffffffff1673ffffffffffffffffffffffffffffffffffffffff1681526020019081526020015f2081905550601981600701819055504281600801819055505f8160090181905550600382908060018154018082558091505060019003905f5260205f20015f90919091909150557faee71d9492cd030b6aff4dbe33de0949b72c6aa0daacd8aef64bb8a683ca35d2848484604051610c9a93929190611f51565b60405180910390a150505050565b5f60011515610cb684610d61565b151514610cf8576040517f08c379a0000000000000000000000000000000000000000000000000000000008152600401610cef9061164c565b60405180910390fd5b5f60045f8581526020019081526020015f2090505f816002015f8581526020019081526020015f20541115610d31576001915050610d5b565b5f816003015f8581526020019081526020015f20541115610d56576001915050610d5b565b5f9150505b92915050565b5f805f90505b600380549050811015610db4578260038281548110610d8957610d88611f94565b5b905f5260205f20015403610da1576001915050610db9565b8080610dac90611fc1565b915050610d67565b505f90505b919050565b5f8060045f8481526020019081526020015f2090505f816009015403610de7575f915050610ded565b60019150505b919050565b5f805f90505b600280549050811015610e90578273ffffffffffffffffffffffffffffffffffffffff1660028281548110610e3057610e2f611f94565b5b905f5260205f20015f9054906101000a900473ffffffffffffffffffffffffffffffffffffffff1673ffffffffffffffffffffffffffffffffffffffff1603610e7d576001915050610e95565b8080610e8890611fc1565b915050610df8565b505f90505b919050565b5f60011515610ea883610df2565b151514610eea576040517f08c379a0000000000000000000000000000000000000000000000000000000008152600401610ee190611af6565b60405180910390fd5b60015f8373ffffffffffffffffffffffffffffffffffffffff1673ffffffffffffffffffffffffffffffffffffffff1681526020019081526020015f20549050919050565b5f604051905090565b5f80fd5b5f80fd5b5f819050919050565b610f5281610f40565b8114610f5c575f80fd5b50565b5f81359050610f6d81610f49565b92915050565b5f819050919050565b610f8581610f73565b8114610f8f575f80fd5b50565b5f81359050610fa081610f7c565b92915050565b5f8060408385031215610fbc57610fbb610f38565b5b5f610fc985828601610f5f565b9250506020610fda85828601610f92565b9150509250929050565b5f8115159050919050565b610ff881610fe4565b82525050565b5f6020820190506110115f830184610fef565b92915050565b5f806040838503121561102d5761102c610f38565b5b5f61103a85828601610f92565b925050602061104b85828601610f5f565b9150509250929050565b5f80fd5b5f80fd5b5f601f19601f8301169050919050565b7f4e487b71000000000000000000000000000000000000000000000000000000005f52604160045260245ffd5b6110a38261105d565b810181811067ffffffffffffffff821117156110c2576110c161106d565b5b80604052505050565b5f6110d4610f2f565b90506110e0828261109a565b919050565b5f67ffffffffffffffff8211156110ff576110fe61106d565b5b6111088261105d565b9050602081019050919050565b828183375f83830152505050565b5f611135611130846110e5565b6110cb565b90508281526020810184848401111561115157611150611059565b5b61115c848285611115565b509392505050565b5f82601f83011261117857611177611055565b5b8135611188848260208601611123565b91505092915050565b5f73ffffffffffffffffffffffffffffffffffffffff82169050919050565b5f6111ba82611191565b9050919050565b6111ca816111b0565b81146111d4575f80fd5b50565b5f813590506111e5816111c1565b92915050565b5f805f6060848603121561120257611201610f38565b5b5f61120f86828701610f5f565b935050602084013567ffffffffffffffff8111156112305761122f610f3c565b5b61123c86828701611164565b925050604061124d868287016111d7565b9150509250925092565b5f806040838503121561126d5761126c610f38565b5b5f61127a858286016111d7565b925050602061128b85828601610f5f565b9150509250929050565b5f80604083850312156112ab576112aa610f38565b5b5f6112b885828601610f5f565b92505060206112c9858286016111d7565b9150509250929050565b5f602082840312156112e8576112e7610f38565b5b5f6112f584828501610f5f565b91505092915050565b611307816111b0565b82525050565b5f6020820190506113205f8301846112fe565b92915050565b61132f81610f40565b82525050565b5f6020820190506113485f830184611326565b92915050565b5f80fd5b5f80fd5b5f8083601f84011261136b5761136a611055565b5b8235905067ffffffffffffffff8111156113885761138761134e565b5b6020830191508360018202830111156113a4576113a3611352565b5b9250929050565b5f805f604084860312156113c2576113c1610f38565b5b5f6113cf86828701610f5f565b935050602084013567ffffffffffffffff8111156113f0576113ef610f3c565b5b6113fc86828701611356565b92509250509250925092565b5f805f6040848603121561141f5761141e610f38565b5b5f84013567ffffffffffffffff81111561143c5761143b610f3c565b5b61144886828701611356565b9350935050602061145b86828701610f5f565b9150509250925092565b7f4e487b71000000000000000000000000000000000000000000000000000000005f52601160045260245ffd5b5f61149c82610f40565b91506114a783610f40565b92508282019050808211156114bf576114be611465565b5b92915050565b5f82825260208201905092915050565b7f45766964656e6365206173206265656e2061737369676e65642061206c6576655f8201527f6c00000000000000000000000000000000000000000000000000000000000000602082015250565b5f61152f6021836114c5565b915061153a826114d5565b604082019050919050565b61154e81610f73565b82525050565b5f6040820190508181035f83015261156b81611523565b905061157a6020830184611545565b92915050565b5f81519050919050565b5f81905092915050565b5f5b838110156115b1578082015181840152602081019050611596565b5f8484015250505050565b5f6115c682611580565b6115d0818561158a565b93506115e0818560208601611594565b80840191505092915050565b5f6115f782846115bc565b915081905092915050565b7f4361736520646f6573206e6f74206578697374730000000000000000000000005f82015250565b5f6116366014836114c5565b915061164182611602565b602082019050919050565b5f6020820190508181035f8301526116638161162a565b9050919050565b7f45766964656e63652065786973747300000000000000000000000000000000005f82015250565b5f61169e600f836114c5565b91506116a98261166a565b602082019050919050565b5f6020820190508181035f8301526116cb81611692565b9050919050565b7f45766964656e636520686173206265656e2072656769737465726564206279005f82015250565b5f611706601f836114c5565b9150611711826116d2565b602082019050919050565b5f6060820190508181035f830152611733816116fa565b90506117426020830185611545565b61174f60408301846112fe565b9392505050565b7f43617365206973207374696c6c206f70656e2e2043616e6e6f742064656c65745f8201527f652065766964656e636500000000000000000000000000000000000000000000602082015250565b5f6117b0602a836114c5565b91506117bb82611756565b604082019050919050565b5f6020820190508181035f8301526117dd816117a4565b9050919050565b7f45766964656e636520646f6573206e6f742065786973747300000000000000005f82015250565b5f6118186018836114c5565b9150611823826117e4565b602082019050919050565b5f6020820190508181035f8301526118458161180c565b9050919050565b7f45766964656e6365206e6f742076616c696400000000000000000000000000005f82015250565b5f6118806012836114c5565b915061188b8261184c565b602082019050919050565b5f6020820190508181035f8301526118ad81611874565b9050919050565b7f45766964656e63652066726f6d204361736520686173206265656e2064656c655f8201527f7465640000000000000000000000000000000000000000000000000000000000602082015250565b5f61190e6023836114c5565b9150611919826118b4565b604082019050919050565b5f6060820190508181035f83015261193b81611902565b905061194a6020830185611326565b6119576040830184611545565b9392505050565b7f496e76657374696761746f7220686173206265656e2072656d6f7665642066725f8201527f6f6d206361736500000000000000000000000000000000000000000000000000602082015250565b5f6119b86027836114c5565b91506119c38261195e565b604082019050919050565b5f6060820190508181035f8301526119e5816119ac565b90506119f460208301856112fe565b611a016040830184611326565b9392505050565b5f611a13838561158a565b9350611a20838584611115565b82840190509392505050565b5f611a38828486611a08565b91508190509392505050565b7f4c6576656c2061737369676e65640000000000000000000000000000000000005f82015250565b5f611a78600e836114c5565b9150611a8382611a44565b602082019050919050565b5f6020820190508181035f830152611aa581611a6c565b9050919050565b7f55736572206973206e6f742072656769737465726564000000000000000000005f82015250565b5f611ae06016836114c5565b9150611aeb82611aac565b602082019050919050565b5f6020820190508181035f830152611b0d81611ad4565b9050919050565b7f4361736520697320616c726561647920637265617465640000000000000000005f82015250565b5f611b486017836114c5565b9150611b5382611b14565b602082019050919050565b5f6020820190508181035f830152611b7581611b3c565b9050919050565b7f4f6e6c79204865616420496e76657374696761746f722063616e2063726561745f8201527f6520636173657300000000000000000000000000000000000000000000000000602082015250565b5f611bd66027836114c5565b9150611be182611b7c565b604082019050919050565b5f6020820190508181035f830152611c0381611bca565b9050919050565b5f82905092915050565b7f4e487b71000000000000000000000000000000000000000000000000000000005f52602260045260245ffd5b5f6002820490506001821680611c5857607f821691505b602082108103611c6b57611c6a611c14565b5b50919050565b5f819050815f5260205f209050919050565b5f6020601f8301049050919050565b5f82821b905092915050565b5f60088302611ccd7fffffffffffffffffffffffffffffffffffffffffffffffffffffffffffffffff82611c92565b611cd78683611c92565b95508019841693508086168417925050509392505050565b5f819050919050565b5f611d12611d0d611d0884610f40565b611cef565b610f40565b9050919050565b5f819050919050565b611d2b83611cf8565b611d3f611d3782611d19565b848454611c9e565b825550505050565b5f90565b611d53611d47565b611d5e818484611d22565b505050565b5b81811015611d8157611d765f82611d4b565b600181019050611d64565b5050565b601f821115611dc657611d9781611c71565b611da084611c83565b81016020851015611daf578190505b611dc3611dbb85611c83565b830182611d63565b50505b505050565b5f82821c905092915050565b5f611de65f1984600802611dcb565b1980831691505092915050565b5f611dfe8383611dd7565b9150826002028217905092915050565b611e188383611c0a565b67ffffffffffffffff811115611e3157611e3061106d565b5b611e3b8254611c41565b611e46828285611d85565b5f601f831160018114611e73575f8415611e61578287013590505b611e6b8582611df3565b865550611ed2565b601f198416611e8186611c71565b5f5b82811015611ea857848901358255600182019150602085019450602081019050611e83565b86831015611ec55784890135611ec1601f891682611dd7565b8355505b6001600288020188555050505b50505050505050565b7f43617365205265676973746572656400000000000000000000000000000000005f82015250565b5f611f0f600f836114c5565b9150611f1a82611edb565b602082019050919050565b5f611f3083856114c5565b9350611f3d838584611115565b611f468361105d565b840190509392505050565b5f6060820190508181035f830152611f6881611f03565b90508181036020830152611f7d818587611f25565b9050611f8c6040830184611326565b949350505050565b7f4e487b71000000000000000000000000000000000000000000000000000000005f52603260045260245ffd5b5f611fcb82610f40565b91507fffffffffffffffffffffffffffffffffffffffffffffffffffffffffffffffff8203611ffd57611ffc611465565b5b60018201905091905056fea2646970667358221220e0be0696f7884c8862805e88920f78b3e6b98e19e4ef92f216cec30aeb5fc3f864736f6c63430008150033",
  "immutableReferences": {},
  "source": "// SPDX-License-Identifier: MIT\r\npragma solidity ^0.8.17;\r\n\r\nimport \"./AssignRole.sol\";\r\nimport \"./Case.sol\";\r\n\r\n///@title allows user to read an existing evidence\r\n\r\ncontract BibaRead is AssignRole, Case {\r\n    mapping(address => bytes32) private ReadEvidence; // keep track of which user read which evidence, one user can read multiple evidences so like is this needed\r\n\r\n    event ReadAllowed(string, address, bytes32); // event for blockchain\r\n\r\n    function read_allowed(\r\n        bytes32 key,\r\n        address ad_user,\r\n        uint case_num\r\n    ) private returns (bool) {\r\n        require(\r\n            is_authorized(ad_user, case_num) == true,\r\n            \"Cannot interact with this evidence\"\r\n        ); // checking DAC\r\n        require(\r\n            is_level_assigned(case_num, key) == true,\r\n            \"Evidnece cannot be interacted with , it has not been assigned a level\"\r\n        ); // unassigned levels\r\n        uint L = return_level(case_num, key);\r\n        uint R = returnRole(ad_user);\r\n\r\n        bool val = (R <= L);\r\n        require(val == true, \"User is not authorized to read evidence\");\r\n        emit ReadAllowed(\"User has read evidence\", ad_user, key);\r\n        return true;\r\n    }\r\n}\r\n",
  "sourcePath": "D:\\Leveraging-Blockchain-for-Auditable-Access-Control\\contracts\\BibaRead.sol",
  "compiler": {
    "name": "solc",
    "version": "0.8.21+commit.d9974bed.Emscripten.clang"
  },
  "schemaVersion": "3.4.16",
  "updatedAt": "2024-11-03T09:40:22.015Z",
  "devdoc": {
    "kind": "dev",
    "methods": {
      "createcase(string,uint256)": {
        "params": {
          "name": "Name of the Case File ; @param case_number Unique Number assigned to case"
        }
      },
      "is_authorized(address,uint256)": {
        "params": {
          "user": "address of user requesting access; @param number Unique Case Number"
        }
      },
      "register_evi(uint256,string,address)": {
        "params": {
          "case_num": "Unique case ID; @param ev information ; @param user address of requestor"
        }
      },
      "return_level(uint256,bytes32)": {
        "params": {
          "key": "unique identifier of evidence"
        }
      }
    },
    "title": "allows user to read an existing evidence",
    "version": 1
  },
  "userdoc": {
    "kind": "user",
    "methods": {
      "add_investigator(address,uint256)": {
        "notice": "this introduces DAC, allows Head Investigator to modify access rights"
      },
      "createcase(string,uint256)": {
        "notice": "creates a case"
      },
      "delete_evidence(bytes32,uint256)": {
        "notice": "allows deletion of evidence"
      },
      "does_evidence_exists(uint256,bytes32)": {
        "notice": "checks whethere evidence exists"
      },
      "is_authorized(address,uint256)": {
        "notice": "returns whether an user is authorised to work on a case"
      },
      "is_level_assigned(uint256,bytes32)": {
        "notice": "checks whether level is assigned to evidence"
      },
      "register_evi(uint256,string,address)": {
        "notice": "allows user to register new information"
      },
      "remove_investigator(uint256,address)": {
        "notice": "DAC policy allows removal of an investigator from case"
      },
      "returnHI(uint256)": {
        "notice": "returns Head Investigator of a case"
      },
      "return_level(uint256,bytes32)": {
        "notice": "return level of integrity assigned to an evidence"
      },
      "setlevel(bytes32,uint256)": {
        "notice": "allows Head Investigator to assign integrity level to an evidence"
      }
    },
    "version": 1
  }
}