{
  "contractName": "Case",
  "abi": [
    {
      "inputs": [],
      "stateMutability": "nonpayable",
      "type": "constructor"
    },
    {
      "anonymous": false,
      "inputs": [
        {
          "indexed": false,
          "internalType": "string",
          "name": "",
          "type": "string"
        },
        {
          "indexed": false,
          "internalType": "bytes32",
          "name": "",
          "type": "bytes32"
        }
      ],
      "name": "EvidenceAssignedLevel",
      "type": "event"
    },
    {
      "anonymous": false,
      "inputs": [
        {
          "indexed": false,
          "internalType": "string",
          "name": "",
          "type": "string"
        },
        {
          "indexed": false,
          "internalType": "bytes32",
          "name": "",
          "type": "bytes32"
        },
        {
          "indexed": false,
          "internalType": "address",
          "name": "",
          "type": "address"
        }
      ],
      "name": "EvidenceRegistered",
      "type": "event"
    },
    {
      "anonymous": false,
      "inputs": [
        {
          "indexed": false,
          "internalType": "string",
          "name": "",
          "type": "string"
        },
        {
          "indexed": false,
          "internalType": "address",
          "name": "",
          "type": "address"
        },
        {
          "indexed": false,
          "internalType": "uint256",
          "name": "",
          "type": "uint256"
        }
      ],
      "name": "InvestigatorRemoved",
      "type": "event"
    },
    {
      "anonymous": false,
      "inputs": [
        {
          "indexed": false,
          "internalType": "string",
          "name": "",
          "type": "string"
        },
        {
          "indexed": false,
          "internalType": "string",
          "name": "",
          "type": "string"
        },
        {
          "indexed": false,
          "internalType": "uint256",
          "name": "",
          "type": "uint256"
        }
      ],
      "name": "RegistrationDone",
      "type": "event"
    },
    {
      "inputs": [],
      "name": "assignrole",
      "outputs": [
        {
          "internalType": "contract AssignRole",
          "name": "",
          "type": "address"
        }
      ],
      "stateMutability": "view",
      "type": "function"
    },
    {
      "inputs": [
        {
          "internalType": "uint256",
          "name": "num",
          "type": "uint256"
        }
      ],
      "name": "does_case_exists",
      "outputs": [
        {
          "internalType": "bool",
          "name": "",
          "type": "bool"
        }
      ],
      "stateMutability": "view",
      "type": "function"
    },
    {
      "inputs": [
        {
          "internalType": "string",
          "name": "name",
          "type": "string"
        },
        {
          "internalType": "uint256",
          "name": "case_number",
          "type": "uint256"
        }
      ],
      "name": "createcase",
      "outputs": [],
      "stateMutability": "payable",
      "type": "function"
    },
    {
      "inputs": [
        {
          "internalType": "uint256",
          "name": "case_number",
          "type": "uint256"
        }
      ],
      "name": "returnHI",
      "outputs": [
        {
          "internalType": "address",
          "name": "",
          "type": "address"
        }
      ],
      "stateMutability": "payable",
      "type": "function"
    },
    {
      "inputs": [
        {
          "internalType": "address",
          "name": "user",
          "type": "address"
        },
        {
          "internalType": "uint256",
          "name": "number",
          "type": "uint256"
        }
      ],
      "name": "is_authorized",
      "outputs": [
        {
          "internalType": "bool",
          "name": "",
          "type": "bool"
        }
      ],
      "stateMutability": "view",
      "type": "function"
    },
    {
      "inputs": [
        {
          "internalType": "address",
          "name": "inv",
          "type": "address"
        },
        {
          "internalType": "uint256",
          "name": "num",
          "type": "uint256"
        }
      ],
      "name": "add_investigator",
      "outputs": [],
      "stateMutability": "payable",
      "type": "function"
    },
    {
      "inputs": [
        {
          "internalType": "uint256",
          "name": "case_number",
          "type": "uint256"
        },
        {
          "internalType": "bytes32",
          "name": "key",
          "type": "bytes32"
        }
      ],
      "name": "does_evidence_exists",
      "outputs": [
        {
          "internalType": "bool",
          "name": "",
          "type": "bool"
        }
      ],
      "stateMutability": "view",
      "type": "function"
    },
    {
      "inputs": [
        {
          "internalType": "uint256",
          "name": "case_number",
          "type": "uint256"
        },
        {
          "internalType": "bytes32",
          "name": "key",
          "type": "bytes32"
        }
      ],
      "name": "is_level_assigned",
      "outputs": [
        {
          "internalType": "bool",
          "name": "",
          "type": "bool"
        }
      ],
      "stateMutability": "view",
      "type": "function"
    },
    {
      "inputs": [
        {
          "internalType": "uint256",
          "name": "case_number",
          "type": "uint256"
        },
        {
          "internalType": "address",
          "name": "inv",
          "type": "address"
        }
      ],
      "name": "remove_investigator",
      "outputs": [],
      "stateMutability": "payable",
      "type": "function"
    },
    {
      "inputs": [
        {
          "internalType": "bytes32",
          "name": "key",
          "type": "bytes32"
        },
        {
          "internalType": "uint256",
          "name": "case_num",
          "type": "uint256"
        }
      ],
      "name": "setlevel",
      "outputs": [],
      "stateMutability": "payable",
      "type": "function"
    },
    {
      "inputs": [
        {
          "internalType": "uint256",
          "name": "case_num",
          "type": "uint256"
        },
        {
          "internalType": "string",
          "name": "ev",
          "type": "string"
        }
      ],
      "name": "assign_inl",
      "outputs": [],
      "stateMutability": "payable",
      "type": "function"
    },
    {
      "inputs": [
        {
          "internalType": "uint256",
          "name": "case_num",
          "type": "uint256"
        },
        {
          "internalType": "string",
          "name": "ev",
          "type": "string"
        },
        {
          "internalType": "address",
          "name": "user",
          "type": "address"
        }
      ],
      "name": "register_evi",
      "outputs": [],
      "stateMutability": "payable",
      "type": "function"
    },
    {
      "inputs": [
        {
          "internalType": "uint256",
          "name": "case_num",
          "type": "uint256"
        },
        {
          "internalType": "bytes32",
          "name": "key",
          "type": "bytes32"
        }
      ],
      "name": "return_level",
      "outputs": [
        {
          "internalType": "uint256",
          "name": "",
          "type": "uint256"
        }
      ],
      "stateMutability": "payable",
      "type": "function"
    }
  ],
  "bytecode": "0x608060405234801561000f575f80fd5b5060405161001c90610079565b604051809103905ff080158015610035573d5f803e3d5ffd5b505f806101000a81548173ffffffffffffffffffffffffffffffffffffffff021916908373ffffffffffffffffffffffffffffffffffffffff160217905550610086565b610c5080611cca83390190565b611c37806100935f395ff3fe6080604052600436106100c1575f3560e01c806374bab7601161007e578063b929a09211610058578063b929a09214610237578063bffc4bbf14610273578063d07a3b681461028f578063f7bb8893146102ab576100c1565b806374bab760146101ad57806375eec87b146101dd578063ac50417c14610207576100c1565b806305805e02146100c55780631c6513d314610101578063257dbfc31461011d57806359ea8ddd1461013957806364093834146101755780636cad4fa614610191575b5f80fd5b3480156100d0575f80fd5b506100eb60048036038101906100e69190610d32565b6102e7565b6040516100f89190610d8a565b60405180910390f35b61011b60048036038101906101169190610da3565b61032c565b005b61013760048036038101906101329190610f77565b6103da565b005b348015610144575f80fd5b5061015f600480360381019061015a9190610fe3565b61052a565b60405161016c9190610d8a565b60405180910390f35b61018f600480360381019061018a9190611021565b61059b565b005b6101ab60048036038101906101a69190610fe3565b610631565b005b6101c760048036038101906101c2919061105f565b61068f565b6040516101d49190611099565b60405180910390f35b3480156101e8575f80fd5b506101f16106d0565b6040516101fe919061110d565b60405180910390f35b610221600480360381019061021c9190610d32565b6106f3565b60405161022e9190611135565b60405180910390f35b348015610242575f80fd5b5061025d6004803603810190610258919061105f565b610819565b60405161026a9190610d8a565b60405180910390f35b61028d6004803603810190610288919061114e565b610876565b005b6102a960048036038101906102a491906111a8565b61099c565b005b3480156102b6575f80fd5b506102d160048036038101906102cc9190610d32565b610c02565b6040516102de9190610d8a565b60405180910390f35b5f8060025f8581526020019081526020015f2090506001816003015f8581526020019081526020015f205403610320575f915050610326565b60019150505b92915050565b5f60025f8381526020019081526020015f2090505f816006015490505f810361035f5760018161035c919061122f565b90505b600781111561036d57600790505b80826002015f8681526020019081526020015f20819055505f826003015f8681526020019081526020015f20819055507fa5b14494dc23eecde6552fb600b649e07cd8469e1e6738027781646914acfad8846040516103cc91906112f1565b60405180910390a150505050565b5f826040516020016103ec9190611389565b6040516020818303038152906040528051906020012090506001151561041185610819565b151514610453576040517f08c379a000000000000000000000000000000000000000000000000000000000815260040161044a906113e9565b60405180910390fd5b5f15156104608583610c02565b1515146104a2576040517f08c379a000000000000000000000000000000000000000000000000000000000815260040161049990611451565b60405180910390fd5b5f60025f8681526020019081526020015f2090506001816003015f8481526020019081526020015f20819055506001816006015f8282546104e3919061122f565b925050819055507fc1af16f5f8e3c3b57e2843dd14aab5832a95aeef0736b7b44cffc4d32c64cb9d828460405161051b9291906114b9565b60405180910390a15050505050565b5f8060025f8481526020019081526020015f2090506001816004015f8673ffffffffffffffffffffffffffffffffffffffff1673ffffffffffffffffffffffffffffffffffffffff1681526020019081526020015f205403610590576001915050610595565b5f9150505b92915050565b5f60025f8481526020019081526020015f2090505f816004015f8473ffffffffffffffffffffffffffffffffffffffff1673ffffffffffffffffffffffffffffffffffffffff1681526020019081526020015f20819055507fb6b4e493a9247fb90495ec09db8e16879fe0ccf6f478ef5252b5de4559f319f28284604051610624929190611563565b60405180910390a1505050565b5f60025f8381526020019081526020015f2090506001816004015f8573ffffffffffffffffffffffffffffffffffffffff1673ffffffffffffffffffffffffffffffffffffffff1681526020019081526020015f2081905550505050565b5f8060025f8481526020019081526020015f209050806005015f9054906101000a900473ffffffffffffffffffffffffffffffffffffffff16915050919050565b5f8054906101000a900473ffffffffffffffffffffffffffffffffffffffff1681565b5f6001151561070184610819565b151514610743576040517f08c379a000000000000000000000000000000000000000000000000000000000815260040161073a906113e9565b60405180910390fd5b600115156107518484610c02565b151514610793576040517f08c379a000000000000000000000000000000000000000000000000000000000815260040161078a906115e7565b60405180910390fd5b600115156107a184846102e7565b1515146107e3576040517f08c379a00000000000000000000000000000000000000000000000000000000081526004016107da9061164f565b60405180910390fd5b5f60025f8581526020019081526020015f2090505f816002015f8581526020019081526020015f20549050809250505092915050565b5f805f90505b60018054905081101561086c5782600182815481106108415761084061166d565b5b905f5260205f20015403610859576001915050610871565b80806108649061169a565b91505061081f565b505f90505b919050565b5f816040516020016108889190611389565b604051602081830303815290604052805190602001209050600115156108ad84610819565b1515146108ef576040517f08c379a00000000000000000000000000000000000000000000000000000000081526004016108e6906113e9565b60405180910390fd5b5f15156108fc8483610c02565b15151461093e576040517f08c379a000000000000000000000000000000000000000000000000000000000815260040161093590611451565b60405180910390fd5b5f151561094b84836102e7565b15151461098d576040517f08c379a00000000000000000000000000000000000000000000000000000000081526004016109849061172b565b60405180910390fd5b610997818461032c565b505050565b5f15156109a882610819565b1515146109ea576040517f08c379a00000000000000000000000000000000000000000000000000000000081526004016109e190611793565b60405180910390fd5b60015f8054906101000a900473ffffffffffffffffffffffffffffffffffffffff1673ffffffffffffffffffffffffffffffffffffffff16634cc70a0f336040518263ffffffff1660e01b8152600401610a449190611099565b602060405180830381865afa158015610a5f573d5f803e3d5ffd5b505050506040513d601f19601f82011682018060405250810190610a8391906117c5565b14610ac3576040517f08c379a0000000000000000000000000000000000000000000000000000000008152600401610aba90611860565b60405180910390fd5b5f60025f8381526020019081526020015f20905082815f019081610ae79190611a6f565b5082604051602001610af99190611389565b60405160208183030381529060405280519060200120816001018190555033816005015f6101000a81548173ffffffffffffffffffffffffffffffffffffffff021916908373ffffffffffffffffffffffffffffffffffffffff1602179055506001816004015f3373ffffffffffffffffffffffffffffffffffffffff1673ffffffffffffffffffffffffffffffffffffffff1681526020019081526020015f2081905550600182908060018154018082558091505060019003905f5260205f20015f90919091909150557faee71d9492cd030b6aff4dbe33de0949b72c6aa0daacd8aef64bb8a683ca35d28383604051610bf5929190611bc0565b60405180910390a1505050565b5f60011515610c1084610819565b151514610c52576040517f08c379a0000000000000000000000000000000000000000000000000000000008152600401610c49906113e9565b60405180910390fd5b5f60025f8581526020019081526020015f2090505f816002015f8581526020019081526020015f20541115610c8b576001915050610cb5565b5f816003015f8581526020019081526020015f20541115610cb0576001915050610cb5565b5f9150505b92915050565b5f604051905090565b5f80fd5b5f80fd5b5f819050919050565b610cde81610ccc565b8114610ce8575f80fd5b50565b5f81359050610cf981610cd5565b92915050565b5f819050919050565b610d1181610cff565b8114610d1b575f80fd5b50565b5f81359050610d2c81610d08565b92915050565b5f8060408385031215610d4857610d47610cc4565b5b5f610d5585828601610ceb565b9250506020610d6685828601610d1e565b9150509250929050565b5f8115159050919050565b610d8481610d70565b82525050565b5f602082019050610d9d5f830184610d7b565b92915050565b5f8060408385031215610db957610db8610cc4565b5b5f610dc685828601610d1e565b9250506020610dd785828601610ceb565b9150509250929050565b5f80fd5b5f80fd5b5f601f19601f8301169050919050565b7f4e487b71000000000000000000000000000000000000000000000000000000005f52604160045260245ffd5b610e2f82610de9565b810181811067ffffffffffffffff82111715610e4e57610e4d610df9565b5b80604052505050565b5f610e60610cbb565b9050610e6c8282610e26565b919050565b5f67ffffffffffffffff821115610e8b57610e8a610df9565b5b610e9482610de9565b9050602081019050919050565b828183375f83830152505050565b5f610ec1610ebc84610e71565b610e57565b905082815260208101848484011115610edd57610edc610de5565b5b610ee8848285610ea1565b509392505050565b5f82601f830112610f0457610f03610de1565b5b8135610f14848260208601610eaf565b91505092915050565b5f73ffffffffffffffffffffffffffffffffffffffff82169050919050565b5f610f4682610f1d565b9050919050565b610f5681610f3c565b8114610f60575f80fd5b50565b5f81359050610f7181610f4d565b92915050565b5f805f60608486031215610f8e57610f8d610cc4565b5b5f610f9b86828701610ceb565b935050602084013567ffffffffffffffff811115610fbc57610fbb610cc8565b5b610fc886828701610ef0565b9250506040610fd986828701610f63565b9150509250925092565b5f8060408385031215610ff957610ff8610cc4565b5b5f61100685828601610f63565b925050602061101785828601610ceb565b9150509250929050565b5f806040838503121561103757611036610cc4565b5b5f61104485828601610ceb565b925050602061105585828601610f63565b9150509250929050565b5f6020828403121561107457611073610cc4565b5b5f61108184828501610ceb565b91505092915050565b61109381610f3c565b82525050565b5f6020820190506110ac5f83018461108a565b92915050565b5f819050919050565b5f6110d56110d06110cb84610f1d565b6110b2565b610f1d565b9050919050565b5f6110e6826110bb565b9050919050565b5f6110f7826110dc565b9050919050565b611107816110ed565b82525050565b5f6020820190506111205f8301846110fe565b92915050565b61112f81610ccc565b82525050565b5f6020820190506111485f830184611126565b92915050565b5f806040838503121561116457611163610cc4565b5b5f61117185828601610ceb565b925050602083013567ffffffffffffffff81111561119257611191610cc8565b5b61119e85828601610ef0565b9150509250929050565b5f80604083850312156111be576111bd610cc4565b5b5f83013567ffffffffffffffff8111156111db576111da610cc8565b5b6111e785828601610ef0565b92505060206111f885828601610ceb565b9150509250929050565b7f4e487b71000000000000000000000000000000000000000000000000000000005f52601160045260245ffd5b5f61123982610ccc565b915061124483610ccc565b925082820190508082111561125c5761125b611202565b5b92915050565b5f82825260208201905092915050565b7f45766964656e6365206173206265656e2061737369676e65642061206c6576655f8201527f6c00000000000000000000000000000000000000000000000000000000000000602082015250565b5f6112cc602183611262565b91506112d782611272565b604082019050919050565b6112eb81610cff565b82525050565b5f6040820190508181035f830152611308816112c0565b905061131760208301846112e2565b92915050565b5f81519050919050565b5f81905092915050565b5f5b8381101561134e578082015181840152602081019050611333565b5f8484015250505050565b5f6113638261131d565b61136d8185611327565b935061137d818560208601611331565b80840191505092915050565b5f6113948284611359565b915081905092915050565b7f4361736520646f6573206e6f74206578697374730000000000000000000000005f82015250565b5f6113d3601483611262565b91506113de8261139f565b602082019050919050565b5f6020820190508181035f830152611400816113c7565b9050919050565b7f45766964656e63652065786973747300000000000000000000000000000000005f82015250565b5f61143b600f83611262565b915061144682611407565b602082019050919050565b5f6020820190508181035f8301526114688161142f565b9050919050565b7f45766964656e636520686173206265656e2072656769737465726564206279005f82015250565b5f6114a3601f83611262565b91506114ae8261146f565b602082019050919050565b5f6060820190508181035f8301526114d081611497565b90506114df60208301856112e2565b6114ec604083018461108a565b9392505050565b7f496e76657374696761746f7220686173206265656e2072656d6f7665642066725f8201527f6f6d206361736500000000000000000000000000000000000000000000000000602082015250565b5f61154d602783611262565b9150611558826114f3565b604082019050919050565b5f6060820190508181035f83015261157a81611541565b9050611589602083018561108a565b6115966040830184611126565b9392505050565b7f45766964656e636520646f6573206e6f742065786973747300000000000000005f82015250565b5f6115d1601883611262565b91506115dc8261159d565b602082019050919050565b5f6020820190508181035f8301526115fe816115c5565b9050919050565b7f45766964656e6365206e6f742076616c696400000000000000000000000000005f82015250565b5f611639601283611262565b915061164482611605565b602082019050919050565b5f6020820190508181035f8301526116668161162d565b9050919050565b7f4e487b71000000000000000000000000000000000000000000000000000000005f52603260045260245ffd5b5f6116a482610ccc565b91507fffffffffffffffffffffffffffffffffffffffffffffffffffffffffffffffff82036116d6576116d5611202565b5b600182019050919050565b7f4c6576656c2061737369676e65640000000000000000000000000000000000005f82015250565b5f611715600e83611262565b9150611720826116e1565b602082019050919050565b5f6020820190508181035f83015261174281611709565b9050919050565b7f4361736520697320616c726561647920637265617465640000000000000000005f82015250565b5f61177d601783611262565b915061178882611749565b602082019050919050565b5f6020820190508181035f8301526117aa81611771565b9050919050565b5f815190506117bf81610cd5565b92915050565b5f602082840312156117da576117d9610cc4565b5b5f6117e7848285016117b1565b91505092915050565b7f4f6e6c79204865616420496e76657374696761746f722063616e2063726561745f8201527f6520636173657300000000000000000000000000000000000000000000000000602082015250565b5f61184a602783611262565b9150611855826117f0565b604082019050919050565b5f6020820190508181035f8301526118778161183e565b9050919050565b7f4e487b71000000000000000000000000000000000000000000000000000000005f52602260045260245ffd5b5f60028204905060018216806118c257607f821691505b6020821081036118d5576118d461187e565b5b50919050565b5f819050815f5260205f209050919050565b5f6020601f8301049050919050565b5f82821b905092915050565b5f600883026119377fffffffffffffffffffffffffffffffffffffffffffffffffffffffffffffffff826118fc565b61194186836118fc565b95508019841693508086168417925050509392505050565b5f61197361196e61196984610ccc565b6110b2565b610ccc565b9050919050565b5f819050919050565b61198c83611959565b6119a06119988261197a565b848454611908565b825550505050565b5f90565b6119b46119a8565b6119bf818484611983565b505050565b5b818110156119e2576119d75f826119ac565b6001810190506119c5565b5050565b601f821115611a27576119f8816118db565b611a01846118ed565b81016020851015611a10578190505b611a24611a1c856118ed565b8301826119c4565b50505b505050565b5f82821c905092915050565b5f611a475f1984600802611a2c565b1980831691505092915050565b5f611a5f8383611a38565b9150826002028217905092915050565b611a788261131d565b67ffffffffffffffff811115611a9157611a90610df9565b5b611a9b82546118ab565b611aa68282856119e6565b5f60209050601f831160018114611ad7575f8415611ac5578287015190505b611acf8582611a54565b865550611b36565b601f198416611ae5866118db565b5f5b82811015611b0c57848901518255600182019150602085019450602081019050611ae7565b86831015611b295784890151611b25601f891682611a38565b8355505b6001600288020188555050505b505050505050565b7f43617365205265676973746572656400000000000000000000000000000000005f82015250565b5f611b72600f83611262565b9150611b7d82611b3e565b602082019050919050565b5f611b928261131d565b611b9c8185611262565b9350611bac818560208601611331565b611bb581610de9565b840191505092915050565b5f6060820190508181035f830152611bd781611b66565b90508181036020830152611beb8185611b88565b9050611bfa6040830184611126565b939250505056fea2646970667358221220e842001e14ae7d660a2f7b129e6d51530a4b7e1e7309094e3167546213939acc64736f6c63430008150033608060405234801562000010575f80fd5b5060015f6040516200002290620000d8565b90815260200160405180910390208190555060045f60405162000045906200013c565b90815260200160405180910390208190555060075f6040516200006890620001a0565b908152602001604051809103902081905550620001b6565b5f81905092915050565b7f4865616420496e76657374696761746f720000000000000000000000000000005f82015250565b5f620000c060118362000080565b9150620000cd826200008a565b601182019050919050565b5f620000e482620000b2565b9150819050919050565b7f4c65616420496e76657374696761746f720000000000000000000000000000005f82015250565b5f6200012460118362000080565b91506200013182620000ee565b601182019050919050565b5f620001488262000116565b9150819050919050565b7f5465616d20496e76657374696761746f720000000000000000000000000000005f82015250565b5f6200018860118362000080565b9150620001958262000152565b601182019050919050565b5f620001ac826200017a565b9150819050919050565b610a8c80620001c45f395ff3fe608060405260043610610049575f3560e01c80630217264a1461004d57806335e8acfb1461007d5780634cc70a0f146100b95780638a7c6290146100f5578063cfde189014610131575b5f80fd5b610067600480360381019061006291906105ce565b61014d565b604051610074919061062d565b60405180910390f35b348015610088575f80fd5b506100a3600480360381019061009e91906106a0565b610173565b6040516100b0919061062d565b60405180910390f35b3480156100c4575f80fd5b506100df60048036038101906100da91906106a0565b610188565b6040516100ec919061062d565b60405180910390f35b348015610100575f80fd5b5061011b600480360381019061011691906106a0565b61021d565b60405161012891906106e5565b60405180910390f35b61014b600480360381019061014691906106fe565b6102c5565b005b5f808260405161015d91906107c4565b9081526020016040518091039020549050919050565b6001602052805f5260405f205f915090505481565b5f600115156101968361021d565b1515146101d8576040517f08c379a00000000000000000000000000000000000000000000000000000000081526004016101cf90610834565b60405180910390fd5b60015f8373ffffffffffffffffffffffffffffffffffffffff1673ffffffffffffffffffffffffffffffffffffffff1681526020019081526020015f20549050919050565b5f805f90505b6002805490508110156102bb578273ffffffffffffffffffffffffffffffffffffffff166002828154811061025b5761025a610852565b5b905f5260205f20015f9054906101000a900473ffffffffffffffffffffffffffffffffffffffff1673ffffffffffffffffffffffffffffffffffffffff16036102a85760019150506102c0565b80806102b3906108ac565b915050610223565b505f90505b919050565b5f15156102d18261021d565b151514610313576040517f08c379a000000000000000000000000000000000000000000000000000000000815260040161030a9061093d565b60405180910390fd5b5f61031d8361014d565b1161035d576040517f08c379a0000000000000000000000000000000000000000000000000000000008152600401610354906109a5565b60405180910390fd5b6103668261014d565b60015f8373ffffffffffffffffffffffffffffffffffffffff1673ffffffffffffffffffffffffffffffffffffffff1681526020019081526020015f2081905550600281908060018154018082558091505060019003905f5260205f20015f9091909190916101000a81548173ffffffffffffffffffffffffffffffffffffffff021916908373ffffffffffffffffffffffffffffffffffffffff1602179055507f9c0eb221526fb70b62525801ad417c3ba7a71a0f5dbae6cb7e9f6d64f776f85d8160015f8473ffffffffffffffffffffffffffffffffffffffff1673ffffffffffffffffffffffffffffffffffffffff1681526020019081526020015f2054604051610475929190610a1c565b60405180910390a15050565b5f604051905090565b5f80fd5b5f80fd5b5f80fd5b5f80fd5b5f601f19601f8301169050919050565b7f4e487b71000000000000000000000000000000000000000000000000000000005f52604160045260245ffd5b6104e08261049a565b810181811067ffffffffffffffff821117156104ff576104fe6104aa565b5b80604052505050565b5f610511610481565b905061051d82826104d7565b919050565b5f67ffffffffffffffff82111561053c5761053b6104aa565b5b6105458261049a565b9050602081019050919050565b828183375f83830152505050565b5f61057261056d84610522565b610508565b90508281526020810184848401111561058e5761058d610496565b5b610599848285610552565b509392505050565b5f82601f8301126105b5576105b4610492565b5b81356105c5848260208601610560565b91505092915050565b5f602082840312156105e3576105e261048a565b5b5f82013567ffffffffffffffff811115610600576105ff61048e565b5b61060c848285016105a1565b91505092915050565b5f819050919050565b61062781610615565b82525050565b5f6020820190506106405f83018461061e565b92915050565b5f73ffffffffffffffffffffffffffffffffffffffff82169050919050565b5f61066f82610646565b9050919050565b61067f81610665565b8114610689575f80fd5b50565b5f8135905061069a81610676565b92915050565b5f602082840312156106b5576106b461048a565b5b5f6106c28482850161068c565b91505092915050565b5f8115159050919050565b6106df816106cb565b82525050565b5f6020820190506106f85f8301846106d6565b92915050565b5f80604083850312156107145761071361048a565b5b5f83013567ffffffffffffffff8111156107315761073061048e565b5b61073d858286016105a1565b925050602061074e8582860161068c565b9150509250929050565b5f81519050919050565b5f81905092915050565b5f5b8381101561078957808201518184015260208101905061076e565b5f8484015250505050565b5f61079e82610758565b6107a88185610762565b93506107b881856020860161076c565b80840191505092915050565b5f6107cf8284610794565b915081905092915050565b5f82825260208201905092915050565b7f55736572206973206e6f742072656769737465726564000000000000000000005f82015250565b5f61081e6016836107da565b9150610829826107ea565b602082019050919050565b5f6020820190508181035f83015261084b81610812565b9050919050565b7f4e487b71000000000000000000000000000000000000000000000000000000005f52603260045260245ffd5b7f4e487b71000000000000000000000000000000000000000000000000000000005f52601160045260245ffd5b5f6108b682610615565b91507fffffffffffffffffffffffffffffffffffffffffffffffffffffffffffffffff82036108e8576108e761087f565b5b600182019050919050565b7f5573657220416c726561647920526567697374657265640000000000000000005f82015250565b5f6109276017836107da565b9150610932826108f3565b602082019050919050565b5f6020820190508181035f8301526109548161091b565b9050919050565b7f496e76616c69642064657369676e6174696f6e000000000000000000000000005f82015250565b5f61098f6013836107da565b915061099a8261095b565b602082019050919050565b5f6020820190508181035f8301526109bc81610983565b9050919050565b7f205573657220526567697374726174696f6e20436f6d706c65746564000000005f82015250565b5f6109f7601c836107da565b9150610a02826109c3565b602082019050919050565b610a1681610665565b82525050565b5f6060820190508181035f830152610a33816109eb565b9050610a426020830185610a0d565b610a4f604083018461061e565b939250505056fea2646970667358221220beef72145f4df6d69ce2db36640d1100071fbe2367829c179d33cef71d55cdbd64736f6c63430008150033",
  "immutableReferences": {},
  "source": "// SPDX-License-Identifier: MIT\r\npragma solidity ^0.8.17;\r\n\r\nimport \"./AssignRole.sol\";\r\n\r\n///@title this contract checks whether requestor is head investigator or not \r\n///and then allows creation of case\r\n\r\ncontract Case{\r\n    AssignRole public assignrole;\r\n    constructor () {\r\n      assignrole = new AssignRole(); \r\n    }\r\n    \r\n    struct SCase{\r\n        string ID;\r\n        bytes32 IDhash;\r\n        mapping (bytes32 => uint) AssignedEvidences;\r\n        mapping (bytes32 => uint) UnassignedEvidences;\r\n        mapping (address => uint) investigators; // list is expensive , use mapping instead\r\n        address HI;\r\n        uint evid;\r\n    }\r\n    uint[] Cases; \r\n    mapping(uint => SCase) cases; // keep track of mulitple cases running\r\n    // create a case , check for head investigator \r\n    event RegistrationDone(string, string, uint);\r\n    event InvestigatorRemoved(string, address, uint);\r\n    event EvidenceAssignedLevel(string, bytes32);\r\n    event EvidenceRegistered(string, bytes32, address);\r\n    \r\n    function does_case_exists(uint num) public view returns(bool){\r\n        for(uint i =0; i<Cases.length; i++){\r\n            if(Cases[i] == num){\r\n                return true;\r\n            }\r\n        }\r\n        return false;\r\n    }\r\n\r\n\r\n    function createcase(string memory name, uint case_number) public payable {       // create case\r\n        require(does_case_exists(case_number) == false, \"Case is already created\");\r\n        require(assignrole.returnRole(msg.sender) == 1, \"Only Head Investigator can create cases\");\r\n        SCase storage newCase = cases[case_number];\r\n        newCase.ID = name;\r\n        newCase.IDhash = keccak256(abi.encodePacked(name));\r\n        newCase.HI = msg.sender;\r\n        newCase.investigators[msg.sender] = 1;\r\n        Cases.push(case_number);\r\n        emit RegistrationDone (\"Case Registered\", name, case_number);\r\n    }\r\n\r\n    function returnHI(uint case_number) public payable returns(address){ // return HI\r\n        SCase storage newCase = cases[case_number];\r\n        return(newCase.HI); \r\n    }\r\n\r\n    function is_authorized(address user, uint number) public view returns(bool) { // DAC\r\n        SCase storage nC = cases[number];\r\n        if (nC.investigators[user] == 1){\r\n            return true;\r\n        }\r\n        return false;\r\n    }\r\n\r\n    function add_investigator(address inv, uint num) public payable{    // DAC\r\n\r\n        SCase storage newC= cases[num];\r\n        newC.investigators[inv] = 1;\r\n\r\n    }\r\n    \r\n    function does_evidence_exists(uint case_number, bytes32 key) public view returns(bool){  // evi exists\r\n        require(does_case_exists(case_number) == true, \"Case does not exists\");\r\n        SCase storage c = cases[case_number];\r\n        if (c.AssignedEvidences[key]>0){\r\n            return true;\r\n        }\r\n        if (c.UnassignedEvidences[key]>0){\r\n            return true;\r\n        }\r\n        return false; \r\n    }\r\n\r\n    function is_level_assigned(uint case_number, bytes32 key) public view returns(bool){ // level \r\n        SCase storage c = cases[case_number];\r\n        if(c.UnassignedEvidences[key] == 1){\r\n            return false;\r\n        }\r\n        return true;\r\n    }\r\n\r\n    function remove_investigator(uint case_number, address inv) public payable{   // access revokation\r\n        // remove an investigator from DAC policy\r\n        SCase storage nC = cases[case_number];\r\n        nC.investigators[inv] = 0;\r\n        emit InvestigatorRemoved(\"Investigator has been removed from case\", inv, case_number);\r\n    }\r\n\r\n    function setlevel(bytes32 key, uint case_num) public payable{ // set level never show this \r\n        SCase storage nc = cases[case_num];\r\n        uint lvl = nc.evid;\r\n        if(lvl == 0){\r\n            lvl =lvl+1;\r\n        }\r\n        if(lvl > 7){\r\n            lvl = 7;\r\n        }\r\n        nc.AssignedEvidences[key] = lvl; // addition to Assigned evidences\r\n        nc.UnassignedEvidences[key] = 0; // removal from Unassigned evidences \r\n        emit EvidenceAssignedLevel(\"Evidence as been assigned a level\", key);\r\n    }\r\n\r\n    function assign_inl(uint case_num, string memory ev) public payable {  // assign level\r\n        bytes32 key = keccak256(abi.encodePacked(ev));\r\n        require(does_case_exists(case_num) == true , \"Case does not exists\");\r\n        require(does_evidence_exists(case_num,key) == false , \"Evidence exists\");\r\n        require(is_level_assigned(case_num,key) == false, \"Level assigned\" );\r\n        setlevel(key, case_num);\r\n    }\r\n    function register_evi(uint case_num, string memory ev, address user)public payable{ // simple register\r\n        bytes32 key = keccak256(abi.encodePacked(ev));\r\n        require(does_case_exists(case_num) == true , \"Case does not exists\");\r\n        require(does_evidence_exists(case_num,key) == false , \"Evidence exists\");\r\n        SCase storage nC = cases[case_num];\r\n        nC.UnassignedEvidences[key] = 1;\r\n        nC.evid += 1;\r\n        emit EvidenceRegistered(\"Evidence has been registered by\", key, user);\r\n\r\n    }\r\n\r\n    function return_level(uint case_num, bytes32 key) public payable returns(uint){\r\n        require(does_case_exists(case_num) == true, \"Case does not exists\");\r\n        require(does_evidence_exists(case_num, key) == true , \"Evidence does not exists\");\r\n        require(is_level_assigned(case_num, key) == true , \"Evidence not valid\");\r\n        SCase storage nc = cases[case_num];\r\n        uint lvl = nc.AssignedEvidences[key];\r\n        return lvl;\r\n    }\r\n\r\n}",
  "sourcePath": "C:\\Users\\Hp\\Desktop\\Leveraging-Blockchain-for-Auditable-Access-Control\\contracts\\Case.sol",
  "compiler": {
    "name": "solc",
    "version": "0.8.21+commit.d9974bed.Emscripten.clang"
  },
  "schemaVersion": "3.4.16",
  "updatedAt": "2024-10-26T15:27:34.140Z",
  "devdoc": {
    "kind": "dev",
    "methods": {},
    "title": "this contract checks whether requestor is head investigator or not  and then allows creation of case",
    "version": 1
  },
  "userdoc": {
    "kind": "user",
    "methods": {},
    "version": 1
  }
}