{
  "contractName": "Evidence",
  "abi": [
    {
      "anonymous": false,
      "inputs": [
        {
          "indexed": false,
          "internalType": "string",
          "name": "",
          "type": "string"
        },
        {
          "indexed": false,
          "internalType": "uint256",
          "name": "",
          "type": "uint256"
        }
      ],
      "name": "CaseClosed",
      "type": "event"
    },
    {
      "anonymous": false,
      "inputs": [
        {
          "indexed": false,
          "internalType": "string",
          "name": "",
          "type": "string"
        },
        {
          "indexed": false,
          "internalType": "string",
          "name": "",
          "type": "string"
        },
        {
          "indexed": false,
          "internalType": "uint256",
          "name": "",
          "type": "uint256"
        }
      ],
      "name": "CaseRegistrationDone",
      "type": "event"
    },
    {
      "anonymous": false,
      "inputs": [
        {
          "indexed": false,
          "internalType": "string",
          "name": "",
          "type": "string"
        },
        {
          "indexed": false,
          "internalType": "bytes32",
          "name": "",
          "type": "bytes32"
        }
      ],
      "name": "EvidenceAssignedLevel",
      "type": "event"
    },
    {
      "anonymous": false,
      "inputs": [
        {
          "indexed": false,
          "internalType": "string",
          "name": "",
          "type": "string"
        },
        {
          "indexed": false,
          "internalType": "uint256",
          "name": "",
          "type": "uint256"
        },
        {
          "indexed": false,
          "internalType": "bytes32",
          "name": "",
          "type": "bytes32"
        }
      ],
      "name": "EvidenceDeleted",
      "type": "event"
    },
    {
      "anonymous": false,
      "inputs": [
        {
          "indexed": false,
          "internalType": "string",
          "name": "",
          "type": "string"
        },
        {
          "indexed": false,
          "internalType": "bytes32",
          "name": "",
          "type": "bytes32"
        },
        {
          "indexed": false,
          "internalType": "address",
          "name": "",
          "type": "address"
        }
      ],
      "name": "EvidenceRegistered",
      "type": "event"
    },
    {
      "anonymous": false,
      "inputs": [
        {
          "indexed": false,
          "internalType": "string",
          "name": "",
          "type": "string"
        },
        {
          "indexed": false,
          "internalType": "address",
          "name": "",
          "type": "address"
        },
        {
          "indexed": false,
          "internalType": "uint256",
          "name": "",
          "type": "uint256"
        }
      ],
      "name": "InvestigatorRemoved",
      "type": "event"
    },
    {
      "anonymous": false,
      "inputs": [
        {
          "indexed": false,
          "internalType": "string",
          "name": "",
          "type": "string"
        },
        {
          "indexed": false,
          "internalType": "address",
          "name": "",
          "type": "address"
        },
        {
          "indexed": false,
          "internalType": "uint256",
          "name": "",
          "type": "uint256"
        }
      ],
      "name": "UserRegistrationDone",
      "type": "event"
    },
    {
      "inputs": [
        {
          "internalType": "address",
          "name": "inv",
          "type": "address"
        },
        {
          "internalType": "uint256",
          "name": "num",
          "type": "uint256"
        }
      ],
      "name": "add_investigator",
      "outputs": [],
      "stateMutability": "payable",
      "type": "function",
      "payable": true
    },
    {
      "inputs": [
        {
          "internalType": "uint256",
          "name": "case_num",
          "type": "uint256"
        },
        {
          "internalType": "string",
          "name": "ev",
          "type": "string"
        },
        {
          "internalType": "uint256",
          "name": "level",
          "type": "uint256"
        }
      ],
      "name": "assign_inl",
      "outputs": [],
      "stateMutability": "payable",
      "type": "function",
      "payable": true
    },
    {
      "inputs": [
        {
          "internalType": "string",
          "name": "name",
          "type": "string"
        },
        {
          "internalType": "uint256",
          "name": "case_number",
          "type": "uint256"
        }
      ],
      "name": "createcase",
      "outputs": [],
      "stateMutability": "payable",
      "type": "function",
      "payable": true
    },
    {
      "inputs": [
        {
          "internalType": "uint256",
          "name": "case_number",
          "type": "uint256"
        },
        {
          "internalType": "bytes32",
          "name": "key",
          "type": "bytes32"
        }
      ],
      "name": "does_evidence_exists",
      "outputs": [
        {
          "internalType": "bool",
          "name": "",
          "type": "bool"
        }
      ],
      "stateMutability": "view",
      "type": "function",
      "constant": true
    },
    {
      "inputs": [
        {
          "internalType": "address",
          "name": "user",
          "type": "address"
        },
        {
          "internalType": "uint256",
          "name": "number",
          "type": "uint256"
        }
      ],
      "name": "is_authorized",
      "outputs": [
        {
          "internalType": "bool",
          "name": "",
          "type": "bool"
        }
      ],
      "stateMutability": "view",
      "type": "function",
      "constant": true
    },
    {
      "inputs": [
        {
          "internalType": "uint256",
          "name": "case_number",
          "type": "uint256"
        },
        {
          "internalType": "bytes32",
          "name": "key",
          "type": "bytes32"
        }
      ],
      "name": "is_level_assigned",
      "outputs": [
        {
          "internalType": "bool",
          "name": "",
          "type": "bool"
        }
      ],
      "stateMutability": "view",
      "type": "function",
      "constant": true
    },
    {
      "inputs": [
        {
          "internalType": "address",
          "name": "user",
          "type": "address"
        }
      ],
      "name": "publicDoesUserExists",
      "outputs": [
        {
          "internalType": "bool",
          "name": "",
          "type": "bool"
        }
      ],
      "stateMutability": "view",
      "type": "function",
      "constant": true
    },
    {
      "inputs": [
        {
          "internalType": "address",
          "name": "user",
          "type": "address"
        }
      ],
      "name": "publicreturnRole",
      "outputs": [
        {
          "internalType": "uint256",
          "name": "",
          "type": "uint256"
        }
      ],
      "stateMutability": "view",
      "type": "function",
      "constant": true
    },
    {
      "inputs": [
        {
          "internalType": "string",
          "name": "desig",
          "type": "string"
        },
        {
          "internalType": "address",
          "name": "user",
          "type": "address"
        }
      ],
      "name": "publicsetRole",
      "outputs": [],
      "stateMutability": "nonpayable",
      "type": "function"
    },
    {
      "inputs": [
        {
          "internalType": "uint256",
          "name": "case_num",
          "type": "uint256"
        },
        {
          "internalType": "string",
          "name": "ev",
          "type": "string"
        },
        {
          "internalType": "address",
          "name": "user",
          "type": "address"
        }
      ],
      "name": "register_evi",
      "outputs": [],
      "stateMutability": "payable",
      "type": "function",
      "payable": true
    },
    {
      "inputs": [
        {
          "internalType": "string",
          "name": "designation",
          "type": "string"
        }
      ],
      "name": "register_user",
      "outputs": [],
      "stateMutability": "nonpayable",
      "type": "function"
    },
    {
      "inputs": [
        {
          "internalType": "uint256",
          "name": "case_number",
          "type": "uint256"
        },
        {
          "internalType": "address",
          "name": "inv",
          "type": "address"
        }
      ],
      "name": "remove_investigator",
      "outputs": [],
      "stateMutability": "payable",
      "type": "function",
      "payable": true
    },
    {
      "inputs": [
        {
          "internalType": "uint256",
          "name": "case_number",
          "type": "uint256"
        }
      ],
      "name": "returnHI",
      "outputs": [
        {
          "internalType": "address",
          "name": "",
          "type": "address"
        }
      ],
      "stateMutability": "payable",
      "type": "function",
      "payable": true
    },
    {
      "inputs": [
        {
          "internalType": "uint256",
          "name": "case_num",
          "type": "uint256"
        },
        {
          "internalType": "bytes32",
          "name": "key",
          "type": "bytes32"
        }
      ],
      "name": "return_level",
      "outputs": [
        {
          "internalType": "uint256",
          "name": "",
          "type": "uint256"
        }
      ],
      "stateMutability": "payable",
      "type": "function",
      "payable": true
    },
    {
      "inputs": [
        {
          "internalType": "string",
          "name": "evidence",
          "type": "string"
        },
        {
          "internalType": "uint256",
          "name": "case_number",
          "type": "uint256"
        }
      ],
      "name": "_register_evidence",
      "outputs": [],
      "stateMutability": "payable",
      "type": "function",
      "payable": true
    },
    {
      "inputs": [
        {
          "internalType": "string",
          "name": "evidence",
          "type": "string"
        },
        {
          "internalType": "uint256",
          "name": "case_number",
          "type": "uint256"
        },
        {
          "internalType": "uint256",
          "name": "level",
          "type": "uint256"
        }
      ],
      "name": "level_assignment",
      "outputs": [],
      "stateMutability": "payable",
      "type": "function",
      "payable": true
    }
  ],
  "bytecode": "0x60806040523480156200001157600080fd5b50600160006040516200002490620000df565b90815260200160405180910390208190555060046000604051620000489062000146565b908152602001604051809103902081905550600760006040516200006c90620001ad565b908152602001604051809103902081905550620001c4565b600081905092915050565b7f4865616420496e76657374696761746f72000000000000000000000000000000600082015250565b6000620000c760118362000084565b9150620000d4826200008f565b601182019050919050565b6000620000ec82620000b8565b9150819050919050565b7f4c65616420496e76657374696761746f72000000000000000000000000000000600082015250565b60006200012e60118362000084565b91506200013b82620000f6565b601182019050919050565b600062000153826200011f565b9150819050919050565b7f5465616d20496e76657374696761746f72000000000000000000000000000000600082015250565b60006200019560118362000084565b9150620001a2826200015d565b601182019050919050565b6000620001ba8262000186565b9150819050919050565b61243880620001d46000396000f3fe6080604052600436106100f35760003560e01c80636cad4fa61161008a578063d014fe4011610059578063d014fe40146102e0578063d07a3b6814610309578063f7bb889314610325578063fb5f5c5714610362576100f3565b80636cad4fa61461024857806374bab760146102645780637d6fb49c14610294578063ac50417c146102b0576100f3565b806337106727116100c6578063371067271461019657806359ea8ddd146101b25780635ce7cd58146101ef578063640938341461022c576100f3565b8063027a65c2146100f857806305805e0214610114578063080e051914610151578063257dbfc31461017a575b600080fd5b610112600480360381019061010d9190611316565b61039f565b005b34801561012057600080fd5b5061013b600480360381019061013691906113c0565b610543565b604051610148919061141b565b60405180910390f35b34801561015d57600080fd5b5061017860048036038101906101739190611494565b61058e565b005b610194600480360381019061018f9190611635565b61059e565b005b6101b060048036038101906101ab91906116a4565b6106f6565b005b3480156101be57600080fd5b506101d960048036038101906101d49190611704565b61074a565b6040516101e6919061141b565b60405180910390f35b3480156101fb57600080fd5b5061021660048036038101906102119190611744565b6107c1565b6040516102239190611780565b60405180910390f35b6102466004803603810190610241919061179b565b6107d8565b005b610262600480360381019061025d9190611704565b610874565b005b61027e600480360381019061027991906117db565b6108d7565b60405161028b9190611817565b60405180910390f35b6102ae60048036038101906102a99190611832565b61091c565b005b6102ca60048036038101906102c591906113c0565b6109a4565b6040516102d79190611780565b60405180910390f35b3480156102ec57600080fd5b50610307600480360381019061030291906118a6565b610ad1565b005b610323600480360381019061031e91906116a4565b610ae0565b005b34801561033157600080fd5b5061034c600480360381019061034791906113c0565b610d36565b604051610359919061141b565b60405180910390f35b34801561036e57600080fd5b5061038960048036038101906103849190611744565b610dfa565b604051610396919061141b565b60405180910390f35b600083836040516020016103b4929190611923565b6040516020818303038152906040528051906020012090503373ffffffffffffffffffffffffffffffffffffffff166103ec866108d7565b73ffffffffffffffffffffffffffffffffffffffff1614610442576040517f08c379a0000000000000000000000000000000000000000000000000000000008152600401610439906119bf565b60405180910390fd5b6001151561044f86610e11565b151514610491576040517f08c379a000000000000000000000000000000000000000000000000000000000815260040161048890611a2b565b60405180910390fd5b6000151561049f8683610d36565b1515146104e1576040517f08c379a00000000000000000000000000000000000000000000000000000000081526004016104d890611a97565b60405180910390fd5b600015156104ef8683610543565b151514610531576040517f08c379a000000000000000000000000000000000000000000000000000000000815260040161052890611b03565b60405180910390fd5b61053c818684610e73565b5050505050565b60008060046000858152602001908152602001600020905060018160030160008581526020019081526020016000205403610582576000915050610588565b60019150505b92915050565b610599838383610efc565b505050565b6000826040516020016105b19190611b92565b604051602081830303815290604052805190602001209050600115156105d685610e11565b151514610618576040517f08c379a000000000000000000000000000000000000000000000000000000000815260040161060f90611a2b565b60405180910390fd5b600015156106268583610d36565b151514610668576040517f08c379a000000000000000000000000000000000000000000000000000000000815260040161065f90611a97565b60405180910390fd5b600060046000868152602001908152602001600020905060018160030160008481526020019081526020016000208190555060018160060160008282546106af9190611bd8565b925050819055507fc1af16f5f8e3c3b57e2843dd14aab5832a95aeef0736b7b44cffc4d32c64cb9d82846040516106e7929190611c89565b60405180910390a15050505050565b6107458184848080601f016020809104026020016040519081016040528093929190818152602001838380828437600081840152601f19601f820116905080830192505050505050503361059e565b505050565b60008060046000848152602001908152602001600020905060018160040160008673ffffffffffffffffffffffffffffffffffffffff1673ffffffffffffffffffffffffffffffffffffffff16815260200190815260200160002054036107b55760019150506107bb565b60009150505b92915050565b6000806107cd836110a6565b905080915050919050565b600060046000848152602001908152602001600020905060008160040160008473ffffffffffffffffffffffffffffffffffffffff1673ffffffffffffffffffffffffffffffffffffffff168152602001908152602001600020819055507fb6b4e493a9247fb90495ec09db8e16879fe0ccf6f478ef5252b5de4559f319f28284604051610867929190611d37565b60405180910390a1505050565b600060046000838152602001908152602001600020905060018160040160008573ffffffffffffffffffffffffffffffffffffffff1673ffffffffffffffffffffffffffffffffffffffff16815260200190815260200160002081905550505050565b6000806004600084815260200190815260200160002090508060050160009054906101000a900473ffffffffffffffffffffffffffffffffffffffff16915050919050565b610925826108d7565b73ffffffffffffffffffffffffffffffffffffffff163373ffffffffffffffffffffffffffffffffffffffff1614610992576040517f08c379a000000000000000000000000000000000000000000000000000000000815260040161098990611e0b565b60405180910390fd5b61099e8285858461039f565b50505050565b6000600115156109b384610e11565b1515146109f5576040517f08c379a00000000000000000000000000000000000000000000000000000000081526004016109ec90611a2b565b60405180910390fd5b60011515610a038484610d36565b151514610a45576040517f08c379a0000000000000000000000000000000000000000000000000000000008152600401610a3c90611e77565b60405180910390fd5b60011515610a538484610543565b151514610a95576040517f08c379a0000000000000000000000000000000000000000000000000000000008152600401610a8c90611ee3565b60405180910390fd5b60006004600085815260200190815260200160002090506000816002016000858152602001908152602001600020549050809250505092915050565b610adc82823361058e565b5050565b60011515610aed33610dfa565b151514610b2f576040517f08c379a0000000000000000000000000000000000000000000000000000000008152600401610b2690611f4f565b60405180910390fd5b60001515610b3c82610e11565b151514610b7e576040517f08c379a0000000000000000000000000000000000000000000000000000000008152600401610b7590611fbb565b60405180910390fd5b6001610b89336107c1565b14610bc9576040517f08c379a0000000000000000000000000000000000000000000000000000000008152600401610bc09061204d565b60405180910390fd5b60006004600083815260200190815260200160002090508383826000019190610bf39291906111c4565b508383604051602001610c07929190611923565b604051602081830303815290604052805190602001208160010181905550338160050160006101000a81548173ffffffffffffffffffffffffffffffffffffffff021916908373ffffffffffffffffffffffffffffffffffffffff16021790555060018160040160003373ffffffffffffffffffffffffffffffffffffffff1673ffffffffffffffffffffffffffffffffffffffff16815260200190815260200160002081905550601981600701819055504281600801819055506000816009018190555060038290806001815401808255809150506001900390600052602060002001600090919091909150557f266d5cf462bf1f0254a78139854880064d99b9f9359d49bea6b8637ccf826cec848484604051610d28939291906120e6565b60405180910390a150505050565b600060011515610d4584610e11565b151514610d87576040517f08c379a0000000000000000000000000000000000000000000000000000000008152600401610d7e90611a2b565b60405180910390fd5b60006004600085815260200190815260200160002090506000816002016000858152602001908152602001600020541115610dc6576001915050610df4565b6000816003016000858152602001908152602001600020541115610dee576001915050610df4565b60009150505b92915050565b600080610e068361113e565b905080915050919050565b600080600090505b600380549050811015610e68578260038281548110610e3b57610e3a61212b565b5b906000526020600020015403610e55576001915050610e6e565b8080610e609061215a565b915050610e19565b50600090505b919050565b600060046000848152602001908152602001600020905081816002016000868152602001908152602001600020819055506000816003016000868152602001908152602001600020819055507fa5b14494dc23eecde6552fb600b649e07cd8469e1e6738027781646914acfad884604051610eee9190612214565b60405180910390a150505050565b60001515610f098261113e565b151514610f4b576040517f08c379a0000000000000000000000000000000000000000000000000000000008152600401610f429061228e565b60405180910390fd5b6000610f57848461119a565b11610f97576040517f08c379a0000000000000000000000000000000000000000000000000000000008152600401610f8e906122fa565b60405180910390fd5b610fa1838361119a565b600160008373ffffffffffffffffffffffffffffffffffffffff1673ffffffffffffffffffffffffffffffffffffffff168152602001908152602001600020819055506001600260008373ffffffffffffffffffffffffffffffffffffffff1673ffffffffffffffffffffffffffffffffffffffff168152602001908152602001600020819055507faa6d010bb351bc431c1230873f88f8f8b97c823fe65b1e102216919af719b1a281600160008473ffffffffffffffffffffffffffffffffffffffff1673ffffffffffffffffffffffffffffffffffffffff16815260200190815260200160002054604051611099929190612366565b60405180910390a1505050565b6000600115156110b58361113e565b1515146110f7576040517f08c379a00000000000000000000000000000000000000000000000000000000081526004016110ee90611f4f565b60405180910390fd5b600160008373ffffffffffffffffffffffffffffffffffffffff1673ffffffffffffffffffffffffffffffffffffffff168152602001908152602001600020549050919050565b60006001600260008473ffffffffffffffffffffffffffffffffffffffff1673ffffffffffffffffffffffffffffffffffffffff16815260200190815260200160002054036111905760019050611195565b600090505b919050565b60008083836040516111ad929190611923565b908152602001604051809103902054905092915050565b8280546111d0906123d1565b90600052602060002090601f0160209004810192826111f25760008555611239565b82601f1061120b57803560ff1916838001178555611239565b82800160010185558215611239579182015b8281111561123857823582559160200191906001019061121d565b5b509050611246919061124a565b5090565b5b8082111561126357600081600090555060010161124b565b5090565b6000604051905090565b600080fd5b600080fd5b6000819050919050565b61128e8161127b565b811461129957600080fd5b50565b6000813590506112ab81611285565b92915050565b600080fd5b600080fd5b600080fd5b60008083601f8401126112d6576112d56112b1565b5b8235905067ffffffffffffffff8111156112f3576112f26112b6565b5b60208301915083600182028301111561130f5761130e6112bb565b5b9250929050565b600080600080606085870312156113305761132f611271565b5b600061133e8782880161129c565b945050602085013567ffffffffffffffff81111561135f5761135e611276565b5b61136b878288016112c0565b9350935050604061137e8782880161129c565b91505092959194509250565b6000819050919050565b61139d8161138a565b81146113a857600080fd5b50565b6000813590506113ba81611394565b92915050565b600080604083850312156113d7576113d6611271565b5b60006113e58582860161129c565b92505060206113f6858286016113ab565b9150509250929050565b60008115159050919050565b61141581611400565b82525050565b6000602082019050611430600083018461140c565b92915050565b600073ffffffffffffffffffffffffffffffffffffffff82169050919050565b600061146182611436565b9050919050565b61147181611456565b811461147c57600080fd5b50565b60008135905061148e81611468565b92915050565b6000806000604084860312156114ad576114ac611271565b5b600084013567ffffffffffffffff8111156114cb576114ca611276565b5b6114d7868287016112c0565b935093505060206114ea8682870161147f565b9150509250925092565b600080fd5b6000601f19601f8301169050919050565b7f4e487b7100000000000000000000000000000000000000000000000000000000600052604160045260246000fd5b611542826114f9565b810181811067ffffffffffffffff821117156115615761156061150a565b5b80604052505050565b6000611574611267565b90506115808282611539565b919050565b600067ffffffffffffffff8211156115a05761159f61150a565b5b6115a9826114f9565b9050602081019050919050565b82818337600083830152505050565b60006115d86115d384611585565b61156a565b9050828152602081018484840111156115f4576115f36114f4565b5b6115ff8482856115b6565b509392505050565b600082601f83011261161c5761161b6112b1565b5b813561162c8482602086016115c5565b91505092915050565b60008060006060848603121561164e5761164d611271565b5b600061165c8682870161129c565b935050602084013567ffffffffffffffff81111561167d5761167c611276565b5b61168986828701611607565b925050604061169a8682870161147f565b9150509250925092565b6000806000604084860312156116bd576116bc611271565b5b600084013567ffffffffffffffff8111156116db576116da611276565b5b6116e7868287016112c0565b935093505060206116fa8682870161129c565b9150509250925092565b6000806040838503121561171b5761171a611271565b5b60006117298582860161147f565b925050602061173a8582860161129c565b9150509250929050565b60006020828403121561175a57611759611271565b5b60006117688482850161147f565b91505092915050565b61177a8161127b565b82525050565b60006020820190506117956000830184611771565b92915050565b600080604083850312156117b2576117b1611271565b5b60006117c08582860161129c565b92505060206117d18582860161147f565b9150509250929050565b6000602082840312156117f1576117f0611271565b5b60006117ff8482850161129c565b91505092915050565b61181181611456565b82525050565b600060208201905061182c6000830184611808565b92915050565b6000806000806060858703121561184c5761184b611271565b5b600085013567ffffffffffffffff81111561186a57611869611276565b5b611876878288016112c0565b945094505060206118898782880161129c565b925050604061189a8782880161129c565b91505092959194509250565b600080602083850312156118bd576118bc611271565b5b600083013567ffffffffffffffff8111156118db576118da611276565b5b6118e7858286016112c0565b92509250509250929050565b600081905092915050565b600061190a83856118f3565b93506119178385846115b6565b82840190509392505050565b60006119308284866118fe565b91508190509392505050565b600082825260208201905092915050565b7f4f6e6c79204865616420496e76657374696761746f722063616e20617373696760008201527f6e206c6576656c20746f2065766964656e636500000000000000000000000000602082015250565b60006119a960338361193c565b91506119b48261194d565b604082019050919050565b600060208201905081810360008301526119d88161199c565b9050919050565b7f4361736520646f6573206e6f7420657869737473000000000000000000000000600082015250565b6000611a1560148361193c565b9150611a20826119df565b602082019050919050565b60006020820190508181036000830152611a4481611a08565b9050919050565b7f45766964656e6365206578697374730000000000000000000000000000000000600082015250565b6000611a81600f8361193c565b9150611a8c82611a4b565b602082019050919050565b60006020820190508181036000830152611ab081611a74565b9050919050565b7f4c6576656c2061737369676e6564000000000000000000000000000000000000600082015250565b6000611aed600e8361193c565b9150611af882611ab7565b602082019050919050565b60006020820190508181036000830152611b1c81611ae0565b9050919050565b600081519050919050565b60005b83811015611b4c578082015181840152602081019050611b31565b83811115611b5b576000848401525b50505050565b6000611b6c82611b23565b611b7681856118f3565b9350611b86818560208601611b2e565b80840191505092915050565b6000611b9e8284611b61565b915081905092915050565b7f4e487b7100000000000000000000000000000000000000000000000000000000600052601160045260246000fd5b6000611be38261127b565b9150611bee8361127b565b9250827fffffffffffffffffffffffffffffffffffffffffffffffffffffffffffffffff03821115611c2357611c22611ba9565b5b828201905092915050565b7f45766964656e636520686173206265656e207265676973746572656420627900600082015250565b6000611c64601f8361193c565b9150611c6f82611c2e565b602082019050919050565b611c838161138a565b82525050565b60006060820190508181036000830152611ca281611c57565b9050611cb16020830185611c7a565b611cbe6040830184611808565b9392505050565b7f496e76657374696761746f7220686173206265656e2072656d6f76656420667260008201527f6f6d206361736500000000000000000000000000000000000000000000000000602082015250565b6000611d2160278361193c565b9150611d2c82611cc5565b604082019050919050565b60006060820190508181036000830152611d5081611d14565b9050611d5f6020830185611808565b611d6c6040830184611771565b9392505050565b7f6f6e6c79204865616420496e76657374696761746f72206f662072657175657360008201527f74656420636173652063616e2061737369676e20696e74656772697479206c6560208201527f76656c0000000000000000000000000000000000000000000000000000000000604082015250565b6000611df560438361193c565b9150611e0082611d73565b606082019050919050565b60006020820190508181036000830152611e2481611de8565b9050919050565b7f45766964656e636520646f6573206e6f74206578697374730000000000000000600082015250565b6000611e6160188361193c565b9150611e6c82611e2b565b602082019050919050565b60006020820190508181036000830152611e9081611e54565b9050919050565b7f45766964656e6365206e6f742076616c69640000000000000000000000000000600082015250565b6000611ecd60128361193c565b9150611ed882611e97565b602082019050919050565b60006020820190508181036000830152611efc81611ec0565b9050919050565b7f55736572206973206e6f74207265676973746572656400000000000000000000600082015250565b6000611f3960168361193c565b9150611f4482611f03565b602082019050919050565b60006020820190508181036000830152611f6881611f2c565b9050919050565b7f4361736520697320616c72656164792063726561746564000000000000000000600082015250565b6000611fa560178361193c565b9150611fb082611f6f565b602082019050919050565b60006020820190508181036000830152611fd481611f98565b9050919050565b7f4f6e6c79204865616420496e76657374696761746f722063616e20637265617460008201527f6520636173657300000000000000000000000000000000000000000000000000602082015250565b600061203760278361193c565b915061204282611fdb565b604082019050919050565b600060208201905081810360008301526120668161202a565b9050919050565b7f4361736520526567697374657265640000000000000000000000000000000000600082015250565b60006120a3600f8361193c565b91506120ae8261206d565b602082019050919050565b60006120c5838561193c565b93506120d28385846115b6565b6120db836114f9565b840190509392505050565b600060608201905081810360008301526120ff81612096565b905081810360208301526121148185876120b9565b90506121236040830184611771565b949350505050565b7f4e487b7100000000000000000000000000000000000000000000000000000000600052603260045260246000fd5b60006121658261127b565b91507fffffffffffffffffffffffffffffffffffffffffffffffffffffffffffffffff820361219757612196611ba9565b5b600182019050919050565b7f45766964656e6365206173206265656e2061737369676e65642061206c65766560008201527f6c00000000000000000000000000000000000000000000000000000000000000602082015250565b60006121fe60218361193c565b9150612209826121a2565b604082019050919050565b6000604082019050818103600083015261222d816121f1565b905061223c6020830184611c7a565b92915050565b7f5573657220416c72656164792052656769737465726564000000000000000000600082015250565b600061227860178361193c565b915061228382612242565b602082019050919050565b600060208201905081810360008301526122a78161226b565b9050919050565b7f496e76616c69642064657369676e6174696f6e00000000000000000000000000600082015250565b60006122e460138361193c565b91506122ef826122ae565b602082019050919050565b60006020820190508181036000830152612313816122d7565b9050919050565b7f205573657220526567697374726174696f6e20436f6d706c6574656400000000600082015250565b6000612350601c8361193c565b915061235b8261231a565b602082019050919050565b6000606082019050818103600083015261237f81612343565b905061238e6020830185611808565b61239b6040830184611771565b9392505050565b7f4e487b7100000000000000000000000000000000000000000000000000000000600052602260045260246000fd5b600060028204905060018216806123e957607f821691505b6020821081036123fc576123fb6123a2565b5b5091905056fea2646970667358221220976cbf9540c684c4b88c9babfcc947623987cbea84059a5349ec797f3f51670d64736f6c634300080d0033",
  "immutableReferences": {},
  "source": "// SPDX-License-Identifier: MIT\r\npragma solidity ^0.8.9;\r\nimport \"./Case.sol\";\r\n///@title contract to register a fresh evidence not linked to any other evidence or supporting information to any other pre-existing evidence\r\ncontract Evidence is Case {\r\n    ///@notice allows an user to add evidence\r\n    function _register_evidence(\r\n        string calldata evidence,\r\n        uint case_number\r\n    ) public payable {\r\n        // check authorization\r\n        register_evi(case_number, evidence, msg.sender);\r\n    }\r\n    ///@notice allows an user to assign level to evidence\r\n    function level_assignment(\r\n        string calldata evidence,\r\n        uint case_number, uint level\r\n    ) public payable {\r\n        require(\r\n            msg.sender == returnHI(case_number),\r\n            \"only Head Investigator of requested case can assign integrity level\"\r\n        );\r\n        assign_inl(case_number, evidence, level);\r\n    }\r\n}\r\n",
  "sourcePath": "C:\\Users\\shrey\\repo2\\contracts\\Evidence.sol",
  "compiler": {
    "name": "solc",
    "version": "0.8.13+commit.abaa5c0e.Emscripten.clang"
  },
  "schemaVersion": "3.4.16",
  "updatedAt": "2024-11-20T15:08:09.779Z",
  "networkType": "ethereum",
  "devdoc": {
    "kind": "dev",
    "methods": {
      "createcase(string,uint256)": {
        "params": {
          "name": "Name of the Case File ; @param case_number Unique Number assigned to case"
        }
      },
      "does_evidence_exists(uint256,bytes32)": {
        "params": {
          "case_number": "unique id of case, @param key hash of evidence which has to be assigned level "
        }
      },
      "is_authorized(address,uint256)": {
        "params": {
          "user": "address of user requesting access; @param number Unique Case Number"
        }
      },
      "register_evi(uint256,string,address)": {
        "params": {
          "case_num": "Unique case ID; @param ev information ; @param user address of requestor"
        }
      },
      "return_level(uint256,bytes32)": {
        "params": {
          "key": "unique identifier of evidence"
        }
      }
    },
    "title": "contract to register a fresh evidence not linked to any other evidence or supporting information to any other pre-existing evidence",
    "version": 1
  },
  "userdoc": {
    "kind": "user",
    "methods": {
      "_register_evidence(string,uint256)": {
        "notice": "allows an user to add evidence"
      },
      "add_investigator(address,uint256)": {
        "notice": "this introduces DAC, allows Head Investigator to modify access rights"
      },
      "assign_inl(uint256,string,uint256)": {
        "notice": "caller function to assign level to an evidence "
      },
      "createcase(string,uint256)": {
        "notice": "creates a case"
      },
      "does_evidence_exists(uint256,bytes32)": {
        "notice": "checks whether evidence exists"
      },
      "is_authorized(address,uint256)": {
        "notice": "returns whether an user is authorised to work on a case"
      },
      "is_level_assigned(uint256,bytes32)": {
        "notice": "checks whether level is assigned to evidence"
      },
      "level_assignment(string,uint256,uint256)": {
        "notice": "allows an user to assign level to evidence"
      },
      "publicsetRole(string,address)": {
        "notice": "an interface functions used to call internal functions"
      },
      "register_evi(uint256,string,address)": {
        "notice": "allows user to register new information"
      },
      "remove_investigator(uint256,address)": {
        "notice": "DAC policy allows removal of an investigator from case"
      },
      "returnHI(uint256)": {
        "notice": "returns Head Investigator of a case"
      },
      "return_level(uint256,bytes32)": {
        "notice": "return level of integrity assigned to an evidence"
      }
    },
    "version": 1
  }
}