{
  "contractName": "Evidence",
  "abi": [
    {
      "inputs": [
        {
          "internalType": "address",
          "name": "_caseContract",
          "type": "address"
        }
      ],
      "stateMutability": "nonpayable",
      "type": "constructor"
    },
    {
      "inputs": [],
      "name": "caseContract",
      "outputs": [
        {
          "internalType": "contract Case",
          "name": "",
          "type": "address"
        }
      ],
      "stateMutability": "view",
      "type": "function"
    },
    {
      "inputs": [
        {
          "internalType": "string",
          "name": "evidence",
          "type": "string"
        },
        {
          "internalType": "uint256",
          "name": "case_number",
          "type": "uint256"
        }
      ],
      "name": "_register_evidence",
      "outputs": [],
      "stateMutability": "payable",
      "type": "function"
    },
    {
      "inputs": [
        {
          "internalType": "string",
          "name": "evidence",
          "type": "string"
        },
        {
          "internalType": "uint256",
          "name": "case_number",
          "type": "uint256"
        }
      ],
      "name": "level_assignment",
      "outputs": [],
      "stateMutability": "payable",
      "type": "function"
    }
  ],
  "bytecode": "0x608060405234801561000f575f80fd5b50604051610897380380610897833981810160405281019061003191906100d4565b805f806101000a81548173ffffffffffffffffffffffffffffffffffffffff021916908373ffffffffffffffffffffffffffffffffffffffff160217905550506100ff565b5f80fd5b5f73ffffffffffffffffffffffffffffffffffffffff82169050919050565b5f6100a38261007a565b9050919050565b6100b381610099565b81146100bd575f80fd5b50565b5f815190506100ce816100aa565b92915050565b5f602082840312156100e9576100e8610076565b5b5f6100f6848285016100c0565b91505092915050565b61078b8061010c5f395ff3fe608060405260043610610033575f3560e01c80633710672714610037578063a6abf3f714610053578063d556e8e61461006f575b5f80fd5b610051600480360381019061004c9190610459565b610099565b005b61006d60048036038101906100689190610459565b610126565b005b34801561007a575f80fd5b506100836102b6565b604051610090919061052d565b60405180910390f35b5f8054906101000a900473ffffffffffffffffffffffffffffffffffffffff1673ffffffffffffffffffffffffffffffffffffffff1663257dbfc38284336040518463ffffffff1660e01b81526004016100f5939291906105ef565b5f604051808303815f87803b15801561010c575f80fd5b505af115801561011e573d5f803e3d5ffd5b505050505050565b5f8054906101000a900473ffffffffffffffffffffffffffffffffffffffff1673ffffffffffffffffffffffffffffffffffffffff166374bab760826040518263ffffffff1660e01b815260040161017e919061062b565b6020604051808303815f875af115801561019a573d5f803e3d5ffd5b505050506040513d601f19601f820116820180604052508101906101be919061066e565b73ffffffffffffffffffffffffffffffffffffffff163373ffffffffffffffffffffffffffffffffffffffff161461022b576040517f08c379a000000000000000000000000000000000000000000000000000000000815260040161022290610709565b60405180910390fd5b5f8054906101000a900473ffffffffffffffffffffffffffffffffffffffff1673ffffffffffffffffffffffffffffffffffffffff1663bffc4bbf82846040518363ffffffff1660e01b8152600401610285929190610727565b5f604051808303815f87803b15801561029c575f80fd5b505af11580156102ae573d5f803e3d5ffd5b505050505050565b5f8054906101000a900473ffffffffffffffffffffffffffffffffffffffff1681565b5f604051905090565b5f80fd5b5f80fd5b5f80fd5b5f80fd5b5f601f19601f8301169050919050565b7f4e487b71000000000000000000000000000000000000000000000000000000005f52604160045260245ffd5b610338826102f2565b810181811067ffffffffffffffff8211171561035757610356610302565b5b80604052505050565b5f6103696102d9565b9050610375828261032f565b919050565b5f67ffffffffffffffff82111561039457610393610302565b5b61039d826102f2565b9050602081019050919050565b828183375f83830152505050565b5f6103ca6103c58461037a565b610360565b9050828152602081018484840111156103e6576103e56102ee565b5b6103f18482856103aa565b509392505050565b5f82601f83011261040d5761040c6102ea565b5b813561041d8482602086016103b8565b91505092915050565b5f819050919050565b61043881610426565b8114610442575f80fd5b50565b5f813590506104538161042f565b92915050565b5f806040838503121561046f5761046e6102e2565b5b5f83013567ffffffffffffffff81111561048c5761048b6102e6565b5b610498858286016103f9565b92505060206104a985828601610445565b9150509250929050565b5f73ffffffffffffffffffffffffffffffffffffffff82169050919050565b5f819050919050565b5f6104f56104f06104eb846104b3565b6104d2565b6104b3565b9050919050565b5f610506826104db565b9050919050565b5f610517826104fc565b9050919050565b6105278161050d565b82525050565b5f6020820190506105405f83018461051e565b92915050565b61054f81610426565b82525050565b5f81519050919050565b5f82825260208201905092915050565b5f5b8381101561058c578082015181840152602081019050610571565b5f8484015250505050565b5f6105a182610555565b6105ab818561055f565b93506105bb81856020860161056f565b6105c4816102f2565b840191505092915050565b5f6105d9826104b3565b9050919050565b6105e9816105cf565b82525050565b5f6060820190506106025f830186610546565b81810360208301526106148185610597565b905061062360408301846105e0565b949350505050565b5f60208201905061063e5f830184610546565b92915050565b61064d816105cf565b8114610657575f80fd5b50565b5f8151905061066881610644565b92915050565b5f60208284031215610683576106826102e2565b5b5f6106908482850161065a565b91505092915050565b7f6f6e6c79204849206f662072656c6174656420636173652063616e20617373695f8201527f676e206c6576656c000000000000000000000000000000000000000000000000602082015250565b5f6106f360288361055f565b91506106fe82610699565b604082019050919050565b5f6020820190508181035f830152610720816106e7565b9050919050565b5f60408201905061073a5f830185610546565b818103602083015261074c8184610597565b9050939250505056fea264697066735822122004c58182eefe8dd48d06e1fafcef1b3859d4a608e9d7bf3f0b9022d147e21ae664736f6c63430008150033",
  "immutableReferences": {},
  "source": "// SPDX-License-Identifier: MIT\r\npragma solidity ^0.8.17;\r\n\r\nimport \"./Case.sol\";\r\n\r\ncontract Evidence{\r\n   \r\n    Case public caseContract;\r\n\r\n    constructor (address _caseContract){\r\n        caseContract = Case(_caseContract);\r\n    }\r\n\r\n    function _register_evidence(string memory evidence, uint case_number) public payable{\r\n        // check authorization\r\n        caseContract.register_evi(case_number,evidence, msg.sender);\r\n    }\r\n\r\n    function level_assignment(string memory evidence, uint case_number) public payable{\r\n        require(msg.sender == caseContract.returnHI(case_number), \"only HI of related case can assign level\");\r\n        caseContract.assign_inl(case_number, evidence);\r\n    }\r\n}",
  "sourcePath": "C:\\Users\\Hp\\Desktop\\Leveraging-Blockchain-for-Auditable-Access-Control\\contracts\\Evidence.sol",
  "compiler": {
    "name": "solc",
    "version": "0.8.21+commit.d9974bed.Emscripten.clang"
  },
  "schemaVersion": "3.4.16",
  "updatedAt": "2024-10-26T15:54:18.493Z",
  "devdoc": {
    "kind": "dev",
    "methods": {},
    "version": 1
  },
  "userdoc": {
    "kind": "user",
    "methods": {},
    "version": 1
  }
}