{
  "contractName": "Evidence",
  "abi": [
    {
      "anonymous": false,
      "inputs": [
        {
          "indexed": false,
          "internalType": "string",
          "name": "",
          "type": "string"
        },
        {
          "indexed": false,
          "internalType": "uint256",
          "name": "",
          "type": "uint256"
        }
      ],
      "name": "CaseClosed",
      "type": "event"
    },
    {
      "anonymous": false,
      "inputs": [
        {
          "indexed": false,
          "internalType": "string",
          "name": "",
          "type": "string"
        },
        {
          "indexed": false,
          "internalType": "bytes32",
          "name": "",
          "type": "bytes32"
        }
      ],
      "name": "EvidenceAssignedLevel",
      "type": "event"
    },
    {
      "anonymous": false,
      "inputs": [
        {
          "indexed": false,
          "internalType": "string",
          "name": "",
          "type": "string"
        },
        {
          "indexed": false,
          "internalType": "uint256",
          "name": "",
          "type": "uint256"
        },
        {
          "indexed": false,
          "internalType": "bytes32",
          "name": "",
          "type": "bytes32"
        }
      ],
      "name": "EvidenceDeleted",
      "type": "event"
    },
    {
      "anonymous": false,
      "inputs": [
        {
          "indexed": false,
          "internalType": "string",
          "name": "",
          "type": "string"
        },
        {
          "indexed": false,
          "internalType": "bytes32",
          "name": "",
          "type": "bytes32"
        },
        {
          "indexed": false,
          "internalType": "address",
          "name": "",
          "type": "address"
        }
      ],
      "name": "EvidenceRegistered",
      "type": "event"
    },
    {
      "anonymous": false,
      "inputs": [
        {
          "indexed": false,
          "internalType": "string",
          "name": "",
          "type": "string"
        },
        {
          "indexed": false,
          "internalType": "address",
          "name": "",
          "type": "address"
        },
        {
          "indexed": false,
          "internalType": "uint256",
          "name": "",
          "type": "uint256"
        }
      ],
      "name": "InvestigatorRemoved",
      "type": "event"
    },
    {
      "anonymous": false,
      "inputs": [
        {
          "indexed": false,
          "internalType": "string",
          "name": "",
          "type": "string"
        },
        {
          "indexed": false,
          "internalType": "address",
          "name": "",
          "type": "address"
        },
        {
          "indexed": false,
          "internalType": "uint256",
          "name": "",
          "type": "uint256"
        }
      ],
      "name": "RegistrationDone",
      "type": "event"
    },
    {
      "anonymous": false,
      "inputs": [
        {
          "indexed": false,
          "internalType": "string",
          "name": "",
          "type": "string"
        },
        {
          "indexed": false,
          "internalType": "string",
          "name": "",
          "type": "string"
        },
        {
          "indexed": false,
          "internalType": "uint256",
          "name": "",
          "type": "uint256"
        }
      ],
      "name": "RegistrationDone",
      "type": "event"
    },
    {
      "inputs": [
        {
          "internalType": "address",
          "name": "inv",
          "type": "address"
        },
        {
          "internalType": "uint256",
          "name": "num",
          "type": "uint256"
        }
      ],
      "name": "add_investigator",
      "outputs": [],
      "stateMutability": "payable",
      "type": "function"
    },
    {
      "inputs": [
        {
          "internalType": "uint256",
          "name": "case_num",
          "type": "uint256"
        },
        {
          "internalType": "string",
          "name": "ev",
          "type": "string"
        }
      ],
      "name": "assign_inl",
      "outputs": [],
      "stateMutability": "payable",
      "type": "function"
    },
    {
      "inputs": [
        {
          "internalType": "string",
          "name": "name",
          "type": "string"
        },
        {
          "internalType": "uint256",
          "name": "case_number",
          "type": "uint256"
        }
      ],
      "name": "createcase",
      "outputs": [],
      "stateMutability": "payable",
      "type": "function"
    },
    {
      "inputs": [
        {
          "internalType": "bytes32",
          "name": "key",
          "type": "bytes32"
        },
        {
          "internalType": "uint256",
          "name": "case_num",
          "type": "uint256"
        }
      ],
      "name": "delete_evidence",
      "outputs": [],
      "stateMutability": "payable",
      "type": "function"
    },
    {
      "inputs": [
        {
          "internalType": "uint256",
          "name": "case_number",
          "type": "uint256"
        },
        {
          "internalType": "bytes32",
          "name": "key",
          "type": "bytes32"
        }
      ],
      "name": "does_evidence_exists",
      "outputs": [
        {
          "internalType": "bool",
          "name": "",
          "type": "bool"
        }
      ],
      "stateMutability": "view",
      "type": "function"
    },
    {
      "inputs": [
        {
          "internalType": "address",
          "name": "user",
          "type": "address"
        },
        {
          "internalType": "uint256",
          "name": "number",
          "type": "uint256"
        }
      ],
      "name": "is_authorized",
      "outputs": [
        {
          "internalType": "bool",
          "name": "",
          "type": "bool"
        }
      ],
      "stateMutability": "view",
      "type": "function"
    },
    {
      "inputs": [
        {
          "internalType": "uint256",
          "name": "case_number",
          "type": "uint256"
        },
        {
          "internalType": "bytes32",
          "name": "key",
          "type": "bytes32"
        }
      ],
      "name": "is_level_assigned",
      "outputs": [
        {
          "internalType": "bool",
          "name": "",
          "type": "bool"
        }
      ],
      "stateMutability": "view",
      "type": "function"
    },
    {
      "inputs": [
        {
          "internalType": "uint256",
          "name": "case_num",
          "type": "uint256"
        },
        {
          "internalType": "string",
          "name": "ev",
          "type": "string"
        },
        {
          "internalType": "address",
          "name": "user",
          "type": "address"
        }
      ],
      "name": "register_evi",
      "outputs": [],
      "stateMutability": "payable",
      "type": "function"
    },
    {
      "inputs": [
        {
          "internalType": "uint256",
          "name": "case_number",
          "type": "uint256"
        },
        {
          "internalType": "address",
          "name": "inv",
          "type": "address"
        }
      ],
      "name": "remove_investigator",
      "outputs": [],
      "stateMutability": "payable",
      "type": "function"
    },
    {
      "inputs": [
        {
          "internalType": "uint256",
          "name": "case_number",
          "type": "uint256"
        }
      ],
      "name": "returnHI",
      "outputs": [
        {
          "internalType": "address",
          "name": "",
          "type": "address"
        }
      ],
      "stateMutability": "payable",
      "type": "function"
    },
    {
      "inputs": [
        {
          "internalType": "uint256",
          "name": "case_num",
          "type": "uint256"
        },
        {
          "internalType": "bytes32",
          "name": "key",
          "type": "bytes32"
        }
      ],
      "name": "return_level",
      "outputs": [
        {
          "internalType": "uint256",
          "name": "",
          "type": "uint256"
        }
      ],
      "stateMutability": "payable",
      "type": "function"
    },
    {
      "inputs": [
        {
          "internalType": "bytes32",
          "name": "key",
          "type": "bytes32"
        },
        {
          "internalType": "uint256",
          "name": "case_num",
          "type": "uint256"
        }
      ],
      "name": "setlevel",
      "outputs": [],
      "stateMutability": "payable",
      "type": "function"
    },
    {
      "inputs": [
        {
          "internalType": "string",
          "name": "evidence",
          "type": "string"
        },
        {
          "internalType": "uint256",
          "name": "case_number",
          "type": "uint256"
        }
      ],
      "name": "_register_evidence",
      "outputs": [],
      "stateMutability": "payable",
      "type": "function"
    },
    {
      "inputs": [
        {
          "internalType": "string",
          "name": "evidence",
          "type": "string"
        },
        {
          "internalType": "uint256",
          "name": "case_number",
          "type": "uint256"
        }
      ],
      "name": "level_assignment",
      "outputs": [],
      "stateMutability": "payable",
      "type": "function"
    }
  ],
  "bytecode": "0x608060405234801562000010575f80fd5b5060015f6040516200002290620000d8565b90815260200160405180910390208190555060045f60405162000045906200013c565b90815260200160405180910390208190555060075f6040516200006890620001a0565b908152602001604051809103902081905550620001b6565b5f81905092915050565b7f4865616420496e76657374696761746f720000000000000000000000000000005f82015250565b5f620000c060118362000080565b9150620000cd826200008a565b601182019050919050565b5f620000e482620000b2565b9150819050919050565b7f4c65616420496e76657374696761746f720000000000000000000000000000005f82015250565b5f6200012460118362000080565b91506200013182620000ee565b601182019050919050565b5f620001488262000116565b9150819050919050565b7f5465616d20496e76657374696761746f720000000000000000000000000000005f82015250565b5f6200018860118362000080565b9150620001958262000152565b601182019050919050565b5f620001ac826200017a565b9150819050919050565b61223980620001c45f395ff3fe6080604052600436106100dc575f3560e01c80636cad4fa61161007e578063ac50417c11610058578063ac50417c1461024c578063bffc4bbf1461027c578063d07a3b6814610298578063f7bb8893146102b4576100dc565b80636cad4fa6146101e457806374bab76014610200578063a6abf3f714610230576100dc565b806337106727116100ba57806337106727146101545780634bd7d00a1461017057806359ea8ddd1461018c57806364093834146101c8576100dc565b806305805e02146100e05780631c6513d31461011c578063257dbfc314610138575b5f80fd5b3480156100eb575f80fd5b50610106600480360381019061010191906110ed565b6102f0565b6040516101139190611145565b60405180910390f35b6101366004803603810190610131919061115e565b610335565b005b610152600480360381019061014d9190611332565b6103e3565b005b61016e600480360381019061016991906113fb565b610533565b005b61018a6004803603810190610185919061115e565b610586565b005b348015610197575f80fd5b506101b260048036038101906101ad9190611458565b61072a565b6040516101bf9190611145565b60405180910390f35b6101e260048036038101906101dd9190611496565b61079b565b005b6101fe60048036038101906101f99190611458565b610831565b005b61021a600480360381019061021591906114d4565b61088f565b604051610227919061150e565b60405180910390f35b61024a600480360381019061024591906113fb565b6108d0565b005b610266600480360381019061026191906110ed565b610956565b6040516102739190611536565b60405180910390f35b6102966004803603810190610291919061154f565b610a7c565b005b6102b260048036038101906102ad91906113fb565b610ba5565b005b3480156102bf575f80fd5b506102da60048036038101906102d591906110ed565b610def565b6040516102e79190611145565b60405180910390f35b5f8060045f8581526020019081526020015f2090506001816003015f8581526020019081526020015f205403610329575f91505061032f565b60019150505b92915050565b5f60045f8381526020019081526020015f2090505f816006015490505f81036103685760018161036591906115d9565b90505b600781111561037657600790505b80826002015f8681526020019081526020015f20819055505f826003015f8681526020019081526020015f20819055507fa5b14494dc23eecde6552fb600b649e07cd8469e1e6738027781646914acfad8846040516103d5919061169b565b60405180910390a150505050565b5f826040516020016103f59190611733565b6040516020818303038152906040528051906020012090506001151561041a85610ea8565b15151461045c576040517f08c379a000000000000000000000000000000000000000000000000000000000815260040161045390611793565b60405180910390fd5b5f15156104698583610def565b1515146104ab576040517f08c379a00000000000000000000000000000000000000000000000000000000081526004016104a2906117fb565b60405180910390fd5b5f60045f8681526020019081526020015f2090506001816003015f8481526020019081526020015f20819055506001816006015f8282546104ec91906115d9565b925050819055507fc1af16f5f8e3c3b57e2843dd14aab5832a95aeef0736b7b44cffc4d32c64cb9d8284604051610524929190611863565b60405180910390a15050505050565b6105818184848080601f0160208091040260200160405190810160405280939291908181526020018383808284375f81840152601f19601f82011690508083019250505050505050336103e3565b505050565b5f60045f8381526020019081526020015f209050600115156105a783610ea8565b1515146105e9576040517f08c379a00000000000000000000000000000000000000000000000000000000081526004016105e090611793565b60405180910390fd5b60016105f483610f05565b14610634576040517f08c379a000000000000000000000000000000000000000000000000000000000815260040161062b9061190d565b60405180910390fd5b600115156106428385610def565b151514610684576040517f08c379a000000000000000000000000000000000000000000000000000000000815260040161067b90611975565b60405180910390fd5b6001151561069283856102f0565b1515146106d4576040517f08c379a00000000000000000000000000000000000000000000000000000000081526004016106cb906119dd565b60405180910390fd5b5f816002015f8581526020019081526020015f20819055507f02beb14575cb76d93ca215a6eb5341536510f8d102a21ad1a0b9c086d0caffee828460405161071d929190611a6b565b60405180910390a1505050565b5f8060045f8481526020019081526020015f2090506001816004015f8673ffffffffffffffffffffffffffffffffffffffff1673ffffffffffffffffffffffffffffffffffffffff1681526020019081526020015f205403610790576001915050610795565b5f9150505b92915050565b5f60045f8481526020019081526020015f2090505f816004015f8473ffffffffffffffffffffffffffffffffffffffff1673ffffffffffffffffffffffffffffffffffffffff1681526020019081526020015f20819055507fb6b4e493a9247fb90495ec09db8e16879fe0ccf6f478ef5252b5de4559f319f28284604051610824929190611b15565b60405180910390a1505050565b5f60045f8381526020019081526020015f2090506001816004015f8573ffffffffffffffffffffffffffffffffffffffff1673ffffffffffffffffffffffffffffffffffffffff1681526020019081526020015f2081905550505050565b5f8060045f8481526020019081526020015f209050806005015f9054906101000a900473ffffffffffffffffffffffffffffffffffffffff16915050919050565b6108d98161088f565b73ffffffffffffffffffffffffffffffffffffffff163373ffffffffffffffffffffffffffffffffffffffff1614610946576040517f08c379a000000000000000000000000000000000000000000000000000000000815260040161093d90611be5565b60405180910390fd5b610951818484610a7c565b505050565b5f6001151561096484610ea8565b1515146109a6576040517f08c379a000000000000000000000000000000000000000000000000000000000815260040161099d90611793565b60405180910390fd5b600115156109b48484610def565b1515146109f6576040517f08c379a00000000000000000000000000000000000000000000000000000000081526004016109ed90611975565b60405180910390fd5b60011515610a0484846102f0565b151514610a46576040517f08c379a0000000000000000000000000000000000000000000000000000000008152600401610a3d906119dd565b60405180910390fd5b5f60045f8581526020019081526020015f2090505f816002015f8581526020019081526020015f20549050809250505092915050565b5f8282604051602001610a90929190611c27565b60405160208183030381529060405280519060200120905060011515610ab585610ea8565b151514610af7576040517f08c379a0000000000000000000000000000000000000000000000000000000008152600401610aee90611793565b60405180910390fd5b5f1515610b048583610def565b151514610b46576040517f08c379a0000000000000000000000000000000000000000000000000000000008152600401610b3d906117fb565b60405180910390fd5b5f1515610b5385836102f0565b151514610b95576040517f08c379a0000000000000000000000000000000000000000000000000000000008152600401610b8c90611c89565b60405180910390fd5b610b9f8185610335565b50505050565b60011515610bb233610f39565b151514610bf4576040517f08c379a0000000000000000000000000000000000000000000000000000000008152600401610beb90611cf1565b60405180910390fd5b5f1515610c0082610ea8565b151514610c42576040517f08c379a0000000000000000000000000000000000000000000000000000000008152600401610c3990611d59565b60405180910390fd5b6001610c4d33610fe1565b14610c8d576040517f08c379a0000000000000000000000000000000000000000000000000000000008152600401610c8490611de7565b60405180910390fd5b5f60045f8381526020019081526020015f2090508383825f019182610cb3929190612009565b508383604051602001610cc7929190611c27565b60405160208183030381529060405280519060200120816001018190555033816005015f6101000a81548173ffffffffffffffffffffffffffffffffffffffff021916908373ffffffffffffffffffffffffffffffffffffffff1602179055506001816004015f3373ffffffffffffffffffffffffffffffffffffffff1673ffffffffffffffffffffffffffffffffffffffff1681526020019081526020015f2081905550601981600701819055504281600801819055505f8160090181905550600382908060018154018082558091505060019003905f5260205f20015f90919091909150557faee71d9492cd030b6aff4dbe33de0949b72c6aa0daacd8aef64bb8a683ca35d2848484604051610de19392919061214c565b60405180910390a150505050565b5f60011515610dfd84610ea8565b151514610e3f576040517f08c379a0000000000000000000000000000000000000000000000000000000008152600401610e3690611793565b60405180910390fd5b5f60045f8581526020019081526020015f2090505f816002015f8581526020019081526020015f20541115610e78576001915050610ea2565b5f816003015f8581526020019081526020015f20541115610e9d576001915050610ea2565b5f9150505b92915050565b5f805f90505b600380549050811015610efb578260038281548110610ed057610ecf61218f565b5b905f5260205f20015403610ee8576001915050610f00565b8080610ef3906121bc565b915050610eae565b505f90505b919050565b5f8060045f8481526020019081526020015f2090505f816009015403610f2e575f915050610f34565b60019150505b919050565b5f805f90505b600280549050811015610fd7578273ffffffffffffffffffffffffffffffffffffffff1660028281548110610f7757610f7661218f565b5b905f5260205f20015f9054906101000a900473ffffffffffffffffffffffffffffffffffffffff1673ffffffffffffffffffffffffffffffffffffffff1603610fc4576001915050610fdc565b8080610fcf906121bc565b915050610f3f565b505f90505b919050565b5f60011515610fef83610f39565b151514611031576040517f08c379a000000000000000000000000000000000000000000000000000000000815260040161102890611cf1565b60405180910390fd5b60015f8373ffffffffffffffffffffffffffffffffffffffff1673ffffffffffffffffffffffffffffffffffffffff1681526020019081526020015f20549050919050565b5f604051905090565b5f80fd5b5f80fd5b5f819050919050565b61109981611087565b81146110a3575f80fd5b50565b5f813590506110b481611090565b92915050565b5f819050919050565b6110cc816110ba565b81146110d6575f80fd5b50565b5f813590506110e7816110c3565b92915050565b5f80604083850312156111035761110261107f565b5b5f611110858286016110a6565b9250506020611121858286016110d9565b9150509250929050565b5f8115159050919050565b61113f8161112b565b82525050565b5f6020820190506111585f830184611136565b92915050565b5f80604083850312156111745761117361107f565b5b5f611181858286016110d9565b9250506020611192858286016110a6565b9150509250929050565b5f80fd5b5f80fd5b5f601f19601f8301169050919050565b7f4e487b71000000000000000000000000000000000000000000000000000000005f52604160045260245ffd5b6111ea826111a4565b810181811067ffffffffffffffff82111715611209576112086111b4565b5b80604052505050565b5f61121b611076565b905061122782826111e1565b919050565b5f67ffffffffffffffff821115611246576112456111b4565b5b61124f826111a4565b9050602081019050919050565b828183375f83830152505050565b5f61127c6112778461122c565b611212565b905082815260208101848484011115611298576112976111a0565b5b6112a384828561125c565b509392505050565b5f82601f8301126112bf576112be61119c565b5b81356112cf84826020860161126a565b91505092915050565b5f73ffffffffffffffffffffffffffffffffffffffff82169050919050565b5f611301826112d8565b9050919050565b611311816112f7565b811461131b575f80fd5b50565b5f8135905061132c81611308565b92915050565b5f805f606084860312156113495761134861107f565b5b5f611356868287016110a6565b935050602084013567ffffffffffffffff81111561137757611376611083565b5b611383868287016112ab565b92505060406113948682870161131e565b9150509250925092565b5f80fd5b5f80fd5b5f8083601f8401126113bb576113ba61119c565b5b8235905067ffffffffffffffff8111156113d8576113d761139e565b5b6020830191508360018202830111156113f4576113f36113a2565b5b9250929050565b5f805f604084860312156114125761141161107f565b5b5f84013567ffffffffffffffff81111561142f5761142e611083565b5b61143b868287016113a6565b9350935050602061144e868287016110a6565b9150509250925092565b5f806040838503121561146e5761146d61107f565b5b5f61147b8582860161131e565b925050602061148c858286016110a6565b9150509250929050565b5f80604083850312156114ac576114ab61107f565b5b5f6114b9858286016110a6565b92505060206114ca8582860161131e565b9150509250929050565b5f602082840312156114e9576114e861107f565b5b5f6114f6848285016110a6565b91505092915050565b611508816112f7565b82525050565b5f6020820190506115215f8301846114ff565b92915050565b61153081611087565b82525050565b5f6020820190506115495f830184611527565b92915050565b5f805f604084860312156115665761156561107f565b5b5f611573868287016110a6565b935050602084013567ffffffffffffffff81111561159457611593611083565b5b6115a0868287016113a6565b92509250509250925092565b7f4e487b71000000000000000000000000000000000000000000000000000000005f52601160045260245ffd5b5f6115e382611087565b91506115ee83611087565b9250828201905080821115611606576116056115ac565b5b92915050565b5f82825260208201905092915050565b7f45766964656e6365206173206265656e2061737369676e65642061206c6576655f8201527f6c00000000000000000000000000000000000000000000000000000000000000602082015250565b5f61167660218361160c565b91506116818261161c565b604082019050919050565b611695816110ba565b82525050565b5f6040820190508181035f8301526116b28161166a565b90506116c1602083018461168c565b92915050565b5f81519050919050565b5f81905092915050565b5f5b838110156116f85780820151818401526020810190506116dd565b5f8484015250505050565b5f61170d826116c7565b61171781856116d1565b93506117278185602086016116db565b80840191505092915050565b5f61173e8284611703565b915081905092915050565b7f4361736520646f6573206e6f74206578697374730000000000000000000000005f82015250565b5f61177d60148361160c565b915061178882611749565b602082019050919050565b5f6020820190508181035f8301526117aa81611771565b9050919050565b7f45766964656e63652065786973747300000000000000000000000000000000005f82015250565b5f6117e5600f8361160c565b91506117f0826117b1565b602082019050919050565b5f6020820190508181035f830152611812816117d9565b9050919050565b7f45766964656e636520686173206265656e2072656769737465726564206279005f82015250565b5f61184d601f8361160c565b915061185882611819565b602082019050919050565b5f6060820190508181035f83015261187a81611841565b9050611889602083018561168c565b61189660408301846114ff565b9392505050565b7f43617365206973207374696c6c206f70656e2e2043616e6e6f742064656c65745f8201527f652065766964656e636500000000000000000000000000000000000000000000602082015250565b5f6118f7602a8361160c565b91506119028261189d565b604082019050919050565b5f6020820190508181035f830152611924816118eb565b9050919050565b7f45766964656e636520646f6573206e6f742065786973747300000000000000005f82015250565b5f61195f60188361160c565b915061196a8261192b565b602082019050919050565b5f6020820190508181035f83015261198c81611953565b9050919050565b7f45766964656e6365206e6f742076616c696400000000000000000000000000005f82015250565b5f6119c760128361160c565b91506119d282611993565b602082019050919050565b5f6020820190508181035f8301526119f4816119bb565b9050919050565b7f45766964656e63652066726f6d204361736520686173206265656e2064656c655f8201527f7465640000000000000000000000000000000000000000000000000000000000602082015250565b5f611a5560238361160c565b9150611a60826119fb565b604082019050919050565b5f6060820190508181035f830152611a8281611a49565b9050611a916020830185611527565b611a9e604083018461168c565b9392505050565b7f496e76657374696761746f7220686173206265656e2072656d6f7665642066725f8201527f6f6d206361736500000000000000000000000000000000000000000000000000602082015250565b5f611aff60278361160c565b9150611b0a82611aa5565b604082019050919050565b5f6060820190508181035f830152611b2c81611af3565b9050611b3b60208301856114ff565b611b486040830184611527565b9392505050565b7f6f6e6c79204865616420496e76657374696761746f72206f66207265717565735f8201527f74656420636173652063616e2061737369676e20696e74656772697479206c6560208201527f76656c0000000000000000000000000000000000000000000000000000000000604082015250565b5f611bcf60438361160c565b9150611bda82611b4f565b606082019050919050565b5f6020820190508181035f830152611bfc81611bc3565b9050919050565b5f611c0e83856116d1565b9350611c1b83858461125c565b82840190509392505050565b5f611c33828486611c03565b91508190509392505050565b7f4c6576656c2061737369676e65640000000000000000000000000000000000005f82015250565b5f611c73600e8361160c565b9150611c7e82611c3f565b602082019050919050565b5f6020820190508181035f830152611ca081611c67565b9050919050565b7f55736572206973206e6f742072656769737465726564000000000000000000005f82015250565b5f611cdb60168361160c565b9150611ce682611ca7565b602082019050919050565b5f6020820190508181035f830152611d0881611ccf565b9050919050565b7f4361736520697320616c726561647920637265617465640000000000000000005f82015250565b5f611d4360178361160c565b9150611d4e82611d0f565b602082019050919050565b5f6020820190508181035f830152611d7081611d37565b9050919050565b7f4f6e6c79204865616420496e76657374696761746f722063616e2063726561745f8201527f6520636173657300000000000000000000000000000000000000000000000000602082015250565b5f611dd160278361160c565b9150611ddc82611d77565b604082019050919050565b5f6020820190508181035f830152611dfe81611dc5565b9050919050565b5f82905092915050565b7f4e487b71000000000000000000000000000000000000000000000000000000005f52602260045260245ffd5b5f6002820490506001821680611e5357607f821691505b602082108103611e6657611e65611e0f565b5b50919050565b5f819050815f5260205f209050919050565b5f6020601f8301049050919050565b5f82821b905092915050565b5f60088302611ec87fffffffffffffffffffffffffffffffffffffffffffffffffffffffffffffffff82611e8d565b611ed28683611e8d565b95508019841693508086168417925050509392505050565b5f819050919050565b5f611f0d611f08611f0384611087565b611eea565b611087565b9050919050565b5f819050919050565b611f2683611ef3565b611f3a611f3282611f14565b848454611e99565b825550505050565b5f90565b611f4e611f42565b611f59818484611f1d565b505050565b5b81811015611f7c57611f715f82611f46565b600181019050611f5f565b5050565b601f821115611fc157611f9281611e6c565b611f9b84611e7e565b81016020851015611faa578190505b611fbe611fb685611e7e565b830182611f5e565b50505b505050565b5f82821c905092915050565b5f611fe15f1984600802611fc6565b1980831691505092915050565b5f611ff98383611fd2565b9150826002028217905092915050565b6120138383611e05565b67ffffffffffffffff81111561202c5761202b6111b4565b5b6120368254611e3c565b612041828285611f80565b5f601f83116001811461206e575f841561205c578287013590505b6120668582611fee565b8655506120cd565b601f19841661207c86611e6c565b5f5b828110156120a35784890135825560018201915060208501945060208101905061207e565b868310156120c057848901356120bc601f891682611fd2565b8355505b6001600288020188555050505b50505050505050565b7f43617365205265676973746572656400000000000000000000000000000000005f82015250565b5f61210a600f8361160c565b9150612115826120d6565b602082019050919050565b5f61212b838561160c565b935061213883858461125c565b612141836111a4565b840190509392505050565b5f6060820190508181035f830152612163816120fe565b90508181036020830152612178818587612120565b90506121876040830184611527565b949350505050565b7f4e487b71000000000000000000000000000000000000000000000000000000005f52603260045260245ffd5b5f6121c682611087565b91507fffffffffffffffffffffffffffffffffffffffffffffffffffffffffffffffff82036121f8576121f76115ac565b5b60018201905091905056fea2646970667358221220d98a20f12e8392765404ebf678478ffd44019f6781822000c4fdccf2504958b864736f6c63430008150033",
  "immutableReferences": {},
  "source": "// SPDX-License-Identifier: MIT\r\npragma solidity ^0.8.17;\r\n\r\nimport \"./Case.sol\";\r\n\r\n///@title contract to register a fresh evidence not linked to any other evidence or supporting information to any other pre-existing evidence\r\n\r\ncontract Evidence is Case {\r\n    function _register_evidence(\r\n        string calldata evidence,\r\n        uint case_number\r\n    ) public payable {\r\n        // check authorization\r\n        register_evi(case_number, evidence, msg.sender);\r\n    }\r\n\r\n    function level_assignment(\r\n        string calldata evidence,\r\n        uint case_number\r\n    ) public payable {\r\n        require(\r\n            msg.sender == returnHI(case_number),\r\n            \"only Head Investigator of requested case can assign integrity level\"\r\n        );\r\n        assign_inl(case_number, evidence);\r\n    }\r\n}\r\n",
  "sourcePath": "D:\\Leveraging-Blockchain-for-Auditable-Access-Control\\contracts\\Evidence.sol",
  "compiler": {
    "name": "solc",
    "version": "0.8.21+commit.d9974bed.Emscripten.clang"
  },
  "schemaVersion": "3.4.16",
  "updatedAt": "2024-11-03T09:40:22.034Z",
  "devdoc": {
    "kind": "dev",
    "methods": {
      "createcase(string,uint256)": {
        "params": {
          "name": "Name of the Case File ; @param case_number Unique Number assigned to case"
        }
      },
      "is_authorized(address,uint256)": {
        "params": {
          "user": "address of user requesting access; @param number Unique Case Number"
        }
      },
      "register_evi(uint256,string,address)": {
        "params": {
          "case_num": "Unique case ID; @param ev information ; @param user address of requestor"
        }
      },
      "return_level(uint256,bytes32)": {
        "params": {
          "key": "unique identifier of evidence"
        }
      }
    },
    "title": "contract to register a fresh evidence not linked to any other evidence or supporting information to any other pre-existing evidence",
    "version": 1
  },
  "userdoc": {
    "kind": "user",
    "methods": {
      "add_investigator(address,uint256)": {
        "notice": "this introduces DAC, allows Head Investigator to modify access rights"
      },
      "createcase(string,uint256)": {
        "notice": "creates a case"
      },
      "delete_evidence(bytes32,uint256)": {
        "notice": "allows deletion of evidence"
      },
      "does_evidence_exists(uint256,bytes32)": {
        "notice": "checks whethere evidence exists"
      },
      "is_authorized(address,uint256)": {
        "notice": "returns whether an user is authorised to work on a case"
      },
      "is_level_assigned(uint256,bytes32)": {
        "notice": "checks whether level is assigned to evidence"
      },
      "register_evi(uint256,string,address)": {
        "notice": "allows user to register new information"
      },
      "remove_investigator(uint256,address)": {
        "notice": "DAC policy allows removal of an investigator from case"
      },
      "returnHI(uint256)": {
        "notice": "returns Head Investigator of a case"
      },
      "return_level(uint256,bytes32)": {
        "notice": "return level of integrity assigned to an evidence"
      },
      "setlevel(bytes32,uint256)": {
        "notice": "allows Head Investigator to assign integrity level to an evidence"
      }
    },
    "version": 1
  }
}