{
  "contractName": "Register",
  "abi": [
    {
      "anonymous": false,
      "inputs": [
        {
          "indexed": false,
          "internalType": "string",
          "name": "",
          "type": "string"
        },
        {
          "indexed": false,
          "internalType": "address",
          "name": "",
          "type": "address"
        },
        {
          "indexed": false,
          "internalType": "uint256",
          "name": "",
          "type": "uint256"
        }
      ],
      "name": "RegistrationDone",
      "type": "event"
    },
    {
      "inputs": [],
      "name": "register",
      "outputs": [
        {
          "internalType": "contract Register",
          "name": "",
          "type": "address"
        }
      ],
      "stateMutability": "view",
      "type": "function"
    },
    {
      "inputs": [
        {
          "internalType": "string",
          "name": "designation",
          "type": "string"
        }
      ],
      "name": "register_user",
      "outputs": [],
      "stateMutability": "nonpayable",
      "type": "function"
    }
  ],
  "bytecode": "0x608060405234801561000f575f80fd5b5060015f60405161001f906100cc565b90815260200160405180910390208190555060045f6040516100409061012a565b90815260200160405180910390208190555060075f60405161006190610188565b90815260200160405180910390208190555061019c565b5f81905092915050565b7f4865616420496e76657374696761746f720000000000000000000000000000005f82015250565b5f6100b6601183610078565b91506100c182610082565b601182019050919050565b5f6100d6826100aa565b9150819050919050565b7f4c65616420496e76657374696761746f720000000000000000000000000000005f82015250565b5f610114601183610078565b915061011f826100e0565b601182019050919050565b5f61013482610108565b9150819050919050565b7f5465616d20496e76657374696761746f720000000000000000000000000000005f82015250565b5f610172601183610078565b915061017d8261013e565b601182019050919050565b5f61019282610166565b9150819050919050565b610744806101a95f395ff3fe608060405234801561000f575f80fd5b5060043610610034575f3560e01c80631aa3a00814610038578063d014fe4014610056575b5f80fd5b610040610072565b60405161004d91906103b0565b60405180910390f35b610070600480360381019061006b9190610432565b610097565b005b60035f9054906101000a900473ffffffffffffffffffffffffffffffffffffffff1681565b6100a28282336100a6565b5050565b5f15156100b282610265565b1515146100f4576040517f08c379a00000000000000000000000000000000000000000000000000000000081526004016100eb906104d7565b60405180910390fd5b5f6100ff848461030d565b1161013f576040517f08c379a00000000000000000000000000000000000000000000000000000000081526004016101369061053f565b60405180910390fd5b610149838361030d565b60015f8373ffffffffffffffffffffffffffffffffffffffff1673ffffffffffffffffffffffffffffffffffffffff1681526020019081526020015f2081905550600281908060018154018082558091505060019003905f5260205f20015f9091909190916101000a81548173ffffffffffffffffffffffffffffffffffffffff021916908373ffffffffffffffffffffffffffffffffffffffff1602179055507f9c0eb221526fb70b62525801ad417c3ba7a71a0f5dbae6cb7e9f6d64f776f85d8160015f8473ffffffffffffffffffffffffffffffffffffffff1673ffffffffffffffffffffffffffffffffffffffff1681526020019081526020015f20546040516102589291906105df565b60405180910390a1505050565b5f805f90505b600280549050811015610303578273ffffffffffffffffffffffffffffffffffffffff16600282815481106102a3576102a2610619565b5b905f5260205f20015f9054906101000a900473ffffffffffffffffffffffffffffffffffffffff1673ffffffffffffffffffffffffffffffffffffffff16036102f0576001915050610308565b80806102fb90610673565b91505061026b565b505f90505b919050565b5f80838360405161031f9291906106f6565b908152602001604051809103902054905092915050565b5f73ffffffffffffffffffffffffffffffffffffffff82169050919050565b5f819050919050565b5f61037861037361036e84610336565b610355565b610336565b9050919050565b5f6103898261035e565b9050919050565b5f61039a8261037f565b9050919050565b6103aa81610390565b82525050565b5f6020820190506103c35f8301846103a1565b92915050565b5f80fd5b5f80fd5b5f80fd5b5f80fd5b5f80fd5b5f8083601f8401126103f2576103f16103d1565b5b8235905067ffffffffffffffff81111561040f5761040e6103d5565b5b60208301915083600182028301111561042b5761042a6103d9565b5b9250929050565b5f8060208385031215610448576104476103c9565b5b5f83013567ffffffffffffffff811115610465576104646103cd565b5b610471858286016103dd565b92509250509250929050565b5f82825260208201905092915050565b7f5573657220416c726561647920526567697374657265640000000000000000005f82015250565b5f6104c160178361047d565b91506104cc8261048d565b602082019050919050565b5f6020820190508181035f8301526104ee816104b5565b9050919050565b7f496e76616c69642064657369676e6174696f6e000000000000000000000000005f82015250565b5f61052960138361047d565b9150610534826104f5565b602082019050919050565b5f6020820190508181035f8301526105568161051d565b9050919050565b7f205573657220526567697374726174696f6e20436f6d706c65746564000000005f82015250565b5f610591601c8361047d565b915061059c8261055d565b602082019050919050565b5f6105b182610336565b9050919050565b6105c1816105a7565b82525050565b5f819050919050565b6105d9816105c7565b82525050565b5f6060820190508181035f8301526105f681610585565b905061060560208301856105b8565b61061260408301846105d0565b9392505050565b7f4e487b71000000000000000000000000000000000000000000000000000000005f52603260045260245ffd5b7f4e487b71000000000000000000000000000000000000000000000000000000005f52601160045260245ffd5b5f61067d826105c7565b91507fffffffffffffffffffffffffffffffffffffffffffffffffffffffffffffffff82036106af576106ae610646565b5b600182019050919050565b5f81905092915050565b828183375f83830152505050565b5f6106dd83856106ba565b93506106ea8385846106c4565b82840190509392505050565b5f6107028284866106d2565b9150819050939250505056fea2646970667358221220c257a7399e15728b1a9accbc0208d42521a5580b1f6a9330307658c1fc11de2264736f6c63430008150033",
  "immutableReferences": {},
  "source": "// SPDX-License-Identifier: MIT\r\npragma solidity ^0.8.17;\r\n\r\nimport \"./AssignRole.sol\";\r\n\r\ncontract Register is AssignRole{\r\n    \r\n    function register_user(string calldata designation) public {  \r\n        setRole(designation, msg.sender);\r\n    }\r\n    Register public register;\r\n}",
  "sourcePath": "D:\\Leveraging-Blockchain-for-Auditable-Access-Control\\contracts\\Register.sol",
  "compiler": {
    "name": "solc",
    "version": "0.8.21+commit.d9974bed.Emscripten.clang"
  },
  "schemaVersion": "3.4.16",
  "updatedAt": "2024-11-03T09:40:22.040Z",
  "devdoc": {
    "kind": "dev",
    "methods": {},
    "version": 1
  },
  "userdoc": {
    "kind": "user",
    "methods": {},
    "version": 1
  }
}