{
  "contractName": "Register",
  "abi": [
    {
      "inputs": [
        {
          "internalType": "address",
          "name": "_roleContract",
          "type": "address"
        }
      ],
      "stateMutability": "nonpayable",
      "type": "constructor"
    },
    {
      "inputs": [],
      "name": "register",
      "outputs": [
        {
          "internalType": "contract Register",
          "name": "",
          "type": "address"
        }
      ],
      "stateMutability": "view",
      "type": "function"
    },
    {
      "inputs": [],
      "name": "roleContract",
      "outputs": [
        {
          "internalType": "contract AssignRole",
          "name": "",
          "type": "address"
        }
      ],
      "stateMutability": "view",
      "type": "function"
    },
    {
      "inputs": [
        {
          "internalType": "string",
          "name": "designation",
          "type": "string"
        }
      ],
      "name": "register_user",
      "outputs": [],
      "stateMutability": "nonpayable",
      "type": "function"
    }
  ],
  "bytecode": "0x608060405234801561000f575f80fd5b506040516105d73803806105d7833981810160405281019061003191906100d4565b805f806101000a81548173ffffffffffffffffffffffffffffffffffffffff021916908373ffffffffffffffffffffffffffffffffffffffff160217905550506100ff565b5f80fd5b5f73ffffffffffffffffffffffffffffffffffffffff82169050919050565b5f6100a38261007a565b9050919050565b6100b381610099565b81146100bd575f80fd5b50565b5f815190506100ce816100aa565b92915050565b5f602082840312156100e9576100e8610076565b5b5f6100f6848285016100c0565b91505092915050565b6104cb8061010c5f395ff3fe608060405234801561000f575f80fd5b506004361061003f575f3560e01c80631aa3a00814610043578063d014fe4014610061578063f89723b81461007d575b5f80fd5b61004b61009b565b60405161005891906101e7565b60405180910390f35b61007b6004803603810190610076919061034d565b6100c0565b005b61008561014a565b60405161009291906103b4565b60405180910390f35b60015f9054906101000a900473ffffffffffffffffffffffffffffffffffffffff1681565b5f8054906101000a900473ffffffffffffffffffffffffffffffffffffffff1673ffffffffffffffffffffffffffffffffffffffff1663cfde189082336040518363ffffffff1660e01b815260040161011a929190610467565b5f604051808303815f87803b158015610131575f80fd5b505af1158015610143573d5f803e3d5ffd5b5050505050565b5f8054906101000a900473ffffffffffffffffffffffffffffffffffffffff1681565b5f73ffffffffffffffffffffffffffffffffffffffff82169050919050565b5f819050919050565b5f6101af6101aa6101a58461016d565b61018c565b61016d565b9050919050565b5f6101c082610195565b9050919050565b5f6101d1826101b6565b9050919050565b6101e1816101c7565b82525050565b5f6020820190506101fa5f8301846101d8565b92915050565b5f604051905090565b5f80fd5b5f80fd5b5f80fd5b5f80fd5b5f601f19601f8301169050919050565b7f4e487b71000000000000000000000000000000000000000000000000000000005f52604160045260245ffd5b61025f82610219565b810181811067ffffffffffffffff8211171561027e5761027d610229565b5b80604052505050565b5f610290610200565b905061029c8282610256565b919050565b5f67ffffffffffffffff8211156102bb576102ba610229565b5b6102c482610219565b9050602081019050919050565b828183375f83830152505050565b5f6102f16102ec846102a1565b610287565b90508281526020810184848401111561030d5761030c610215565b5b6103188482856102d1565b509392505050565b5f82601f83011261033457610333610211565b5b81356103448482602086016102df565b91505092915050565b5f6020828403121561036257610361610209565b5b5f82013567ffffffffffffffff81111561037f5761037e61020d565b5b61038b84828501610320565b91505092915050565b5f61039e826101b6565b9050919050565b6103ae81610394565b82525050565b5f6020820190506103c75f8301846103a5565b92915050565b5f81519050919050565b5f82825260208201905092915050565b5f5b838110156104045780820151818401526020810190506103e9565b5f8484015250505050565b5f610419826103cd565b61042381856103d7565b93506104338185602086016103e7565b61043c81610219565b840191505092915050565b5f6104518261016d565b9050919050565b61046181610447565b82525050565b5f6040820190508181035f83015261047f818561040f565b905061048e6020830184610458565b939250505056fea26469706673582212202fb452b031781d92a8779ac24dc88f10b26658fe6b4f9f63bb1b8a040f0d7d9e64736f6c63430008150033",
  "immutableReferences": {},
  "source": "// SPDX-License-Identifier: MIT\r\npragma solidity ^0.8.17;\r\n\r\nimport \"./AssignRole.sol\";\r\n\r\ncontract Register{\r\n    AssignRole public roleContract;\r\n    \r\n    constructor (address _roleContract){\r\n        roleContract = AssignRole(_roleContract);\r\n    }\r\n    function register_user(string memory designation) public {  \r\n        roleContract.setRole(designation, msg.sender);\r\n    }\r\n    Register public register;\r\n}",
  "sourcePath": "C:\\Users\\Hp\\Desktop\\Leveraging-Blockchain-for-Auditable-Access-Control\\contracts\\Register.sol",
  "compiler": {
    "name": "solc",
    "version": "0.8.21+commit.d9974bed.Emscripten.clang"
  },
  "schemaVersion": "3.4.16",
  "updatedAt": "2024-10-26T15:27:34.156Z",
  "devdoc": {
    "kind": "dev",
    "methods": {},
    "version": 1
  },
  "userdoc": {
    "kind": "user",
    "methods": {},
    "version": 1
  }
}